:020000040000FA
:06000000FDEF3BF01200D1
:060008006BEF32F0120064
:060018005EEF1DF0120076
:06002A00080082780000CE
:10003000FF010000010000004C7800008D0200006C
:100040003600000046780000F902000006000000BB
:10005000447800004C0300000200000037780000E4
:10006000B30500000D0000003378000046030000D7
:100070000400000028780000290300000B000000A5
:0C008000267800004A0300000200000087
:04008C0005012551F4
:10009000CCEC12F01EEC16F0EECF62F2EFCF63F272
:1000A0000201230E625F000E635B74EC19F0F3CF64
:1000B00083F4F4CF84F4230E69EC14F0020E706F15
:1000C000050E716F21EC1BF083C462F284C463F2ED
:1000D00074EF19F005012651CCEC12F01EEC16F06D
:1000E000EECF60F2EFCF61F20201230E605F000EEF
:1000F000615B63EC19F0F3CF83F4F4CF84F4230E47
:100100006EEC14F0020E756F050E766F60EC1BF04E
:1001100083C460F284C461F263EF19F00401006BE0
:1001200000C414F06EEC12F067E200511A0DF3CF28
:1001300001F4F4CF02F4000E0127010E0223F7ECC4
:1001400012F036EC16F00A0EEF6E00C414F0156AC9
:10015000166A176AB50E0B6E010E0C6E0D6A0E6AEA
:1001600000C406F015C007F016C008F017C009F06B
:1001700060EC3BF002C014F003C015F0820E1426B0
:10018000120E1522F7EC12F0020E14C0EBFF030E54
:10019000D7EC15F003EC16F0CCEC14F0142A152271
:1001A000F7EC12F0040E14C0EBFF050ED7EC15F0BF
:1001B000F6EC15F0CCEC14F0F7EC12F0060E14C0CF
:1001C000EBFF070ED7EC15F0E7EC14F0EF9018EC0E
:1001D00016F0EF9218EC16F0EF9418EC16F0EF967C
:1001E00018EC16F0EF9818EC16F0EF9A18EC16F0E1
:1001F000EF9C0401002B94D715EC15F006C0E6FF28
:1002000007C0E6FF25EC37F0E552E5521200040185
:10021000006B00C414F06EEC12F046E200511A0DAF
:10022000F3CF01F4F4CF02F4000E0127010E0223F4
:10023000FCEC12F0180EEB500A0834E1FCEC12F062
:10024000E7EC14F0EF80FCEC12F036EC16F0EF6AFD
:10025000FCEC12F027C5EEFF28C5EDFF80EC16F090
:10026000B6EC13F080EC16F0E9EC12F084EC16F02A
:10027000F0EC12F084EC16F054EC13F00501216957
:10028000226927C50EF528C50FF5FCEC12F0020E09
:1002900046EC15F09CEC12F000C426F51BDF0401BF
:1002A00000511200002BB5D7FE0C29C525F5EEDE56
:1002B0000A0EE66EE66A020EE66E050EE66E2A0E7F
:1002C000E66E050ED4EC13F00CC534F50DC535F50E
:1002D0002A0E146E050E25EF13F00401086B08C4F6
:1002E00014F06EEC12F001E3A0D008511A0DF3CF18
:1002F00009F4F4CF0AF4000E0927010E0A23DBECFF
:1003000012F0180EEB500A0802E0082BE8D7230E73
:10031000E66EE66AE66A020EE66E050EE66E0EEC24
:1003200034F0146E050EE15E0501000E005D040E52
:10033000015906E3880ED8800055130E015503E2DB
:10034000006B040E016F2169226900C50EF501C51D
:100350000FF5002B000E012338C50CF539C50DF53E
:100360000A0EE66EE66A36C5E6FF37C5E6FF020E00
:10037000E66E050ED4EC13F09CEC12F005011C6B3C
:1003800067EC15F0DBEC12F0020E46EC15F088EC91
:1003900016F0E9EC12F088EC16F0B6EC13F08CECE9
:1003A00016F054EC13F08CEC16F0F0EC12F0A5EC17
:1003B00015F0020EDBEC15F0A5EC15F01A50EE244A
:1003C000186E1B50EE20196E18503825166E1950F5
:1003D0003921176E16500E19146E17500F19156E1D
:1003E000DBEC12F014C0EEFF15C0EDFFDBEC12F0F9
:1003F00036EC16F0010E21EC13F0ABEC15F0DBEC53
:1004000012F011EC15F0DBEC12F0E7EC14F0EF82D7
:1004100008C426F55FDE0501020E7A6F08C479F57F
:10042000EAEC0AF0040108511200FE0C05013A51F1
:10043000CCEC12F036EC16F0EF50030801E0000CA3
:10044000010C05013B511A0DF3CFCDF4F4CFCEF4DE
:10045000000E0401CD27010ECE233BC525F516DE87
:100460002CEC14F0180EEB50080A0FE00A0A09E011
:10047000010A07E0020A18E13BC581F52EEC0EF0F7
:1004800013D02EEC15F0040E03D02EEC15F0090E4F
:10049000EF6E31EC12F02CEC14F011EC15F02CECAA
:1004A00014F0E7EC14F0EF823BC526F56AEF00F09C
:1004B00005013C511A0DF3CFECF4F4CFEDF4000E2E
:1004C0000401EC27010EED233CC525F5DFDDCEEC64
:1004D00014F0080EE4EC14F005011051141802E1B8
:1004E0001151151812E00501180E7A6F3CC579F507
:1004F000EAEC0AF031EC12F0CEEC14F011EC15F04D
:10050000CEEC14F0E7EC14F0EF823CC526F56AEF70
:1005100000F005013D511A0DF3CF83F4F4CF84F4BC
:10052000000E04018327010E84232AEC13F0180E19
:10053000EB50030809E02AEC13F0180EEB50080802
:1005400003E0F36AF46A12002AEC13F0080EE4ECFC
:1005500014F02AEC13F00A0EF3EC15F021E32AEC68
:1005600013F066EC16F02AEC13F01EEC16F05BECC0
:1005700013F01606000E175A2AEC13F0080EC5ECFD
:1005800015F02AEC13F04CEC16F096EC14F01A501F
:10059000165C146E1B50175814C0F3FFF46E120053
:1005A0002AEC13F00A0EEAEC14F02AEC13F0080E11
:1005B00005EC15F01406000E155A14C0F3FF15C013
:1005C000F4FF120005013E511A0DF3CFDBF4F4CF16
:1005D000DCF4000E0401DB27010EDC233EC53DF5F3
:1005E00098DFF3CFDDF4F4CFDEF40401F350F41020
:1005F00001E1000C010EDD1904E1DE5102E1D3EC52
:1006000014F006EC13F0F0EC15F0200B15E106ECFD
:1006100013F0A5EC16F006EC13F027EC16F004012D
:10062000DD51145CDE51155807E3D3EC14F006ECF1
:1006300013F0E7EC14F0EF8A06EC13F040EC15F041
:100640003FC574F255EC1BF006EC13F021EC16F0EC
:100650009DEC14F006EC13F0040EF3EC15F008E337
:1006600006EC13F003EC16F006EC13F0E9EC12F0D4
:100670000401010EDD1904E1DE5102E1D3EC14F0B6
:1006800006EC13F0F0EC15F0040B08E106EC13F0A7
:1006900033EC16F006EC13F068EC13F0010C0401D7
:1006A000DF6BE06B050140511A0DF3CFE1F4F4CF9D
:1006B000E2F4000E0401E127010EE22340C53DF5FE
:1006C00028DFF3CFDDF4F4CFDEF40401F350F410AF
:1006D00005E1D7EC14F0F36AF46A1200DDC4DBF430
:1006E000DEC4DCF478EC14F004E243C5DBF444C56A
:1006F000DCF4B2EC12F0F0EC15F0200B15E1B2ECEA
:1007000012F0A5EC16F0B2EC12F027EC16F0040192
:10071000DD51145CDE51155807E3D7EC14F0B2EC50
:1007200012F0E7EC14F0EF8AB3EC15F0EE24146E3F
:10073000DC51EE20156EB2EC12F0040EF3EC15F065
:100740002CE3B2EC12F0F6EC15F0B2EC12F0080E5D
:100750009AEC15F0DF6FEE501558E06FB2EC12F026
:1007600040EC15F0DFC477F2E0C478F2A4EC14F0AA
:100770000401DF51050141270401E0510501422335
:100780000401DF51DB5FE051DC5BB2EC12F003EC03
:1007900016F0B2EC12F0E9EC12F0B2EC12F040EC10
:1007A00015F0DBC477F2DCC478F2A4EC14F0B3ECFF
:1007B00015F0EE26DC51ED2278EC14F002E3D7ECD4
:1007C00014F0B2EC12F0F0EC15F0040B08E1B2EC0E
:1007D00012F033EC16F0B2EC12F068EC13F00401F6
:1007E000DB51DF25146EDC51E02125EF13F004010D
:1007F000D16BD26B050145511A0DF3CFD3F4F4CF71
:10080000D4F4000E0401D327010ED42345C53DF5D1
:1008100080DEF3CFCFF4F4CFD0F40401F350F41022
:1008200005E1DBEC14F0F36AF46A1200B7EC12F0A5
:10083000F0EC15F0200B14E1B7EC12F0A5EC16F07B
:10084000B7EC12F027EC16F0CF51145CD0511558CC
:1008500007E3DBEC14F0B7EC12F0E7EC14F0EF8AEE
:10086000CFC4CDF4D0C4CEF4040180EC14F004E283
:1008700049C5CDF44AC5CEF4B8EC15F0EE24146E9B
:10088000CE51EE20156EB7EC12F0040EF3EC15F01D
:1008900030E3B7EC12F0F6EC15F0B7EC12F0080EFE
:1008A0009AEC15F0D16FEE501558D26FB7EC12F0EC
:1008B00040EC15F0D1C47CF2D2C47DF24FEC14F0C0
:1008C000D1C414F0D2C415F0166A1450050146279D
:1008D00015504723165048230401D151CD5FD25102
:1008E000CE5BB7EC12F003EC16F0B7EC12F0E9ECCB
:1008F00012F0B7EC12F040EC15F0CDC47CF2CEC48F
:100900007DF24FEC14F0B8EC15F0EE26CE51ED224E
:1009100080EC14F002E3DBEC14F0B7EC12F0F0EC36
:1009200015F0040B08E1B7EC12F033EC16F0B7EC5D
:1009300012F068EC13F00401CD51D125146ECE51A4
:10094000D22125EF13F04CC5E6FF4DC5E6FF3CEC88
:1009500034F0E552E552F3CF43F5F4CF44F54CC5FE
:1009600041F54DC542F54BC540F599DE05014C51A9
:10097000F324146E4D51F42025EF13F04FC5E6FF1C
:1009800050C5E6FF51C5E6FF4AEC34F0E552E552AA
:10099000E55207C049F508C04AF54FC546F550C5B0
:1009A00047F551C548F54EC545F521DF196A0501E2
:1009B0004F51F324146E5051F420156E51511920EB
:1009C000166E14C007F015C008F0096E120052C56B
:1009D00053F52FD8F3CF14F0F4CF15F0F350F410F3
:1009E00027E0050152511A0DF3CFCDF4F4CFCEF428
:1009F000000E0401CD27010ECE2352C525F546EC8D
:100A000000F0CDC4E9FFCEC4EAFF59EC16F0CDC426
:100A1000E9FFCEC4EAFFF0EC12F00501100E7A6F88
:100A200052C579F5EAEC0AF052C526F56AEC00F0F9
:100A30001200050153511A0DF3CF9BF4F4CF9CF42F
:100A4000000E04019B27010E9C2397EC13F059EC38
:100A500016F097EC13F00E0EF3EC15F00FE397EC95
:100A600013F00C0EEAEC14F097EC13F024EC16F0F3
:100A7000EE50165C146EEE5017581BD097EC13F026
:100A800046EC16F001EC13F097EC13F00E0E82EC2E
:100A900015F097EC13F00C0EC5EC15F097EC13F075
:100AA000EDEC15F096EC14F016501A24146E175055
:100AB0001B2025EF13F054C553F5BBDFF3CF0AF429
:100AC000F4CF0BF4F350F41001E1000C0501545184
:100AD0001A0DF3CF08F4F4CF09F4000E040108272F
:100AE000010E09239CEC13F024EC16F06FEC13F0CC
:100AF00010EC1BF055C5E9FF56C5EAFFEF6E9CEC04
:100B000013F024EC16F09DEC14F09CEC13F07DEC4B
:100B100016F075EC15F008E29CEC13F0F6EC15F00D
:100B20009CEC13F0F0EC12F00401010E0A190FE135
:100B30000B510DE154C525F594EC15F054C579F52C
:100B4000EAEC0AF054C526F56AEC00F0010C9CECC6
:100B500013F0F0EC15F0040B08E19CEC13F033EC0F
:100B600016F09CEC13F068EC13F0010C0401CF6B51
:100B7000D06B050157511A0DF3CFD1F4F4CFD2F455
:100B8000000E0401D127010ED22357C553F551DFC2
:100B9000F3CFCDF4F4CFCEF405015A510401F35C48
:100BA00005015B510401F45804E2CDC45AF5CEC4EA
:100BB0005BF543EC15F005015A51EE24146E5B51C0
:100BC000EE20156E0BEC13F07DEC16F075EC15F0C5
:100BD00037E20BEC13F05CEC16F043EC15F004017B
:100BE000EE50145CCF6FEE501558D06F010ECF272A
:100BF000000ED02343EC15F06FEC13F0CFC472F26B
:100C0000D0C473F2AAEC14F005015851591108E050
:100C10000401CF51050158270401D0510501592382
:100C20000401CF5105015A5F0401D05105015B5BFE
:100C30000BEC13F0F6EC15F00BEC13F0F0EC12F0FB
:100C400043EC15F06FEC13F05AC572F25BC573F20A
:100C5000AAEC14F043EC15F005015A51EE265B5155
:100C6000ED225A510401CD5D146ECE5105015B5544
:100C7000156E14505A5D15505B590DE357C525F597
:100C800094EC15F057C579F5EAEC0AF057C526F54E
:100C90006AEC00F00ED00BEC13F0F0EC15F0040B46
:100CA00008E10BEC13F033EC16F00BEC13F068ECEE
:100CB00013F005015A510401CF25146E05015B5153
:100CC0000401D02125EF13F005015C51CCEC12F0AA
:100CD0005CEC16F05C51CCEC12F0EDEC15F004017C
:100CE000EE50145C856FEE501558866F5CC553F559
:100CF000A0DEF3CF83F4F4CF84F40401F350855DD8
:100D0000146E8651F45425EF13F005016051611102
:100D100003E1F36AF46A12005D511A0DF3CF15F482
:100D2000F4CF16F4000E04011527010E16235DC53D
:100D300053F57FDEF3CF00F4F4CF01F405016051E9
:100D40006225146E61516321156E04011450F35C29
:100D50001550F45801E2F6D0E4EC13F024EC16F050
:100D600005016251EE240401046F05016351EE2078
:100D70000401056FE4EC13F05CEC16F00451145C14
:100D8000055115580CE2E4EC13F07DEC16F0E4ECA0
:100D900013F039EC16F01450045F1550055B04C4D1
:100DA00062F205C463F274EC19F0E4EC13F046EC63
:100DB00016F004010451EE5C026F0551EE58036F0A
:100DC000010E0227000E032362C504F463C505F477
:100DD00060C506F461C507F45EC508F45FC509F493
:100DE00005015EC5E9FF5FC5EAFF5E2B5F23EFCF1C
:100DF0000BF4645109E0610E04010B5D05E30B5136
:100E00007A0802E3E00E0B270401080E0C6FE8508D
:100E1000025D000E035902E202C40CF40C510501FC
:100E2000605D000E615902E260C50CF404010C51D2
:100E300069EC14F00D0E706F040E716F21EC1BF055
:100E400004010C5192EC14F0025F1550035B025147
:100E5000031109E1E4EC13F0EDEC15F06FEC13F085
:100E6000040102690369050164513FE004010A6B52
:100E70000C510A5D58E275EC13F0EFCF14F0610EDF
:100E8000145C0BE375EC13F0EF507A0806E3E00E08
:100E9000146E75EC13F01450EF2675EC13F0EF5050
:100EA0000B5D0DE1B0EC14F02DE031EC14F0610EAF
:100EB00004010B5D18E30B517A0815E312D03BECEB
:100EC00014F008C4E9FF09C4EAFF5E2B000E5F239B
:100ED000EFCF0BF4610E04010B5D05E30B517A08B3
:100EE00002E3E00E0B270A2BC3D704010A6B0C5157
:100EF0000A5D19E275EC13F0EF500B5D0DE1B0ECFB
:100F000014F00CE104010651045D166E05510755FD
:100F1000176E0A51A1EF13F03BEC14F031EC14F012
:100F200004010A2BE4D70C5192EC14F0005F155029
:100F3000015B050160510401005D0501615104017F
:100F4000015903E2F368F46812000C5192EC14F0BA
:100F500004271550052358D7050169516A1103E18B
:100F6000F36AF46A120065511A0DF3CF99F4F4CFC5
:100F70009AF4000E04019927010E9A2365C553F5D2
:100F800058DDF3CF83F4F4CF84F4050169516B2568
:100F9000146E6A516C21156E04011450F35C1550E7
:100FA000F45801E2FBD0E9EC13F024EC16F0050153
:100FB0006B51EE240401876F05016C51EE20040192
:100FC000886FE9EC13F05CEC16F08751145C8851E3
:100FD00015580CE2E9EC13F07DEC16F0E9EC13F097
:100FE00039EC16F01450875F1550885B87C462F2A5
:100FF00088C463F274EC19F0E9EC13F046EC16F0D7
:1010000004018751EE5C856F8851EE58866F010EA2
:101010008527000E86236BC587F46CC588F469C5E7
:1010200089F46AC58AF466C58BF467C58CF468C513
:101030008DF4050166C5F6FF662B67C5F7FFBDECAD
:1010400015F06D5109E0610E04018F5D05E38F51CC
:101050007A0802E3E00E8F270401080E906FE85033
:10106000855D000E865902E285C490F49051050119
:10107000695D000E6A5902E269C590F4040190515D
:1010800069EC14F0910E706F040E716F21EC1BF07F
:101090000401905192EC14F0855F1550865B8551E8
:1010A000861109E1E9EC13F0EDEC15F06FEC13F0AB
:1010B00004018569866905016D5143E004018E6B69
:1010C00090518E5D5CE27CEC13F0EFCF14F0610E7A
:1010D000145C0BE37CEC13F0EF507A0806E3E00EAF
:1010E000146E7CEC13F01450EF267CEC13F0EF50F0
:1010F0008F5D0DE1B7EC14F031E0C7EC13F0610E39
:1011000004018F5D1CE38F517A0819E316D0EEECD1
:1011100013F08BC4F6FF662B8CC4F7FF000E672319
:101120008DC4F8FF68230800F5CF8FF4610E040129
:101130008F5D05E38F517A0802E3E00E8F278E2B37
:10114000BFD704018E6B90518E5D19E27CEC13F0D9
:10115000EF508F5D0DE1B7EC14F00CE10401895103
:10116000875D166E88518A55176E8E51A1EF13F068
:10117000EEEC13F0C7EC13F004018E2BE4D7905182
:1011800092EC14F0835F1550845B050169510401F2
:10119000835D05016A510401845903E2F368F46830
:1011A0001200905192EC14F087271550882354D7E1
:1011B00072C564F570C562F571C563F5010E050170
:1011C000606F616B05016F0E5E6F050E5F6F6EC520
:1011D0005DF585EF06F00401006B00C414F06EECC1
:1011E00012F001E356D100511A0DF3CF01F4F4CF00
:1011F00002F4000E0127010E0223036B62EC16F0CD
:10120000400B06E079EC17F0000902E090EC12F0D8
:1012100062EC16F0040B12E04CEC12F0140EEAEC47
:1012200014F02FEC13F004E214500008000E1554D3
:1012300005E30401035102E190EC12F062EC16F0B8
:10124000080B12E04CEC12F0160EEAEC14F02FEC46
:1012500013F004E214500008000E155405E30401D5
:10126000035102E190EC12F062EC16F0020B01E186
:101270000DD14CEC12F0100E2DEC12F0EECF18F058
:10128000EECF19F073EC14F018C0E6FF19C0E6FFBA
:101290001AC0E6FF1BC0E6FFA2EC3BF0E552E7CF29
:1012A0001BF0E552E7CF1AF0E552E7CF19F0E5520F
:1012B000E7CF18F000011850065C146E195007585B
:1012C000156E1A500858166E1B500958176E800E6E
:1012D000171401E0DBD00401035104E100C425F53B
:1012E00046EC00F005011C2BD8901D371E371F3728
:1012F0002037A2EC3BF0065005011D25146E075067
:101300001E21156E08501F21166E09502021176EE0
:101310004CEC12F011EC15F04CEC12F0180EEB50F6
:10132000090A01E19ED0010A01E182D00F0A01E120
:10133000A6D0010A6CE0030A01E19CD0010A50E04A
:10134000070A1EE0010A04E0030A01E09BD013D063
:101350001C51050803E30501120E88D062EC16F05B
:10136000010B03E00501040E87D04CEC12F036ECC3
:1013700016F0010EEF6E88EC14F00501020E76D027
:101380004CEC12F00A0EE4EC14F01450101902E1C7
:101390001550111901E176D01C51050816E31CEC1B
:1013A00015F015AE02D016681768E7EC15F008E2E4
:1013B000F2EC14F015AE02D01668176882EC12F049
:1013C0003DEC16F00501180E51D011EC14F04CEC68
:1013D00012F036EC16F0040EEF6E88EC14F044D0E8
:1013E0001C51050847E31CEC15F015AE02D0166839
:1013F0001768E7EC15F008E2F2EC14F015AE02D035
:101400001668176882EC12F03DEC16F02DD01C51D6
:10141000050830E31CEC15F015AE02D0166817680D
:10142000E7EC15F019E2F2EC14F015AE13D010D081
:101430001C5105081FE31CEC15F015AE02D0166810
:101440001768E7EC15F008E2F2EC14F015AE02D0E4
:101450001668176882EC12F03DEC16F00501100ECC
:1014600005D01C51050806E30501110E7A6FDEEC6C
:1014700015F008D00501140E7A6FDEEC15F000C4EB
:1014800081F5ECDB00C426F56AEC00F00401002BCA
:10149000A4D6120073C5E9FF74C5EAFF46EC16F046
:1014A000EECF14F4EECF15F4EECF16F4EFCF17F421
:1014B00075C5E9FF76C5EAFFEECF18F4EECF19F453
:1014C000EECF1AF4EFCF1BF404011C6B060E1D6F58
:1014D00077C51EF478C51FF477C5EFF278C5F0F232
:1014E000FEEC2DF0F3CF1EF4F4CF1FF40C0E02012E
:1014F000F76FF86B0201140EF56F040EF66F19EC1E
:101500002EF0F3CF21F4F4CF22F40401211F221F87
:1015100077C568F278C569F2B7EC19F0F3CF23F418
:10152000F4CF24F40401F350211951E1245122197C
:101530004EE103010E6B0F6B24EC38F0140E69ECD6
:1015400014F0000E706F040E716F21EC1BF005019A
:10155000000E7F6F040E806F42DB04010C51DCEC47
:1015600013F0146E156A140E145E000E155A14C092
:1015700025F41450146E156AE8500501775D776FF5
:1015800015507859786F140E775F000E785B73C52D
:101590007DF574C57EF50501000E7B6F040E7C6F32
:1015A0005ADA0401206FFE0E205D11E077C585F543
:1015B00078C586F50501000E836F040E846F20C484
:1015C00082F598DB20C426F56AEC00F0010C80EC73
:1015D00017F0010C050179511A0DF3CF83F4F4CF04
:1015E00084F4000E04018327010E84231BEC16F003
:1015F000EF941BEC16F0EF9C1BEC16F0EF961BEC37
:1016000016F0EF9879EC17F00009FCE005017AB3C9
:101610000BD047EC12F0080EE4EC14F01051141843
:1016200007E11151151804E10401AB6BAC6BC9D093
:1016300047EC12F0080EE4EC14F083EC13F02CE20B
:1016400047EC12F021EC16F01051EE5C0401AB6F88
:1016500005011151EE58040106EC16F003E35FECAE
:1016600015F002D008EC15F017EC14F004E2ADC44C
:10167000ABF4AEC4ACF4400ED880AB55020EAC5502
:1016800002E269EC16F0ABC46EF2ACC46FF206EC89
:1016900014F057EC14F095D047EC12F0EDEC15F087
:1016A0001051EE5C0401A96F05011151EE580401BF
:1016B000AA6F47EC12F021EC16F0A951EE24146E3B
:1016C000AA51EE20156E47EC12F0020E9AEC15F0BE
:1016D000AB6FEE50155806EC16F003E35FEC15F017
:1016E00002D008EC15F017EC14F004E2ADC4ABF432
:1016F000AEC4ACF4400ED880AB55020EAC5502E23D
:1017000069EC16F0A951AD5DAA51AE5904E2ADC421
:10171000A9F4AEC4AAF4400ED880A955020EAA5569
:1017200004E2400EA96F020EAA6FA9C46EF2AAC409
:101730006FF206EC14F00401A951AB5DA96FAA5138
:10174000AC59AA6FA951AA1126E0A9C46EF2AAC485
:101750006FF247EC12F01EEC16F0EECF6CF2EDCF0C
:101760006DF247EC12F0EDEC15F005011051EE5C56
:10177000146E1151EE58156E166A176AA40E1426CF
:101780000C0E1522000E1622172214C06AF215C084
:101790006BF245EC1AF057EC14F047EC12F0F6EC53
:1017A00015F083EC13F00DE347EC12F0A5EC16F006
:1017B00047EC12F0020E05EC15F01450105F1550B6
:1017C000115B0EC587F40FC588F40CC589F40DC5EF
:1017D0008AF4030E05017A1509E060EC14F00401A7
:1017E0008B07000E8C5B8D5B8E5B02D060EC14F07F
:1017F00018C58FF419C590F41AC591F41BC592F45D
:101800000401949D949F93919393939593977AC594
:1018100094F4996B9A6BAB51050114270401AC51F8
:1018200005011523000E1623172347EC12F059EC7F
:1018300016F047EC12F00E0EF3EC15F01CE347EC3B
:1018400012F07DEC16F047EC12F0040E05EC15F0EA
:1018500047EC12F00C0EDBEC15F047EC12F024EC28
:1018600016F0BEEC14F004011850145C956F19507A
:101870001558966F15D047EC12F00E0EE4EC14F0EC
:1018800047EC12F00C0E2DEC12F00401EE50145C3B
:10189000956FEE501558966F010E955F000E965B92
:1018A000A9EC17F0F3CF85F4F4CF86F40401400ED1
:1018B000855F000E865B800E861502E0856B866B69
:1018C0009551855D9651865909E2D00E855D070ECA
:1018D000865904E285C495F486C496F40501870E02
:1018E0007F6F040E806F7BD9140E0401AB27000EAE
:1018F000AC239389939B938D939F05017AA326D064
:10190000040E0401AB27000EAC23020E9B6F040EE5
:101910009C6F020E9D6F400E9E6F010E146E930E13
:10192000E96E040EEA6EEF50F00BE842E842E8423E
:10193000E84214240F0BF36EF46EF346F346F346BD
:10194000F3460F0EEF14F310EF6EF45080C09FF4C7
:1019500081C0A0F482C0A1F483C0A2F408C5A3F49E
:1019600009C5A4F40AC5A5F40BC5A6F40401A76B28
:10197000060EA86FABC4A9F4ACC4AAF4ABC4EFF2D2
:10198000ACC4F0F2FEEC2DF0F3CFA9F4F4CFAAF43E
:101990000C0E0201F76FF86B02019F0EF56F040E3B
:1019A000F66F19EC2EF0F3CF97F4F4CF98F404010E
:1019B000971F981F02017C0E606F0C0E616F63EC25
:1019C00019F0ABC40CF3ACC40DF30301060E0B6F9E
:1019D0000301020E096F050E0A6FB1EC37F0140E09
:1019E0006EEC14F0870E756F040E766F60EC1BF0D2
:1019F00005017AA309D0040E6EEC14F09B0E756FEE
:101A0000040E766F60EC1BF00201900E626F0C0EFC
:101A1000636F74EC19F0ABC468F2ACC469F2B7EC54
:101A200019F0F3CF85F4F4CF86F40201A00E606FB5
:101A30000C0E616F63EC19F0020E6EEC14F0850E63
:101A4000756F040E766F60EC1BF00AEC1BF000095A
:101A5000FCE0EBEF18F00401FE0E296F49EC15F0E5
:101A60001EEC16F001EC13F049EC15F01850EE24C2
:101A7000166E1950EE20176EC2EC13F0C5EC14F080
:101A8000C2EC13F01EEC16F01450EE182A6F15502D
:101A9000EE182B6F286B28C414F06EEC12F05BE28A
:101AA000285154EC15F0180EEB500A0851E0D6EC12
:101AB00012F0180EEB50000913E1D6EC12F038ECDE
:101AC00012F0C2EC13F0020EEAEC14F01650000112
:101AD00014183EE1175015183BE128C429F438D0FA
:101AE000D6EC12F038EC12F02A510001141830E153
:101AF00004012B51000115182BE128C425F546ECF3
:101B000000F0C2EC13F003EC16F005010E511418AE
:101B10001FE10F5115181CE1C2EC13F051EC12F04B
:101B20000C51161815E10D51171812E149EC15F07A
:101B3000EE5008190DE1EE5009190AE1EE500A19AC
:101B400007E1EE500B1904E103E1040128511200F2
:101B50000401282BA0D7FE0E295D01E1FE0C2951BE
:101B600054EC15F02AC4EEFF2BC4EDFF90EC16F0F8
:101B7000E9EC12F090EC16F0B6EC13F094EC16F0E1
:101B800054EC13F094EC16F0F0EC12F0D6EC12F0EA
:101B9000E7EC14F0EF920A0EE66EE66A7DC5E6FF0A
:101BA0007EC5E6FF020EE66E050ED4EC13F0C2EC25
:101BB00013F0EECF0CF5EDCF0DF5C2EC13F01EECEB
:101BC00016F0EECF0EF5EDCF0FF59CEC12F0D6EC43
:101BD00012F0020E46EC15F00401295112004FECF0
:101BE00015F056EC12F0F3CFEEFF15C0EDFF4FEC01
:101BF00015F0020E9EEC15F0020EF3CFEBFF030E74
:101C000028EC14F0EDEC15F010EC13F0EDEC15F001
:101C1000CFEC13F021EC16F010EC13F021EC16F0E1
:101C2000CFEC13F00E0E9EEC15F00E0EF3CFEBFF83
:101C30000F0E28EC14F0100E9EEC15F0100EF3CFE2
:101C4000EBFF110E28EC14F0120E9EEC15F0120EA4
:101C5000F3CFEBFF130E15C0EBFF1200050181510E
:101C60001A0DF3CF83F4F4CF84F4000E040183271C
:101C7000010E84238BEC12F0F0EC15F0010B02E066
:101C8000000E01D00A0EE66E8BEC12F036EC16F068
:101C9000E552E750EF6E5FEC16F0EF925FEC16F056
:101CA000EF945FEC16F0EF965FEC16F0EF985FECB8
:101CB00016F0EF9A5FEC16F0EF9C8BEC12F00EC56D
:101CC000EEFF0FC5EDFF98EC16F0B6EC13F098ECB4
:101CD00016F0E9EC12F09DEC16F0F0EC12F09DEC31
:101CE00016F054EC13F08BEC12F0020E46EC15F0EB
:101CF0009CEF12F0050182511A0DF3CF34F4F4CFAA
:101D000035F4000E04013427010E3523366BEDEC5B
:101D100014F0040B07E08BEC14F082C581F59EDF14
:101D200080EF17F005011251131109E1CBDB24EC10
:101D300016F0EE50ED1003E000EC16F0EF8CC2DB75
:101D400024EC16F0EECF12F5EDCF13F5A1EC15F063
:101D5000070A01E113D10E0A01E1FCD0010A01E1F9
:101D6000F6D00E0A01E1D6D0030A01E1CCD0010A77
:101D700001E188D0070A61E0010A46E0030A10E0A9
:101D8000010A01E0FED0EDEC14F0020B03E18BEC54
:101D900014F0F0D011EC16F000EC16F0EF8223D026
:101DA000EDEC14F0020B01E1ECD049EC16F019E077
:101DB000FBEC14F001E0E2D0EE50151901E0DED0AA
:101DC000EE50161901E0DAD0EE50171901E0D6D026
:101DD00001E0D4D00401100E366F70EC16F0CCDBAD
:101DE00002D011EC16F06EDBEDEC15F0EECF18F52D
:101DF000EECF19F5EECF1AF5EFCF1BF50501182B35
:101E000019231A231B23BDD049EC16F001E1B9D0E8
:101E1000FBEC14F001E0B5D0EE50151901E0B1D0A3
:101E2000EE50161901E0ADD0EE50171901E0A9D01F
:101E300001E0A7D070EC16F088D09EDBEDEC14F03A
:101E4000010B01E19ED00501182B000E19231A2366
:101E50001B23855186110AE10401110E366F05011D
:101E600011EC14F0F8EC14F0090E06D00401100E79
:101E7000366FF8EC14F0080E76EC16F000EC16F065
:101E8000EF827FD0EDEC14F0010B17E049EC16F077
:101E900014E0FBEC14F011E1EE5015190EE1EE50D8
:101EA00016190BE1EE50171908E107E1ADEC13F03C
:101EB000F8EC14F0070EC5DB20D049EC16F012E068
:101EC000FBEC14F00FE1EE5015190CE1EE50161971
:101ED00009E1EE50171906E105E1F8EC14F0050EE2
:101EE000EF6E33D0EDEC14F0010B2FE0ADEC13F0FE
:101EF000F8EC14F0060EEF6EB4DABFDA100EADDABD
:101F000014C0EEFF20D0EDEC14F0010B1EE0ADECA0
:101F100013F010D049EC16F018E0FBEC14F015E1CA
:101F2000EE50151912E1EE5016190FE1EE50171987
:101F30000CE10BE1F8EC14F0070E83DB9EDA100ED7
:101F40008CDA06C0EEFF6EEC15F016DB1AD0040139
:101F5000100E16D049EC16F014E0FBEC14F011E171
:101F6000EE5015190EE1EE5016190BE1EE5017194F
:101F700008E107E182C581F571DE03D00401040E9A
:101F8000366F49EC16F001E189D0A1EC15F00A0892
:101F900001E184D0A1EC15F0000901E17FD06DDAF8
:101FA0004CEC16F005010CDB15AE02D01668176874
:101FB000140EE96E050EEA6E1450EE5C0401266FF5
:101FC0001550EE58276F1650EE58286F1750EE58E0
:101FD000296F41EC16F0050196DB0BE23AEC15F0A7
:101FE00014500401265F1550275B1650285B1750CC
:101FF000295B68DA21EC16F004012651EE5C266FAD
:102000002751EE58276F2851EE58286F2951EE5866
:10201000296FE834000E291909E6D880000E2655EC
:10202000000E2755000E2855000E295537E23AECD0
:1020300015F02651145C275115582851165829516E
:1020400017582CE300EC16F0EF9A17DA4CEC16F068
:102050002651EE262751ED2241EC16F00EDA040E41
:10206000F3EC15F00BE309DAA5EC16F006DA020E34
:1020700005EC15F002DA0A0ECBEC15F0A1EC15F028
:1020800003080CE141EC16F005011051141806E1AB
:102090001151151803E100EC16F0EF920AEC1BF059
:1020A0000009FCE080EC17F00401365106E036C46C
:1020B0007AF582C579F5EAEC0AF0120005018B5138
:1020C0008C1101E1000CDFEC14F0EDEC15F018516F
:1020D000EE5C0401396F05011951EE5804013A6FA5
:1020E00005011A51EE5804013B6F05011B51EE58D2
:1020F00004013C6F39C43DF43AC43EF4C3D959ECF1
:1021000016F0C0D90E0EF3EC15F015E3A2EC16F0A4
:10211000040E05EC15F0B6D90C0EDBEC15F0B2D9B7
:1021200024EC16F0BEEC14F01850145C3F6F1950FC
:102130001558406F10D0A6D90E0EE4EC14F0A2D9B9
:102140000C0E9AEC15F03F6FEE501558406F010ED3
:102150003F5F000E405B3FC414F040C415F0166AA8
:10216000176A3C511718E8AE02D0173408D0145043
:10217000395D15503A5916503B5917503C5901E3F7
:1021800053D1C6DAE83401E34FD118500008000EED
:10219000195401E349D104013E3504E23D510008E0
:1021A000000E3E5501E295D089EC15F0146E156ACB
:1021B0003D51F35C03010E6F04013E5115580301BC
:1021C0000F6F24EC38F004013D5105018B27040109
:1021D0003E5105018C238B5118278C517CEC15F056
:1021E0008B51EE24146E8C51EE20156EF9EC15F027
:1021F00075EC15F022E246D95CEC16F0FCEC15F01B
:102200000401EE50145C376FEE501558386F010E14
:102210003727000E38234FEC16F014DB20EC15F0B6
:1022200011DB166E8C5104013855176E2BD9EDEC6D
:1022300015F0ABDB27D938DA0BD02DEC16F0D1EC4A
:1022400015F0FCEC15F005018B51EE268C51ED22BA
:102250000501211D01E1221D01E1E6D08B51215F25
:102260008C51225B235121250401376F0501245134
:1022700022210401386F800E381527E1050122352F
:1022800004E221510008000E225501E2CDD00401E4
:102290003751050118270401385105017CEC15F070
:1022A00004013751EE263851ED22ECD859EC16F0E6
:1022B000F9EC15F075EC15F008E2A2EC16F039EC2B
:1022C00016F0E0D80C0ECBEC15F00501216922695F
:1022D000ABD03E3501E3A8D03D510008000E3E557D
:1022E00001E3A2D089EC15F003010E6F0F6B24EC13
:1022F00038F0FCEC15F004013D51EE24166E3E5111
:10230000EE20176E165005018B25146E17508C2188
:102310008FEC15F01450185C1550195832E2A2ECED
:1023200016F00C0E72DBE6DB04013D51145C376FD6
:102330003E511558386F800E381510E14FEC16F0ED
:10234000A4DA6B6F45EC1AF00401375105018B5D7F
:1023500077DBEECF6AF2EDCF6BF217D02DEC16F0F3
:1023600004013D51EE24146E3E51EE20D8DB8AD894
:10237000040EC8DB02011650145C6A6F1750155822
:1023800003D02DEC16F081DA6B6F45EC1AF00501E5
:10239000211D0BE1221D09E13DC421F53EC422F5BA
:1023A0008BC523F58CC524F53FD0215104013D5D3B
:1023B0000501225104013E5923E265D907E30401D6
:1023C000A7D92151185C2251195805E28BC523F574
:1023D0008CC524F510D021512325146E22512421BF
:1023E000156E04013D51145C0501236F04013E513B
:1023F00015580501246F3DC421F53EC422F514D0C3
:1024000042D912E2040184D92151185C166E22517E
:102410001958176E2351165C146E24511758156EF7
:1024200014502327155024232DD8DADB100B01E09C
:10243000100C28D8CCDAEF8825D8D2DB080B0CE1B9
:1024400021D8C5DAEF86F1DAA7DA1CD8160E14C047
:10245000EBFF170E15C0EBFF000CE926000EEA2279
:10246000120005011C6B33DBE0DAACDBABEF15F0DF
:10247000EECF14F0EFCF15F0120034C4E9FF35C4ED
:10248000EAFF120087C5E9FF88C5EAFF120083C48E
:10249000E9FF84C4EAFF120001C4E9FF02C4EAFFB5
:1024A0001200EECF16F0EFCF17F01200EECFEFF2E2
:1024B000EDCFF0F2FEEC2DF0F3CF14F0F4CF15F0E9
:1024C0004FEF15F083C5E9FF84C5EAFF1200EE5017
:1024D000165C146EEE501758156E1200156A166AC7
:1024E000176A080E145C000E1558000E1658000EE0
:1024F00017581200EF8499DA280ED7D314C0EEFFD4
:102500006EEF15F01450145F1550155B1650165BE6
:102510001750175B120083C4E9FF84C4EAFF12005E
:1025200000C425F501DB4ADB00C426F56AEC00F0A7
:102530000401010E036F12002CEC37F0F3CF14F5F9
:10254000F4CF15F52CEC37F0F3CF16F5F4CF17F5E3
:102550001200EE50185C146EEE501958156E166A83
:10256000176A1200E1C4E9FFE2C4EAFF1200D3C413
:10257000E9FFD4C4EAFF120085C58BF586C58CF54A
:1025800083C589F584C58AF534C487F535C488F5D3
:1025900095DD0401361312001A0DF3CFE9FFF4CFD5
:1025A000EAFF000EE926010EEA22120026C4E9FF26
:1025B00027C4EAFF120009C4E9FF0AC4EAFF1200B7
:1025C000EE50105D146EEE501159156E166A176AB2
:1025D0001200080E14C0EBFF090E15C0EBFF12002D
:1025E0000E0E14C0EBFF0F0E15C0EBFF120001C45E
:1025F000E9FF02C4EAFF120001C4E9FF02C4EAFFD6
:102600001200EECF18F0EFCF19F01200DBC4E9FF93
:10261000DCC4EAFF1200D1C4E9FFD2C4EAFF120011
:10262000EECFF1F2EECFF2F2EECFF3F2EFCFF4F223
:1026300003EC2EF006C014F007C015F0C3DA4FEF1C
:1026400015F0EF6EF2D9E2EF15F0156E14C0F3FF3E
:10265000F46E120083C4E9FF84C4EAFF120016C0BE
:10266000E6FF17C0E6FFA2EC3BF0E552E7CF17F01C
:10267000E552E7CF16F00650165C146E0750175857
:10268000156EE83412003D5105018B25146E0401CE
:102690003E5105018C21156E21512325166E2251C4
:1026A0002421176E75EF15F00C0E14C0EBFF0D0E04
:1026B00015C0EBFF1200EE50185C166EEE50195864
:1026C000176E1200EECF60F2EDCF61F263EF19F0FA
:1026D000140E14C0EBFF150E15C0EBFF1200EECF69
:1026E00062F2EDCF63F274EF19F00A51EA6A0D0F4E
:1026F000E96E040EEA2212008E51EA6A910FE96E29
:10270000040EEA2212001450105D155011591200E7
:102710003D5105018B25186E04013E5105018C21A8
:10272000196E12001650145C1750155812009BC4F5
:10273000E9FF9CC4EAFF120008C4E9FF09C4EAFFEC
:10274000120000011624146E000E1720156ED2D947
:1027500014C0F3FF15C0F4FF1200182B000E19234C
:102760001A231B230401100E366F12000A0E14C028
:10277000EBFF0B0E15C0EBFF1200EECF10F5EDCF07
:1027800011F512007BC5E9FF7CC5EAFF120066C5A2
:10279000F6FF662B67C5F7FF000EBDEF15F006C00C
:1027A000EEFF9CD94FEF15F0E66EC0EC33F0146EDF
:1027B000060EE15E14501200F00BE842E842E842D7
:1027C000E842040DF350120015C4E9FF16C4EAFFF5
:1027D000120099C4E9FF9AC4EAFF120089C469F59E
:1027E0008AC46AF58BC466F58CC467F58DC468F538
:1027F000050112001051EE5C1A6E1151EE581B6E5D
:102800001A50165C146E1B501758120010C56CF24B
:1028100011C56DF20201A40E6A6F0C0E6B6F45EFCD
:102820001AF0142B000E1523162317231200156E11
:1028300014500401AD5F1550AE5BAB51AD5DAC51B2
:10284000AE591200AED90401375105018B5D12005B
:1028500015C0EBFF4FEF15F0CDC4E9FFCEC4EAFF82
:1028600012005EC5E9FF5FC5EAFF5E2B000E5F2325
:10287000EFCF0BF4120006C460F507C461F508C47D
:102880005EF509C45FF50501120004013D51EE2417
:1028900002016A6F04013E51EE200201120046C59A
:1028A00079F247C57AF248C57BF27AEF1BF0040152
:1028B000AB51050110270401AC5105011123120091
:1028C00014C58BF415C58CF416C58DF417C58EF49C
:1028D00012000201726F736B020112000201776F26
:1028E000786B02011200EECF1AF0EFCF1BF012004E
:1028F000DD510501435D0401DE510501445912001B
:10290000CF510501495D0401D05105014A5912001A
:10291000DED81C6B12000501040E7A6F82C579F5B2
:10292000EAEF0AF0146E156A14501200EE501C5CA7
:102930001A6EEE501D581B6E1200EE2AED22EECFDD
:1029400014F0EDCF15F0120041C575F242C576F2D4
:1029500060EF1BF058C570F259C571F221EF1BF002
:1029600005016007000E615B6051611112000501F5
:102970006907000E6A5B69516A111200EE501A5C19
:10298000186EEE501B58196E12001650EE24146E7D
:102990001750EE20156E1200C80E87D1ECC4E9FF67
:1029A000EDC4EAFF12003EC53CF558EF02F040C509
:1029B0003CF558EF02F045C53CF558EF02F089C5EB
:1029C000E9FF8AC5EAFF120048DD38EF12F0190E60
:1029D0002DEF12F042DD51EF12F074DD0D0E3DDDF2
:1029E000EF50120059DD72D957DD28D9A9EF12F046
:1029F00044DD36EF16F066DD24D9EE5014191200CE
:102A000002016C696D69FCEF15F027DD67EF12F0CC
:102A10003EDD5CD93CDD12D94EDE39DD3DD9FAEF21
:102A200013F0100E1ADD7EEF12F0A2EC3BF006C0A0
:102A300014F007C015F012002FDD2ED9E0EF12F0D0
:102A400002016E6F0401385105018C5902016F6F4C
:102A500002016C696D6916DDEDEF15F00501E1DE2F
:102A60000501110E7A6F3BC579F5EAEC0AF0F4DE48
:102A700036EF16F002DD2AD900DDE0D8A9EF12F01A
:102A8000E0D862EF13F0C7DD24EF16F0E6DCBDEF0F
:102A900013F07DC5E9FF7EC5EAFF46EF16F07FC55E
:102AA000E9FF80C5EAFF12001A0DF3CF26F4F4CF38
:102AB00027F4000E2627010E2723D6EF12F0E7DCBD
:102AC000EBD8EE50105D146EEE5011591200E80E66
:102AD0001D6F030E1E6F1F6B206B120015C0EEFFE3
:102AE00016C0EEFF17C0EEFF12001450165C155012
:102AF00017581200010ED9D01923000E1A231B23D8
:102B0000FCEF15F0AADCD7DD010E1626000E172209
:102B1000120055DF0C0EA1DCEF50DCEF13F0156E48
:102B2000B1DCB4D801EF13F046EC00F00501100E53
:102B30007A6F120092DCEE50145C12008EDC56EFBD
:102B400012F09BDC180EEB50120036C5E9FF37C5BA
:102B5000EAFF46EF16F0E80E1426030E1522000ECB
:102B6000162217221200FEDC6CD80401DB51120081
:102B7000FEDC67D80401CD511200672368C5F8FF59
:102B800068230800F5CF8FF4120067DCEECF1CF04D
:102B9000EFCF1DF0120061DC1450EE5E1550ED5ABF
:102BA0001200EECF6AF2EDCF6BF245EF1AF015C0CE
:102BB000EBFFF7EF12F051DC73EF14F000C479F57E
:102BC000EAEF0AF008C016F009C017F012009ADC0C
:102BD00063DC0A0EF9DE83EF13F0040E2DEF12F022
:102BE000F6DEEF501200F6DE92EF13F0040EE4EF83
:102BF00014F048DC7DEF16F045DC0C0E2DEF12F0E2
:102C00003CDCE7EF14F0020EE4EF14F0AC6F12C5F9
:102C1000ADF413C5AEF43BDC0A0ED6DE050183EF3E
:102C200013F00401120E366FE3DE020E76EF16F09B
:102C3000DEDCE7EF14F02BDCE7EF14F0020E2DEFF3
:102C400012F0080E2DEF12F00E0E2DEF12F0020E04
:102C5000DCDED8901532143212008BC56EF28CC5B2
:102C60006FF200EF15F0B3DE7AEF12F0180E2DEFD1
:102C700012F0040ECADE7AEF15F00EDC0A0E46EFF3
:102C800015F03DEC12F00A0EE4EF14F0060E2DEFF5
:102C900012F0A3DE100B12000A0E2DEF12F037C453
:102CA0006EF238C46FF200EF15F01426000E1522F4
:102CB00012000C0EE4EF14F0060EE4EF14F02BDC1F
:102CC000E7EF14F04CEC12F0F0EF15F086DF01EFB7
:102CD00013F0400EAB6F020EAC6FADDFEF8C120045
:102CE00087DE030EEF6E8CDFEF921200EF6E31EC99
:102CF00012F03DEC12F011EF15F0060EEAEF14F0B1
:102D00007BDC81DFFCEF12F077DC70DFFCEF12F090
:102D100052DC79DFDBEF12F04EDC68DFDBEF12F024
:102D200045DC71DFD6EF12F041DC60DFD6EF12F048
:102D30008BEC12F068DF8BEF12F08BEC12F056DFA9
:102D40008BEF12F056DF42EF12F0040EEAEF14F0B0
:102D50008A8693969496949A9488200EC66E9E9630
:102D6000C78CC79E29EC1DF0E8CF01F4080E0401C2
:102D70000115F8E1011D010BF5E196EC1BF00A0EBF
:102D8000E66EEDEC3BF0E5520201010E536F4F6B26
:102D9000506B0201826B0201080E52EC1DF0826B37
:102DA0000201090E1FEC1DF00C0E5BEC1DF00D0E68
:102DB0001FEC1DF00A0E5BEC1DF00B0E52EC1DF02B
:102DC0006D0E826F2DEC1DF0C2EC1CF0050E52EC66
:102DD0001DF06D0E4CEC1DF00201746B55EC1BF0F8
:102DE00002018A6B020E8B6F30EC1CF002010D0E9B
:102DF000826F90EC1CF00201320E826F05EC1DF028
:102E00000201120E826F2DEC1DF00201400E826F46
:102E100017EC1DF002013F0E826F0201090E52EC09
:102E20001DF0120E826F0201060E5BEC1DF0070E04
:102E300052EC1DF0EE0E826F02010A0E52EC1DF0F4
:102E4000050E826F02010B0E6EEC1CF00201040EE7
:102E5000A9EC1CF09CC082F22DEC1DF09DC082F20A
:102E60000201050E6EEC1CF09EC082F205EC1DF016
:102E70009FC082F217EC1DF0A0C082F290EC1CF013
:102E8000A1C082F201EC1DF00201826B31EC1DF059
:102E90000201120E6AEC1CF0E8CF54F20201886BBA
:102EA000010E896F0201100E876F1AEC1CF00201EF
:102EB000720E886F340E896F0201140E876F1AEC40
:102EC0001CF00201886B896B0201876B1AEC1CF005
:102ED000ACEC1CF00201040E866FC7EF1CF002017F
:102EE000010E806FC4EC1BF0F350040B01E0010EE7
:102EF0001200DFEC1CF0080B080A01E0010E1200C2
:102F00000201535101E01200010E536F4FC237F41A
:102F100050C238F40401375F000E385B37C414F038
:102F200038C415F071EC1CF004E26B0E376F0C0E18
:102F3000386F0201400EE5EC1CF037C482F202014A
:102F40000C0E6EEC1CF038C482F202010D0E6EEF16
:102F50001CF0DAEC1CF00201190E6AEC1CF0E8CF50
:102F6000AFF40E0EEBEC1CF00E0E6AEC1CF0E8CF8A
:102F7000B1F402010F0E6AEC1CF0E8CFB2F4DAEC07
:102F80001CF00201190E6AEC1CF00401AF510001A3
:102F9000145CE1E10C0EEBEC1CF00C0E6AEC1CF086
:102FA000E8CFAFF402010D0E6AEC1CF0E8CFB0F4EC
:102FB0000401B151AF5DB251B0591BE26B0E186EF6
:102FC0000C0E196E1A6A1B6AAF51B15D1C6EB251BC
:102FD000B0551D6E1E6A1F6A1C50185C146E1D5081
:102FE0001958156E1E501A58166E1F501B58176E22
:102FF00014D0AF51B11908E1B051B21905E16B0E0F
:10300000F36E0C0EF46E1200B151AF5D146EB05140
:10301000B255156E1406000E155A14C0F3FF15C0F4
:10302000F4FF12000201190E8A6F010E8B6F30EC53
:103030001CF00201190E7E6F81DB146E14C014F4B3
:1030400002018A6B8B6B30EC1CF00401145102E11D
:10305000000E8CD00201535103E152DF000E86D0E6
:103060004FC251F250C252F251C282F20201816B40
:10307000B1DB52C282F20201010E816FABDB140E92
:103080000201726F736B0201000E706F040E716F9C
:10309000D8DA12C4EFF213C4F0F2FEEC2DF0F3CF45
:1030A00012F4F4CF13F400C414F001C415F0166A3E
:1030B000176AD8806B0E14540C0E1554000E16545B
:1030C000000E17541BE3040104010051010B16E12B
:1030D000040104010551800B11E1040104010451B4
:1030E000100B0CE10401EE0ED8800255050E0355BD
:1030F00005E3040104010451800B01E1FF0000C459
:103100004FF201C450F2060EE66EE66A0C0EE66E51
:10311000040EE66E55C2E9FF56C2EAFFE9CF14F08D
:10312000EACF15F014C0E6FF15C0E6FFC0EC33F09F
:10313000166E060EE15E165057C2E9FF58C2EAFF4E
:10314000EF68080E0401135D0DE10401125104E063
:10315000060E0401125D06E157C2E9FF58C2EAFFFC
:1031600012C4EFFF0201536B010E00D012000201E6
:103170006E0E4CEC1DF07B0E02015C270C0E5D23E5
:103180005CC282F20201060EA9DB5DC282F202017C
:10319000070EA4DB060E0201776F786B59C275F239
:1031A0005AC276F28DDA060E0201776F786B020151
:1031B0009C0E756F000E766F83DA0201080E746F35
:1031C00074DA02015B5102E1000E01D0060E020129
:1031D000746F55EF1BF091DB050E0201545D03E0A7
:1031E000060E545D56E10401AF6BB06B1BEC1DF095
:1031F0000A0E0001141409E10401AF2B000EB023E4
:10320000E80EAF5D030EB059F1E31BEC1DF00001B9
:10321000E850020B06E10401E80EAF5D030EB05961
:1032200038E3B7DB81DBE8CFB1F409EC1DF0E8CF80
:10323000B2F40201060E4EDBE8CFB3F40201070E32
:1032400049DBE8CFB4F40401B32B000EB42344EC03
:103250001DF0BC6B100EBC5D16E21BEC1DF00001F6
:10326000E850020B10E00401B851200B0CE045DBE4
:103270001BEC1DF00A0E00011414FAE08ADB44EC8A
:103280001DF0BC2BE7D7B1C482F24ADBB2C482F294
:10329000C9DB120082DB5E250401496F1550020173
:1032A0005F2104014A6F49C414F0156E1ADB04E271
:1032B0006C0E495F0C0E4A5B49C482F231DB4AC492
:1032C00082F201EF1DF0D1DBE8CFAFF4D2DBE8CF23
:1032D000B0F460C282F299DB61C282F2A8DBAFC4B3
:1032E000F3FFB0C4F4FF12001FDBE8CFAFF491DBB3
:1032F000E8CFB0F462C282F213DB63C282F281DBF8
:10330000AFC4F3FFB0C4F4FF120047DB642504012F
:10331000166F1550020165210401176F16C414F0D1
:10332000156EDFDA04E26C0E165F0C0E175BFCDA2A
:10333000E8CF18F46EDBE8CF19F416C482F2F0DAA5
:1033400017C482F25EDB66C268F267C269F20FD808
:10335000F3CF16F4F4CF17F418C482F2E1DA19C4EB
:1033600082F24FDB16C4F3FF17C4F4FF120004010E
:10337000B16BB26BB36BB46BD7DAE8CFAFF449DBA8
:10338000E8CFB0F402016851691151E0140ED88001
:103390006855000E695505E20401140EB56FB66B51
:1033A00004D068C2B5F469C2B6F4B5C472F2B6C44A
:1033B00073F20201B70E706F040E716F42D90401EF
:1033C000B5510201685F0401B6510201695B040155
:1033D000B5A10AD0B70EB525E96E040EB621EA6E86
:1033E000EF6AB52B000EB623B70ECB6F040ECC6F71
:1033F000B551B611C7E0CBC4E9FFCCC4EAFF020E59
:10340000CB27000ECC23EECF14F0EFCF15F0000148
:1034100014500401B127000115500401B223000E1D
:10342000B323B423020EB55F000EB65BE1D7AFC481
:1034300082F276DAB0C482F2E4DAB1C414F0B2C433
:1034400015F0166A176AB3C418F0B4C419F01A6AF2
:103450001B6A145018240401B16F15501920B26F63
:1034600016501A20B36F17501B20B46FB351B127F9
:10347000B451B223B1C414F0B2C415F0141E151E19
:1034800014C0F3FF15C0F4FF12000401B36BB46B5A
:1034900002016BAF09D00401010EB36FE6DAE8CF89
:1034A0006AF2E7DAE8CF6BF202016DAF09D00401EE
:1034B000010EB46F39DAE8CF6CF2ABDAE8CF6DF217
:1034C0000201010ED8806E55000E6F5540E30401D5
:1034D000B45106E129DAE8CFAFF49BDAE8CFB0F4D3
:1034E0000401B35106E1C1DAE8CFB1F4C2DAE8CFA2
:1034F000B2F46CC282F214DA6DC282F282DA6AC26B
:1035000082F283DA6BC282F20201030E816F62D90A
:1035100002016EC214F06FC215F06E07000E6F5BF1
:103520001450151005E07CD80201746FBED8F0D796
:103530000401B45106E1AFC482F2F2D9B0C482F200
:1035400071DA0401B35165E1B0DA17EF1DF004013F
:10355000B3510FE002016A516E250401B16F0201FF
:103560006B516F210401B26FA0DA0201030E816F6B
:1035700031D937DA1406000E155A145002016E279D
:1035800015506F2302011F0EA5D9000114BAFAD7F6
:103590006CC282F20201100EA1D96DC282F2020148
:1035A000110E9CD96AC282F268DA6BC282F259DAD1
:1035B00018DA97D907E3BDD905E26C0E02016E5FF8
:1035C0000C0E6F5B6EC282F20201120E87D96FC2BF
:1035D00082F20201130E82D90201100E0CDA0201EE
:1035E000200E866F1ADA0401B45113E002016E2B2B
:1035F000000E6F23F6D975D906E39BD904E26C0E51
:103600006E5F0C0E6F5B6EC282F28AD96FC282F25D
:1036100009DA1200D4D9200B200A01E0010E1200B1
:103620008A969E963A0EC96E9EA6FED79E96C96A47
:103630009EA6FED7C9CFB5F49E968A860401B551E1
:1036400012008A969E963A0EC96E0401E76BE86BEB
:1036500002017007000E715B9EA6FED79E960201C6
:1036600072510401E75D020173510401E85917E248
:10367000C96AE72B000EE8230201705171110CE0BA
:10368000702B000E71239EA6FED7C95070C2E9FFB1
:1036900071C2EAFFEF6EE2D79EA6FED7DFD78A8619
:1036A000E7C4F3FFE8C4F4FF1200A0D99EA6FED73A
:1036B0009E9674C2C9FF9EA6FED79E968A86120069
:1036C00095D99EA6FED7C9CFC3F49E960201775125
:1036D00078110EE075C2E9FF76C2EAFFEF50C96EBD
:1036E000752B000E76237707785B9EA6FED7EBD767
:1036F0008A8612007BD99EA6FED79E9602017C5137
:103700007D1112E079C2F6FF7AC2F7FF7BC2F8FFA3
:103710000800F550C96E792B000E7A237B237C07B5
:103720007D5B9EA6FED7E9D78A8612008A969E9672
:10373000C9689EA6FED79E968A8612008A969E9695
:103740007EC2C9FF9EA6FED79E96C96A9EA6FED7D8
:10375000C9CFE7F49E968A860401E75112008A9643
:103760009E967FC2C9FF9EA6FED79E96C96A9EA658
:10377000FED79E96C96A9EA6FED7C9CF02F49E9632
:103780008A86040102511200F8D880C282F275D9EB
:103790000201010E826F0201120E56D902010A0EB9
:1037A00005D9000114B0FAD7E8D80201826B0201F2
:1037B000120E94D80201180EF9D8E8CF00F40201D5
:1037C000190EF4D8E8CF01F4C7D800C4F3FF01C440
:1037D000F4FF12008A969E96400E02018111C96E76
:1037E0009EA6FED79E9682C2C9FF9EA6FED79E9633
:1037F0008A8612008A969E96A00E02018311C96ED7
:103800009EA6FED79E9684C2C9FF9EA6FED79E9610
:103810008A8612008A969E96800E02018511C96ED4
:103820009EA6FED79E9686C2C9FF9EA6FED79E96EE
:103830008A861200A2D887C282F21FD988C282F279
:103840000201160E4BD889C282F20201170EFCD873
:1038500002010A0EABD8000114B0FAD7ACEF1CF08D
:103860000201030EC8D88BC286F291D00201040E69
:10387000C2D8EFD8000114B4FCD702011F0E2AD819
:10388000000114B6FAD70201200EE5EF1CF0020188
:10389000200E846F02011E0E836FACDFDAD80001A8
:1038A00014A0FCD70201040E866F71D00201150E20
:1038B00050D88CC282F2D5D8ACEF1CF00201150EA4
:1038C00048D80201150E06D8E8CF00F445D8040107
:1038D000005112007E6F32DF146E1200816FEAEF2A
:1038E0001BF0166A176AD8806B0E14540C0E155410
:1038F000000E1654000E175412000201800E866F3F
:103900008CD80201800E77D802010A0E846F020162
:103910001C0E836F6FDF0201080E866F0DEF1DF026
:103920000201816BEAEF1BF002017E6B07DF146E70
:1039300012006EC218F06FC219F01A6A1B6AD880A2
:103940006B0E18540C0E1954000E1A54000E1B5412
:1039500012008A6F030E95D002018A6B8B6B30EFD9
:103960001CF0070E0201726F736B0201B50E706FCF
:10397000040E716F66DE040112000201140E8A6FDC
:10398000020E7FD002010C0E826F020112000DEFB9
:103990001DF00201080EFBEF1CF0140E0201156A67
:1039A0005125146E52511522145012007F6FD7DE2C
:1039B000146E12000201190E8A6F010E62D002010C
:1039C0001F0E7E6FBBDEE8501200866F02011E0ED6
:1039D000856F0AEF1CF002018A6F8B6B41DF0201D9
:1039E00012006CC214F06DC215F012008A969E96F9
:1039F0007A0EC96E1200846F02011F0E836FFAEFF8
:103A00001BF00201010E6EEF1CF00201020E6EEFC0
:103A10001CF00201010E6AEF1CF002011F0E856FFF
:103A20000AEF1CF00201010E816FEAEF1BF00201A8
:103A3000030E6EEF1CF002011C0E6AEF1CF032D870
:103A40006B0E826F0201120049DF02010A0EA9EF1C
:103A50001CF002011D0E6AEF1CF00201040E6EEF55
:103A60001CF00201150E6EEF1CF00201020E6AEF4F
:103A70001CF00201030E6AEF1CF00201140E6EEF3F
:103A80001CF08B6F30EF1CF0B3C482F249DFB4C47A
:103A900082F2B7DFB1EF1CF0826FB7DF73DF030E86
:103AA0006EEF1CF01BDF02011200B1C482F2ADDF29
:0C3AB000B2C482F2120012DFC2EF1CF060
:043ABC00D8CFE4FF7C
:103AC000E0CFE4FFE46EDACFE4FFE2CFDAFFE9CF44
:103AD000E4FFEACFE4FFF6CFE4FFF7CFE4FFF8CF4F
:103AE000E4FFF5CFE4FFF3CFE4FFF4CFE4FFFACF38
:103AF000E4FFFBCFE4FF00EE00F0140EE80403E364
:103B0000EECFE4FFFBD700EE14F00C0EE80403E365
:103B1000EECFE4FFFBD7E652ABEC3BF0E55200EE14
:103B20001FF00C0EE80403E3E5CFEDFFFBD700EE3A
:103B300013F0140EE80403E3E5CFEDFFFBD7E5CF68
:103B4000FBFFE5CFFAFFE5CFF4FFE5CFF3FFE5CFCD
:103B5000F5FFE5CFF8FFE5CFF7FFE5CFF6FFE5CFBF
:103B6000EAFFE5CFE9FFE5CFDAFFE550E5CFE0FF7B
:103B7000E5CFD8FF100007DA98EC3BF0D8EC34F032
:103B800016DA81B063D0A2EC3BF006C0E3F407C0C4
:103B9000E4F408C0E5F409C0E6F481B056D0A2EC24
:103BA0003BF00401E351065C146E0401E451075834
:103BB000156E0401E5510858166E0401E6510958C6
:103BC000176ED880A00E14540F0E1554000E165404
:103BD000000E175439E20501A66BA76B15EC31F006
:103BE0000501A86921EC31F03CEC31F00301990E9C
:103BF0001B6F590E1C6F000E1D6F31EC3AF0959A39
:103C0000838AA2EC3BF00401E351065C146E0401CC
:103C1000E4510758156E0401E5510858166E040169
:103C2000E6510958176E1734000E171809E6D880A8
:103C3000940E1454110E1554000E1654000E175401
:103C400001E3DFD7FF0001D0A8D754DAB5EC3AF092
:103C5000AAEC23F0F6EC27F00301870E1B6F590E38
:103C60001C6F000E1D6F31EC3AF080C0BBF081C0BC
:103C7000BCF082C0BDF083C0BEF033D80301840E17
:103C80001B6F590E1C6F000E1D6F31EC3AF0BDEC2E
:103C90003AF0C3EC23F007EC28F05CD8FF0E0501E6
:103CA000B35D1DE00501B3690301740E1B6F590E6E
:103CB0001C6F000E1D6F31EC3AF080C0BBF081C06C
:103CC000BCF082C0BDF083C0BEF00BD80301840EEF
:103CD0001B6F590E1C6F000E1D6F31EC3AF0D7D7D9
:103CE000120004010A6B0A51146E156A040E145C6A
:103CF000000E15582EE20201060EE96F040EEA6F5F
:103D000004010A51EA6ABB0FE96E000EEA22EF5085
:103D10000201E76FE86B70EC2DF00301060E196FDE
:103D2000040E1A6F1CEC3AF004010A51146E156A65
:103D3000030E141803E1155001E1120080EC23F08A
:103D4000FDE103012E0E156FFFEC39F004010A2B83
:103D5000CAD71200810EC26E0401640E026F0251B6
:103D600002070009FCE1C284C2B4FED7C3CF02F44B
:103D7000C4CF03F4B30EE66E000EE66E02C4E6FF97
:103D800003C4E6FF6BEC23F0C40EC16E890EC26E55
:103D90000401640E026F025102070009FCE1C284B3
:103DA000C2B4FED7C3CF02F4C4CF03F402C400F4FC
:103DB00003C401F40401013513E200510008020EAE
:103DC00001550EE2000E005F020E015B52EC23F083
:103DD000140E04010824006F000E0920016F11D099
:103DE000000ED8800057020E015752EC23F008C095
:103DF00000F409C001F40401140ED8800057000E2D
:103E00000157B40EE66E050EE66E00C4E6FF01C46F
:103E1000E6FF6BEC23F0CE0EC16E1200BFC0E9FFCF
:103E2000C0C0EAFF72EC23F00401836FE8500EE19A
:103E3000020E0001EA6ABF25E96EC051EA2272EC67
:103E400023F00401846FE85001E1837A0A0EE66EE4
:103E5000E66AB00EE66E770EE66E000EE66EBFC046
:103E6000E9FFC0C0EAFFEECFE6FFEFCFE6FFEBECE5
:103E700033F03BEF23F00001C251170A41E0010A81
:103E800029E0120A1FE0070A13E0010A07E0020A0C
:103E900051E18350200B19E1300E1AD0DCDBD5DB69
:103EA000DADB48E0C32B000EC423D5DB3EE142D071
:103EB000DADBCBDBD8DB3EE0C32B000EC423D3DB45
:103EC00034E138D08150010B02E0310E01D0300EC8
:103ED000BCDB30D0C351C4110AE1190EE66EE66AAC
:103EE0006E0EE66E590EE66E000E91EC23F0A2EC1B
:103EF00023F020E0C32B000EC42394DB16E11AD07C
:103F0000C351C4110AE1190EE66EE66A590EE66E57
:103F1000590EE66E000E91EC23F0A2EC23F00AE0BD
:103F2000C32B000EC4237EDB05E0C3C0F3FFC4C077
:103F3000F4FF1200F368F4681200030EE66EE66AFE
:103F4000CF0EE66E770EE66E000EE66EE0C0E6FF80
:103F5000E1C0E6FFA1EC33F08EDB000913E1060EB1
:103F6000E66EE66AD30EE66E770EE66E000EE66E3D
:103F7000E2C0E6FFE3C0E6FFA1EC33F07CDB000922
:103F800001E1010C000C959A839A810EC26E8E0E8F
:103F9000C16E230E926EF19E200EAC6E900EAB6E33
:103FA000800EAF6EAC84D08EF28EF28C12000001C7
:103FB000B28DB28F9C6B040E9D6FA30E9E6F9F6B94
:103FC000A06B070EA16FC00E806FA80E816F826B71
:103FD000600E836F80C094F081C095F082C096F02F
:103FE000976F846985698669876B84C098F085C0FE
:103FF00099F086C09AF087C09BF0C00E886FA80E1B
:10400000896F8A6B010E8B6FC00E8C6FA80E8D6F3F
:104010008E6B010E8F6FC00E906FA80E916F926B1A
:10402000010E936F100EE66EE66A4E0EE66E590EA6
:10403000E66E000EE66EA20EE66E000EE66EEBEC8D
:1040400033F019DB41DB0401800E046F000E056FB5
:1040500005019F6BA06B99EC30F0A3EC30F00401EC
:10406000036FC9EC30F0600E0401035D1DE1010E29
:1040700005019F6FA06B99EC30F00401036B0351B5
:1040800038DB10E2A3EC30F0E66E040104C4E9FF73
:1040900005C4EAFF042B000E0523E552E750EF6E3E
:1040A000032BEDD7C9EF30F056EF20F00401800E5E
:1040B000016F000E026F0501A66BA76B15EC31F0C6
:1040C0000501600EA86F21EC31F00401006B005176
:1040D00010DB0EE201C4E9FF02C4EAFF012B000E6F
:1040E0000223EFCFA8F521EC31F00401002BEFD72C
:1040F0003CEF31F00401AD6B0401AD5101E0C8D1DA
:1041000003010C0E1B6F590E1C6F000E20DBF00E0E
:104110001B6F580E1C6F000E8DDAA0C0ACF4A1C04E
:10412000ABF40201910EE96F040EEA6FA1C0E7F251
:10413000A0C0E8F270EC2DF00301910E196F040E8F
:104140001A6F1CEC3AF00301D50E1B6F580E1C6F52
:10415000000E70DA0301A20E196F000E1A6F1CEC2C
:104160003AF00301B30E1B6F580E1C6F000E62DA9B
:1041700080C0BBF081C0BCF082C0BDF083C0BEF087
:10418000C3DA8D0E1B6F580E1C6F000E53DA88C0F9
:10419000BBF089C0BCF08AC0BDF08BC0BEF0B4DA01
:1041A0006A0E1B6F580E1C6F000E44DA84C0BBF001
:1041B00085C0BCF086C0BDF087C0BEF0A5DA410E58
:1041C0001B6F580E1C6F000E35DA8CC0BBF08DC013
:1041D000BCF08EC0BDF08FC0BEF096DA160E1B6F1D
:1041E000580E1C6F000E26DA90C0BBF091C0BCF0D8
:1041F00092C0BDF093C0BEF087DA0F0E1B6F580E51
:104200001C6F000E17DA0001B251400B07E00301EA
:104210000B0E1B6F580E1C6F000E06D00301080E0C
:104220001B6F580E1C6F000E92DADB0E1B6F570EC1
:104230001C6F000EFFD90001B251400B07E00301D3
:10424000D30E1B6F570E1C6F000E06D00301CA0E53
:104250001B6F570E1C6F000E7ADAAF0E1B6F570ED6
:104260001C6F000E74DA9C0E1B6F570E1C6F000E35
:104270006EDA840E1B6F570E1C6F000E1D6F31EC33
:104280003AF0F4EC39F00009FCE054DAFDEC39F0D6
:10429000300A01E1F1D0090A01E1ECD0010A01E1A3
:1042A000E6D00F0A01E1B9D0010A01E1B1D0030A59
:1042B00001E1A9D0010A01E1A1D0070A01E199D0E9
:1042C000010A01E17CD0030A63E0650A01E014D72A
:1042D00003015D0E1B6F570E1C6F000E1D6F31EC3E
:1042E0003AF0F4EC39F00009FCE024DA78EC32F032
:1042F0000C0A42E00B0A39E0010A30E0030A27E029
:10430000060A1EE0010A15E0030A0CE0010A3DE17D
:104310000301500E1B6F570E1C6F000E8BD9959A20
:10432000838AFFD703013C0E1B6F570E1C6F000ED4
:1043300029D00301280E1B6F570E1C6F000E22D0D0
:104340000301110E1B6F570E1C6F000E1BD00301D3
:10435000FA0E1B6F560E1C6F000E14D00301E30EF5
:104360001B6F560E1C6F000E0DD00301CC0E1B6F81
:10437000560E1C6F000E06D00301C20E1B6F560EA8
:104380001C6F000E1D6F31EC3AF0959A839AFFD79F
:10439000BFD9140E52D9000901E1AED6910EE66ED6
:1043A000040EE66E16EC36F0E552E552F3CFABF4B0
:1043B000F4CFACF4F4CFA0F0F3CFA1F09DD6A8D900
:1043C000100E3BD90401915101E196D6100EE66E14
:1043D000E66A910EE66E040EE66EA20EE66E000E22
:1043E000E66EC0EC33F0146E060EE15E14506CD92C
:1043F00083D60401800EA96F000E13D00401880E2D
:10440000A96F000E0ED00401840EA96F000E09D012
:1044100004018C0EA96F000E04D00401900EA96F48
:10442000000EAA6F75D9140E08D90201A50EE56F0A
:10443000040EE66F0201910EE36F040EE46F34EC9C
:104440002DF000090DE0A9C4E9FFAAC4EAFFA5C444
:10445000EEFFA6C4EEFFA7C4EEFFA8C4EEFF4CD645
:104460000301A30E1B6F560E1C6F000E0FD0000130
:10447000B27D42D60ED840D60401010EAD6F16DED5
:104480000301910E1B6F560E1C6F000ED3D834D64D
:1044900012000401006B066B8FEC35F00CD9F0D8DC
:1044A000A2EC3BF006C08DF407C08EF408C08FF478
:1044B00009C090F4890EE96E040EEA6EEE50040114
:1044C000065C146EEE500758156EEE500858166EC6
:1044D000EE500958176EF40E145C010E1558000EBC
:1044E0001658000E175809E3CBD80AD9FEE103018C
:1044F000150E156FFFEC39F0837AF4EC39F00009F2
:10450000CFE0040106516BE1F4EC39F00009F9E069
:10451000837AFDEC39F00401016F0051030A29E0B0
:10452000010A24E0030A1DE0010502E1010E1FD08B
:10453000040E015D0EE1838A61EC35F0E1D8FEE105
:104540000301060E156FFFEC39F00401010E066F32
:10455000D8D7D6D8FEE10301150E156FFFEC39F060
:10456000D0D7060E086F076B020E01D0030E006F46
:10457000C8D70751072BEA6A090FE96E040EEA2231
:1045800001C4EFFF07518008BCE202C4F7F003C486
:10459000F8F004C4F9F005C4FAF097EC35F0040122
:1045A000060E086F016B800E015D0DE20151EA6A93
:1045B000090FE96E040EEA22EFCFFBF0AEEC35F006
:1045C0000401012BF0D7C7EC35F075D899D8FEE17E
:1045D00008C415F3FFEC39F00401006B92D7010C0D
:1045E0000F0E59D8EF6AE4C0E6FFE5C0E6FFC3EC62
:1045F00034F0E552E5520401006B0F0E005D11E24C
:10460000005149D8EF500AE10F0E0401005D09E2A4
:104610000051002B40D8200EEF6EF6D70401002B7E
:10462000ECD71200C351EA6AC70FE96E000EEA2206
:10463000EF5012001D6F31EF3AF0146F0301910E2D
:10464000126F040E136FC1EF39F0C5C0E9FFC6C089
:10465000EAFFEF6E1200C351EA6AB30FE96E000E73
:10466000EA22EF501200C351EA6AB40FE96E050E58
:10467000EA22EF501200146E070EE15E1450120091
:10468000A2EC3BF006C089F407C08AF408C08BF4A2
:1046900009C08CF412000001EA6AE425E96EE551D4
:1046A000EA221200090E0D6E0E6A00C408F001C461
:1046B00009F034EF39F006C002F407C003F408C073
:1046C00004F409C005F412000001A20EE46F000E0C
:1046D000E56FF0EF22F08BEC36F0E552E552E55253
:1046E000E5521200EE50EFCFEAFFE96EEF50D00F27
:1046F0001200146E156A330E145C000E1558120069
:10470000E8EC39F00009120071EC1EF00301120010
:104710000301B40E1B6F560E1C6F000E8BDF0301DE
:104720001200E66EC70EE66E000EE66E9DEC34F0EB
:104730003BEF23F00301840E1B6F590E1C6F000E1C
:104740001AEF23F000016EDF80DF12EF23F072DF3B
:04475000030112004F
:0C4754000401036B03C414F0A8DB12E2A4
:10476000500E0501276F286B07EC01F0E66E04017F
:10477000BBDBE552E750EF6EB7DB050E86DBEF6A79
:10478000032BEAD712000401EE6BEEC414F08FDBAA
:1047900006E2EEC4F4F104D80401EE2BF6D71200C1
:1047A0000101F4510C0DF3CF7FF4F4CF80F4D00E5F
:1047B00004017F27010E8023666BE7DB05013A6F5A
:1047C00016EC02F0000903E1CEDBEF6A120053DBC6
:1047D000050EEB50010A01E157D1080A01E1ECD0C6
:1047E0000B0A01E1B7D0020A01E05BD105016D6B54
:1047F00005016B6B6C6B020E0501696F6A6B05013D
:10480000400E666F560E676F000E686FBEDB0501C7
:10481000656FACEC07F0F3CF81F4F4CF82F40401C0
:10482000F31C0EE1821D0CE1B0DB05015C6F64EC52
:1048300006F07DDBF350F41001E033D1C8DB31D159
:10484000010E666F640ED8808155000E825503E21A
:10485000640E816F826B81C45AF582C45BF50501D9
:10486000000E586F040E596F90DB0501576FB6ECC0
:1048700005F0000E04018125E96E040E8221EA6E26
:10488000EF6AAADB70DB020EEF6E04010B0E7D6F88
:10489000F2DAFBDAE9CFFDF1EACFFEF101017D0E9C
:1048A000FB6F040EFC6F0101670EF96F040EFA6FC7
:1048B0000101000EF76F040EF86FE6D90401656F71
:1048C000E85001E0EED07D5101080EE27DC4C1F058
:1048D0000001670EBF6F040EC06F0EEC1FF0CBDA45
:1048E0000B0ED3DA020EEF6E67C4F1F068C4F2F07B
:1048F000DEEC34F00EDBBFDA02DBBDDAEE52E86844
:10490000EE180EE1E868EE180BE1E868EE1808E131
:10491000E868EE1805E1AFDA0A0EB7DAEF6A14D0EC
:10492000AADAEE52EECF14F0EECF15F0EECF16F07D
:10493000EFCF17F0145015101610171008E19BDA7E
:104940000A0EA3DA010EEF6E0EDB020E9BD00BDB1C
:10495000090E98D028DB166AF3CFE6FFF4CFE6FF06
:1049600016C0E6FF88DAAFDAEECFE6FFEECFE6FF5D
:10497000EFCFE6FF4AEC34F0E552E552E552E5525E
:10498000E7CF16F0E552E7CF15F0E552E7CF14F088
:104990000750145C085015580950165801E281D090
:1049A0006ADA91DAEECF4FF5EECF50F5EFCF51F551
:1049B00018DB61DAB7DA72D0F6DAF350F41071E08E
:1049C0000401010E666F57DA0B0EEB5002080DE181
:1049D00052DA090E5ADA010EEF6E840EB5DAD00EF5
:1049E000466F710E476F000E0BD045DA090E4DDA97
:1049F000EF6A1F0EA9DAB00E466F710E476F000EF8
:104A0000E0DAE80E146E700E156E000E166E33DAD4
:104A10000B0EEB50176E186A196A140E0C6E0D6AA5
:104A20000E6A17C007F018C008F019C009F078EC3A
:104A300039F004C017F005C018F006C019F0145082
:104A40000424F36E15500520F46E16500620F86EFF
:104A5000F4CFF7FFF3CFF6FFF6CF4FF5F7CF50F5D2
:104A6000F8CF51F5BEDA040E6FDA550E466F720EAE
:104A7000476F000EA6DAFFD9060E07DA030EEF6EB7
:104A800072DA010EEF6E0DD0A7DA7FC4F5F180C4A3
:104A9000F6F10CD8000905E061EC35F098DA63DA3C
:104AA000EF6A0401665101E087D61200E9D9EE529F
:104AB000EECFF3F0EECFF4F0EECFF5F0EFCFF6F06F
:104AC00068EC35F0DDD9090EEB50000901E193D017
:104AD00063DA0401D751D81101E1D0D0CD6BD0D920
:104AE000060EEB50080814E07AEC35F00401CE6FA6
:104AF000E8680001E8190CE1E868E91909E1E868EB
:104B0000EA1906E1E868EB1903E18CEC35F0A2D074
:104B1000B7D9060EEB50080A34E00E0A1AE0030A71
:104B20000CE0060A58E1250E0401CE5D03E130DAFF
:104B3000050E50D0010ECD6F4ED0250E0401CE5D76
:104B400003E1010ECD6F44D0CEC4DAF421DA060EB3
:104B500041D0CEC4D9F4CEC4EBF2DAC4ECF2C6EC48
:104B60002DF0E66E8DD90A0E90D9E552E750EF6E22
:104B70000FDA080EEF6E84D9070EEB6A080EEB6AA7
:104B80002AD00001CE0EC56F040EC66F79D9070E6C
:104B90007CD9EECFC3F0EDCFC4F072D90A0EEB5042
:104BA0000001C26F3BEC1FF0C2D96AD9070EF3CFE8
:104BB000EBFF080E15C0EBFF0401010ECD6F60D9AD
:104BC000070E63D9FF0EEE1806E1FF0EED1803E1A4
:104BD000DFD9030EEF6E0401CD5108E0CEC43FF5DE
:104BE0004FD9EF5005013E6FE2EC02F00401D70708
:104BF000000ED85B6ED7D0D90401080ED75D000E29
:104C0000D85938E3CE6BCE51146E156A080E145C79
:104C1000000E155825E27AEC35F0E66E0401CE510F
:104C2000EA6ACF0FE96E040EEA22E552E750EF6E12
:104C3000E8680001E81911E1E868E9190EE1E8689F
:104C4000EA190BE1E868EB1908E18CEC35F0040196
:104C5000CE518DD915D966D9010C0401CE2BD3D7ED
:104C6000080E85D9080E0401D75F000ED85B010E2F
:104C7000CD6FC2D7CD5102E003D954D98CEC35F0B9
:104C800048D9FED83CD9000C0401846B866B876B35
:104C9000836B030EE66EE66A5A0EE66E720EE66EE1
:104CA000000EE66EF7C1E6FFF8C1E6FF45D908E160
:104CB000040E0101F727000EF8230401856B01D0D3
:104CC000020CF0D8EF50200802E143D9FAD775D989
:104CD000200E0401885D5EE088515CE00D0E885D69
:104CE00059E00A0E885D56E0FBC1E9FFFCC1EAFF0E
:104CF000EF50835D4FE28451020A15E0030A0DE094
:104D0000010A46E1835153D958D92F0E0401885D19
:104D100028E05C0E885D3CE124D08351832B47D989
:104D20000401020E846F49D93F0E885D18E0260EFB
:104D3000885D15E02B0E885D04E1200EB3D8EF6E80
:104D400027D02E0E885D08E1830506E102D9F7C160
:104D500086F4F8C187F41CD03D0E885D05E1A2D829
:104D6000EF6A010E846F14D02F0E885D03E05C0E95
:104D7000885D0EE1010E0101156AF725146EF851E8
:104D800015220401830585D814C0EEFF15C0EDFF80
:104D9000E0D89DD787D8EF6A090EE0D8EF6E86512C
:104DA000871137E086C4E6FF87C4E6FFC3EC34F022
:104DB000E552E552F3CF86F4F4CF87F40401C00E38
:104DC000896F700E8A6F000E8B6F886B8851146E1E
:104DD000156A0A0E145C000E15581BE2030EE66EEF
:104DE000E66A89C4E6FF8AC4E6FF8BC4E6FF86C490
:104DF000E6FF87C4E6FFA0D804E1B0D888C4EFFF7F
:104E000008D0040E04018927000E8A238B23882BE7
:104E1000DDD70401835127E1090EE66EE66A5E0ED6
:104E2000E66E720EE66E000EE66EF9C1E9FFFAC19B
:104E3000EAFFEECFE6FFEFCFE6FFEBEC33F0146EC8
:104E4000070EE15E1450F9C1E9FFFAC1EAFFEE5026
:104E5000EFCFEAFFE96E090E18D8EF6A010E7ED88F
:104E6000EF6E0401832BFBC1E9FFFCC1EAFF83C4A1
:104E7000EFFF855112007FC4E9FF80C4EAFF1200F2
:104E8000F5C1E9FFF6C1EAFF1200E926000EEA22A9
:104E90001200020D0101F951F324E96EFA51F420D8
:104EA000EA6E1200F7C1E9FFF8C1EAFF1200156AC5
:104EB000166A176A030E145C000E1558000E165879
:104EC000000E175812000A0EEB50030DF3CFE9FF46
:104ED000F4CFEAFFF90EE926020EEA221200EF50A3
:104EE00005013D6F89EF02F003510C0DF3CFE9FF8F
:104EF000F4CFEAFFD00EE926010EEA221200EE52AC
:104F000006C0EEFF15C0EEFF16C0EEFF17C0EEFFA5
:104F1000120006C014F007C015F008C016F009C052
:104F200017F01200EF5005013C6F58EF02F0F3CF7D
:104F300014F0F4CF15F01200A1EC33F0146E070E4C
:104F4000E15E1450000912000501496F4A6B05012A
:104F500012000101F72B000EF8231200FDC1E9FF3A
:104F6000FEC1EAFF120087DF050E45EF27F00501BD
:104F7000436F446B0501CF0E416F040E426F80DF1B
:104F8000EF500501406F4FEF03F075DFEF50120057
:104F900077DF060E45EF27F073DFA1DFF3CFD7F4FD
:104FA000F4CFD8F4120067DF9ADF97EF27F071DFB4
:104FB000F7C1EEFFF8C1EDFF120074DFEFCF88F408
:104FC0001200486FE2DF0501456FF7EF03F0DDDF08
:104FD00005013B6F21EF02F0D8DF0501526FE7EFCB
:0C4FE00004F0D3DF05014E6FBEEF04F0BB
:044FEC00150E050198
:104FF000276F286B07EC01F00201016FFE0E026FB4
:10500000056B346B006B140E036F046B120001C24E
:105010003AF516EC02F000090CE10201346B070EC0
:10502000076F056B006B066BFE0E025D01E04FDA49
:10503000010C01C253F55DDA35E039DA0501000EE5
:10504000556F040E566F01C254F55BEC05F0000974
:105050000FE002013451342BEA6A130FE96E020E9D
:10506000EA2200C4EFFF1F0E345DE8E1346BE6D79F
:1050700001C252F5E7EC04F00A0E0401005D3FE1C5
:1050800002013451EA6A130FE96E020EEA22EF6A56
:10509000346BBFD935C24DF236C24EF288D9020107
:1050A000076F2DD0020105512AE0A2EC3BF006C0AB
:1050B00001F407C002F408C003F409C004F4440E6C
:1050C000E96E020EEA6EEE500401065C016FEE50CE
:1050D0000758026FEE500858036FEE500958046FDE
:1050E000200E015DBF0E0259020E0359000E045935
:1050F00006E3DDD90201020E076F010E056F020102
:105100000551010A39E0050A04E0040A53E1086B7D
:10511000CED9D8D901E1010C08C2E9FFEA6AE9BE9B
:10512000EA68DDD99F0EE926020EEA22EECF05F4E9
:10513000EECF06F4EFCF07F4040105C4F6FF052B0C
:1051400006C4F7FF000E062307C4F8FF0723080074
:10515000F5CF00F4F55007E000C43FF501C23EF57D
:10516000E2EC02F0E9D701C23CF558EC02F0020192
:105170000C0E086F010E056F070E075D1BE007C2DE
:105180004CF219D800090FE00C0E0201085D03E093
:10519000040E056F04D0020E075D01E1056B070EDA
:1051A000076F066B010C0C0E0201085D03E0040E94
:1051B000056FAFD7010C02014C51050A51E0060AF8
:1051C0004DE0070A34E0060A30E0030A18E0010A5D
:1051D0004EE100810093010E086F0A0EE66EE66A4A
:1051E00037C2E6FF38C2E6FF090EE66E020EE66E33
:1051F0006FEC34F0146E060EE15E1450010C00A149
:1052000012D037C2E2F038C2E3F00001090EE06FBD
:10521000020EE16F9DEC1FF0000904E00201008323
:10522000020E26D00201060E23D03AEF29F03FC22B
:10523000E6FF40C2E6FF16EC36F0E552E552F3CF4A
:1052400004F241C2E6FF42C2E6FF16EC36F0E55238
:10525000E552F3CF03F202010B0E0AD068EF29F0FA
:105260000B0E086FFE0E025D04E031D9010C050E35
:10527000086F010C02010651030A1DE0020A14E046
:10528000010A25E1020E065D02E161EC35F0FE0E39
:105290000201025D0BE061EC35F002C23BF521EC4E
:1052A00002F00201010E05D030D911E10201030E16
:1052B000086F066F000C06D90AE001C23AF516EC39
:1052C00002F0000904E001C23BF521EC02F0000C01
:1052D00002010651020A2EE0030A23E0010A66E1F8
:1052E00000B302D0060E60D0070E086F03C238F577
:1052F00004C239F501C229F555EC01F0F3CFE9FFFD
:10530000F4CFEAFFF3CF36F5F4CF37F56DEC01F0CB
:105310000201026FFE0E025D02E0010E09D00A0ECC
:1053200043D0F3D843E08FEC35F0E6D80201020E0B
:10533000066F000C02C253F5DCD830E0B8D848C282
:10534000F7F049C2F8F04AC2F9F04BC2FAF097EC14
:1053500035F005010C0E556F040E566F02C254F560
:105360005BEC05F0000905E00CC4FBF0AEEC35F099
:10537000F0D7C7EC35F0C0D802C252F5E7EC04F024
:10538000A1D814E00501230E3F6F01C23EF5E2EC07
:1053900002F001C23CF558EC02F0000CB6D806E170
:1053A00061EC35F094D8090E086F010C000C040173
:1053B000086B060EE76E0819E8AE02D0E73402D09B
:1053C000E750085D25E2040EE66EE66A08C4E9FFD0
:1053D000EA6AE9BEEA6883D88D0EE926020EEA225F
:1053E000EECFE6FFEECFE6FFEFCFE6FF4DC2E6FFE2
:1053F0004EC2E6FFA1EC33F0146E070EE15E1450CE
:10540000000903E10401085112000401082BD1D75F
:10541000060C04010B6B130E086F020E096F7BD88C
:10542000EF50200804E1082B000E0923F8D708C428
:1054300035F209C436F20201010E436F6CD8EFCF8A
:105440000AF4EF5033E004010B51010A16E0010A9F
:1054500029E1200E0A5D03E02C0E0A5D05E15BD810
:10546000EF6A010E0B6F1ED00D0E0A5D03E00A0EEF
:105470000A5D18E150D8EF6A15D0200E0A5D12E0DF
:1054800002014351432BE96EEA6AD890E936EA36C5
:10549000350EE926020EEA2208C4EEFF09C4EDFF2C
:1054A00004010B6B082B000E0923C8D71200A2ECD5
:1054B0003BF006C044F207C045F208C046F209C0FE
:1054C00047F2120001C23DF589EC02F029D002C278
:1054D0003BF521EC02F00201FE0E026F1200030EFA
:1054E000EA02F3CFEAFFE902F3CFE9FFF450EA263C
:1054F000120019EC05F014D006C048F207C049F2BA
:1055000008C04AF209C04BF2120002C23AF516EC8A
:1055100002F00009120008C4E9FF09C4EAFF120002
:0E552000F3CF14F0F4CF15F0F350F410120096
:02552E00323019
:1055300030204F6B0D0A003432352043616E2774E2
:1055400020637265617465206461746120736F63A8
:105550006B65742E2020496E637265617365204D02
:1055600041585F5443505F534F434B4554532E0DA6
:105570000A000D0A323236205472616E736665720B
:1055800020436F6D706C6574650D0A0031323520F3
:10559000446F6E650D0A00313530205472616E73B0
:1055A00066657272696E6720646174612E2E2E0DBD
:1055B0000A00353330204C6F67696E207265717553
:1055C000697265640D0A00353032204E6F742069AF
:1055D0006D706C656D656E7465640D0A00353030F4
:1055E000200D0A00323231204279650D0A00323333
:1055F00030204C6F6767656420696E0D0A00333395
:10560000312050617373776F7264207265717569B0
:105610007265640D0A003232302052656164790D82
:105620000A0041424F5200504F52540053544F52BF
:1056300000515549540050415353005553455200B1
:105640000D0A00485454502F312E3120353033206C
:105650000D0A0D0A5365727669636520556E617691
:1056600061696C61626C650D0A00485454502F31B9
:105670002E3120343034204E6F7420666F756E6486
:105680000D0A0D0A4E6F7420666F756E642E0D0A3A
:105690000053657474696E67732073617665642E58
:1056A0000D0A00496E76616C696420696E707574CC
:1056B0002E0D0A004E65772073657474696E673A23
:1056C0002000525443206661756C740053686F72F9
:1056D00074206F6E20504F525420452121212121EA
:1056E00021210053686F7274206F6E20504F525406
:1056F0002044212121212121210053686F7274202F
:105700006F6E20504F52542043212121212121210D
:105710000053686F7274206F6E20504F52542041B6
:10572000212121212121210050696E20746F2056F2
:1057300043432121212121212121210050696E2073
:10574000746F20474E442121212121212121210054
:10575000457874656E73696F6E204F4B0050757499
:1057600020657874656E73696F6E20686561646525
:105770007220616E6420707265737320616E79208F
:105780006B6579000D0A456E7465722061206D6548
:105790006E752063686F6963653A20000D0A0930F1
:1057A0003A2053617665202620517569742E000DCC
:1057B0000A09393A20446F776E6C6F6164204D504E
:1057C000465320696D6167652E0064697361626C80
:1057D000656400656E61626C65640061626C652081
:1057E00044484350202620495020476C65616E692B
:1057F0006E673A0909444843502069732063757203
:1058000072656E746C792000456E00446973000DFA
:105810000A09383A20000D0A09373A204368616EB8
:10582000676520737461746963207365636F6E6468
:1058300061727920444E53207365727665723A091D
:10584000000D0A09363A204368616E67652073745B
:1058500061746963207072696D61727920444E537E
:10586000207365727665723A09000D0A09353A208F
:105870004368616E67652073746174696320737532
:10588000626E6574206D61736B3A0909000D0A0937
:10589000343A204368616E6765207374617469638C
:1058A00020676174657761792061646472657373E0
:1058B0003A09000D0A09333A204368616E67652092
:1058C0007374617469632049502061646472657304
:1058D000733A0909000D0A09323A204368616E677C
:1058E0006520686F7374206E616D653A090909005F
:1058F00009313A204368616E67652073657269619A
:105900006C206E756D6265723A0909000D0A0D0A08
:105910000D4D6963726F63686970205443502F495D
:105920005020436F6E666967204170706C696361D7
:1059300074696F6E202876342E30322C20417567C2
:105940002032342032303037290D0A0D0A004F4CF6
:10595000494D455820574542004175672032342053
:10596000323030372031343A32393A3337007634F6
:105970002E3032004E6577204950204164647265B4
:10598000733A20000D0A000D0A4E65772049502019
:105990004164647265733A20000D0A0D0A42555441
:1059A000544F4E302068656C6420666F72206D6FB6
:1059B0007265207468616E2034207365636F6E6455
:1059C000732E2020454550524F4D20636F6E7465F5
:1059D0006E7473206572617365642E0D0A0D0A0082
:1059E000250EE66EE1C2E6FFE2C2E6FF28EC34F0E7
:1059F000E552E552E552F3CF00F4F4CF01F404018F
:105A0000F350F41030E0010E90D9EF5001E1120094
:105A1000020E8BD9EF5001E11200020E86D9EFCFB2
:105A200004F4010E82D9EFCF05F404C4EBF205C4EF
:105A3000ECF2ACD8E66E04017ED900C4E1F201C4F8
:105A4000E2F2020E0025026F000E0121036F02C474
:105A5000E9FF03C4EAFF022B000E0323EF50E66EBA
:105A60006AD9BEE0F4D712000401016B026B020197
:105A7000E3C2E9FFE4C2EAFFE32B000EE423EFCF29
:105A800000F4EF5021E02E0E0401005D08E1015109
:105A900067D9EF6A016B38D9022B58D910D0300E74
:105AA000005D03E30051390801E2000C0151012BB4
:105AB00057D900C4EFFF025161D901E3000C040182
:105AC00001515CD9D4E3000C0401015149D9EF6ABA
