:020000040000FA
:060000005DEF3AF0120072
:06000800ADEF2EF0120026
:06001800DDEF15F01200FF
:06002A0007003967000029
:10003000FF0100000100000002750000090300003C
:10004000060000000075000013030000020000001D
:10005000F77400000003000009000000F3740000C2
:100060000F03000004000000E8740000E900000035
:100070000B000000E6740000FE000000020000001B
:100080000501235108EC12F059EC15F0EECFD5F232
:10009000EFCFD6F20201230ED55F000ED65B7FECC8
:1000A00022F0F3CF83F4F4CF84F4230EADEC13F0FD
:1000B000000EE36F050EE46F2CEC24F083C4D5F240
:1000C00084C4D6F27FEF22F00501245108EC12F02F
:1000D00059EC15F0EECFD3F2EFCFD4F20201230E9C
:1000E000D35F000ED45B6EEC22F0F3CF83F4F4CF39
:1000F00084F4230EB2EC13F0000EE86F050EE96FE6
:100100006BEC24F083C4D3F284C4D4F26EEF22F0FB
:100110000401006B00C414F017EC12F067E2005108
:100120001A0DF3CF01F4F4CF02F4000E0127010EF3
:1001300002232CEC12F074EC15F00A0EEF6E00C4E2
:1001400014F0156A166A176AB50E0B6E010E0C6E66
:100150000D6A0E6A00C406F015C007F016C008F05C
:1001600017C009F08AEC39F002C014F003C015F092
:10017000820E1426120E15222CEC12F0020E14C060
:10018000EBFF030E14EC15F05CEC15F013EC14F01F
:10019000142A15222CEC12F0040E14C0EBFF050EED
:1001A00014EC15F050EC15F013EC14F02CEC12F0EC
:1001B000060E14C0EBFF070E14EC15F033EC14F030
:1001C000EF9053EC15F0EF9253EC15F0EF9453ECE5
:1001D00015F0EF9653EC15F0EF9853EC15F0EF9AFD
:1001E00053EC15F0EF9C0401002B94D763EC14F052
:1001F00006C0E6FF07C0E6FFACEC34F0E552E5527E
:1002000012000401006B00C414F017EC12F045E278
:1002100000511A0DF3CF01F4F4CF02F4000E0127C0
:10022000010E022331EC12F0180EEB500A0833E1F4
:1002300031EC12F033EC14F0EF8031EC12F074EC8E
:1002400015F0EF6A31EC12F025C5EEFF26C5EDFF83
:10025000BDEC15F065EC13F0BDEC15F063EC12F09D
:10026000C1EC15F06AEC12F0C1EC15F0FBEC12F0E9
:1002700005011F69206925C50CF526C50DF531EC72
:1002800012F0D5EC14F056EC12F000C424F51CDF8B
:10029000040100511200002BB6D7FE0C27C523F530
:1002A000EFDE0A0EE66EE66A000EE66E050EE66EFC
:1002B000280EE66E050EB7EC13F00AC532F50BC535
:1002C00033F5280E146E050E71EF12F0050134514E
:1002D00008EC12F074EC15F0EF50030801E0000C8C
:1002E000010C050135511A0DF3CFCDF4F4CFCEF446
:1002F000000E0401CD27010ECE2335C523F5C0DE47
:1003000070EC13F0180EEB50080A0FE00A0A09E02F
:10031000010A07E0020A18E135C57BF57DEC0DF016
:1003200013D07CEC14F0040E03D07CEC14F0090E16
:10033000EF6E7DEC11F070EC13F047EC14F070EC04
:1003400013F033EC14F0EF8235C524F564EF00F0C0
:10035000050136511A0DF3CFECF4F4CFEDF4000E95
:100360000401EC27010EED2336C523F589DE15ECDB
:1003700014F0080E30EC14F005010E51141802E1CF
:100380000F51151812E00501180E746F36C573F57C
:100390003AEC0AF07DEC11F015EC14F047EC14F097
:1003A00015EC14F033EC14F0EF8236C524F564EF4D
:1003B00000F0050137511A0DF3CF83F4F4CF84F424
:1003C000000E04018327010E842376EC12F0180E30
:1003D000EB50030809E076EC12F0180EEB50080819
:1003E00003E0F36AF46A120076EC12F0080E30ECC7
:1003F00014F076EC12F00A0E32EC15F021E376ECF4
:1004000012F0A3EC15F076EC12F059EC15F0A0EC1C
:1004100012F01606000E175A76EC12F0080EFBECDE
:1004200014F076EC12F07FEC15F0DDEC13F01A50BE
:10043000165C146E1B50175814C0F3FFF46E1200B4
:1004400076EC12F00A0E36EC14F076EC12F0080E90
:1004500057EC14F01406000E155A14C0F3FF15C023
:10046000F4FF1200050138511A0DF3CFDBF4F4CF7D
:10047000DCF4000E0401DB27010EDC2338C537F560
:1004800098DFF3CFDDF4F4CFDEF40401F350F41081
:1004900001E1000C010EDD1904E1DE5102E11AEC6C
:1004A00014F03BEC12F02FEC15F0200B15E13BECB7
:1004B00012F0DAEC15F03BEC12F062EC15F00401EE
:1004C000DD51145CDE51155807E31AEC14F03BECD7
:1004D00012F033EC14F0EF8A3BEC12F08EEC14F0D7
:1004E00039C5E7F260EC24F03BEC12F071EC15F04A
:1004F000E4EC13F03BEC12F0040E32EC15F008E3E0
:100500003BEC12F05CEC15F03BEC12F063EC12F0FB
:100510000401010EDD1904E1DE5102E11AEC14F0D0
:100520003BEC12F02FEC15F0040B08E13BEC12F061
:100530006EEC15F03BEC12F0ADEC12F0010C040186
:10054000DF6BE06B05013A511A0DF3CFE1F4F4CF04
:10055000E2F4000E0401E127010EE2233AC537F56B
:1005600028DFF3CFDDF4F4CFDEF40401F350F41010
:1005700005E11EEC14F0F36AF46A1200DDC4DBF44A
:10058000DEC4DCF4BFEC13F004E23DC5DBF43EC591
:10059000DCF4EEEC11F02FEC15F0200B15E1EEEC95
:1005A00011F0DAEC15F0EEEC11F062EC15F004014C
:1005B000DD51145CDE51155807E31EEC14F0EEEC2F
:1005C00011F033EC14F0EF8AE9EC14F0EE24146E21
:1005D000DC51EE20156EEEEC11F0040E32EC15F04D
:1005E0002CE3EEEC11F050EC15F0EEEC11F0080EEF
:1005F000DEEC14F0DF6FEE501558E06FEEEC11F00A
:100600008EEC14F0DFC4EAF2E0C4EBF2EBEC13F092
:100610000401DF5105013B270401E05105013C23A2
:100620000401DF51DB5FE051DC5BEEEC11F05CECD0
:1006300015F0EEEC11F063EC12F0EEEC11F08EEC34
:1006400014F0DBC4EAF2DCC4EBF2EBEC13F0E9ECFF
:1006500014F0EE26DC51ED22BFEC13F002E31EECA9
:1006600014F0EEEC11F02FEC15F0040B08E1EEECB9
:1006700011F06EEC15F0EEEC11F0ADEC12F004019F
:10068000DB51DF25146EDC51E02171EF12F0040123
:10069000D16BD26B05013F511A0DF3CFD3F4F4CFD8
:1006A000D4F4000E0401D327010ED4233FC537F53F
:1006B00080DEF3CFCFF4F4CFD0F40401F350F41084
:1006C00005E122EC14F0F36AF46A1200F3EC11F085
:1006D0002FEC15F0200B14E1F3EC11F0DAEC15F02F
:1006E000F3EC11F062EC15F0CF51145CD0511558B9
:1006F00007E322EC14F0F3EC11F033EC14F0EF8A82
:10070000CFC4CDF4D0C4CEF40401C7EC13F004E29E
:1007100043C5CDF444C5CEF4EEEC14F0EE24146ED3
:10072000CE51EE20156EF3EC11F0040E32EC15F004
:1007300030E3F3EC11F050EC15F0F3EC11F0080E8F
:10074000DEEC14F0D16FEE501558D26FF3EC11F0CF
:100750008EEC14F0D1C4EFF2D2C4F0F293EC13F0AB
:10076000D1C414F0D2C415F0166A14500501402704
:1007700015504123165042230401D151CD5FD2516F
:10078000CE5BF3EC11F05CEC15F0F3EC11F063ECE4
:1007900012F0F3EC11F08EEC14F0CDC4EFF2CEC4F5
:1007A000F0F293EC13F0EEEC14F0EE26CE51ED22C5
:1007B000C7EC13F002E322EC14F0F3EC11F02FEC91
:1007C00015F0040B08E1F3EC11F06EEC15F0F3EC0E
:1007D00011F0ADEC12F00401CD51D125146ECE51C3
:1007E000D22171EF12F046C5E6FF47C5E6FFA4EC43
:1007F00030F0E552E552F3CF3DF5F4CF3EF546C576
:100800003BF547C53CF545C53AF599DE050146512E
:10081000F324146E4751F42071EF12F049C5E6FF3E
:100820004AC5E6FF4BC5E6FFB2EC30F0E552E552B3
:10083000E55207C043F508C044F549C540F54AC52F
:1008400041F54BC542F548C53FF521DF196A050161
:100850004951F324146E4A51F420156E4B5119205E
:10086000166E14C007F015C008F0096E12004CC5D2
:100870004DF52FD8F3CF14F0F4CF15F0F350F4105A
:1008800027E005014C511A0DF3CFCDF4F4CFCEF48F
:10089000000E0401CD27010ECE234CC523F540ECFC
:1008A00000F0CDC4E9FFCEC4EAFF96EC15F0CDC44C
:1008B000E9FFCEC4EAFF6AEC12F00501100E746F76
:1008C0004CC573F53AEC0AF04CC524F564EC00F025
:1008D000120005014D511A0DF3CF9BF4F4CF9CF497
:1008E000000E04019B27010E9C23DCEC12F096EC19
:1008F00015F0DCEC12F00E0E32EC15F00FE3DCEC30
:1009000012F00C0E36EC14F0DCEC12F05FEC15F08B
:10091000EE50165C146EEE5017581BD0DCEC12F043
:1009200085EC15F036EC12F0DCEC12F00E0EC3EC98
:1009300014F0DCEC12F00C0EFBEC14F0DCEC12F01A
:1009400035EC15F0DDEC13F016501A24146E175028
:100950001B2071EF12F04EC54DF5BBDFF3CF02F453
:10096000F4CF03F4F350F41001E1000C05014E51F3
:100970001A0DF3CF00F4F4CF01F4000E04010027A8
:10098000010E0123E1EC12F05FEC15F0B4EC12F073
:100990001BEC24F04FC5E9FF50C5EAFFEF6EE1EC18
:1009A00012F05FEC15F0E4EC13F0E1EC12F0BAECAD
:1009B00015F0B6EC14F008E2E1EC12F050EC15F092
:1009C000E1EC12F06AEC12F00401010E02190FE1E1
:1009D00003510DE14EC523F5D8EC14F04EC573F567
:1009E0003AEC0AF04EC524F564EC00F0010CE1ECA1
:1009F00012F02FEC15F0040B08E1E1EC12F06EECB4
:100A000015F0E1EC12F0ADEC12F0010C0401CF6B2B
:100A1000D06B050151511A0DF3CFD1F4F4CFD2F4BC
:100A2000000E0401D127010ED22351C54DF551DF2F
:100A3000F3CFCDF4F4CFCEF4050154510401F35CAF
:100A4000050155510401F45804E2CDC454F5CEC457
:100A500055F591EC14F005015451EE24146E5551E6
:100A6000EE20156E40EC12F0BAEC15F0B6EC14F076
:100A700037E240EC12F099EC15F091EC14F004011F
:100A8000EE50145CCF6FEE501558D06F010ECF278B
:100A9000000ED02391EC14F0B4EC12F0CFC4E5F2C8
:100AA000D0C4E6F2F1EC13F005015251531108E005
:100AB0000401CF51050152270401D05105015323F0
:100AC0000401CF510501545F0401D0510501555B6C
:100AD00040EC12F050EC15F040EC12F06AEC12F021
:100AE00091EC14F0B4EC12F054C5E5F255C5E6F201
:100AF000F1EC13F091EC14F005015451EE26555130
:100B0000ED2254510401CD5D146ECE5105015555B1
:100B1000156E1450545D155055590DE351C523F50C
:100B2000D8EC14F051C573F53AEC0AF051C524F530
:100B300064EC00F00ED040EC12F02FEC15F0040B3A
:100B400008E140EC12F06EEC15F040EC12F0ADEC68
:100B500012F0050154510401CF25146E05015551C1
:100B60000401D02171EF12F00501565108EC12F08A
:100B700099EC15F0565108EC12F035EC15F0040123
:100B8000EE50145C856FEE501558866F56C54DF5C6
:100B9000A0DEF3CF83F4F4CF84F40401F350855D39
:100BA000146E8651F45471EF12F005015A515B1125
:100BB00003E1F36AF46A120057511A0DF3CF15F4EA
:100BC000F4CF16F4000E04011527010E162357C5A5
:100BD0004DF57FDEF3CF00F4F4CF01F405015A5157
:100BE0005C25146E5B515D21156E04011450F35C9D
:100BF0001550F45801E2F6D021EC13F05FEC15F03B
:100C000005015C51EE240401046F05015D51EE20E5
:100C10000401056F21EC13F099EC15F00451145CFC
:100C2000055115580CE221EC13F0BAEC15F021EC4B
:100C300013F077EC15F01450045F1550055B04C4F5
:100C4000D5F205C4D6F27FEC22F021EC13F085EC4E
:100C500015F004010451EE5C026F0551EE58036F6C
:100C6000010E0227000E03235CC504F45DC505F4E4
:100C70005AC506F45BC507F458C508F459C509F40C
:100C8000050158C5E9FF59C5EAFF582B5923EFCF95
:100C90000BF45E5109E0610E04010B5D05E30B519D
:100CA0007A0802E3E00E0B270401080E0C6FE850EF
:100CB000025D000E035902E202C40CF40C5105015E
:100CC0005A5D000E5B5902E25AC50CF404010C5146
:100CD000ADEC13F00D0EE36F040EE46F2CEC24F07A
:100CE00004010C51D9EC13F0025F1550035B025163
:100CF000031109E121EC13F035EC15F0B4EC12F01E
:100D000004010269036905015E513FE004010A6BB9
:100D10000C510A5D58E2BAEC12F0EFCF14F0610EFC
:100D2000145C0BE3BAEC12F0EF507A0806E3E00E25
:100D3000146EBAEC12F01450EF26BAEC12F0EF5029
:100D40000B5D0DE1F7EC13F02DE075EC13F0610E87
:100D500004010B5D18E30B517A0815E312D07FEC08
:100D600013F008C4E9FF09C4EAFF582B000E592309
:100D7000EFCF0BF4610E04010B5D05E30B517A0814
:100D800002E3E00E0B270A2BC3D704010A6B0C51B8
:100D90000A5D19E2BAEC12F0EF500B5D0DE1F7ECD1
:100DA00013F00CE104010651045D166E0551075560
:100DB000176E0A51E6EF12F07FEC13F075EC13F0AA
:100DC00004010A2BE4D70C51D9EC13F0005F155045
:100DD000015B05015A510401005D05015B510401ED
:100DE000015903E2F368F46812000C51D9EC13F0D6
:100DF00004271550052358D705016351641103E1F9
:100E0000F36AF46A12005F511A0DF3CF99F4F4CF2C
:100E10009AF4000E04019927010E9A235FC54DF53F
:100E200058DDF3CF83F4F4CF84F4050163516525D5
:100E3000146E64516621156E04011450F35C155054
:100E4000F45801E2FBD026EC13F05FEC15F005013D
:100E50006551EE240401876F05016651EE200401FF
:100E6000886F26EC13F099EC15F08751145C8851CB
:100E700015580CE226EC13F0BAEC15F026EC13F042
:100E800077EC15F01450875F1550885B87C4D5F256
:100E900088C4D6F27FEC22F026EC13F085EC15F036
:100EA00004018751EE5C856F8851EE58866F010E04
:100EB0008527000E862365C587F466C588F463C55B
:100EC00089F464C58AF460C58BF461C58CF462C58D
:100ED0008DF4050160C5F6FF602B61C5F7FFF3ECEB
:100EE00014F0675109E0610E04018F5D05E38F5135
:100EF0007A0802E3E00E8F270401080E906FE85095
:100F0000855D000E865902E285C490F4905105017A
:100F1000635D000E645902E263C590F404019051D0
:100F2000ADEC13F0910EE36F040EE46F2CEC24F0A3
:100F300004019051D9EC13F0855F1550865B855103
:100F4000861109E126EC13F035EC15F0B4EC12F043
:100F50000401856986690501675143E004018E6BD0
:100F600090518E5D5CE2C1EC12F0EFCF14F0610E97
:100F7000145C0BE3C1EC12F0EF507A0806E3E00ECC
:100F8000146EC1EC12F01450EF26C1EC12F0EF50C9
:100F90008F5D0DE1FEEC13F031E007EC13F0610E14
:100FA00004018F5D1CE38F517A0819E316D02BECF6
:100FB00013F08BC4F6FF602B8CC4F7FF000E612387
:100FC0008DC4F8FF62230800F5CF8FF4610E040191
:100FD0008F5D05E38F517A0802E3E00E8F278E2B99
:100FE000BFD704018E6B90518E5D19E2C1EC12F0F7
:100FF000EF508F5D0DE1FEEC13F00CE1040189511F
:10100000875D166E88518A55176E8E51E6EF12F085
:101010002BEC13F007EC13F004018E2BE4D7905166
:10102000D9EC13F0835F1550845B05016351040113
:10103000835D050164510401845903E2F368F46897
:1010400012009051D9EC13F087271550882354D7FC
:101050006CC55EF56AC55CF56BC55DF5010E0501F5
:101060005A6F5B6B0501690E586F050E596F68C5A5
:1010700057F5D5EF05F00401006B00C414F017EC30
:1010800012F001E356D100511A0DF3CF01F4F4CF61
:1010900002F4000E0127010E0223036B9FEC15F0F2
:1010A000400B06E084EC20F0000902E0D2EC11F0E5
:1010B0009FEC15F0040B12E09EEC11F0140E36ECD0
:1010C00014F07BEC12F004E214500008000E1554EA
:1010D00005E30401035102E1D2EC11F09FEC15F09D
:1010E000080B12E09EEC11F0160E36EC14F07BECBF
:1010F00012F004E214500008000E155405E3040138
:10110000035102E1D2EC11F09FEC15F0020B01E16A
:101110000DD19EEC11F0100E79EC11F0EECF18F01D
:10112000EECF19F026EC14F018C0E6FF19C0E6FF68
:101130001AC0E6FF1BC0E6FFCCEC39F0E552E7CF62
:101140001BF0E552E7CF1AF0E552E7CF19F0E55270
:10115000E7CF18F000011850065C146E19500758BC
:10116000156E1A500858166E1B500958176E800ECF
:10117000171401E0DBD00401035104E100C423F59E
:1011800040EC00F005011A2BD8901B371C371D3797
:101190001E37CCEC39F0065005011B25146E0750A4
:1011A0001C21156E08501D21166E09501E21176E48
:1011B0009EEC11F047EC14F09EEC11F0180EEB5081
:1011C000090A01E19ED0010A01E182D00F0A01E182
:1011D000A6D0010A6CE0030A01E19CD0010A50E0AC
:1011E000070A1EE0010A04E0030A01E09BD013D0C5
:1011F0001A51050803E30501120E88D09FEC15F083
:10120000010B03E00501040E87D09EEC11F074EC95
:1012100015F0010EEF6ECFEC13F00501020E76D043
:101220009EEC11F00A0E30EC14F014500E1902E18D
:1012300015500F1901E176D01A51050816E36AEC32
:1012400014F015AE02D01668176825EC15F008E208
:101250003EEC14F015AE02D016681768C4EC11F01D
:1012600099EC14F00501180E51D04EEC13F09EECE1
:1012700011F074EC15F0040EEF6ECFEC13F044D0C7
:101280001A51050847E36AEC14F015AE02D016684F
:10129000176825EC15F008E23EEC14F015AE02D00C
:1012A00016681768C4EC11F099EC14F02DD01A519F
:1012B000050830E36AEC14F015AE02D01668176822
:1012C00025EC15F019E23EEC14F015AE13D010D059
:1012D0001A5105081FE36AEC14F015AE02D0166827
:1012E000176825EC15F008E23EEC14F015AE02D0BC
:1012F00016681768C4EC11F099EC14F00501100E93
:1013000005D01A51050806E30501110E746F18EC9B
:1013100015F008D00501140E746F18EC15F000C418
:101320007BF5EBDB00C424F564EC00F00401002B3A
:10133000A4D612006DC5E9FF6EC5EAFF85EC15F075
:10134000EECF14F4EECF15F4EECF16F4EFCF17F482
:101350006FC5E9FF70C5EAFFEECF18F4EECF19F4C0
:10136000EECF1AF4EFCF1BF404011C6B060E1D6FB9
:1013700071C51EF472C51FF471C5A8F072C5A9F03D
:10138000C3EC2BF0F3CF1EF4F4CF1FF40C0E0001CE
:10139000B06FB16B0001140EAE6F040EAF6FDEECD8
:1013A0002BF0F3CF21F4F4CF22F40401211F221FEC
:1013B00071C5DBF272C5DCF2C2EC22F0F3CF23F48C
:1013C000F4CF24F40401F350211951E124512219DE
:1013D0004EE10001C06BC16BABEC35F0140EADEC0F
:1013E00013F0000EE36F040EE46F2CEC24F0050103
:1013F000000E796F040E7A6F43DB04010C5114EC7C
:1014000013F0146E156A140E145E000E155A14C0F3
:1014100025F41450146E156AE8500501715D716F62
:1014200015507259726F140E715F000E725B6DC5AC
:1014300077F56EC578F50501000E756F040E766FB1
:101440005CDA0401206FFE0E205D11E071C57FF5AE
:1014500072C580F50501000E7D6F040E7E6F20C4FD
:101460007CF596DB20C424F564EC00F0010C8BECD9
:1014700020F0010C050173511A0DF3CF83F4F4CF62
:1014800084F4000E04018327010E842356EC15F02A
:10149000EF9456EC15F0EF9C56EC15F0EF9656ECE9
:1014A00015F0EF9884EC20F00009FCE0050174B31E
:1014B0000BD099EC11F0080E30EC14F00E5114180A
:1014C00007E10F51151804E10401AB6BAC6BC9D0F7
:1014D00099EC11F0080E30EC14F0C8EC12F02CE28C
:1014E00099EC11F071EC15F00E51EE5C0401AB6F4C
:1014F00005010F51EE5804013EEC15F003E3AEEC8C
:1015000014F002D05AEC14F054EC13F004E2ADC421
:10151000ABF4AEC4ACF4400ED880AB55020EAC5563
:1015200002E2A6EC15F0ABC4E1F2ACC4E2F243EC8B
:1015300013F09BEC13F095D099EC11F035EC15F00D
:101540000E51EE5C0401A96F05010F51EE58040124
:10155000AA6F99EC11F071EC15F0A951EE24146EFC
:10156000AA51EE20156E99EC11F0020EDEEC14F08B
:10157000AB6FEE5015583EEC15F003E3AEEC14F0F3
:1015800002D05AEC14F054EC13F004E2ADC4ABF406
:10159000AEC4ACF4400ED880AB55020EAC5502E29E
:1015A000A6EC15F0A951AD5DAA51AE5904E2ADC447
:1015B000A9F4AEC4AAF4400ED880A955020EAA55CB
:1015C00004E2400EA96F020EAA6FA9C4E1F2AAC4F8
:1015D000E2F243EC13F00401A951AB5DA96FAA51EB
:1015E000AC59AA6FA951AA1126E0A9C4E1F2AAC474
:1015F000E2F299EC11F059EC15F0EECFDFF2EDCFFD
:10160000E0F299EC11F035EC15F005010E51EE5CAD
:10161000146E0F51EE58156E166A176AA40E142632
:101620000C0E1522000E1622172214C0DDF215C072
:10163000DEF250EC23F09BEC13F099EC11F050EC3F
:1016400015F0C8EC12F00DE399EC11F0DAEC15F09E
:1016500099EC11F0020E57EC14F014500E5F155077
:101660000F5B0CC587F40DC588F40AC589F40BC55A
:101670008AF4030E0501741509E0A4EC13F00401CB
:101680008B07000E8C5B8D5B8E5B02D0A4EC13F09D
:1016900016C58FF417C590F418C591F419C592F4C6
:1016A0000401949D949F939193939395939774C5FC
:1016B00094F4996B9A6BAB51050112270401AC515C
:1016C00005011323000E1423152399EC11F096EC59
:1016D00015F099EC11F00E0E32EC15F01EE399ECBA
:1016E00011F0BAEC15F099EC11F0040E57EC14F06F
:1016F00099EC11F00C0E79EC11F026EC14F099EC49
:1017000011F05FEC15F005EC14F004011850145CB6
:10171000956F19501558966F15D099EC11F00E0E63
:1017200030EC14F099EC11F00C0E79EC11F004018E
:10173000EE50145C956FEE501558966F010E955F44
:10174000000E965BB4EC20F0F3CF85F4F4CF86F472
:101750000401400E855F000E865B800E861502E058
:10176000856B866B9551855D9651865909E2D00E41
:10177000855D070E865904E285C495F486C496F407
:101780000501870E796F040E7A6F7AD9140E040161
:10179000AB27000EAC239389939B938D939F0501F8
:1017A00074A326D0040E0401AB27000EAC23020E56
:1017B0009B6F040E9C6F020E9D6F400E9E6F010E7C
:1017C000146E930EE96E040EEA6EEF50F00BE842D1
:1017D000E842E842E84214240F0BF36EF46EF3463D
:1017E000F346F346F3460F0EEF14F310EF6EF4508A
:1017F00000C29FF401C2A0F402C2A1F403C2A2F489
:1018000006C5A3F407C5A4F408C5A5F409C5A6F444
:101810000401A76B060EA86FABC4A9F4ACC4AAF46C
:10182000ABC4A8F0ACC4A9F0C3EC2BF0F3CFA9F47F
:10183000F4CFAAF40C0E0001B06FB16B00019F0E43
:10184000AE6F040EAF6FDEEC2BF0F3CF97F4F4CF56
:1018500098F40401971F981F02017C0ED36F0C0EA1
:10186000D46F6EEC22F0ABC4BEF0ACC4BFF000018C
:10187000060EBD6F0001000EBB6F050EBC6F38EC8D
:1018800035F0140EB2EC13F0870EE86F040EE96F1A
:101890006BEC24F0050174A309D0040EB2EC13F034
:1018A0009B0EE86F040EE96F6BEC24F00201900EC2
:1018B000D56F0C0ED66F7FEC22F0ABC4DBF2ACC45C
:1018C000DCF2C2EC22F0F3CF85F4F4CF86F402010F
:1018D000A00ED36F0C0ED46F6EEC22F0020EB2ECA1
:1018E00013F0850EE86F040EE96F6BEC24F015EC35
:1018F00024F00009FCE0F6EF21F00401FE0E296F50
:101900009DEC14F059EC15F036EC12F09DEC14F04F
:101910001850EE24166E1950EE20176E02EC13F0DC
:101920000CEC14F002EC13F059EC15F01450EE1816
:101930002A6F1550EE182B6F286B28C414F017EC83
:1019400012F05BE22851A3EC14F0180EEB500A08D9
:1019500051E012EC12F0180EEB50000913E112ECFA
:1019600012F08AEC11F002EC13F0020E36EC14F0D7
:101970001650000114183EE1175015183BE128C419
:1019800029F438D012EC12F08AEC11F02A5100013F
:10199000141830E104012B51000115182BE128C463
:1019A00023F540EC00F002EC13F05CEC15F00501BF
:1019B0000C5114181FE10D5115181CE102EC13F025
:1019C000A3EC11F00A51161815E10B51171812E18A
:1019D0009DEC14F0EE5006190DE1EE5007190AE1E6
:1019E000EE50081907E1EE50091904E103E1040182
:1019F000285112000401282BA0D7FE0E295D01E119
:101A0000FE0C2951A3EC14F02AC4EEFF2BC4EDFF09
:101A1000C5EC15F063EC12F0C5EC15F065EC13F0B5
:101A2000C9EC15F0FBEC12F0C9EC15F06AEC12F001
:101A300012EC12F033EC14F0EF920A0EE66EE66A46
:101A400077C5E6FF78C5E6FF000EE66E050EB7EC3B
:101A500013F002EC13F0EECF0AF5EDCF0BF502EC2C
:101A600013F059EC15F0EECF0CF5EDCF0DF556EC6B
:101A700012F012EC12F0D5EC14F00401295112000E
:101A800094EC14F0A8EC11F0F3CFEEFF15C0EDFFCD
:101A900094EC14F0020EE2EC14F0020EF3CFEBFF24
:101AA000030E6CEC13F035EC15F045EC12F0040E5F
:101AB00088EC15F071EC15F045EC12F0080E88EC8E
:101AC00015F00E0EE2EC14F00E0EF3CFEBFF0F0E3E
:101AD0006CEC13F0100EE2EC14F0100EF3CFEBFFF1
:101AE000110E6CEC13F0120EE2EC14F0120EF3CFA8
:101AF000EBFF130E15C0EBFF120005017B511A0D11
:101B0000F3CF83F4F4CF84F4000E04018327010E95
:101B10008423CDEC11F02FEC15F0010B02E0000E48
:101B200001D00A0EE66ECDEC11F074EC15F0E55222
:101B3000E750EF6E9CEC15F0EF929CEC15F0EF94F3
:101B40009CEC15F0EF969CEC15F0EF989CEC15F0E2
:101B5000EF9A9CEC15F0EF9CCDEC11F00CC5EEFF6C
:101B60000DC5EDFFCDEC15F065EC13F0CDEC15F0E7
:101B700063EC12F0D2EC15F06AEC12F0D2EC15F036
:101B8000FBEC12F0CDEC11F0D5EC14F056EF12F0A6
:101B900005017C511A0DF3CF34F4F4CF35F4000E67
:101BA00004013427010E3523366B39EC14F0040B95
:101BB00007E0D2EC13F07CC57BF59FDF8BEF20F0C4
:101BC00005011051111109E1CFDB5FEC15F0EE506A
:101BD000ED1003E03BEC15F0EF8CC6DB5FEC15F08D
:101BE000EECF10F5EDCF11F5E5EC14F0070A01E1A9
:101BF00011D10E0A01E1FAD0010A01E1F4D00E0A76
:101C000001E1D6D0030A01E1CCD0010A01E188D07C
:101C1000070A61E0010A46E0030A10E0010A01E058
:101C2000FCD039EC14F0020B03E1D2EC13F0EED04F
:101C300049EC15F03BEC15F0EF8223D039EC14F0B1
:101C4000020B01E1EAD082EC15F019E04DEC14F042
:101C500001E0E0D0EE50131901E0DCD0EE50141991
:101C600001E0D8D0EE50151901E0D4D001E0D2D077
:101C70000401100E366FADEC15F0BADB02D049EC62
:101C800015F072DB35EC15F0EECF16F5EECF17F54B
:101C9000EECF18F5EFCF19F50501162B17231823F2
:101CA0001923BBD082EC15F001E1B7D04DEC14F054
:101CB00001E0B3D0EE50131901E0AFD0EE5014198B
:101CC00001E0ABD0EE50151901E0A7D001E0A5D09E
:101CD000ADEC15F086D08CDB39EC14F0010B01E192
:101CE0009CD00501162B000E1723182319237F51B2
:101CF00080110AE10401110E366F05014EEC13F05C
:101D000044EC14F0090E06D00401100E366F44ECBA
:101D100014F0080EB3EC15F03BEC15F0EF827DD01B
:101D200039EC14F0010B17E082EC15F014E04DECE7
:101D300014F011E1EE5013190EE1EE5014190BE1FD
:101D4000EE50151908E107E1F2EC12F044EC14F042
:101D50000FEC13F020D082EC15F012E04DEC14F0F3
:101D60000FE1EE5013190CE1EE50141909E1EE5099
:101D7000151906E105E144EC14F0050EEF6E31D0C3
:101D800039EC14F0010B2DE0F2EC12F044EC14F0FD
:101D9000060EEF6EB2DAC3DA100EABDA14C0EEFF45
:101DA0001FD039EC14F0010B1CE0F2EC12F010D053
:101DB00082EC15F016E04DEC14F013E1EE5013191F
:101DC00010E1EE5014190DE1EE5015190AE109E188
:101DD00044EC14F00FEC13F0A2DA100E1CEC15F02A
:101DE000EDDA06DB1AD00401100E16D082EC15F0E5
:101DF00014E04DEC14F011E1EE5013190EE1EE5029
:101E000014190BE1EE50151908E107E17CC57BF5CB
:101E100074DE03D00401040E366F82EC15F001E18C
:101E200089D0E5EC14F00A0801E184D0E5EC14F067
:101E3000000901E17FD073DA7FEC15F0050103DBC7
:101E400015AE02D016681768120EE96E050EEA6E1E
:101E50001450EE5C0401266F1550EE58276F165093
:101E6000EE58286F1750EE58296F7BEC15F00501DE
:101E70008FDB0BE288EC14F014500401265F155040
:101E8000275B1650285B1750295B6EDA71EC15F052
:101E900004012651EE5C266F2751EE58276F28511A
:101EA000EE58286F2951EE58296FE834000E291991
:101EB00009E6D880000E2655000E2755000E28553D
:101EC000000E295537E288EC14F02651145C275196
:101ED000155828511658295117582CE33BEC15F08A
:101EE000EF9A1DDA7FEC15F02651EE262751ED22F0
:101EF0007BEC15F014DA040E32EC15F00BE30FDA7C
:101F0000DAEC15F00CDA020E57EC14F008DA0A0ECF
:101F100001EC15F0E5EC14F003080CE17BEC15F096
:101F200005010E51141806E10F51151803E13BECA1
:101F300015F0EF9215EC24F00009FCE08BEC20F09A
:101F40000401365106E036C474F57CC573F53AECED
:101F50000AF0120005018551861101E1000C2BECFD
:101F600014F035EC15F01651EE5C0401396F0501E3
:101F70001751EE5804013A6F05011851EE5804014B
:101F80003B6F05011951EE5804013C6F39C43DF413
:101F90003AC43EF4C9D996EC15F0C6D90E0E32EC0F
:101FA00015F015E3D7EC15F0040E57EC14F02BECFC
:101FB00015F026EC14F0B8D95FEC15F005EC14F030
:101FC0001850145C3F6F19501558406F10D0ACD9A1
:101FD0000E0E30EC14F0A8D90C0EDEEC14F03F6FAE
:101FE000EE501558406F010E3F5F000E405B3FC43E
:101FF00014F040C415F0166A176A3C511718E8AE81
:1020000002D0173408D01450395D15503A59165083
:102010003B5917503C5901E353D1BFDAE83401E38F
:102020004FD118500008000E195401E349D10401A2
:102030003E3504E23D510008000E3E5501E295D0C8
:10204000CAEC14F0146E156A3D51F35C0001C06FC8
:1020500004013E5115580001C16FABEC35F004018D
:102060003D510501852704013E5105018623855117
:1020700016278651BDEC14F08551EE24146E86515E
:10208000EE20156E38EC15F0B6EC14F022E24CD9C7
:1020900099EC15F02BEC15F00401EE50145C376F41
:1020A000EE501558386F010E3727000E38238CEC90
:1020B00015F005DB6EEC14F002DB166E86510401A0
:1020C0003855176E31D935EC15F0A6DB2DD993DADA
:1020D0000BD068EC15F007EC15F02BEC15F00501B2
:1020E0008551EE268651ED2205011F1D01E1201DBF
:1020F00001E1E6D085511F5F8651205B21511F25EC
:102100000401376F0501225120210401386F800E30
:10211000381527E10501203504E21F510008000EA3
:10212000205501E2CDD004013751050116270401E5
:1021300038510501BDEC14F004013751EE26385139
:10214000ED22F2D896EC15F038EC15F0B6EC14F060
:1021500008E2D7EC15F077EC15F0E6D80C0E01ECA0
:1021600015F005011F692069ABD03E3501E3A8D009
:102170003D510008000E3E5501E3A2D0CAEC14F018
:102180000001C06FC16BABEC35F02BEC15F0040116
:102190003D51EE24166E3E51EE20176E165005018D
:1021A0008525146E17508621D0EC14F01450185C5D
:1021B0001550195832E2D7EC15F00C0E78DBDBDB4A
:1021C00004013D51145C376F3E511558386F800E35
:1021D000381510E18CEC15F09CDADE6F50EC23F032
:1021E000040137510501855D79DBEECFDDF2EDCFDE
:1021F000DEF217D068EC15F004013D51EE24146EA8
:102200003E51EE20CDDB90D8040EBDDB020116500E
:10221000145CDD6F1750155803D068EC15F079DAAF
:10222000DE6F50EC23F005011F1D0BE1201D09E1BD
:102230003DC41FF53EC420F585C521F586C522F5B0
:102240003FD01F5104013D5D0501205104013E595D
:1022500023E265D907E30401A0D91F51185C20517E
:10226000195805E285C521F586C522F510D01F5104
:102270002125146E20512221156E04013D51145C5C
:102280000501216F04013E5115580501226F3DC41F
:102290001FF53EC420F514D042D912E204017DD9C5
:1022A0001F51185C166E20511958176E2151165C7B
:1022B000146E22511758156E1450212715502223E1
:1022C00033D8CDDB100B01E0100C2ED8CCDAEF8820
:1022D0002BD8C5DB080B0CE127D8C5DAEF86F3DA7B
:1022E000A2DA22D8160E14C0EBFF170E15C0EBFFB2
:1022F000000CE926000EEA22120005011A6B8DDBA4
:10230000E2DA9EDBE80E1426030E1522000E1622DA
:1023100017221200EECF14F0EFCF15F0120034C4E4
:10232000E9FF35C4EAFF120081C5E9FF82C5EAFF73
:10233000120083C4E9FF84C4EAFF120001C4E9FF6C
:1023400002C4EAFF1200EECF16F0EFCF17F0120032
:10235000EECFA8F0EDCFA9F0C3EC2BF0F3CF14F043
:10236000F4CF15F094EF14F07DC5E9FF7EC5EAFFC8
:102370001200EE50165C146EEE501758156E1200D7
:10238000EF84A1DA280ECED31450125F1550135BE0
:102390001650145B1750155B120083C4E9FF84C408
:1023A000EAFF120000C423F503DB42DB00C424F57E
:1023B00064EC00F00401010E036F120015C0EEFF83
:1023C00016C0EEFF17C0EEFF1200EE50185C146E40
:1023D000EE501958156E166A176A1200E1C4E9FF2B
:1023E000E2C4EAFF1200D3C4E9FFD4C4EAFF12003A
:1023F0007FC585F580C586F57DC583F57EC584F5E9
:1024000034C481F535C482F5A5DD0401361312000C
:102410001A0DF3CFE9FFF4CFEAFF000EE926010E13
:10242000EA22120026C4E9FF27C4EAFF1200156A57
:10243000166A176A080E145C000E1558000E16581E
:10244000000E17581200EE500E5D146EEE500F592C
:10245000156E166A176A120001C4E9FF02C4EAFF8A
:10246000120001C4E9FF02C4EAFF1200EECF18F027
:10247000EFCF19F01200DBC4E9FFDCC4EAFF120061
:10248000D1C4E9FFD2C4EAFF1200EECFAAF0EECF2A
:10249000ABF0EECFACF0EFCFADF0C8EC2BF006C058
:1024A00014F007C015F0CCDA94EF14F0B3EC34F06C
:1024B000F3CF12F5F4CF13F5B3EC34F0F3CF14F5FA
:1024C000F4CF15F51200080E14C0EBFF090E15C06D
:1024D000EBFF12000E0E14C0EBFF0F0E15C0EBFF4A
:1024E0001200156E14C0F3FFF46E120083C4E9FFEE
:1024F00084C4EAFF120016C0E6FF17C0E6FFCCEC6A
:1025000039F0E552E7CF17F0E552E7CF16F0065065
:10251000165C146E07501758156EE83412003D51C2
:1025200005018525146E04013E5105018621156EB5
:102530001F512125166E20512221176EB6EF14F07F
:10254000EE50185C166EEE501958176E1200EECF52
:10255000D3F2EDCFD4F26EEF22F0140E14C0EBFFE5
:10256000150E15C0EBFF1200EECFD5F2EDCFD6F26F
:102570007FEF22F00A51EA6A0D0FE96E040EEA229B
:1025800012008E51EA6A910FE96E040EEA221200DF
:1025900014500E5D15500F5912003D51050185254F
:1025A000186E04013E5105018621196E1200165065
:1025B000145C1750155812009BC4E9FF9CC4EAFF35
:1025C000120000C4E9FF01C4EAFF12000001162452
:1025D000146E000E1720156ECED914C0F3FF15C06F
:1025E000F4FF1200162B000E1723182319230401E1
:1025F000100E366F12000C0E14C0EBFF0D0E15C03E
:10260000EBFF120075C5E9FF76C5EAFF120060C551
:10261000F6FF602B61C5F7FF000EF3EF14F0070E15
:10262000EF6E51D920EF15F0F00BE842E842E84296
:10263000E842040DF3501200EECF0EF5EDCF0FF58A
:10264000120015C4E9FF16C4EAFF120099C4E9FF9D
:102650009AC4EAFF120089C463F58AC464F58BC486
:1026600060F58CC461F58DC462F5050112000E5150
:10267000EE5C1A6E0F51EE581B6E1A50165C146EFB
:102680001B50175812000EC5DFF20FC5E0F2020111
:10269000A40EDD6F0C0EDE6F50EF23F0122B000E38
:1026A0001323142315231200156E14500401AD5F7B
:1026B0001550AE5BAB51AD5DAC51AE591200A7D910
:1026C000040137510501855D12000A0E14C0EBFFAD
:1026D0000B0E15C0EBFF120015C0EBFF94EF14F0CA
:1026E000CDC4E9FFCEC4EAFF120058C5E9FF59C5C1
:1026F000EAFF582B000E5923EFCF0BF4120006C44B
:102700005AF507C45BF508C458F509C459F5050125
:10271000120004013D51EE240201DD6F04013E511F
:10272000EE200201120040C5ECF241C5EDF242C5B7
:10273000EEF285EF24F00401AB5105010E270401F0
:10274000AC5105010F23120012C58BF413C58CF494
:1027500014C58DF415C58EF412000201E56FE66B09
:10276000020112000201EA6FEB6B02011200E66E39
:1027700002EC30F0146E060EE15E14501200DD51D2
:1027800005013D5D0401DE5105013E591200CF51A6
:102790000501435D0401D0510501445912003DD9A2
:1027A0001A6B12000501040E746F7CC573F53AEFC5
:1027B0000AF0146E156A14501200EE501C5C1A6E6A
:1027C000EE501D581B6E1200EE2AED22EECF14F0D3
:1027D000EDCF15F012003BC5E8F23CC5E9F26BEF16
:1027E00024F052C5E3F253C5E4F22CEF24F00501C6
:1027F0005A07000E5B5B5A515B111200050163071B
:10280000000E645B635164111200EE501A5C186E86
:10281000EE501B58196E12001650EE24146E17500D
:10282000EE20156E1200C80E7DD1ECC4E9FFEDC498
:10283000EAFF120038C536F5A8EF01F03AC536F5C3
:10284000A8EF01F03FC536F5A8EF01F0EECF1AF082
:10285000EFCF1BF0120083C5E9FF84C5EAFF120029
:1028600048DD8AEF11F0190E79EF11F042DDA3EF88
:1028700011F07ADD0D0E3DDDEF5012005FDD63D902
:102880005DDD17D9E5EF11F04ADD74EF15F0100E9C
:1028900030DD14C0EEFFDEEF11F066DD22D9EE5020
:1028A000121912000201DF69E0692BEF15F021DD3A
:1028B000B9EF11F03EDD47D93CDDFBD841DE39DD13
:1028C0001ED937EF13F0CCEC39F006C014F007C076
:1028D00015F0120033DD13D923EF12F00201E16F7E
:1028E00004013851050186590201E26F0201DF69D6
:1028F000E0691ADD35EF15F00501D0DE0501110E96
:10290000746F35C573F53AEC0AF0EADE74EF15F032
:1029100006DD19D904DDCDD8E5EF11F0E2D8A7EF37
:1029200012F0AEDD5FEF15F079C5E9FF7AC5EAFF79
:10293000120004DDE4D81CEF13F077C5E9FF78C579
:10294000EAFF85EF15F01A0DF3CF26F4F4CF27F444
:10295000000E2627010E272312EF12F0EADCCFD853
:10296000EE500E5D146EEE500F5912001450165CAE
:10297000155017581200010ED5D01723000E18233A
:1029800019232BEF15F0B5DCDBDD010E1626000E4A
:102990001722120060DF0C0EACDCEF5014EF13F0C6
:1029A000156EC2DCB2D836EF12F083D81CEF13F0EC
:1029B00040EC00F00501100E746F12009ADCEE502E
:1029C000145C120096DCA8EF11F0A9DC180EEB5095
:1029D000120004DD86D80401DB51120004DD81D829
:1029E0000401CD511200612362C5F8FF6223080083
:1029F000F5CF8FF412007DDCEECF1CF0EFCF1DF091
:102A0000120077DC1450EE5E1550ED5A1200EECF36
:102A1000DDF2EDCFDEF250EF23F0E80E1B6F030E78
:102A20001C6F1D6B1E6B120015C0EBFF2CEF12F01C
:102A300000C473F53AEF0AF05CDC06C0EEFF12004A
:102A400008C016F009C017F012009EDC77DC0A0EF1
:102A500007DFC8EF12F068DC0C0E79EF11F003DF2E
:102A6000EF50120003DFD7EF12F0040E79EF11F0F0
:102A70005BDCBAEF15F053DC33EF14F0AC6F10C52C
:102A8000ADF411C5AEF455DC0A0EEADE0501C8EF5F
:102A900012F00401120E366FF7DE020EB3EF15F0DE
:102AA000040E30EF14F0D8DC33EF14F042DC33EFD7
:102AB00014F0020E79EF11F0020E30EF14F00E0E4A
:102AC00079EF11F0020EF3DED890153214321200B5
:102AD00085C5E1F286C5E2F252EF14F0C4DEC0EF24
:102AE00011F0080E79EF11F0180E79EF11F0040EC5
:102AF000DEDEBBEF14F013DC0A0E30EF14F00A0E2A
:102B000079EF11F0B6DE100B1200060E79EF11F01E
:102B100093DF54DC94EF14F037C4E1F238C4E2F2EE
:102B200052EF14F01426000E152212000C0E30EF96
:102B300014F0060E30EF14F030DC33EF14F09EEC9E
:102B400011F02FEF15F091DF36EF12F0400EAB6F62
:102B5000020EAC6FABDFEF8C120096DE030EEF6E51
:102B60008ADFEF921200EF6E7DEC11F08FEC11F026
:102B700047EF14F0060E36EF14F073DC9DDF31EFF3
:102B800012F06FDC8DDF31EF12F04CDC95DF12EFCD
:102B900012F048DC85DF12EF12F0CDEC11F08CDF83
:102BA000CDEF11F0CDEC11F07BDFCDEF11F060DF58
:0A2BB00094EF11F0040E36EF14F05C
:062BBA00D8CFE4FFE0CFDC
:102BC000E4FFE46EDACFE4FFE2CFDAFFE9CFE4FF1F
:102BD000EACFE4FFF6CFE4FFF7CFE4FFF8CFE4FF5E
:102BE000F5CFE4FFF3CFE4FFF4CFE4FFFACFE4FF47
:102BF000FBCFE4FF00EE00F0140EE80403E3EECF99
:102C0000E4FFFBD700EE14F00C0EE80403E3EECF74
:102C1000E4FFFBD7E652D5EC39F0E55200EE1FF0A9
:102C20000C0EE80403E3E5CFEDFFFBD700EE13F055
:102C3000140EE80403E3E5CFEDFFFBD7E5CFFBFF80
:102C4000E5CFFAFFE5CFF4FFE5CFF3FFE5CFF5FFE2
:102C5000E5CFF8FFE5CFF7FFE5CFF6FFE5CFEAFFD9
:102C6000E5CFE9FFE5CFDAFFE550E5CFE0FFE5CFBF
:102C7000D8FF1000E66A10EC3AF0E55217EC1BF0B2
:102C8000C2EC39F012EC31F02BEC1BF081B066D0C5
:102C9000CCEC39F006C0E3F407C0E4F408C0E5F476
:102CA00009C0E6F481B058D0CCEC39F00401E3510E
:102CB000065C146E0401E4510758156E0401E551D9
:102CC0000858166E0401E6510958176ED880A00EF8
:102CD00014540F0E1554000E1654000E17543BE2F8
:102CE0000501A66BA76BA86BA96B20EC2DF0050165
:102CF000AA6930EC2DF058EC2DF00001F20EDB6FDC
:102D0000660EDC6F000EDD6FD3EC38F0959A838A87
:102D1000CCEC39F00401E351065C146E0401E4517B
:102D20000758156E0401E5510858166E0401E65166
:102D30000958176E1734000E171809E6D880940E3C
:102D40001454110E1554000E1654000E175401E3BE
:102D5000DFD7FF0001D0A6D7D6EC1BF03EEC39F050
:102D600069EC26F044EC39F082EC26F040D8FF0EF6
:102D70000301045D02E003010469F4D712000401B9
:102D80000A6B0A51146E156A040E145C000E155875
:102D90002DE20001060EA26F040EA36F04010A517A
:102DA000EA6A730FE96E020EEA22EF500001A06F8B
:102DB000A16B35EC2BF00001060ED96F040EDA6F13
:102DC000BEEC38F004010A51146E156A030E141893
:102DD00003E1155001E11200AEEC1EF0FDE100012F
:102DE0002E0EDCEC1EF004010A2BCBD71200810E54
:102DF000C26E0401640E026F025102070009FCE179
:102E0000C284C2B4FED7C3CF02F4C4CF03F4330EDE
:102E1000E66E020EE66E02C4E6FF03C4E6FFB2EC05
:102E20001EF0C40EC16E890EC26E0401640E026FE4
:102E3000025102070009FCE1C284C2B4FED7C3CF2D
:102E400002F4C4CF03F402C400F403C401F4040187
:102E5000013513E200510008020E01550EE2000E8A
:102E6000005F020E015B8AEC1EF0140E04010824C0
:102E7000006F000E0920016F11D0000ED88000579E
:102E8000020E01578AEC1EF008C000F409C001F4DC
:102E90000401140ED8800057000E01573B0EE66E59
:102EA000020EE66E00C4E6FF01C4E6FFB2EC1EF0BF
:102EB000CE0EC16E1200300E0201775D1CE3775119
:102EC000390803E3300E775D11D0410E775D13E3CF
:102ED0007751460802E3410E07D0610E775D0BE3A0
:102EE0007751660808E3610E775D0A0F156AF36E85
:102EF00015C0F4FF1200F368F468120078C2E9FF0D
:102F000079C2EAFFB9EC1EF00401836FE850030AAE
:102F10000FE0030A01E072D2020E11EC1FF0B9ECCF
:102F20001EF00401846FE85001E068D2837A66D213
:102F300002017A51020801E361D20401846B876BBC
:102F40008751146E156A040E11EC1FF01450EE2414
:102F5000E76E1550EE20EA6EE7CFE9FFEF502FE065
:102F6000AEEC1EF0FDE104018751186E196A040EE3
:102F700011EC1FF01850EE24E76E19509CEC1EF077
:102F800046EC1EF080EC1EF0FDE185EC1EF0040125
:102F900087291A6E1B6A040E11EC1FF01A50EE24DA
:102FA000E76E1B509CEC1EF056EC1EF014C0D5F0E2
:102FB000A1EC38F0020E04018725876FC1D7040EFB
:102FC000EA6A7825E96E7951EA22EECFE6FFEFCF83
:102FD000E6FFA4EC30F0E552E552F3CF14F0F4CF65
:102FE00015F0200EF35C000EF45801E3FBD1E6EC83
:102FF0001DF0C0EC1EF001E1F45033E0080EF318B0
:1030000001E1F45022E0020EF31801E1F45011E066
:10301000010EF31837E1F45035E1E6EC1DF00E0E29
:1030200047EC1FF080EC1EF0FDE14AEC1FF00F0EA4
:1030300023D0E6EC1DF0040E47EC1FF080EC1EF0F0
:10304000FDE14AEC1FF0050E17D0E6EC1DF01A0E5C
:1030500047EC1FF080EC1EF0FDE14AEC1FF01B0E68
:103060000BD0E6EC1DF0080E47EC1FF080EC1EF0D4
:10307000FDE14AEC1FF0090EF7EC1DF056EC1EF0D6
:1030800014C084F404018451FF0A14E0FB0A0EE02A
:10309000070A09E0010A04E0030A0EE1886B0BD07D
:1030A000020E886F08D0886B020E02D0020E886F65
:1030B000896F02D0886B896BE6EC1DF0C0EC1EF0C6
:1030C00001E1F45001E118D1080EF31801E1F450C8
:1030D00070E0020EF31801E1F45049E0010EF3181C
:1030E00001E042D1F45001E03FD1E6EC1DF0020EC8
:1030F0007DEC1FF058EC1FF0030E7DEC1FF0AAECE6
:103100001FF0040E7DEC1FF0020EE9EC1EF0050E20
:1031100081EC1FF058EC1FF0060E81EC1FF0AAECBA
:103120001FF0070E81EC1FF0020EE9EC1EF0080EF6
:1031300085EC1FF058EC1FF0090E85EC1FF0AAEC8F
:103140001FF00A0E85EC1FF0020EE9EC1EF00B0ECC
:1031500089EC1FF058EC1FF00C0E89EC1FF0AAEC64
:103160001FF00D0E89EC1FF0ADEC1FF0FDD089C4EF
:1031700086F4020E04018925865D01E3F5D088C43A
:1031800085F4020E8825855D12E2E6EC1DF0010E45
:103190005DEC1FF058EC1FF0020E5DEC1FF0AAEC86
:1031A0001FF0030E5DEC1FF0A2EC1EF0EAD7862B99
:1031B000E0D7E6EC1DF0020EF8EC1EF022EC1EF05B
:1031C000FDE1E3EC1EF0030E8DEC1FF02CEC1FF084
:1031D000040EF8EC1EF022EC1EF0FDE1E3EC1EF014
:1031E000050E8DEC1FF09DEC1FF022EC1EF0FDE1B2
:1031F000E3EC1EF0070E8DEC1FF0020E1EEC1FF02C
:10320000080EF8EC1EF022EC1EF0FDE1E3EC1EF0DF
:10321000090E91EC1FF02CEC1FF00A0EF8EC1EF0DA
:1032200022EC1EF0FDE1E3EC1EF00B0E91EC1FF022
:10323000010E1EEC1FF00C0EF8EC1EF022EC1EF03E
:10324000FDE1E3EC1EF00D0E91EC1FF0020E1EEC02
:103250001FF00E0EF8EC1EF022EC1EF0FDE1E3EC88
:103260001EF00F0E95EC1FF02CEC1FF0100EF8EC7A
:103270001EF022EC1EF0FDE1E3EC1EF0110E95ECC9
:103280001FF0010E1EEC1FF0120EF8EC1EF022ECE7
:103290001EF0FDE1E3EC1EF0130E95EC1FF0020EA4
:1032A0001EEC1FF0140EF8EC1EF022EC1EF0FDE1F7
:1032B000E3EC1EF0150E99EC1FF02CEC1FF0160E2F
:1032C000F8EC1EF022EC1EF0FDE1E3EC1EF0170E10
:1032D00099EC1FF0010E1EEC1FF0180EF8EC1EF01A
:1032E00022EC1EF0FDE1E3EC1EF0190E99EC1FF04C
:1032F000020E27EC1EF038D089C486F4020E0401B9
:103300008925865D31E288C485F4020E8825855DB5
:1033100029E2E6EC1DF0020EF8EC1EF022EC1EF0A5
:10332000FDE1E3EC1EF0030E62EC1FF02CEC1FF04D
:10333000040EF8EC1EF022EC1EF0FDE1E3EC1EF0B2
:10334000050E62EC1FF09DEC1FF022EC1EF0FDE17B
:10335000E3EC1EF0070E62EC1FF0020E27EC1EF0ED
:10336000852BD3D7862BCAD7FF0E0401845D46E197
:1033700089C486F4020E8925865D40E288C485F4FE
:10338000020E8825855D2CE206EC1FF0EF50E66EFC
:1033900024EC1FF03EEC1FF024EC1FF018EC1FF0A3
:1033A00024EC1FF030EC1FF0855101EC1FF03EECD7
:1033B0001FF0855101EC1FF018EC1FF0855101EC56
:1033C0001FF030EC1FF0A6EC1FF03EEC1FF0A6EC57
:1033D0001FF018EC1FF0A6EC1FF0A2EC1EF0D0D7E7
:1033E000862BC8D70001100EDCEC1EF00001D56B57
:1033F000A1EC38F00001D569A1EC38F00A0EE66EB8
:10340000E66A9A0EE66E740EE66E000EE66E78C2FE
:10341000E9FF79C2EAFFEECFE6FFEFCFE6FF2DEC42
:1034200030F0146E070EE15E1450120002017B5161
:10343000200A01E16ED0010A6CE0030A6AE0010A89
:1034400068E0340A4FE0010A36E0120A2CE0070A6D
:103450001AE0010A08E0020A01E0E6D08350200BDE
:1034600025E1300E26D05EEC1EF040EC1EF05EEC46
:103470001EF001E1D9D07C2B000E7D235EEC1EF006
:1034800001E0CDD0D1D066EC1EF040EC1EF066EC31
:103490001EF001E1C9D07C2B000E7D2366EC1EF0EE
:1034A00001E0BDD0C1D08150010B02E0310E01D04E
:1034B000300EE6DBB9D07C517D110BE1400EE66E9B
:1034C000E66AEC0EE66E660EE66E000EE5DBC4EC18
:1034D0001EF027EC1FF001E1A7D042EC1FF001E045
:1034E0009ED0A2D07C517D110BE1400EE66EE66AC3
:1034F000D70EE66E660EE66E000ECEDBC4EC1EF056
:1035000027EC1FF001E190D042EC1FF001E087D0E2
:103510008BD07C517D1101E07CD0200E7B5D06E1DB
:103520000401856B020E866F876B1ED0210E7B5DBA
:1035300008E10401020E856F040E866F876B020E90
:1035400013D0220E7B5D05E10401856B020E866FB0
:1035500009D0230E7B5D09E10401020E856F040E84
:10356000866F020E876F040E886F0201806B87C41E
:1035700084F404018851845D4CE285C483F486514F
:10358000835D3DE2896B030E895D2CE264DBEF38DD
:103590000F0B04018A6F0A0E8A5D03E2300E8A2542
:1035A00003D0410E8A25F60F8B6F55DBEF500F0BC2
:1035B00004018A6F0A0E8A5D03E2300E8A2503D069
:1035C000410E8A25F60F8C6F8D6B8B0EE66E040E06
:1035D00063DB50EC30F0E552E552E552E552040170
:1035E000892BD1D7030E835D07E0D40EE66E660EFD
:1035F000E66E000E51DBCFDB0401832BC0D7CE0E6D
:10360000E66E660EE66E000E47DBC5DB0401842B1A
:10361000B0D727EC1FF008E042EC1FF005E07CC2B9
:10362000F3FF7DC2F4FF1200F368F4681200959A6C
:10363000839A810EC26E8E0EC16E230E926EF19E23
:10364000200EAC6E900EAB6E800EAF6EAC84D08E42
:10365000F28EF28C12000201328D328F1C6B040E3E
:103660001D6FA30E1E6F1F6B206B070E216FC00E08
:10367000006FA80E016F010E026F080E036F00C2EB
:1036800014F201C215F202C216F2176F046905693D
:103690000669076B04C218F205C219F206C21AF2D3
:1036A00007C21BF2C00E086FA80E096F010E0A6F49
:1036B0000B6FC00E0C6FA80E0D6F010E0E6F0F6F0B
:1036C000C00E106FA80E116F010E126F136F100E47
:1036D000E66EE66AC30EE66E660EE66E000EE66EF7
:1036E000220EE66E020EE66E2DEC30F0146E070E22
:1036F0001ADB0401000E046F020E056F05019B6BBF
:103700009C6B9D6B9E6B9EEC2CF0ACEC2CF0040142
:10371000036FDBEC2CF0600E0401035D1FE105017B
:10372000010E9B6F9C6B9D6B9E6B9EEC2CF00401BD
:10373000036B035137DB10E2ACEC2CF0E66E0401B6
:1037400004C4E9FF05C4EAFF042B000E0523E5527B
:10375000E750EF6E032BEDD7DBEF2CF0B0EF1BF053
:103760000401000E016F020E026F0501A66BA76B2C
:10377000A86BA96B20EC2DF00501600EAA6F30EC50
:103780002DF00401006B00510DDB0EE201C4E9FFD6
:1037900002C4EAFF012B000E0223EFCFAAF530ECA2
:1037A0002DF00401002BEFD758EF2DF00401AD6B85
:1037B0000401AD5101E02DD10001810EDB6F660ED9
:1037C000DC6F000EF6DA650EDB6F660EDC6F000E46
:1037D00038DB20C2ACF421C2ABF40001910EA26F21
:1037E000040EA36F21C2A0F020C2A1F035EC2BF093
:1037F0000001910ED96F040EDA6FBEEC38F00001B3
:103800004A0EDB6F660EDC6F000E1BDB0001220E22
:10381000D96F020EDA6FBEEC38F00001280EDB6FB4
:10382000660EDC6F000E0DDB00C273F201C274F293
:1038300002C275F203C276F2C2DA020EDB6F660EC6
:10384000DC6F000EFEDA08C273F209C274F20AC21B
:1038500075F20BC276F2B3DADF0EDB6F650EDC6F4A
:10386000000EEFDA04C273F205C274F206C275F2FA
:1038700007C276F2A4DAB60EDB6F650EDC6F000EBF
:10388000E0DA0CC273F20DC274F20EC275F20FC20E
:1038900076F295DA8B0EDB6F650EDC6F000ED1DAF7
:1038A00010C273F211C274F212C275F213C276F230
:1038B00086DA700EDB6F650EDC6F000E7ADA5D0E55
:1038C000DB6F650EDC6F000E74DA450EDB6F650E84
:1038D000DC6F000EDD6FD3EC38F096EC38F00009A9
:1038E000FCE00001420EDB6F650EDC6F000EA9DA12
:1038F0009FEC38F0300A01E180D0090A01E17BD069
:10390000010A01E155D70F0A4EE0010A47E0030A18
:1039100040E0010A39E0070A32E0010A18E0030A30
:1039200001E046D7A5D9000901E142D7910EE66E24
:10393000040EE66E9DEC33F0E552E552F3CFABF4A6
:10394000F4CFACF4F4CF20F2F3CF21F231D7BEDACA
:10395000100E8CDA0401915101E12AD7100EE66EA7
:10396000E66A910EE66E040EE66E220EE66E020E1A
:10397000E66E02EC30F0146E060ED5D919D70401AC
:10398000000EA96F020E13D00401080EA96F020EDB
:103990000ED00401040EA96F020E09D004010C0E12
:1039A000A96F020E04D00401100EA96F020EAA6FB7
:1039B0005FD90001A50E9E6F040E9F6F0001910E4E
:1039C0009C6F040E9D6FF9EC2AF000090DE0A9C46C
:1039D000E9FFAAC4EAFFA5C4EEFFA6C4EEFFA7C490
:1039E000EEFFA8C4EEFFE4D60001230EDB6F650EE8
:1039F000DC6F000E0CD00ED8DBD60401010EAD6FCB
:103A0000AFDE0001110EDB6F650EDC6F000E19DA00
:103A1000CFD612000401006B61D9CCEC39F006C09E
:103A20008DF407C08EF408C08FF409C090F4890E9D
:103A3000E96E040EEA6EEE500401065C146EEE5060
:103A40000758156EEE500858166EEE500958176E4E
:103A5000F40E145C010E1558000E1658000E17587F
:103A600009E33CD9837A7AD9FEE10001150ED56FBE
:103A7000A1EC38F096EC38F00009CFE0D1EC31F051
:103A800064D90401010E076F0401075101E17BD0E5
:103A900096EC38F00009F8E0837A9FEC38F00401E6
:103AA000016FE80404E1005102E1010E06D0040EAA
:103AB000015D04E1005102E1060E006F0051060AAB
:103AC00051E0030A21E0010A0EE0070A0AE0010AB8
:103AD00006E0030A52E1086B026B020E13D0030EDC
:103AE00011D0040E0FD0015102270851082BEA6AA9
:103AF000090FE96E040EEA2201C4EFFF800E085D93
:103B0000C3E1050E006FC0D729D9FEE104010251BF
:103B1000015D22E103C491F004C492F005C493F066
:103B200006C494F0D9EC31F00401016B800E015D04
:103B30000DE20151EA6A090FE96E040EEA22EFCFA5
:103B400095F0F4EC31F00401012BF0D711EC32F0D8
:103B5000FCD80001060E02D00001150E2DD904017B
:103B6000006B92D7839A9FEC31F0F8D8FEE1000108
:103B7000060E22D90401076B87D7F0D8FEE10001B9
:103B8000150E1AD981D712000F0EB3D8EF6AC0C232
:103B9000E6FFC1C2E6FFFDEC30F0E552E55204015C
:103BA000006B0F0E005D11E20051A3D8EF500AE147
:103BB0000F0E0401005D09E20051002B9AD8200E7F
:103BC000EF6EF6D70401002BECD71200040E29D9B2
:103BD000EE50EFCFEAFFE96E12000C0DF3CF14F0B8
:103BE000F4CF15F0430E1426020E1522120081D9CF
:103BF00054EF1FF0030D1450F324E96E1550F42018
:103C0000EA6E1200E552E7CF19F0E552E7CF18F05F
:103C10001850F324166E1950F420176E1200E55256
:103C2000E750EF6E06EF1FF0F3CF18F0F4CF19F066
:103C3000040E12007C51EA6A800FE96E020EEA223D
:103C4000EF501200D89018361936E804120051D9F6
:103C500016C0EFFF1200835142D98451030D1DD9C4
:103C600089510F011424E96E000E1520EA6E12002E
:103C70002DD9140E36EF1FF03CD9EF50E66E12002E
:103C80007EC2E9FF7FC2EAFFEF6E1200F3CF16F0AB
:103C9000F4CF17F0040E1200E66E800EE66E020EF0
:103CA000E66E1200F350E66E04011200E552E7CF13
:103CB00017F0E552E7CF16F04DEF1FF07C51EA6A9E
:103CC000330FE96E020EEA22EF5012007C51EA6ACD
:103CD0003B0FE96E020EEA22EF501200CCEC39F0F5
:103CE00006C089F407C08AF408C08BF409C08CF4BC
:103CF00012000201EA6AC025E96EC151EA221200EF
:103D0000D89016361736E804120016C0E6FF17C022
:103D1000E6FF1200090E0D6E0E6A00C408F001C421
:103D200009F0D6EF37F0E15E14500201220EC06FA9
:103D3000020EC16FC4EF1DF0EE20EA6EE7CFE9FF7F
:103D400054EF1FF00AD9852B120006C003F407C0F8
:103D500004F408C005F409C006F412008AEC38F037
:103D60000009120012EC34F0E552E552E552E5523A
:103D70001200EE50EFCFEAFFE96EEF50D00F1200C5
:103D800093D8090EF3181200D7EC30F0146E070E1A
:103D9000E15E1450120074EC30F0146E050EE15E1A
:103DA00014501200146E156A330E145C000E155870
:103DB000120047D800011200D56FA1EF38F0BFEC18
:103DC00016F00001120018C0E6FF19C0E6FFE6EF8A
:103DD0001DF08FD858EF1FF000DF8951FAEF1DF06A
:103DE000FCDE8929FAEF1DF002DF0CDF040112006E
:103DF000FEDE14EF1EF004018551A4D0F8DE52EF70
:103E00001EF0EBDE020E8625FAEF1DF0855167D815
:103E10008651030D1650F324E96E1750F420EA6E14
:103E200012000201EA6A7825E96E7951EA2212004D
:103E3000010E5FD8F4DE020E3CEF1EF008DFE6EF65
:103E40001DF0DD6FD3EF38F0020E85257BD0020127
:103E5000F1DE16DF1AEF1EF016C0EFFFE6EF1DF0E1
:103E6000020E47D8DCDEEF50E66E1200D46F000180
:103E7000910ED26F040ED36F63EF38F0D0DE010ED7
:103E80003CEF1EF07C2B000E7D231AEF1EF0AFDE00
:103E900046EF1EF03ADFE6EF1DF01650F324146EE5
:103EA0001750F420156E1200EFCF77F25BEF17F08A
:103EB000E552E750EF6EE6EF1DF099DEF350E66E47
:103EC000FBEF1EF094DE9EDEFBEF1EF00001340ED1
:103ED000DB6F650EDC6F000EB4DF000112000C0D0D
:103EE000F3CF16F0F4CF17F0430E1626020E17226A
:103EF0001200E926000EEA22120080DF8851ECEF62
:103F00001EF07CDF8829ECEF1EF078DF8851F0EF9F
:103F10001EF074DF8829F0EF1EF066DF8851ECEFA9
:103F20001EF062DF8829ECEF1EF05EDF8851F0EFB3
:103F30001EF05ADF8829F0EF1EF0010E7FDF060E1B
:103F4000F8EF1EF04ADE8651FAEF1DF0020E8525CD
:103F500001EF1FF0010EE9EF1EF0020ECADFE5527D
:063F6000E750EF6E1200B5
:0A3F66008A8693969496949A9488A4
:103F7000200EC66E9E96C78CC79E34EC26F0E8CF06
:103F800001F4080E04010115F8E1011D010BF5E132
:103F9000A1EC24F00A0EE66E3DEC3AF0E552020187
:103FA000010EC66FC26BC36B0201F56B0201080EF6
:103FB0005DEC26F0F56B0201090E2AEC26F00C0EE2
:103FC00066EC26F00D0E2AEC26F00A0E66EC26F0C2
:103FD0000B0E5DEC26F06D0EF56F38EC26F0CDEC97
:103FE00025F0050E5DEC26F06D0E57EC26F0020173
:103FF000E76B60EC24F00201FD6B020EFE6F3BEC00
:1040000025F002010D0EF56F9BEC25F00201320E3A
:10401000F56F10EC26F00201120EF56F38EC26F069
:104020000201400EF56F22EC26F002013F0EF56F03
:104030000201090E5DEC26F0120EF56F0201060E6C
:1040400066EC26F0070E5DEC26F0EE0EF56F020131
:104050000A0E5DEC26F0050EF56F02010B0E79ECF1
:1040600025F00201040EB4EC25F01CC2F5F238EC88
:1040700026F01DC2F5F20201050E79EC25F01EC2F4
:10408000F5F210EC26F01FC2F5F222EC26F020C269
:10409000F5F29BEC25F021C2F5F20CEC26F00201C2
:1040A000F56B3CEC26F00201120E75EC25F0E8CF22
:1040B000C7F20201FB6B010EFC6F0201100EFA6FDA
:1040C00025EC25F00201720EFB6F340EFC6F02012D
:1040D000140EFA6F25EC25F00201FB6BFC6B02015C
:1040E000FA6B25EC25F0B7EC25F00201040EF96F10
:1040F000D2EF25F00201010EF36FCFEC24F0F35064
:10410000040B01E0010E1200EAEC25F0080B080A8E
:1041100001E0010E12000201C65101E01200010E81
:10412000C66FC2C237F4C3C238F40401375F000E51
:10413000385B37C414F038C415F07CEC25F004E289
:104140006B0E376F0C0E386F0201400EF0EC25F04D
:1041500037C4F5F202010C0E79EC25F038C4F5F203
:1041600002010D0E79EF25F0E5EC25F00201190EA4
:1041700075EC25F0E8CFAFF40E0EF6EC25F00E0E40
:1041800075EC25F0E8CFB1F402010F0E75EC25F0C7
:10419000E8CFB2F4E5EC25F00201190E75EC25F03C
:1041A0000401AF510001145CE1E10C0EF6EC25F0C6
:1041B0000C0E75EC25F0E8CFAFF402010D0E75EC96
:1041C00025F0E8CFB0F40401B151AF5DB251B05960
:1041D0001BE26B0E186E0C0E196E1A6A1B6AAF5139
:1041E000B15D1C6EB251B0551D6E1E6A1F6A1C5027
:1041F000185C146E1D501958156E1E501A58166E04
:104200001F501B58176E14D0AF51B11908E1B051AF
:10421000B21905E16B0EF36E0C0EF46E1200B15183
:10422000AF5D146EB051B255156E1406000E155ADE
:1042300014C0F3FF15C0F4FF12000201190EFD6F48
:10424000010EFE6F3BEC25F00201190EF16F81DBD0
:10425000146E14C014F40201FD6BFE6B3BEC25F0F0
:104260000401145102E1000E8CD00201C65103E199
:1042700052DF000E86D0C2C2C4F2C3C2C5F2C4C2AD
:10428000F5F20201F46BB1DBC5C2F5F20201010ED9
:10429000F46FABDB140E0201E56FE66B0201000E5A
:1042A000E36F040EE46FD8DA12C4A8F013C4A9F0C7
:1042B000C3EC2BF0F3CF12F4F4CF13F400C414F0DA
:1042C00001C415F0166A176AD8806B0E14540C0ED0
:1042D0001554000E1654000E17541BE3040104017C
:1042E0000051010B16E1040104010551800B11E19D
:1042F000040104010451100B0CE10401EE0ED880FE
:104300000255050E035505E3040104010451800B19
:1043100001E1FF0000C4C2F201C4C3F2060EE66E62
:10432000E66A0C0EE66E040EE66EC8C2E9FFC9C26C
:10433000EAFFE9CF14F0EACF15F014C0E6FF15C08C
:10434000E6FF02EC30F0166E060EE15E1650CAC2B1
:10435000E9FFCBC2EAFFEF68080E0401135D0DE12F
:104360000401125104E0060E0401125D06E1CAC206
:10437000E9FFCBC2EAFF12C4EFFF0201C66B010ED8
:1043800000D0120002016E0E57EC26F07B0E0201E7
:10439000CF270C0ED023CFC2F5F20201060EA9DB07
:1043A000D0C2F5F20201070EA4DB060E0201EA6F8D
:1043B000EB6BCCC2E8F2CDC2E9F28DDA060E020157
:1043C000EA6FEB6B02011C0EE86F020EE96F83DAF5
:1043D0000201080EE76F74DA0201CE5102E1000E0D
:1043E00001D0060E0201E76F60EF24F091DB050EAD
:1043F0000201C75D03E0060EC75D56E10401AF6B25
:10440000B06B26EC26F00A0E0001141409E1040139
:10441000AF2B000EB023E80EAF5D030EB059F1E3F1
:1044200026EC26F00001E850020B06E10401E80E3C
:10443000AF5D030EB05938E3B7DB81DBE8CFB1F4F1
:1044400014EC26F0E8CFB2F40201060E4EDBE8CF02
:10445000B3F40201070E49DBE8CFB4F40401B32B37
:10446000000EB4234FEC26F0BC6B100EBC5D16E2C0
:1044700026EC26F00001E850020B10E00401B851D0
:10448000200B0CE045DB26EC26F00A0E000114148C
:10449000FAE08ADB4FEC26F0BC2BE7D7B1C4F5F28B
:1044A0004ADBB2C4F5F2C9DB120082DBD12504017C
:1044B000496F15500201D22104014A6F49C414F01A
:1044C000156E1ADB04E26C0E495F0C0E4A5B49C4A0
:1044D000F5F231DB4AC4F5F20CEF26F0D1DBE8CF80
:1044E000AFF4D2DBE8CFB0F4D3C2F5F299DBD4C29B
:1044F000F5F2A8DBAFC4F3FFB0C4F4FF12001FDB7A
:10450000E8CFAFF491DBE8CFB0F4D5C2F5F213DB1E
:10451000D6C2F5F281DBAFC4F3FFB0C4F4FF1200E2
:1045200047DBD7250401166F15500201D82104017D
:10453000176F16C414F0156EDFDA04E26C0E165F06
:104540000C0E175BFCDAE8CF18F46EDBE8CF19F439
:1045500016C4F5F2F0DA17C4F5F25EDBD9C2DBF26D
:10456000DAC2DCF20FD8F3CF16F4F4CF17F418C484
:10457000F5F2E1DA19C4F5F24FDB16C4F3FF17C404
:10458000F4FF12000401B16BB26BB36BB46BD7DAFA
:10459000E8CFAFF449DBE8CFB0F40201DB51DC1126
:1045A00051E0140ED880DB55000EDC5505E2040105
:1045B000140EB56FB66B04D0DBC2B5F4DCC2B6F432
:1045C000B5C4E5F2B6C4E6F20201B70EE36F040E1D
:1045D000E46F42D90401B5510201DB5F0401B65119
:1045E0000201DC5B0401B5A10AD0B70EB525E96E66
:1045F000040EB621EA6EEF6AB52B000EB623B70E95
:10460000CB6F040ECC6FB551B611C7E0CBC4E9FF38
:10461000CCC4EAFF020ECB27000ECC23EECF14F061
:10462000EFCF15F0000114500401B127000115501F
:104630000401B223000EB323B423020EB55F000EB3
:10464000B65BE1D7AFC4F5F276DAB0C4F5F2E4DADE
:10465000B1C414F0B2C415F0166A176AB3C418F0E6
:10466000B4C419F01A6A1B6A145018240401B16FFB
:1046700015501920B26F16501A20B36F17501B2017
:10468000B46FB351B127B451B223B1C414F0B2C462
:1046900015F0141E151E14C0F3FF15C0F4FF120010
:1046A0000401B36BB46B0201DEAF09D00401010E4B
:1046B000B36FE6DAE8CFDDF2E7DAE8CFDEF2020147
:1046C000E0AF09D00401010EB46F39DAE8CFDFF2B0
:1046D000ABDAE8CFE0F20201010ED880E155000E1E
:1046E000E25540E30401B45106E129DAE8CFAFF422
:1046F0009BDAE8CFB0F40401B35106E1C1DAE8CFA8
:10470000B1F4C2DAE8CFB2F4DFC2F5F214DAE0C2F3
:10471000F5F282DADDC2F5F283DADEC2F5F20201E9
:10472000030EF46F62D90201E1C214F0E2C215F087
:10473000E107000EE25B1450151005E07CD8020181
:10474000E76FBED8F0D70401B45106E1AFC4F5F26B
:10475000F2D9B0C4F5F271DA0401B35165E1B0DA0F
:1047600022EF26F00401B3510FE00201DD51E125F3
:104770000401B16F0201DE51E2210401B26FA0DA3F
:104780000201030EF46F31D937DA1406000E155A00
:1047900014500201E1271550E22302011F0EA5D992
:1047A000000114BAFAD7DFC2F5F20201100EA1D946
:1047B000E0C2F5F20201110E9CD9DDC2F5F268DA11
:1047C000DEC2F5F259DA18DA97D907E3BDD905E266
:1047D0006C0E0201E15F0C0EE25BE1C2F5F2020138
:1047E000120E87D9E2C2F5F20201130E82D902013C
:1047F000100E0CDA0201200EF96F1ADA0401B4511E
:1048000013E00201E12B000EE223F6D975D906E38D
:104810009BD904E26C0EE15F0C0EE25BE1C2F5F2A3
:104820008AD9E2C2F5F209DA1200D4D9200B200AA3
:1048300001E0010E12008A969E963A0EC96E9EA65F
:10484000FED79E96C96A9EA6FED7C9CFB5F49E969E
:104850008A860401B55112008A969E963A0EC96E58
:104860000401E76BE86B0201E307000EE45B9EA620
:10487000FED79E960201E5510401E75D0201E65173
:104880000401E85917E2C96AE72B000EE823020188
:10489000E351E4110CE0E32B000EE4239EA6FED7C7
:1048A000C950E3C2E9FFE4C2EAFFEF6EE2D79EA679
:1048B000FED7DFD78A86E7C4F3FFE8C4F4FF12000F
:1048C000A0D99EA6FED79E96E7C2C9FF9EA6FED798
:1048D0009E968A86120095D99EA6FED7C9CFC3F4AC
:1048E0009E960201EA51EB110EE0E8C2E9FFE9C22F
:1048F000EAFFEF50C96EE82B000EE923EA07EB5BF5
:104900009EA6FED7EBD78A8612007BD99EA6FED73D
:104910009E960201EF51F01112E0ECC2F6FFEDC2DB
:10492000F7FFEEC2F8FF0800F550C96EEC2B000E41
:10493000ED23EE23EF07F05B9EA6FED7E9D78A862C
:1049400012008A969E96C9689EA6FED79E968A8673
:1049500012008A969E96F1C2C9FF9EA6FED79E9629
:10496000C96A9EA6FED7C9CFE7F49E968A8604013F
:10497000E75112008A969E96F2C2C9FF9EA6FED704
:104980009E96C96A9EA6FED79E96C96A9EA6FED727
:10499000C9CF02F49E968A86040102511200F8D80B
:1049A000F3C2F5F275D90201010EF56F0201120E84
:1049B00056D902010A0E05D9000114B0FAD7E8D879
:1049C0000201F56B0201120E94D80201180EF9D8FB
:1049D000E8CF00F40201190EF4D8E8CF01F4C7D8EB
:1049E00000C4F3FF01C4F4FF12008A969E96400EA5
:1049F0000201F411C96E9EA6FED79E96F5C2C9FFAC
:104A00009EA6FED79E968A8612008A969E96A00E35
:104A10000201F611C96E9EA6FED79E96F7C2C9FF87
:104A20009EA6FED79E968A8612008A969E96800E35
:104A30000201F811C96E9EA6FED79E96F9C2C9FF63
:104A40009EA6FED79E968A861200A2D8FAC2F5F2DA
:104A50001FD9FBC2F5F20201160E4BD8FCC2F5F2CB
:104A60000201170EFCD802010A0EABD8000114B0E7
:104A7000FAD7B7EF25F00201030EC8D8FEC2F9F24B
:104A800091D00201040EC2D8EFD8000114B4FCD7B3
:104A900002011F0E2AD8000114B6FAD70201200E17
:104AA000F0EF25F00201200EF76F02011E0EF66FE7
:104AB000ACDFDAD8000114A0FCD70201040EF96FB4
:104AC00071D00201150E50D8FFC2F5F2D5D8B7EF5C
:104AD00025F00201150E48D80201150E06D8E8CFC0
:104AE00000F445D8040100511200F16F32DF146E5A
:104AF0001200F46FF5EF24F0166A176AD8806B0E77
:104B000014540C0E1554000E1654000E17541200B7
:104B10000201800EF96F8CD80201800E77D8020155
:104B20000A0EF76F02011C0EF66F6FDF0201080E0E
:104B3000F96F18EF26F00201F46BF5EF24F0020193
:104B4000F16B07DF146E1200E1C218F0E2C219F037
:104B50001A6A1B6AD8806B0E18540C0E1954000E7A
:104B60001A54000E1B541200FD6F030E95D0020163
:104B7000FD6BFE6B3BEF25F0070E0201E56FE66B68
:104B80000201B50EE36F040EE46F66DE040112004D
:104B90000201140EFD6F020E7FD002010C0EF56FA4
:104BA0000201120018EF26F00201080E06EF26F0AF
:104BB000140E0201156AC425146EC5511522145035
:104BC0001200F26FD7DE146E12000201190EFD6F93
:104BD000010E62D002011F0EF16FBBDEE850120021
:104BE000F96F02011E0EF86F15EF25F00201FD6F3F
:104BF000FE6B41DF02011200DFC214F0E0C215F0CB
:104C000012008A969E967A0EC96E1200F76F020104
:104C10001F0EF66F05EF25F00201010E79EF25F06A
:104C20000201020E79EF25F00201010E75EF25F069
:104C300002011F0EF86F15EF25F00201010EF46F4F
:104C4000F5EF24F00201030E79EF25F002011C0EAE
:104C500075EF25F032D86B0EF56F0201120049DFB7
:104C600002010A0EB4EF25F002011D0E75EF25F0CA
:104C70000201040E79EF25F00201150E79EF25F0FF
:104C80000201020E75EF25F00201030E75EF25F00B
:104C90000201140E79EF25F0FE6F3BEF25F0B3C44F
:104CA000F5F249DFB4C4F5F2B7DFBCEF25F0F56FDC
:104CB000B7DF73DF030E79EF25F01BDF020112006F
:104CC000B1C4F5F2ADDFB2C4F5F2120012DFCDEFE0
:024CD00025F0CD
:0E4CD2000401036B03C414F0A8DB12E2500EC1
:104CE0000501256F266B01EC01F0E66E0401BBDBCC
:104CF000E552E750EF6EB7DB050E86DBEF6A032B5C
:104D0000EAD712000401EE6BEEC414F08FDB06E26A
:104D1000EEC4F4F104D80401EE2BF6D71200010121
:104D2000F4510C0DF3CF7FF4F4CF80F4D00E0401D6
:104D30007F27010E8023666BE7DB0501346F66EC8D
:104D400001F0000903E1CEDBEF6A120053DB050E30
:104D5000EB50010A01E157D1080A01E1ECD00B0A3E
:104D600001E1B7D0020A01E05BD10501676B0501E3
:104D7000656B666B020E0501636F646B0501C00E07
:104D8000606F640E616F000E626FBEDB05015F6FC6
:104D9000FCEC06F0F3CF81F4F4CF82F40401F31CB1
:104DA0000EE1821D0CE1B0DB0501566FB4EC05F09D
:104DB0007DDBF350F41001E033D1C8DB31D1010EBB
:104DC000666F640ED8808155000E825503E2640E32
:104DD000816F826B81C454F582C455F50501000EC4
:104DE000526F040E536F90DB0501516F06EC05F016
:104DF000000E04018125E96E040E8221EA6EEF6A3D
:104E0000AADB70DB020EEF6E04010B0E7D6FF2DA8F
:104E1000FBDAE9CFFDF1EACFFEF101017D0EFB6F78
:104E2000040EFC6F0101670EF96F040EFA6F0101A9
:104E3000000EF76F040EF86FE6D90401656FE850B5
:104E400001E0EED07D5101080EE27DC47AF202014C
:104E5000670E786F040E796F7EEC17F0CBDA0B0ECD
:104E6000D3DA020EEF6E67C48BF068C48CF018ECD6
:104E700031F00EDBBFDA02DBBDDAEE52E868EE1885
:104E80000EE1E868EE180BE1E868EE1808E1E86862
:104E9000EE1805E1AFDA0A0EB7DAEF6A14D0AADA33
:104EA000EE52EECF14F0EECF15F0EECF16F0EFCFBE
:104EB00017F0145015101610171008E19BDA0A0E9F
:104EC000A3DA010EEF6E0EDB020E9BD00BDB090E98
:104ED00098D028DB166AF3CFE6FFF4CFE6FF16C0C2
:104EE000E6FF88DAAFDAEECFE6FFEECFE6FFEFCFF0
:104EF000E6FFB2EC30F0E552E552E552E552E7CF7D
:104F000016F0E552E7CF15F0E552E7CF14F0075061
:104F1000145C085015580950165801E281D06ADA1D
:104F200091DAEECF49F5EECF4AF5EFCF4BF518DB2E
:104F300061DAB7DA72D0F6DAF350F41071E00401F6
:104F4000010E666F57DA0B0EEB5002080DE152DAD4
:104F5000090E5ADA010EEF6E840EB5DA140E406FA8
:104F60006F0E416F000E0BD045DA090E4DDAEF6A75
:104F70001F0EA9DAF40E406F6E0E416F000EE0DADC
:104F80002C0E146E6E0E156E000E166E33DA0B0EAE
:104F9000EB50176E186A196A140E0C6E0D6A0E6AC1
:104FA00017C007F018C008F019C009F01AEC38F063
:104FB00004C017F005C018F006C019F014500424FE
:104FC000F36E15500520F46E16500620F86EF4CFDF
:104FD000F7FFF3CFF6FFF6CF49F5F7CF4AF5F8CF55
:104FE0004BF5BEDA040E6FDA990E406F6F0E416F0B
:104FF000000EA6DAFFD9060E07DA030EEF6E72DA9C
:10500000010EEF6E0DD0A7DA7FC4F5F180C4F6F182
:105010000CD8000905E09FEC31F098DA63DAEF6A0A
:105020000401665101E087D61200E9D9EE52EECFB5
:105030008DF0EECF8EF0EECF8FF0EFCF90F0A6ECAC
:1050400031F0DDD9090EEB50000901E193D063DAAC
:105050000401D751D81101E1D0D0CD6BD0D9060EC3
:10506000EB50080814E0BCEC31F00401CE6FE868A6
:10507000000182190CE1E868831909E1E8688419E4
:1050800006E1E868851903E1CEEC31F0A2D0B7D98A
:10509000060EEB50080A34E00E0A1AE0030A0CE090
:1050A000060A58E1250E0401CE5D03E130DA050E53
:1050B00050D0010ECD6F4ED0250E0401CE5D03E120
:1050C000010ECD6F44D0CEC4DAF421DA060E41D001
:1050D000CEC4D9F4CEC4A4F0DAC4A5F08BEC2BF086
:1050E000E66E8DD90A0E90D9E552E750EF6E0FDAD1
:1050F000080EEF6E84D9070EEB6A080EEB6A2AD011
:105100000201CE0E7E6F040E7F6F79D9070E7CD917
:10511000EECF7CF2EDCF7DF272D90A0EEB50020198
:105120007B6F16EC1AF0C2D96AD9070EF3CFEBFFEA
:10513000080E15C0EBFF0401010ECD6F60D9070EFC
:1051400063D9FF0EEE1806E1FF0EED1803E1DFD97B
:10515000030EEF6E0401CD5108E0CEC439F54FD9EE
:10516000EF500501386F32EC02F00401D707000E52
:10517000D85B6ED7D0D90401080ED75D000ED85980
:1051800038E3CE6BCE51146E156A080E145C000E17
:10519000155825E2BCEC31F0E66E0401CE51EA6A06
:1051A000CF0FE96E040EEA22E552E750EF6EE86891
:1051B0000001821911E1E86883190EE1E868841999
:1051C0000BE1E868851908E1CEEC31F00401CE511D
:1051D0008DD915D966D9010C0401CE2BD3D7080E71
:1051E00085D9080E0401D75F000ED85B010ECD6F84
:1051F000C2D7CD5102E003D954D9CEEC31F048D911
:10520000FED83CD9000C0401846B866B876B836BE2
:10521000030EE66EE66A9E0EE66E6F0EE66E000EFA
:10522000E66EF7C1E6FFF8C1E6FF45D908E1040ED6
:105230000101F727000EF8230401856B01D0020C51
:10524000F0D8EF50200802E143D9FAD775D9200EE3
:105250000401885D5EE088515CE00D0E885D59E0D8
:105260000A0E885D56E0FBC1E9FFFCC1EAFFEF5082
:10527000835D4FE28451020A15E0030A0DE0010A42
:1052800046E1835153D958D92F0E0401885D28E097
:105290005C0E885D3CE124D08351832B47D9040107
:1052A000020E846F49D93F0E885D18E0260E885D96
:1052B00015E02B0E885D04E1200EB3D8EF6E27D0E9
:1052C0002E0E885D08E1830506E102D9F7C186F458
:1052D000F8C187F41CD03D0E885D05E1A2D8EF6AC5
:1052E000010E846F14D02F0E885D03E05C0E885D84
:1052F0000EE1010E0101156AF725146EF851152211
:105300000401830585D814C0EEFF15C0EDFFE0D879
:105310009DD787D8EF6A090EE0D8EF6E86518711C6
:1053200037E086C4E6FF87C4E6FFFDEC30F0E552C7
:10533000E552F3CF86F4F4CF87F40401040E896FAD
:105340006E0E8A6F000E8B6F886B8851146E156A13
:105350000A0E145C000E15581BE2030EE66EE66A98
:1053600089C4E6FF8AC4E6FF8BC4E6FF86C4E6FF75
:1053700087C4E6FFA0D804E1B0D888C4EFFF08D006
:10538000040E04018927000E8A238B23882BDDD786
:105390000401835127E1090EE66EE66AA20EE66E6D
:1053A0006F0EE66E000EE66EF9C1E9FFFAC1EAFF84
:1053B000EECFE6FFEFCFE6FF2DEC30F0146E070ED8
:1053C000E15E1450F9C1E9FFFAC1EAFFEE50EFCFF8
:1053D000EAFFE96E090E18D8EF6A010E7ED8EF6E6B
:1053E0000401832BFBC1E9FFFCC1EAFF83C4EFFF8B
:1053F000855112007FC4E9FF80C4EAFF1200F5C1A5
:10540000E9FFF6C1EAFF1200E926000EEA221200C7
:10541000020D0101F951F324E96EFA51F420EA6E0C
:105420001200F7C1E9FFF8C1EAFF1200156A166A17
:10543000176A030E145C000E1558000E1658000E65
:10544000175812000A0EEB50030DF3CFE9FFF4CF0B
:10545000EAFF090EE926030EEA221200EF500501C9
:10546000376FD9EF01F003510C0DF3CFE9FFF4CF03
:10547000EAFFD00EE926010EEA221200EE5206C023
:10548000EEFF15C0EEFF16C0EEFF17C0EEFF1200D4
:1054900006C014F007C015F008C016F009C017F0D8
:1054A0001200EF500501366FA8EF01F0F3CF14F0B2
:1054B000F4CF15F01200E3EC2FF0146E070EE15E4E
:1054C0001450000912000501436F446B05011200DE
:1054D0000101F72B000EF8231200FDC1E9FFFEC108
:1054E000EAFF120087DF050E04EF2AF005013D6F89
:1054F0003E6B0501CF0E3B6F040E3C6F80DFEF501B
:1055000005013A6F9FEF02F075DFEF50120077DF71
:10551000060E04EF2AF073DFA1DFF3CFD7F4F4CF48
:10552000D8F4120067DF9ADF56EF2AF071DFF7C177
:10553000EEFFF8C1EDFF120074DFEFCF88F4120028
:10554000426FE2DF05013F6F47EF03F0DDDF05014A
:10555000356F71EF01F0D8DF05014C6F37EF04F0C4
:0A556000D3DF0501486F0EEF04F0E1
:06556A00250EE66E9AC05A
:10557000E6FF9BC0E6FF90EC30F0E552E552E552C5
:10558000F3CF00F4F4CF01F40401F350F41030E051
:10559000010E90D9EF5001E11200020E8BD9EF50AD
:1055A00001E11200020E86D9EFCF04F4010E82D978
:1055B000EFCF05F404C4A4F005C4A5F0ACD8E66EA2
:1055C00004017ED900C49AF001C49BF0020E0025AC
:1055D000026F000E0121036F02C4E9FF03C4EAFF5A
:1055E000022B000E0323EF50E66E6AD9BEE0F4D71B
:1055F00012000401016B026B00019CC0E9FF9DC019
:10560000EAFF9C2B000E9D23EFCF00F4EF5021E02A
:105610002E0E0401005D08E1015167D9EF6A016BAC
:1056200038D9022B58D910D0300E005D03E3005159
:10563000390801E2000C0151012B57D900C4EFFFDA
:10564000025161D901E3000C040101515CD9D4E39A
:10565000000C0401015149D9EF6A1BD93CD9030E52
:105660000401025D01E0000C010C0401056B000166
:10567000A051A11147E00401006B100E036F270E2B
:10568000046F050E005D41E2A0C008F0A1C009F062
:1056900003C40DF004C40EF027EC3AF008C001F486
:1056A00009C002F404010850091002E105511AE092
:1056B000300E0125E66E00011ED9E552E750EF6E6F
:1056C00001C408F002C409F003C40DF004C40EF0D4
:1056D000FCEC37F006500001A05F0750A15B04010D
:1056E000010E056F0A0E0D6E0E6A03C408F004C4A5
:1056F00009F027EC3AF008C003F409C004F40401EF
:10570000002BBFD7F8D8300EEF6EA2C0E9FFA3C0C0
:10571000EAFFEF6A12000001A551460802E2200EDE
:10572000A55FA451460802E2200EA45FA5513908E6
:1057300002E2370E01D0300EA55FA451390802E213
:10574000370E01D0300EA45FA539F00BA411120062
:105750000001A6390F0BA66FE850090804E2410EBC
:10576000A625F60F1200300EA62512000F0E00011E
:10577000A717A751090804E2410EA725F60F12004A
:10578000300EA7251200A9C0F3FFA8C0F4FF120035
:105790000001AD51AA1BAA51AD1BAD51AA1BAC51C2
:1057A000AB1BAB51AC1BAC51AB1BAAC006F0ABC0E2
:1057B00007F0ACC008F0ADC009F012000401C76BDF
:1057C000C86BC96BCA6BB0C0C3F4B1C0C4F4D89085
:1057D000C433C333AEC0C5F4AFC0C6F4C3C414F001
:1057E000C4C415F0C307000EC45B1450151018E0B4
:1057F000C5C4E9FFC6C4EAFF020EC527000EC623D2
:10580000EECF14F0EFCF15F0000114500401C727BC
:10581000000115500401C823000EC923CA23DED796
:105820000001B0A10ED0C5C4E9FFC6C4EAFFEFCFA6
:1058300014F0000114500401C727000EC823C92327
:10584000CA23C7C414F0C8C415F0166A176AC9C4BD
:1058500018F0CAC419F01A6A1B6A145018240401FB
:10586000C76F15501920C86F16501A20C96F1750EE
:105870001B20CA6FC951C727CA51C823C7C414F017
:10588000C8C415F0141E151E14C0F3FF15C0F4FF94
:105890001200030EE66E040EE66E9DEC33F0E55248
:1058A000E552F350E66E9EC014F09FC015F004015F
:1058B00002511200EA6A0025E96E0151EA22120043
:1058C00000C4E9FF01C4EAFF002B000E0123E552EA
:1058D000E750EF6E12000F011424E96E000E152040
:1058E000EA6EE552E750EF6E1200EA6A030FE96EC6
:1058F000040EEA221200A2C0E9FFA3C0EAFFA22B15
:10590000000EA3231200146E156A040E145C000E20
:045910001558120014
:0C59140087C5C9FF9EA6FED79E96120014
:105920008A88939894969488949A210EC66E9E962F
:10593000C78CC79E0501010E886F12009BC589F5B3
:105940009CC58AF59DC58BF59EC58CF505019B0E02
:105950008D6F050E8E6F000C9B0E05018D1922E1D7
:10596000050E8E191FE105010C0EA56F05018F0EA6
:10597000A36F050EA46F89C59FF58AC5A0F58BC5D9
:10598000A1F58CC5A2F518D80C0E050189275BD9A5
:1059900005E289698A69010E8B6F8C6B8F0E8D6FA2
:1059A000050E8E6F8DC5E9FF8EC5EAFF8D2B000EAB
:1059B0008E23EF501200000C0401996B9A6B9B6BC5
:1059C0009C6B56D906C09BF407C09CF451D902C009
:1059D00099F403C09AF4010E0401D8909B379C37C8
:1059E000E806FBE12AD9E80E876F94DF9CC487F5AF
:1059F00091DF010E04019A15146EFE0E9B15141012
:105A00000501876F87DF99C487F504D93BD9050164
:105A1000876B00D90501A551A50700090CE032D913
:105A20000501A3C5E9FFA4C5EAFFA32B000EA4232B
:105A3000C9CFEFFFEFD78A88C78C200EC66E000C47
:105A40000501010E886FA6C589F5A7C58AF5A8C509
:105A50008BF5A9C58CF58F0E8D6F050E8E6F000C22
:105A6000050188050BE189C5B1F58AC5B2F58BC57D
:105A7000B3F58CC5B4F558D80501886B89C5B7F561
:105A80008AC5B8F58BC5B9F58CC5BAF5AA5105011B
:105A9000B56FB66B70D80501892BD5D805E2896939
:105AA0008A69010E8B6F8C6B89D801E1B6D8000C26
:105AB0000501886B83D801E0B0D8000CBED8D70EA2
:105AC000876FA8D8C9CFB0F48A88C78C200EC66E5D
