:020000040000FA
:0600000016EF3BF01200B8
:0600080087EF2FF012004B
:06001800DDEF15F01200FF
:06002A0007002B76000028
:10003000FF0100000100000074760000B905000017
:1000400006000000727600001B03000002000000A2
:10005000697600000A0300000900000065760000D0
:1000600017030000040000005A760000F5000000AD
:100070000B00000058760000FE02000002000000A5
:100080000501235108EC12F059EC15F0EECF93F076
:10009000EFCF94F00001230E935F000E945B59ECB8
:1000A00023F0F3CF83F4F4CF84F4230EADEC13F0FC
:1000B000000EA16F050EA26F06EC25F083C493F02D
:1000C00084C494F059EF23F00501245108EC12F098
:1000D00059EC15F0EECF91F0EFCF92F00001230E26
:1000E000915F000E925B48EC23F0F3CF83F4F4CFE2
:1000F00084F4230EB2EC13F0000EA66F050EA76F6A
:1001000045EC25F083C491F084C492F048EF23F0CD
:100110000401006B00C414F017EC12F067E2005108
:100120001A0DF3CF01F4F4CF02F4000E0127010EF3
:1001300002232CEC12F074EC15F00A0EEF6E00C4E2
:1001400014F0156A166A176AB50E0B6E010E0C6E66
:100150000D6A0E6A00C406F015C007F016C008F05C
:1001600017C009F043EC3AF002C014F003C015F0D8
:10017000820E1426120E15222CEC12F0020E14C060
:10018000EBFF030E14EC15F05CEC15F013EC14F01F
:10019000142A15222CEC12F0040E14C0EBFF050EED
:1001A00014EC15F050EC15F013EC14F02CEC12F0EC
:1001B000060E14C0EBFF070E14EC15F033EC14F030
:1001C000EF9053EC15F0EF9253EC15F0EF9453ECE5
:1001D00015F0EF9653EC15F0EF9853EC15F0EF9AFD
:1001E00053EC15F0EF9C0401002B94D763EC14F052
:1001F00006C0E6FF07C0E6FF65EC35F0E552E552C4
:1002000012000401006B00C414F017EC12F045E278
:1002100000511A0DF3CF01F4F4CF02F4000E0127C0
:10022000010E022331EC12F0180EEB500A0833E1F4
:1002300031EC12F033EC14F0EF8031EC12F074EC8E
:1002400015F0EF6A31EC12F025C5EEFF26C5EDFF83
:10025000BDEC15F065EC13F0BDEC15F063EC12F09D
:10026000C1EC15F06AEC12F0C1EC15F0FBEC12F0E9
:1002700005011F69206925C50CF526C50DF531EC72
:1002800012F0D5EC14F056EC12F000C424F51CDF8B
:10029000040100511200002BB6D7FE0C27C523F530
:1002A000EFDE0A0EE66EE66A000EE66E050EE66EFC
:1002B000280EE66E050EB7EC13F00AC532F50BC535
:1002C00033F5280E146E050E71EF12F0050134514E
:1002D00008EC12F074EC15F0EF50030801E0000C8C
:1002E000010C050135511A0DF3CFCDF4F4CFCEF446
:1002F000000E0401CD27010ECE2335C523F5C0DE47
:1003000070EC13F0180EEB50080A0FE00A0A09E02F
:10031000010A07E0020A18E135C57BF57DEC0DF016
:1003200013D07CEC14F0040E03D07CEC14F0090E16
:10033000EF6E7DEC11F070EC13F047EC14F070EC04
:1003400013F033EC14F0EF8235C524F564EF00F0C0
:10035000050136511A0DF3CFECF4F4CFEDF4000E95
:100360000401EC27010EED2336C523F589DE15ECDB
:1003700014F0080E30EC14F005010E51141802E1CF
:100380000F51151812E00501180E746F36C573F57C
:100390003AEC0AF07DEC11F015EC14F047EC14F097
:1003A00015EC14F033EC14F0EF8236C524F564EF4D
:1003B00000F0050137511A0DF3CF83F4F4CF84F424
:1003C000000E04018327010E842376EC12F0180E30
:1003D000EB50030809E076EC12F0180EEB50080819
:1003E00003E0F36AF46A120076EC12F0080E30ECC7
:1003F00014F076EC12F00A0E32EC15F021E376ECF4
:1004000012F0A3EC15F076EC12F059EC15F0A0EC1C
:1004100012F01606000E175A76EC12F0080EFBECDE
:1004200014F076EC12F07FEC15F0DDEC13F01A50BE
:10043000165C146E1B50175814C0F3FFF46E1200B4
:1004400076EC12F00A0E36EC14F076EC12F0080E90
:1004500057EC14F01406000E155A14C0F3FF15C023
:10046000F4FF1200050138511A0DF3CFDBF4F4CF7D
:10047000DCF4000E0401DB27010EDC2338C537F560
:1004800098DFF3CFDDF4F4CFDEF40401F350F41081
:1004900001E1000C010EDD1904E1DE5102E11AEC6C
:1004A00014F03BEC12F02FEC15F0200B15E13BECB7
:1004B00012F0DAEC15F03BEC12F062EC15F00401EE
:1004C000DD51145CDE51155807E31AEC14F03BECD7
:1004D00012F033EC14F0EF8A3BEC12F08EEC14F0D7
:1004E00039C5A5F03AEC25F03BEC12F071EC15F0B3
:1004F000E4EC13F03BEC12F0040E32EC15F008E3E0
:100500003BEC12F05CEC15F03BEC12F063EC12F0FB
:100510000401010EDD1904E1DE5102E11AEC14F0D0
:100520003BEC12F02FEC15F0040B08E13BEC12F061
:100530006EEC15F03BEC12F0ADEC12F0010C040186
:10054000DF6BE06B05013A511A0DF3CFE1F4F4CF04
:10055000E2F4000E0401E127010EE2233AC537F56B
:1005600028DFF3CFDDF4F4CFDEF40401F350F41010
:1005700005E11EEC14F0F36AF46A1200DDC4DBF44A
:10058000DEC4DCF4BFEC13F004E23DC5DBF43EC591
:10059000DCF4EEEC11F02FEC15F0200B15E1EEEC95
:1005A00011F0DAEC15F0EEEC11F062EC15F004014C
:1005B000DD51145CDE51155807E31EEC14F0EEEC2F
:1005C00011F033EC14F0EF8AE9EC14F0EE24146E21
:1005D000DC51EE20156EEEEC11F0040E32EC15F04D
:1005E0002CE3EEEC11F050EC15F0EEEC11F0080EEF
:1005F000DEEC14F0DF6FEE501558E06FEEEC11F00A
:100600008EEC14F0DFC4A8F0E0C4A9F0EBEC13F01A
:100610000401DF5105013B270401E05105013C23A2
:100620000401DF51DB5FE051DC5BEEEC11F05CECD0
:1006300015F0EEEC11F063EC12F0EEEC11F08EEC34
:1006400014F0DBC4A8F0DCC4A9F0EBEC13F0E9EC87
:1006500014F0EE26DC51ED22BFEC13F002E31EECA9
:1006600014F0EEEC11F02FEC15F0040B08E1EEECB9
:1006700011F06EEC15F0EEEC11F0ADEC12F004019F
:10068000DB51DF25146EDC51E02171EF12F0040123
:10069000D16BD26B05013F511A0DF3CFD3F4F4CFD8
:1006A000D4F4000E0401D327010ED4233FC537F53F
:1006B00080DEF3CFCFF4F4CFD0F40401F350F41084
:1006C00005E122EC14F0F36AF46A1200F3EC11F085
:1006D0002FEC15F0200B14E1F3EC11F0DAEC15F02F
:1006E000F3EC11F062EC15F0CF51145CD0511558B9
:1006F00007E322EC14F0F3EC11F033EC14F0EF8A82
:10070000CFC4CDF4D0C4CEF40401C7EC13F004E29E
:1007100043C5CDF444C5CEF4EEEC14F0EE24146ED3
:10072000CE51EE20156EF3EC11F0040E32EC15F004
:1007300030E3F3EC11F050EC15F0F3EC11F0080E8F
:10074000DEEC14F0D16FEE501558D26FF3EC11F0CF
:100750008EEC14F0D1C4ADF0D2C4AEF093EC13F033
:10076000D1C414F0D2C415F0166A14500501402704
:1007700015504123165042230401D151CD5FD2516F
:10078000CE5BF3EC11F05CEC15F0F3EC11F063ECE4
:1007900012F0F3EC11F08EEC14F0CDC4ADF0CEC439
:1007A000AEF093EC13F0EEEC14F0EE26CE51ED2209
:1007B000C7EC13F002E322EC14F0F3EC11F02FEC91
:1007C00015F0040B08E1F3EC11F06EEC15F0F3EC0E
:1007D00011F0ADEC12F00401CD51D125146ECE51C3
:1007E000D22171EF12F046C5E6FF47C5E6FFB0EC37
:1007F00032F0E552E552F3CF3DF5F4CF3EF546C574
:100800003BF547C53CF545C53AF599DE050146512E
:10081000F324146E4751F42071EF12F049C5E6FF3E
:100820004AC5E6FF4BC5E6FFBEEC32F0E552E552A5
:10083000E55207C043F508C044F549C540F54AC52F
:1008400041F54BC542F548C53FF521DF196A050161
:100850004951F324146E4A51F420156E4B5119205E
:10086000166E14C007F015C008F0096E12004CC5D2
:100870004DF52FD8F3CF14F0F4CF15F0F350F4105A
:1008800027E005014C511A0DF3CFCDF4F4CFCEF48F
:10089000000E0401CD27010ECE234CC523F540ECFC
:1008A00000F0CDC4E9FFCEC4EAFF96EC15F0CDC44C
:1008B000E9FFCEC4EAFF6AEC12F00501100E746F76
:1008C0004CC573F53AEC0AF04CC524F564EC00F025
:1008D000120005014D511A0DF3CF9BF4F4CF9CF497
:1008E000000E04019B27010E9C23DCEC12F096EC19
:1008F00015F0DCEC12F00E0E32EC15F00FE3DCEC30
:1009000012F00C0E36EC14F0DCEC12F05FEC15F08B
:10091000EE50165C146EEE5017581BD0DCEC12F043
:1009200085EC15F036EC12F0DCEC12F00E0EC3EC98
:1009300014F0DCEC12F00C0EFBEC14F0DCEC12F01A
:1009400035EC15F0DDEC13F016501A24146E175028
:100950001B2071EF12F04EC54DF5BBDFF3CF02F453
:10096000F4CF03F4F350F41001E1000C05014E51F3
:100970001A0DF3CF00F4F4CF01F4000E04010027A8
:10098000010E0123E1EC12F05FEC15F0B4EC12F073
:10099000F5EC24F04FC5E9FF50C5EAFFEF6EE1EC3E
:1009A00012F05FEC15F0E4EC13F0E1EC12F0BAECAD
:1009B00015F0B6EC14F008E2E1EC12F050EC15F092
:1009C000E1EC12F06AEC12F00401010E02190FE1E1
:1009D00003510DE14EC523F5D8EC14F04EC573F567
:1009E0003AEC0AF04EC524F564EC00F0010CE1ECA1
:1009F00012F02FEC15F0040B08E1E1EC12F06EECB4
:100A000015F0E1EC12F0ADEC12F0010C0401CF6B2B
:100A1000D06B050151511A0DF3CFD1F4F4CFD2F4BC
:100A2000000E0401D127010ED22351C54DF551DF2F
:100A3000F3CFCDF4F4CFCEF4050154510401F35CAF
:100A4000050155510401F45804E2CDC454F5CEC457
:100A500055F591EC14F005015451EE24146E5551E6
:100A6000EE20156E40EC12F0BAEC15F0B6EC14F076
:100A700037E240EC12F099EC15F091EC14F004011F
:100A8000EE50145CCF6FEE501558D06F010ECF278B
:100A9000000ED02391EC14F0B4EC12F0CFC4A3F00C
:100AA000D0C4A4F0F1EC13F005015251531108E049
:100AB0000401CF51050152270401D05105015323F0
:100AC0000401CF510501545F0401D0510501555B6C
:100AD00040EC12F050EC15F040EC12F06AEC12F021
:100AE00091EC14F0B4EC12F054C5A3F055C5A4F089
:100AF000F1EC13F091EC14F005015451EE26555130
:100B0000ED2254510401CD5D146ECE5105015555B1
:100B1000156E1450545D155055590DE351C523F50C
:100B2000D8EC14F051C573F53AEC0AF051C524F530
:100B300064EC00F00ED040EC12F02FEC15F0040B3A
:100B400008E140EC12F06EEC15F040EC12F0ADEC68
:100B500012F0050154510401CF25146E05015551C1
:100B60000401D02171EF12F00501565108EC12F08A
:100B700099EC15F0565108EC12F035EC15F0040123
:100B8000EE50145C856FEE501558866F56C54DF5C6
:100B9000A0DEF3CF83F4F4CF84F40401F350855D39
:100BA000146E8651F45471EF12F005015A515B1125
:100BB00003E1F36AF46A120057511A0DF3CF15F4EA
:100BC000F4CF16F4000E04011527010E162357C5A5
:100BD0004DF57FDEF3CF00F4F4CF01F405015A5157
:100BE0005C25146E5B515D21156E04011450F35C9D
:100BF0001550F45801E2F6D021EC13F05FEC15F03B
:100C000005015C51EE240401046F05015D51EE20E5
:100C10000401056F21EC13F099EC15F00451145CFC
:100C2000055115580CE221EC13F0BAEC15F021EC4B
:100C300013F077EC15F01450045F1550055B04C4F5
:100C400093F005C494F059EC23F021EC13F085ECFB
:100C500015F004010451EE5C026F0551EE58036F6C
:100C6000010E0227000E03235CC504F45DC505F4E4
:100C70005AC506F45BC507F458C508F459C509F40C
:100C8000050158C5E9FF59C5EAFF582B5923EFCF95
:100C90000BF45E5109E0610E04010B5D05E30B519D
:100CA0007A0802E3E00E0B270401080E0C6FE850EF
:100CB000025D000E035902E202C40CF40C5105015E
:100CC0005A5D000E5B5902E25AC50CF404010C5146
:100CD000ADEC13F00D0EA16F040EA26F06EC25F023
:100CE00004010C51D9EC13F0025F1550035B025163
:100CF000031109E121EC13F035EC15F0B4EC12F01E
:100D000004010269036905015E513FE004010A6BB9
:100D10000C510A5D58E2BAEC12F0EFCF14F0610EFC
:100D2000145C0BE3BAEC12F0EF507A0806E3E00E25
:100D3000146EBAEC12F01450EF26BAEC12F0EF5029
:100D40000B5D0DE1F7EC13F02DE075EC13F0610E87
:100D500004010B5D18E30B517A0815E312D07FEC08
:100D600013F008C4E9FF09C4EAFF582B000E592309
:100D7000EFCF0BF4610E04010B5D05E30B517A0814
:100D800002E3E00E0B270A2BC3D704010A6B0C51B8
:100D90000A5D19E2BAEC12F0EF500B5D0DE1F7ECD1
:100DA00013F00CE104010651045D166E0551075560
:100DB000176E0A51E6EF12F07FEC13F075EC13F0AA
:100DC00004010A2BE4D70C51D9EC13F0005F155045
:100DD000015B05015A510401005D05015B510401ED
:100DE000015903E2F368F46812000C51D9EC13F0D6
:100DF00004271550052358D705016351641103E1F9
:100E0000F36AF46A12005F511A0DF3CF99F4F4CF2C
:100E10009AF4000E04019927010E9A235FC54DF53F
:100E200058DDF3CF83F4F4CF84F4050163516525D5
:100E3000146E64516621156E04011450F35C155054
:100E4000F45801E2FBD026EC13F05FEC15F005013D
:100E50006551EE240401876F05016651EE200401FF
:100E6000886F26EC13F099EC15F08751145C8851CB
:100E700015580CE226EC13F0BAEC15F026EC13F042
:100E800077EC15F01450875F1550885B87C493F09A
:100E900088C494F059EC23F026EC13F085EC15F09F
:100EA00004018751EE5C856F8851EE58866F010E04
:100EB0008527000E862365C587F466C588F463C55B
:100EC00089F464C58AF460C58BF461C58CF462C58D
:100ED0008DF4050160C5F6FF602B61C5F7FFF3ECEB
:100EE00014F0675109E0610E04018F5D05E38F5135
:100EF0007A0802E3E00E8F270401080E906FE85095
:100F0000855D000E865902E285C490F4905105017A
:100F1000635D000E645902E263C590F404019051D0
:100F2000ADEC13F0910EA16F040EA26F06EC25F04C
:100F300004019051D9EC13F0855F1550865B855103
:100F4000861109E126EC13F035EC15F0B4EC12F043
:100F50000401856986690501675143E004018E6BD0
:100F600090518E5D5CE2C1EC12F0EFCF14F0610E97
:100F7000145C0BE3C1EC12F0EF507A0806E3E00ECC
:100F8000146EC1EC12F01450EF26C1EC12F0EF50C9
:100F90008F5D0DE1FEEC13F031E007EC13F0610E14
:100FA00004018F5D1CE38F517A0819E316D02BECF6
:100FB00013F08BC4F6FF602B8CC4F7FF000E612387
:100FC0008DC4F8FF62230800F5CF8FF4610E040191
:100FD0008F5D05E38F517A0802E3E00E8F278E2B99
:100FE000BFD704018E6B90518E5D19E2C1EC12F0F7
:100FF000EF508F5D0DE1FEEC13F00CE1040189511F
:10100000875D166E88518A55176E8E51E6EF12F085
:101010002BEC13F007EC13F004018E2BE4D7905166
:10102000D9EC13F0835F1550845B05016351040113
:10103000835D050164510401845903E2F368F46897
:1010400012009051D9EC13F087271550882354D7FC
:101050006CC55EF56AC55CF56BC55DF5010E0501F5
:101060005A6F5B6B0501690E586F050E596F68C5A5
:1010700057F5D5EF05F00401006B00C414F017EC30
:1010800012F001E356D100511A0DF3CF01F4F4CF61
:1010900002F4000E0127010E0223036B9FEC15F0F2
:1010A000400B06E05EEC21F0000902E0D2EC11F00A
:1010B0009FEC15F0040B12E09EEC11F0140E36ECD0
:1010C00014F07BEC12F004E214500008000E1554EA
:1010D00005E30401035102E1D2EC11F09FEC15F09D
:1010E000080B12E09EEC11F0160E36EC14F07BECBF
:1010F00012F004E214500008000E155405E3040138
:10110000035102E1D2EC11F09FEC15F0020B01E16A
:101110000DD19EEC11F0100E79EC11F0EECF18F01D
:10112000EECF19F026EC14F018C0E6FF19C0E6FF68
:101130001AC0E6FF1BC0E6FF85EC3AF0E552E7CFA8
:101140001BF0E552E7CF1AF0E552E7CF19F0E55270
:10115000E7CF18F000011850065C146E19500758BC
:10116000156E1A500858166E1B500958176E800ECF
:10117000171401E0DBD00401035104E100C423F59E
:1011800040EC00F005011A2BD8901B371C371D3797
:101190001E3785EC3AF0065005011B25146E0750EA
:1011A0001C21156E08501D21166E09501E21176E48
:1011B0009EEC11F047EC14F09EEC11F0180EEB5081
:1011C000090A01E19ED0010A01E182D00F0A01E182
:1011D000A6D0010A6CE0030A01E19CD0010A50E0AC
:1011E000070A1EE0010A04E0030A01E09BD013D0C5
:1011F0001A51050803E30501120E88D09FEC15F083
:10120000010B03E00501040E87D09EEC11F074EC95
:1012100015F0010EEF6ECFEC13F00501020E76D043
:101220009EEC11F00A0E30EC14F014500E1902E18D
:1012300015500F1901E176D01A51050816E36AEC32
:1012400014F015AE02D01668176825EC15F008E208
:101250003EEC14F015AE02D016681768C4EC11F01D
:1012600099EC14F00501180E51D04EEC13F09EECE1
:1012700011F074EC15F0040EEF6ECFEC13F044D0C7
:101280001A51050847E36AEC14F015AE02D016684F
:10129000176825EC15F008E23EEC14F015AE02D00C
:1012A00016681768C4EC11F099EC14F02DD01A519F
:1012B000050830E36AEC14F015AE02D01668176822
:1012C00025EC15F019E23EEC14F015AE13D010D059
:1012D0001A5105081FE36AEC14F015AE02D0166827
:1012E000176825EC15F008E23EEC14F015AE02D0BC
:1012F00016681768C4EC11F099EC14F00501100E93
:1013000005D01A51050806E30501110E746F18EC9B
:1013100015F008D00501140E746F18EC15F000C418
:101320007BF5EBDB00C424F564EC00F00401002B3A
:10133000A4D612006DC5E9FF6EC5EAFF85EC15F075
:10134000EECF14F4EECF15F4EECF16F4EFCF17F482
:101350006FC5E9FF70C5EAFFEECF18F4EECF19F4C0
:10136000EECF1AF4EFCF1BF404011C6B060E1D6FB9
:1013700071C51EF472C51FF471C5AFF572C5B0F525
:101380009DEC2CF0F3CF1EF4F4CF1FF40C0E0501EE
:10139000B76FB86B0501140EB56F040EB66FB8ECDD
:1013A0002CF0F3CF21F4F4CF22F40401211F221FEB
:1013B00071C599F072C59AF09CEC23F0F3CF23F439
:1013C000F4CF24F40401F350211951E124512219DE
:1013D0004EE10001CC6BCD6B64EC36F0140EADEC3D
:1013E00013F0000EA16F040EA26F06EC25F00501AC
:1013F000000E796F040E7A6F43DB04010C5114EC7C
:1014000013F0146E156A140E145E000E155A14C0F3
:1014100025F41450146E156AE8500501715D716F62
:1014200015507259726F140E715F000E725B6DC5AC
:1014300077F56EC578F50501000E756F040E766FB1
:101440005CDA0401206FFE0E205D11E071C57FF5AE
:1014500072C580F50501000E7D6F040E7E6F20C4FD
:101460007CF596DB20C424F564EC00F0010C65ECFF
:1014700021F0010C050173511A0DF3CF83F4F4CF61
:1014800084F4000E04018327010E842356EC15F02A
:10149000EF9456EC15F0EF9C56EC15F0EF9656ECE9
:1014A00015F0EF985EEC21F00009FCE0050174B343
:1014B0000BD099EC11F0080E30EC14F00E5114180A
:1014C00007E10F51151804E10401AB6BAC6BC9D0F7
:1014D00099EC11F0080E30EC14F0C8EC12F02CE28C
:1014E00099EC11F071EC15F00E51EE5C0401AB6F4C
:1014F00005010F51EE5804013EEC15F003E3AEEC8C
:1015000014F002D05AEC14F054EC13F004E2ADC421
:10151000ABF4AEC4ACF4400ED880AB55020EAC5563
:1015200002E2A6EC15F0ABC49FF0ACC4A0F043EC13
:1015300013F09BEC13F095D099EC11F035EC15F00D
:101540000E51EE5C0401A96F05010F51EE58040124
:10155000AA6F99EC11F071EC15F0A951EE24146EFC
:10156000AA51EE20156E99EC11F0020EDEEC14F08B
:10157000AB6FEE5015583EEC15F003E3AEEC14F0F3
:1015800002D05AEC14F054EC13F004E2ADC4ABF406
:10159000AEC4ACF4400ED880AB55020EAC5502E29E
:1015A000A6EC15F0A951AD5DAA51AE5904E2ADC447
:1015B000A9F4AEC4AAF4400ED880A955020EAA55CB
:1015C00004E2400EA96F020EAA6FA9C49FF0AAC43C
:1015D000A0F043EC13F00401A951AB5DA96FAA512F
:1015E000AC59AA6FA951AA1126E0A9C49FF0AAC4B8
:1015F000A0F099EC11F059EC15F0EECF9DF0EDCF85
:101600009EF099EC11F035EC15F005010E51EE5CF1
:10161000146E0F51EE58156E166A176AA40E142632
:101620000C0E1522000E1622172214C09BF015C0B6
:101630009CF02AEC24F09BEC13F099EC11F050ECA8
:1016400015F0C8EC12F00DE399EC11F0DAEC15F09E
:1016500099EC11F0020E57EC14F014500E5F155077
:101660000F5B0CC587F40DC588F40AC589F40BC55A
:101670008AF4030E0501741509E0A4EC13F00401CB
:101680008B07000E8C5B8D5B8E5B02D0A4EC13F09D
:1016900016C58FF417C590F418C591F419C592F4C6
:1016A0000401949D949F939193939395939774C5FC
:1016B00094F4996B9A6BAB51050112270401AC515C
:1016C00005011323000E1423152399EC11F096EC59
:1016D00015F099EC11F00E0E32EC15F01EE399ECBA
:1016E00011F0BAEC15F099EC11F0040E57EC14F06F
:1016F00099EC11F00C0E79EC11F026EC14F099EC49
:1017000011F05FEC15F005EC14F004011850145CB6
:10171000956F19501558966F15D099EC11F00E0E63
:1017200030EC14F099EC11F00C0E79EC11F004018E
:10173000EE50145C956FEE501558966F010E955F44
:10174000000E965B8EEC21F0F3CF85F4F4CF86F497
:101750000401400E855F000E865B800E861502E058
:10176000856B866B9551855D9651865909E2D00E41
:10177000855D070E865904E285C495F486C496F407
:101780000501870E796F040E7A6F7AD9140E040161
:10179000AB27000EAC239389939B938D939F0501F8
:1017A00074A326D0040E0401AB27000EAC23020E56
:1017B0009B6F040E9C6F020E9D6F400E9E6F010E7C
:1017C000146E930EE96E040EEA6EEF50F00BE842D1
:1017D000E842E842E84214240F0BF36EF46EF3463D
:1017E000F346F346F3460F0EEF14F310EF6EF4508A
:1017F00000C29FF401C2A0F402C2A1F403C2A2F489
:1018000006C5A3F407C5A4F408C5A5F409C5A6F444
:101810000401A76B060EA86FABC4A9F4ACC4AAF46C
:10182000ABC4AFF5ACC4B0F59DEC2CF0F3CFA9F48C
:10183000F4CFAAF40C0E0501B76FB86B05019F0E2B
:10184000B56F040EB66FB8EC2CF0F3CF97F4F4CF6D
:1018500098F40401971F981F00017C0E916F0C0EE5
:10186000926F48EC23F0ABC4CAF0ACC4CBF00001DB
:10187000060EC96F0001000EC76F050EC86FF1ECB0
:1018800035F0140EB2EC13F0870EA66F040EA76F9E
:1018900045EC25F0050174A309D0040EB2EC13F059
:1018A0009B0EA66F040EA76F45EC25F00001900E6D
:1018B000936F0C0E946F59EC23F0ABC499F0ACC449
:1018C0009AF09CEC23F0F3CF85F4F4CF86F400017A
:1018D000A00E916F0C0E926F48EC23F0020EB2EC4A
:1018E00013F0850EA66F040EA76F45EC25F0EFEC04
:1018F00024F00009FCE0D0EF22F00401FE0E296F75
:101900009DEC14F059EC15F036EC12F09DEC14F04F
:101910001850EE24166E1950EE20176E02EC13F0DC
:101920000CEC14F002EC13F059EC15F01450EE1816
:101930002A6F1550EE182B6F286B28C414F017EC83
:1019400012F05BE22851A3EC14F0180EEB500A08D9
:1019500051E012EC12F0180EEB50000913E112ECFA
:1019600012F08AEC11F002EC13F0020E36EC14F0D7
:101970001650000114183EE1175015183BE128C419
:1019800029F438D012EC12F08AEC11F02A5100013F
:10199000141830E104012B51000115182BE128C463
:1019A00023F540EC00F002EC13F05CEC15F00501BF
:1019B0000C5114181FE10D5115181CE102EC13F025
:1019C000A3EC11F00A51161815E10B51171812E18A
:1019D0009DEC14F0EE5006190DE1EE5007190AE1E6
:1019E000EE50081907E1EE50091904E103E1040182
:1019F000285112000401282BA0D7FE0E295D01E119
:101A0000FE0C2951A3EC14F02AC4EEFF2BC4EDFF09
:101A1000C5EC15F063EC12F0C5EC15F065EC13F0B5
:101A2000C9EC15F0FBEC12F0C9EC15F06AEC12F001
:101A300012EC12F033EC14F0EF920A0EE66EE66A46
:101A400077C5E6FF78C5E6FF000EE66E050EB7EC3B
:101A500013F002EC13F0EECF0AF5EDCF0BF502EC2C
:101A600013F059EC15F0EECF0CF5EDCF0DF556EC6B
:101A700012F012EC12F0D5EC14F00401295112000E
:101A800094EC14F0A8EC11F0F3CFEEFF15C0EDFFCD
:101A900094EC14F0020EE2EC14F0020EF3CFEBFF24
:101AA000030E6CEC13F035EC15F045EC12F0040E5F
:101AB00088EC15F071EC15F045EC12F0080E88EC8E
:101AC00015F00E0EE2EC14F00E0EF3CFEBFF0F0E3E
:101AD0006CEC13F0100EE2EC14F0100EF3CFEBFFF1
:101AE000110E6CEC13F0120EE2EC14F0120EF3CFA8
:101AF000EBFF130E15C0EBFF120005017B511A0D11
:101B0000F3CF83F4F4CF84F4000E04018327010E95
:101B10008423CDEC11F02FEC15F0010B02E0000E48
:101B200001D00A0EE66ECDEC11F074EC15F0E55222
:101B3000E750EF6E9CEC15F0EF929CEC15F0EF94F3
:101B40009CEC15F0EF969CEC15F0EF989CEC15F0E2
:101B5000EF9A9CEC15F0EF9CCDEC11F00CC5EEFF6C
:101B60000DC5EDFFCDEC15F065EC13F0CDEC15F0E7
:101B700063EC12F0D2EC15F06AEC12F0D2EC15F036
:101B8000FBEC12F0CDEC11F0D5EC14F056EF12F0A6
:101B900005017C511A0DF3CF34F4F4CF35F4000E67
:101BA00004013427010E3523366B39EC14F0040B95
:101BB00007E0D2EC13F07CC57BF59FDF65EF21F0E9
:101BC00005011051111109E1CFDB5FEC15F0EE506A
:101BD000ED1003E03BEC15F0EF8CC6DB5FEC15F08D
:101BE000EECF10F5EDCF11F5E5EC14F0070A01E1A9
:101BF00011D10E0A01E1FAD0010A01E1F4D00E0A76
:101C000001E1D6D0030A01E1CCD0010A01E188D07C
:101C1000070A61E0010A46E0030A10E0010A01E058
:101C2000FCD039EC14F0020B03E1D2EC13F0EED04F
:101C300049EC15F03BEC15F0EF8223D039EC14F0B1
:101C4000020B01E1EAD082EC15F019E04DEC14F042
:101C500001E0E0D0EE50131901E0DCD0EE50141991
:101C600001E0D8D0EE50151901E0D4D001E0D2D077
:101C70000401100E366FADEC15F0BADB02D049EC62
:101C800015F072DB35EC15F0EECF16F5EECF17F54B
:101C9000EECF18F5EFCF19F50501162B17231823F2
:101CA0001923BBD082EC15F001E1B7D04DEC14F054
:101CB00001E0B3D0EE50131901E0AFD0EE5014198B
:101CC00001E0ABD0EE50151901E0A7D001E0A5D09E
:101CD000ADEC15F086D08CDB39EC14F0010B01E192
:101CE0009CD00501162B000E1723182319237F51B2
:101CF00080110AE10401110E366F05014EEC13F05C
:101D000044EC14F0090E06D00401100E366F44ECBA
:101D100014F0080EB3EC15F03BEC15F0EF827DD01B
:101D200039EC14F0010B17E082EC15F014E04DECE7
:101D300014F011E1EE5013190EE1EE5014190BE1FD
:101D4000EE50151908E107E1F2EC12F044EC14F042
:101D50000FEC13F020D082EC15F012E04DEC14F0F3
:101D60000FE1EE5013190CE1EE50141909E1EE5099
:101D7000151906E105E144EC14F0050EEF6E31D0C3
:101D800039EC14F0010B2DE0F2EC12F044EC14F0FD
:101D9000060EEF6EB2DAC3DA100EABDA14C0EEFF45
:101DA0001FD039EC14F0010B1CE0F2EC12F010D053
:101DB00082EC15F016E04DEC14F013E1EE5013191F
:101DC00010E1EE5014190DE1EE5015190AE109E188
:101DD00044EC14F00FEC13F0A2DA100E1CEC15F02A
:101DE000EDDA06DB1AD00401100E16D082EC15F0E5
:101DF00014E04DEC14F011E1EE5013190EE1EE5029
:101E000014190BE1EE50151908E107E17CC57BF5CB
:101E100074DE03D00401040E366F82EC15F001E18C
:101E200089D0E5EC14F00A0801E184D0E5EC14F067
:101E3000000901E17FD073DA7FEC15F0050103DBC7
:101E400015AE02D016681768120EE96E050EEA6E1E
:101E50001450EE5C0401266F1550EE58276F165093
:101E6000EE58286F1750EE58296F7BEC15F00501DE
:101E70008FDB0BE288EC14F014500401265F155040
:101E8000275B1650285B1750295B6EDA71EC15F052
:101E900004012651EE5C266F2751EE58276F28511A
:101EA000EE58286F2951EE58296FE834000E291991
:101EB00009E6D880000E2655000E2755000E28553D
:101EC000000E295537E288EC14F02651145C275196
:101ED000155828511658295117582CE33BEC15F08A
:101EE000EF9A1DDA7FEC15F02651EE262751ED22F0
:101EF0007BEC15F014DA040E32EC15F00BE30FDA7C
:101F0000DAEC15F00CDA020E57EC14F008DA0A0ECF
:101F100001EC15F0E5EC14F003080CE17BEC15F096
:101F200005010E51141806E10F51151803E13BECA1
:101F300015F0EF92EFEC24F00009FCE065EC21F0E5
:101F40000401365106E036C474F57CC573F53AECED
:101F50000AF0120005018551861101E1000C2BECFD
:101F600014F035EC15F01651EE5C0401396F0501E3
:101F70001751EE5804013A6F05011851EE5804014B
:101F80003B6F05011951EE5804013C6F39C43DF413
:101F90003AC43EF4C9D996EC15F0C6D90E0E32EC0F
:101FA00015F015E3D7EC15F0040E57EC14F02BECFC
:101FB00015F026EC14F0B8D95FEC15F005EC14F030
:101FC0001850145C3F6F19501558406F10D0ACD9A1
:101FD0000E0E30EC14F0A8D90C0EDEEC14F03F6FAE
:101FE000EE501558406F010E3F5F000E405B3FC43E
:101FF00014F040C415F0166A176A3C511718E8AE81
:1020000002D0173408D01450395D15503A59165083
:102010003B5917503C5901E353D1BFDAE83401E38F
:102020004FD118500008000E195401E349D10401A2
:102030003E3504E23D510008000E3E5501E295D0C8
:10204000CAEC14F0146E156A3D51F35C0001CC6FBC
:1020500004013E5115580001CD6F64EC36F00401C7
:102060003D510501852704013E5105018623855117
:1020700016278651BDEC14F08551EE24146E86515E
:10208000EE20156E38EC15F0B6EC14F022E24CD9C7
:1020900099EC15F02BEC15F00401EE50145C376F41
:1020A000EE501558386F010E3727000E38238CEC90
:1020B00015F005DB6EEC14F002DB166E86510401A0
:1020C0003855176E31D935EC15F0A6DB2DD993DADA
:1020D0000BD068EC15F007EC15F02BEC15F00501B2
:1020E0008551EE268651ED2205011F1D01E1201DBF
:1020F00001E1E6D085511F5F8651205B21511F25EC
:102100000401376F0501225120210401386F800E30
:10211000381527E10501203504E21F510008000EA3
:10212000205501E2CDD004013751050116270401E5
:1021300038510501BDEC14F004013751EE26385139
:10214000ED22F2D896EC15F038EC15F0B6EC14F060
:1021500008E2D7EC15F077EC15F0E6D80C0E01ECA0
:1021600015F005011F692069ABD03E3501E3A8D009
:102170003D510008000E3E5501E3A2D0CAEC14F018
:102180000001CC6FCD6B64EC36F02BEC15F0040144
:102190003D51EE24166E3E51EE20176E165005018D
:1021A0008525146E17508621D0EC14F01450185C5D
:1021B0001550195832E2D7EC15F00C0E78DBDBDB4A
:1021C00004013D51145C376F3E511558386F800E35
:1021D000381510E18CEC15F09CDA9C6F2AEC24F099
:1021E000040137510501855D79DBEECF9BF0EDCF22
:1021F0009CF017D068EC15F004013D51EE24146EEC
:102200003E51EE20CDDB90D8040EBDDB0001165010
:10221000145C9B6F1750155803D068EC15F079DAF1
:102220009C6F2AEC24F005011F1D0BE1201D09E124
:102230003DC41FF53EC420F585C521F586C522F5B0
:102240003FD01F5104013D5D0501205104013E595D
:1022500023E265D907E30401A0D91F51185C20517E
:10226000195805E285C521F586C522F510D01F5104
:102270002125146E20512221156E04013D51145C5C
:102280000501216F04013E5115580501226F3DC41F
:102290001FF53EC420F514D042D912E204017DD9C5
:1022A0001F51185C166E20511958176E2151165C7B
:1022B000146E22511758156E1450212715502223E1
:1022C00033D8CDDB100B01E0100C2ED8CCDAEF8820
:1022D0002BD8C5DB080B0CE127D8C5DAEF86F3DA7B
:1022E000A2DA22D8160E14C0EBFF170E15C0EBFFB2
:1022F000000CE926000EEA22120005011A6B8DDBA4
:10230000E2DA9EDBE80E1426030E1522000E1622DA
:1023100017221200EECF14F0EFCF15F0120034C4E4
:10232000E9FF35C4EAFF120081C5E9FF82C5EAFF73
:10233000120083C4E9FF84C4EAFF120001C4E9FF6C
:1023400002C4EAFF1200EECF16F0EFCF17F0120032
:10235000EECFAFF5EDCFB0F59DEC2CF0F3CF14F050
:10236000F4CF15F094EF14F07DC5E9FF7EC5EAFFC8
:102370001200EE50165C146EEE501758156E1200D7
:10238000EF84A1DA280ECED31450125F1550135BE0
:102390001650145B1750155B120083C4E9FF84C408
:1023A000EAFF120000C423F503DB42DB00C424F57E
:1023B00064EC00F00401010E036F120015C0EEFF83
:1023C00016C0EEFF17C0EEFF1200EE50185C146E40
:1023D000EE501958156E166A176A1200E1C4E9FF2B
:1023E000E2C4EAFF1200D3C4E9FFD4C4EAFF12003A
:1023F0007FC585F580C586F57DC583F57EC584F5E9
:1024000034C481F535C482F5A5DD0401361312000C
:102410001A0DF3CFE9FFF4CFEAFF000EE926010E13
:10242000EA22120026C4E9FF27C4EAFF1200156A57
:10243000166A176A080E145C000E1558000E16581E
:10244000000E17581200EE500E5D146EEE500F592C
:10245000156E166A176A120001C4E9FF02C4EAFF8A
:10246000120001C4E9FF02C4EAFF1200EECF18F027
:10247000EFCF19F01200DBC4E9FFDCC4EAFF120061
:10248000D1C4E9FFD2C4EAFF1200EECFB1F5EECF1E
:10249000B2F5EECFB3F5EFCFB4F5A2EC2CF006C059
:1024A00014F007C015F0CCDA94EF14F06CEC35F0B2
:1024B000F3CF12F5F4CF13F56CEC35F0F3CF14F540
:1024C000F4CF15F51200080E14C0EBFF090E15C06D
:1024D000EBFF12000E0E14C0EBFF0F0E15C0EBFF4A
:1024E0001200156E14C0F3FFF46E120083C4E9FFEE
:1024F00084C4EAFF120016C0E6FF17C0E6FF85ECB1
:102500003AF0E552E7CF17F0E552E7CF16F0065064
:10251000165C146E07501758156EE83412003D51C2
:1025200005018525146E04013E5105018621156EB5
:102530001F512125166E20512221176EB6EF14F07F
:10254000EE50185C166EEE501958176E1200EECF52
:1025500091F0EDCF92F048EF23F0140E14C0EBFF92
:10256000150E15C0EBFF1200EECF93F0EDCF94F0F7
:1025700059EF23F00A51EA6A0D0FE96E040EEA22C0
:1025800012008E51EA6A910FE96E040EEA221200DF
:1025900014500E5D15500F5912003D51050185254F
:1025A000186E04013E5105018621196E1200165065
:1025B000145C1750155812009BC4E9FF9CC4EAFF35
:1025C000120000C4E9FF01C4EAFF12000001162452
:1025D000146E000E1720156ECED914C0F3FF15C06F
:1025E000F4FF1200162B000E1723182319230401E1
:1025F000100E366F12000C0E14C0EBFF0D0E15C03E
:10260000EBFF120075C5E9FF76C5EAFF120060C551
:10261000F6FF602B61C5F7FF000EF3EF14F0070E15
:10262000EF6E51D920EF15F0F00BE842E842E84296
:10263000E842040DF3501200EECF0EF5EDCF0FF58A
:10264000120015C4E9FF16C4EAFF120099C4E9FF9D
:102650009AC4EAFF120089C463F58AC464F58BC486
:1026600060F58CC461F58DC462F5050112000E5150
:10267000EE5C1A6E0F51EE581B6E1A50165C146EFB
:102680001B50175812000EC59DF00FC59EF000019B
:10269000A40E9B6F0C0E9C6F2AEF24F0122B000EE1
:1026A0001323142315231200156E14500401AD5F7B
:1026B0001550AE5BAB51AD5DAC51AE591200A7D910
:1026C000040137510501855D12000A0E14C0EBFFAD
:1026D0000B0E15C0EBFF120015C0EBFF94EF14F0CA
:1026E000CDC4E9FFCEC4EAFF120058C5E9FF59C5C1
:1026F000EAFF582B000E5923EFCF0BF4120006C44B
:102700005AF507C45BF508C458F509C459F5050125
:10271000120004013D51EE2400019B6F04013E5163
:10272000EE200001120040C5AAF041C5ABF042C541
:10273000ACF05FEF25F00401AB5105010E27040159
:10274000AC5105010F23120012C58BF413C58CF494
:1027500014C58DF415C58EF412000001A36FA46B8F
:10276000000112000001A86FA96B00011200E66EC3
:102770002AEC32F0146E060EE15E14501200DD51A8
:1027800005013D5D0401DE5105013E591200CF51A6
:102790000501435D0401D0510501445912003DD9A2
:1027A0001A6B12000501040E746F7CC573F53AEFC5
:1027B0000AF0146E156A14501200EE501C5C1A6E6A
:1027C000EE501D581B6E1200EE2AED22EECF14F0D3
:1027D000EDCF15F012003BC5A6F03CC5A7F045EFC4
:1027E00025F052C5A1F053C5A2F006EF25F0050172
:1027F0005A07000E5B5B5A515B111200050163071B
:10280000000E645B635164111200EE501A5C186E86
:10281000EE501B58196E12001650EE24146E17500D
:10282000EE20156E1200C80E7DD1ECC4E9FFEDC498
:10283000EAFF120038C536F5A8EF01F03AC536F5C3
:10284000A8EF01F03FC536F5A8EF01F0EECF1AF082
:10285000EFCF1BF0120083C5E9FF84C5EAFF120029
:1028600048DD8AEF11F0190E79EF11F042DDA3EF88
:1028700011F07ADD0D0E3DDDEF5012005FDD63D902
:102880005DDD17D9E5EF11F04ADD74EF15F0100E9C
:1028900030DD14C0EEFFDEEF11F066DD22D9EE5020
:1028A0001219120000019D699E692BEF15F021DDC0
:1028B000B9EF11F03EDD47D93CDDFBD841DE39DD13
:1028C0001ED937EF13F085EC3AF006C014F007C0BC
:1028D00015F0120033DD13D923EF12F000019F6FC2
:1028E00004013851050186590001A06F00019D695E
:1028F0009E691ADD35EF15F00501D0DE0501110ED8
:10290000746F35C573F53AEC0AF0EADE74EF15F032
:1029100006DD19D904DDCDD8E5EF11F0E2D8A7EF37
:1029200012F0AEDD5FEF15F079C5E9FF7AC5EAFF79
:10293000120004DDE4D81CEF13F077C5E9FF78C579
:10294000EAFF85EF15F01A0DF3CF26F4F4CF27F444
:10295000000E2627010E272312EF12F0EADCCFD853
:10296000EE500E5D146EEE500F5912001450165CAE
:10297000155017581200010ED5D01723000E18233A
:1029800019232BEF15F0B5DCDBDD010E1626000E4A
:102990001722120060DF0C0EACDCEF5014EF13F0C6
:1029A000156EC2DCB2D836EF12F083D81CEF13F0EC
:1029B00040EC00F00501100E746F12009ADCEE502E
:1029C000145C120096DCA8EF11F0A9DC180EEB5095
:1029D000120004DD86D80401DB51120004DD81D829
:1029E0000401CD511200612362C5F8FF6223080083
:1029F000F5CF8FF412007DDCEECF1CF0EFCF1DF091
:102A0000120077DC1450EE5E1550ED5A1200EECF36
:102A10009BF0EDCF9CF02AEF24F0E80E1B6F030E25
:102A20001C6F1D6B1E6B120015C0EBFF2CEF12F01C
:102A300000C473F53AEF0AF05CDC06C0EEFF12004A
:102A400008C016F009C017F012009EDC77DC0A0EF1
:102A500007DFC8EF12F068DC0C0E79EF11F003DF2E
:102A6000EF50120003DFD7EF12F0040E79EF11F0F0
:102A70005BDCBAEF15F053DC33EF14F0AC6F10C52C
:102A8000ADF411C5AEF455DC0A0EEADE0501C8EF5F
:102A900012F00401120E366FF7DE020EB3EF15F0DE
:102AA000040E30EF14F0D8DC33EF14F042DC33EFD7
:102AB00014F0020E79EF11F0020E30EF14F00E0E4A
:102AC00079EF11F0020EF3DED890153214321200B5
:102AD00085C59FF086C5A0F052EF14F0C4DEC0EFAC
:102AE00011F0080E79EF11F0180E79EF11F0040EC5
:102AF000DEDEBBEF14F013DC0A0E30EF14F00A0E2A
:102B000079EF11F0B6DE100B1200060E79EF11F01E
:102B100093DF54DC94EF14F037C49FF038C4A0F076
:102B200052EF14F01426000E152212000C0E30EF96
:102B300014F0060E30EF14F030DC33EF14F09EEC9E
:102B400011F02FEF15F091DF36EF12F0400EAB6F62
:102B5000020EAC6FABDFEF8C120096DE030EEF6E51
:102B60008ADFEF921200EF6E7DEC11F08FEC11F026
:102B700047EF14F0060E36EF14F073DC9DDF31EFF3
:102B800012F06FDC8DDF31EF12F04CDC95DF12EFCD
:102B900012F048DC85DF12EF12F0CDEC11F08CDF83
:102BA000CDEF11F0CDEC11F07BDFCDEF11F060DF58
:0A2BB00094EF11F0040E36EF14F05C
:062BBA00D8CFE4FFE0CFDC
:102BC000E4FFE46EDACFE4FFE2CFDAFFE9CFE4FF1F
:102BD000EACFE4FFF6CFE4FFF7CFE4FFF8CFE4FF5E
:102BE000F5CFE4FFF3CFE4FFF4CFE4FFFACFE4FF47
:102BF000FBCFE4FF00EE00F0140EE80403E3EECF99
:102C0000E4FFFBD700EE14F00C0EE80403E3EECF74
:102C1000E4FFFBD7E6528EEC3AF0E55200EE1FF0EF
:102C20000C0EE80403E3E5CFEDFFFBD700EE13F055
:102C3000140EE80403E3E5CFEDFFFBD7E5CFFBFF80
:102C4000E5CFFAFFE5CFF4FFE5CFF3FFE5CFF5FFE2
:102C5000E5CFF8FFE5CFF7FFE5CFF6FFE5CFEAFFD9
:102C6000E5CFE9FFE5CFDAFFE550E5CFE0FFE5CFBF
:102C7000D8FF1000E66AC9EC3AF0E55211EC1CF0FE
:102C80007BEC3AF094EC30F025EC1CF081B066D08F
:102C900085EC3AF006C0E3F407C0E4F408C0E5F4BC
:102CA00009C0E6F481B058D085EC3AF00401E35154
:102CB000065C146E0401E4510758156E0401E551D9
:102CC0000858166E0401E6510958176ED880A00EF8
:102CD00014540F0E1554000E1654000E17543BE2F8
:102CE0000201E96BEA6BEB6BEC6BFAEC2DF0020185
:102CF000ED690AEC2EF032EC2EF00001650EE76F64
:102D0000680EE86F000EE96F8CEC39F0959A838AB3
:102D100085EC3AF00401E351065C146E0401E451C1
:102D20000758156E0401E5510858166E0401E65166
:102D30000958176E1734000E171809E6D880940E3C
:102D40001454110E1554000E1654000E175401E3BE
:102D5000DFD7FF0001D0A6D7D0EC1CF0F7EC39F09C
:102D600043EC27F0FDEC39F05CEC27F040D8FF0E87
:102D700003010E5D02E003010E69F4D712000401A5
:102D80000A6B0A51146E156A040E145C000E155875
:102D90002DE20501060EA96F040EAA6F04010A5167
:102DA000EA6A7B0FE96E020EEA22EF500501A76F77
:102DB000A86B0FEC2CF00001060EE56F040EE66F19
:102DC00077EC39F004010A51146E156A030E1418D9
:102DD00003E1155001E11200C3EC1FF0FDE1000119
:102DE0002E0EE1EC1FF004010A2BCBD71200810E4E
:102DF000C26E0401640E026F025102070009FCE179
:102E0000C284C2B4FED7C3CF02F4C4CF03F4330EDE
:102E1000E66E020E6FEC1FF0C40EC16E890EC26E1C
:102E20000401640E026F025102070009FCE1C28432
:102E3000C2B4FED7C3CF02F4C4CF03F402C400F47B
:102E400003C401F40401013513E200510008020E2D
:102E500001550EE2000E005F020E015B99EC1FF0BF
:102E6000140E04010824006F000E0920016F11D018
:102E7000000ED8800057020E015799EC1FF008C0D1
:102E800000F409C001F40401140ED8800057000EAC
:102E900001573B0EE66E020E6FEC1FF0430EE66E1E
:102EA000020EE66E00C4E6FF01C4E6FF4FEC20F020
:102EB000CE0EC16E1200300E02017F5D1CE37F5109
:102EC000390803E3300E7F5D11D0410E7F5D13E3BF
:102ED0007F51460802E3410E07D0610E7F5D0BE390
:102EE0007F51660808E3610E7F5D0A0F156AF36E75
:102EF00015C0F4FF1200F368F468120080C2E9FF05
:102F000081C2EAFFC7EC1FF00401836FE850030A97
:102F10000FE0030A01E0D6D2020E13EC20F0C7EC5A
:102F20001FF00401846FE85001E0CCD2837ACAD24A
:102F300002018251020801E3C5D20401846B876B50
:102F40008751146E156A040E13EC20F01450EE2411
:102F5000E76E1550D9EC1FF0EF5032E0C3EC1FF0D4
:102F6000FDE104018751186E196A040E13EC20F07C
:102F70001850EE24E76E1950D9EC1FF07CEC20F0CD
:102F800088EC20F0040E29EC1FF0FDE194EC1FF01A
:102F9000040187291A6E1B6A040E13EC20F01A50E4
:102FA000EE24E76E1B50D9EC1FF04EEC1FF014C05E
:102FB000E1F05AEC39F0020E04018725876FC0D783
:102FC000040EEA6A8025E96E8151EA22EECFE6FF1F
:102FD000EFCFE6FFB0EC32F0E552E552F3CF14F05C
:102FE000F4CF15F0200EF35C000EF45801E35ED22E
:102FF000E0EC1EF0CEEC1FF001E1F45033E0080EDF
:10300000F31801E1F45022E0020EF31801E1F4504C
:1030100011E0010EF31837E1F45035E1E0EC1EF059
:103020000E0E0DEC1FF029EC1FF0FDE14CEC20F032
:103030000F0E23D0E0EC1EF0040E0DEC1FF029EC77
:103040001FF0FDE14CEC20F0050E17D0E0EC1EF077
:103050001A0E0DEC1FF029EC1FF0FDE14CEC20F0F6
:103060001B0E0BD0E0EC1EF0080E0DEC1FF029EC4F
:103070001FF0FDE14CEC20F0090E80EC20F04EEC4E
:103080001FF014C084F404018451FF0A14E0FB0A09
:103090000EE0070A09E0010A04E0030A0EE1886B6A
:1030A0000BD0020E886F08D0886B020E02D0020E81
:1030B000886F896F02D0886B896BE0EC1EF0CEECD4
:1030C0001FF001E1F45001E171D1080EF31801E1A4
:1030D000F45001E1BED0020EF31801E1F45001E119
:1030E00089D0010EF31801E09ED1F45001E09BD18C
:1030F000E0EC1EF0020E0DEC1FF029EC1FF0FDE1DC
:10310000FBEC1FF08951F3EC1FF0030E0DEC1FF0E8
:1031100029EC1FF0FDE1FBEC1FF08951EEEC1FF0F4
:10312000040E0DEC1FF029EC1FF0FDE1FBEC1FF08D
:103130008951F8EC1FF0050E0DEC1FF029EC1FF083
:10314000FDE104EC20F08951F3EC1FF0060E0DECCC
:103150001FF029EC1FF0FDE104EC20F08951EEECAA
:103160001FF0070E0DEC1FF029EC1FF0FDE104EC41
:1031700020F08951F8EC1FF0080E0DEC1FF029EC3F
:103180001FF0FDE1FBEC1FF08929F3EC1FF0090EA5
:103190000DEC1FF029EC1FF0FDE1FBEC1FF089297D
:1031A000EEEC1FF00A0E0DEC1FF029EC1FF0FDE114
:1031B000FBEC1FF08929F8EC1FF00B0E0DEC1FF053
:1031C00029EC1FF0FDE104EC20F08929F3EC1FF05D
:1031D0000C0E0DEC1FF029EC1FF0FDE104EC20F0CB
:1031E0008929EEEC1FF00D0E0DEC1FF029EC1FF0FD
:1031F000FDE1D6D089C486F4020E04018925865DDE
:1032000001E311D188C485F4020E8825855D1FE293
:10321000E0EC1EF0010E0DEC1FF029EC1FF0FDE1BB
:103220005DEC20F0F3EC1FF0020E0DEC1FF029EC2A
:103230001FF0FDE15DEC20F0EEEC1FF0030E0DEC55
:103240001FF029EC1FF0FDE131EC20F0DDD7862BDB
:10325000D3D7E0EC1EF0020E11EC1FF02EEC1FF0A5
:10326000FDE1E8EC1FF0030E62EC20F08951F3EC75
:103270001FF0040E11EC1FF02EEC1FF0FDE1E8EC46
:103280001FF0050E62EC20F08951EEEC1FF0060EE7
:1032900011EC1FF02EEC1FF0FDE1E8EC1FF0070E23
:1032A00062EC20F08951F8EC1FF0080E11EC1FF0D1
:1032B0002EEC1FF0FDE1E8EC1FF0090E65EC20F0AC
:1032C0008951F3EC1FF00A0E11EC1FF02EEC1FF0E9
:1032D000FDE1E8EC1FF00B0E65EC20F08951EEECFF
:1032E0001FF00C0E11EC1FF02EEC1FF0FDE1E8ECCE
:1032F0001FF00D0E65EC20F08951F8EC1FF00E0E5A
:1033000011EC1FF02EEC1FF0FDE1E8EC1FF00F0EAA
:1033100062EC20F08929F3EC1FF0100E11EC1FF085
:103320002EEC1FF0FDE1E8EC1FF0110E62EC20F036
:103330008929EEEC1FF0120E11EC1FF02EEC1FF09D
:10334000FDE1E8EC1FF0130E62EC20F08929F8ECA7
:103350001FF0140E11EC1FF02EEC1FF0FDE1E8EC55
:103360001FF0150E65EC20F08929F3EC1FF0160E06
:1033700011EC1FF02EEC1FF0FDE1E8EC1FF0170E32
:1033800065EC20F08929EEEC1FF0180E11EC1FF00F
:103390002EEC1FF0FDE1E8EC1FF0190EE7EC1EF03B
:1033A00004EC20F0892978EC20F03DD089C486F423
:1033B000020E04018925865D36E288C485F4020E7A
:1033C0008825855D2EE2E0EC1EF0020E11EC1FF068
:1033D0002EEC1FF0FDE1E8EC1FF0030EE7EC1EF011
:1033E0005DEC20F0F3EC1FF0040E11EC1FF02EEC5E
:1033F0001FF0FDE1E8EC1FF0050EE7EC1EF05DECC0
:1034000020F0EEEC1FF0060E11EC1FF02EEC1FF07A
:10341000FDE1E8EC1FF0070EE7EC1EF031EC20F0C8
:10342000CED7862BC5D7FF0E0401845D4BE189C43E
:1034300086F4020E8925865D45E288C485F4020E75
:103440008825855D31E208EC20F0EF50E66E23EC34
:1034500020F043EC20F023EC20F01AEC20F023ECD9
:1034600020F035EC20F08551FFEC1FF043EC20F00C
:103470008551FFEC1FF01AEC20F08551FFEC1FF096
:1034800035EC20F084EC20F043EC20F084EC20F0CC
:103490001AEC20F084EC20F0020E80EC20F0E552D3
:1034A000E750EF6E852BCBD7862BC3D70001100ECC
:1034B000E1EC1FF00001E16B5AEC39F00001E16929
:1034C0005AEC39F00A0EE66EE66A0C0EE66E760EDF
:1034D000E66E000EE66E80C2E9FF81C2EAFFEECF23
:1034E000E6FFEFCFE6FF55EC32F0146E070EE15E1B
:1034F0001450120002018351200A01E1B2D0010AE6
:1035000001E1AFD0030A01E1ACD0010A01E1A9D089
:10351000630A01E1A6D0010A01E1A3D0030A01E197
:10352000A0D0010A01E19DD0130A01E19AD0010A5D
:1035300001E197D0030A01E194D0010A01E191D0A1
:10354000330A01E18ED0010A01E18BD0030A01E1C7
:1035500088D0010A01E185D0130A01E182D0010A75
:1035600001E17FD0030A01E17CD0010A01E179D0B9
:10357000640A61E0010A49E0120A3EE01C0A2CE0FC
:103580001B0A1AE0010A08E0020A01E047D1835051
:10359000200B35E1300E36D057EC1FF040EC1FF019
:1035A00057EC1FF001E13AD1842B000E852357EC34
:1035B0001FF001E02ED132D15FEC1FF040EC1FF084
:1035C0005FEC1FF001E12AD1842B000E85235FEC14
:1035D0001FF001E01ED122D167EC1FF040EC1FF07C
:1035E00067EC1FF001E11AD1842B000E852367ECF4
:1035F0001FF001E00ED112D18150010B02E0310E1B
:1036000001D0300E40EC1FF009D1845185110AE140
:10361000400EE66EE66A5F0EE66E680EE66E000E1F
:1036200076EC1FF029EC20F001E1F8D047EC20F017
:1036300001E0EFD0F3D0845185110AE1400EE66E2F
:10364000E66A4A0EE66E680EE66E000E76EC1FF035
:1036500029EC20F001E1E2D047EC20F001E0D9D0E4
:10366000DDD08451851101E0CED08351730A01E190
:103670007ED0010A01E177D0030A6EE0010A69E019
:10368000130A64E0010A5EE0030A58E0010A52E00E
:10369000330A49E0010A44E0030A3CE0010A37E04A
:1036A000130A32E0010A2BE0030A26E0010A1EE0B9
:1036B000630A15E0010A0FE0030A06E0010A5EE171
:1036C0000401856B020E15D00401020E856F040EF5
:1036D000866F876B2DD00401856B020E46D00401E6
:1036E000020E856F040E866F020E45D00401856BB5
:1036F000010E866F876B41D0B4EC1FF00DD0040132
:10370000856B010E866F13D0B4EC1FF00ED0B9ECB0
:103710001FF002D0BEEC1FF0866F876B010E2DD01C
:10372000B9EC1FF002D0BEEC1FF0866F010E876F60
:10373000020E23D00401856B010E10D0B4EC1FF0F3
:10374000866F0ED00401856B010E13D0B4EC1FF010
:1037500010D0B9EC1FF002D0BEEC1FF0866F020E45
:10376000876F030E0AD0B9EC1FF0866F04D0BEEC51
:103770001FF0866F030E876F040E886F0201886B3F
:1037800087C484F404018851845D3DE285C483F4D8
:103790008651835D36E2896B030E895D30E263DB1F
:1037A000EF380F0B04018A6F0A0E8A5D03E2300EB8
:1037B0008A2503D0410E8A25F60F8B6F54DBEF501C
:1037C0000F0B04018A6F0A0E8A5D03E2300E8A2510
:1037D00003D0410E8A25F60F8C6F8D6B8B0EE66E33
:1037E000040EE66E880EE66E020EE66E78EC32F09F
:1037F000E552E552E552E5520401892BCDD7832BE2
:10380000C7D7842BBFD729EC20F008E047EC20F085
:1038100005E084C2F3FF85C2F4FF1200F368F46888
:103820001200959A839A810EC26E8E0EC16E230E7F
:10383000926EF19E200EAC6E900EAB6E800EAF6E4F
:10384000AC84D08EF28EF28C12000201328D328F57
:103850001C6B040E1D6FA30E1E6F1F6B206B070EDB
:10386000216FC00E006FA80E016F010E026F080ECF
:10387000036F00C214F201C215F202C216F2176FF2
:10388000046905690669076B04C218F205C219F2DA
:1038900006C21AF207C21BF2C00E086FA80E096F0B
:1038A000010E0A6F0B6FC00E0C6FA80E0D6F010E8C
:1038B0000E6F0F6FC00E106FA80E116F010E126FFA
:1038C000136F100EE66EE66A3F0EE66E680EE66E49
:1038D000000EE66E220EE66E020EE66E55EC32F03B
:1038E000146E070E2FDB0401000E046F020E056F2D
:1038F0000201DE6BDF6BE06BE16B78EC2DF086ECA8
:103900002DF00401036FB5EC2DF0600E0401035D92
:103910001FE10201010EDE6FDF6BE06BE16B78EC03
:103920002DF00401036B03513DDB10E286EC2DF01A
:10393000E66E040104C4E9FF05C4EAFF042B000E8F
:103940000523E552E750EF6E032BEDD7B5EF2DF0D1
:10395000AAEF1CF00401000E016F020E026F0201BB
:10396000E96BEA6BEB6BEC6BFAEC2DF00201600E8D
:10397000ED6F0AEC2EF00401006B005113DB0EE238
:1039800001C4E9FF02C4EAFF012B000E0223EFCFBE
:10399000EDF20AEC2EF00401002BEFD732EF2EF0FF
:1039A0000401AD6B0401AD5101E02DD10001FD0E0C
:1039B000E76F670EE86F000E01DBE10EE76F670E41
:1039C000E86F000E3DDB20C2ACF421C2ABF4050170
:1039D000910EA96F040EAA6F21C2A7F520C2A8F507
:1039E0000FEC2CF00001910EE56F040EE66F77EC02
:1039F00039F00001C60EE76F670EE86F000E20DB9E
:103A00000001220EE56F020EE66F77EC39F000013F
:103A1000A40EE76F670EE86F000E12DB00C27BF2A8
:103A200001C27CF202C27DF203C27EF2CDDA7E0ECA
:103A3000E76F670EE86F000E03DB08C27BF209C276
:103A40007CF20AC27DF20BC27EF2BEDA5B0EE76F39
:103A5000670EE86F000EF4DA04C27BF205C27CF256
:103A600006C27DF207C27EF2AFDA320EE76F670E52
:103A7000E86F000EE5DA0CC27BF20DC27CF20EC2DA
:103A80007DF20FC27EF2A0DA070EE76F670EE86FD5
:103A9000000ED6DA10C27BF211C27CF212C27DF2A5
:103AA00013C27EF291DAEC0EE76F660EE86F000E3D
:103AB00085DAD90EE76F660EE86F000E7FDAC10E69
:103AC000E76F660EE86F000EE96F8CEC39F04FEC93
:103AD00039F00009FCE00001BE0EE76F660EE86FEA
:103AE000000EAEDA58EC39F0300A01E180D0090A54
:103AF00001E17BD0010A01E155D70F0A4EE0010A2E
:103B000047E0030A40E0010A39E0070A32E0010A0F
:103B100018E0030A01E046D7B9D9000901E142D70C
:103B2000910EE66E040EE66E56EC34F0E552E55268
:103B3000F3CFABF4F4CFACF4F4CF20F2F3CF21F217
:103B400031D7C6DA100E97DA0401915101E12AD774
:103B5000100EE66EE66A910EE66E040EE66E220E1A
:103B6000E66E020EE66E2AEC32F0146E060EEAD90C
:103B700019D70401000EA96F020E13D00401080E1C
:103B8000A96F020E0ED00401040EA96F020E09D017
:103B900004010C0EA96F020E04D00401100EA96FCF
:103BA000020EAA6F73D90501A50EA56F040EA66FAC
:103BB0000501910EA36F040EA46FD3EC2BF0000946
:103BC0000DE0A9C4E9FFAAC4EAFFA5C4EEFFA6C49C
:103BD000EEFFA7C4EEFFA8C4EEFFE4D600019F0EDF
:103BE000E76F660EE86F000E0CD00ED8DBD604012E
:103BF000010EAD6FAFDE00018D0EE76F660EE86F50
:103C0000000E1EDACFD612000401006B7BD985ECC2
:103C10003AF006C08DF407C08EF408C08FF409C0D6
:103C200090F4890EE96E040EEA6EEE500401065C13
:103C3000146EEE500758156EEE500858166EEE5082
:103C40000958176EF40E145C010E1558000E165824
:103C5000000E175809E356D9837A95D9FEE1000181
:103C6000150EE16F5AEC39F04FEC39F00009CFE056
:103C700053EC31F070D90401010E076F04010751B4
:103C800001E17BD04FEC39F00009F8E0837A58EC81
:103C900039F00401016FE80404E1005102E1010E72
:103CA00006D0040E015D04E1005102E1060E006F32
:103CB0000051060A51E0030A21E0010A0EE0070A5A
:103CC0000AE0010A06E0030A52E1086B026B020EE9
:103CD00013D0030E11D0040E0FD00151022708514A
:103CE000082BEA6A090FE96E040EEA2201C4EFFF0D
:103CF000800E085DC3E1050E006FC0D744D9FEE118
:103D000004010251015D22E103C498F504C499F550
:103D100005C49AF506C49BF55BEC31F00401016B18
:103D2000800E015D0DE20151EA6A090FE96E040E91
:103D3000EA22EFCF9CF576EC31F00401012BF0D7AD
:103D400093EC31F008D90001060E02D00001150EE7
:103D500038D90401006B92D7839A21EC31F013D942
:103D6000FEE10001060E2DD90401076B87D70BD9A0
:103D7000FEE10001150E25D981D712000F0ECDD816
:103D8000EF6AC8C2E6FFC9C2E6FF09EC33F0E552AC
:103D9000E5520401006B0F0E005D11E20051BDD829
:103DA000EF500AE10F0E0401005D09E20051002B03
:103DB000B4D8200EEF6EF6D70401002BECD712001A
:103DC000040E31D9EE50EFCFEAFFE96E120046D96A
:103DD000E552E7CF19F0E552E7CF18F01850F32479
:103DE000166E1950F420176ED89016361736D890E4
:103DF0001636173612000C0DF3CF14F0F4CF15F071
:103E00004B0E1426020E15221200030D1450F3243B
:103E1000E96E1550F420EA6E120020D979D9040E0B
:103E200012001CD9F3CF18F0F4CF19F0040E1200D1
:103E3000E552E750EF6E08EF20F062D916C0EFFFB1
:103E400012008451EA6A880FE96E020EEA22EF50EE
:103E50001200D89016361736E8041200D89018369B
:103E60001936E804120083513CD98451030D1ED940
:103E700089510F011424E96E000E1520EA6E12001C
:103E800086C2E9FF87C2EAFFEF6E120021D9140E45
:103E90003BEF20F035D9EF50E66E12002DD9E552F8
:103EA000E7CF17F0E552E7CF16F056EF20F0845138
:103EB000EA6A330FE96E020EEA22EF5012008451D3
:103EC000EA6A3B0FE96E020EEA22EF5012008451BB
:103ED000EA6A430FE96E020EEA22EF501200E66E24
:103EE00002C4E6FF03C4E6FF4FEF20F0E66E880E43
:103EF000E66E020EE66EE3EC32F0146E070EE15E43
:103F00001450120085EC3AF006C089F407C08AF418
:103F100008C08BF409C08CF412000201EA6AC825BB
:103F2000E96EC951EA22120016C0E6FF17C0E6FF8B
:103F30001200090E0D6E0E6A00C408F001C409F0EB
:103F40008FEF38F0E15E14500201220EC86F020EAE
:103F5000C96FBEEF1EF006C003F407C004F408C02A
:103F600005F409C006F412000401010E856F020E6B
:103F700012000401020E856F030E12000401030EED
:103F8000856F040E120043EC39F000091200EE5068
:103F9000EFCFEAFFE96EEF50D00F1200ADD8090E57
:103FA000F3181200146E156A330E145C000E1558C7
:103FB0001200EE20EA6EE7CFE9FF120041D80001BF
:103FC0001200E16F5AEF39F0BFEC16F00001120059
:103FD00018C0E6FF19C0E6FFE0EF1EF016DF010E85
:103FE0002CDFE0EF1EF011DF16C0EFFFE0EF1EF058
:103FF0007FD8E0EF1EF004018851FBEF1EF0FBDEDE
:10400000020E862505EF1FF004018829FBEF1EF044
:10401000855167D88651030D1650F324E96E175069
:10402000F420EA6E12000201EA6A8025E96E8151ED
:10403000EA221200010E64D8FBDE020E4AEF1FF0E6
:10404000E96F8CEF39F0020E8525D5DE865105EF3C
:104050001FF00201F6DE14DF21EF1FF051D87CEFD4
:1040600020F02BD845D8852B1200020E49D8E0DE6F
:10407000EF50E66E1200E06F0001910EDE6F040E4D
:10408000DF6F1CEF39F0D4DE010E4AEF1FF0842BF6
:10409000000E852321EF1FF047DFE0EF1EF0CBEC91
:1040A00034F0E552E552E552E55212001650F32481
:1040B000146E1750F420156E1200040185519BDE1A
:1040C0008651120084DEFBEF1FF081DE04EF20F04A
:1040D0000001B00EE76F660EE86F000EB1DF000161
:1040E00012000C0D15D84B0E1626020E17221200C8
:1040F0008CDE020E1DEF1FF0EFCF7FF25BEF17F0AB
:10410000E926000EEA221200020E8525FFEF1FF0BD
:0A411000F3CF16F0F4CF17F0120001
:06411A008A86939694963C
:10412000949A9488200EC66E9E96C78CC79E0EECFD
:1041300027F0E8CF01F4080E04010115F8E1011D94
:10414000010BF5E17BEC25F00A0EE66EF6EC3AF099
:10415000E5520001010E846F806B816B0001B36B2F
:104160000001080E37EC27F0B36B0001090E04ECD8
:1041700027F00C0E40EC27F00D0E04EC27F00A0E91
:1041800040EC27F00B0E37EC27F06D0EB36F12ECFE
:1041900027F0A7EC26F0050E37EC27F06D0E31EC7A
:1041A00027F00001A56B3AEC25F00001BB6B020E75
:1041B000BC6F15EC26F000010D0EB36F75EC26F008
:1041C0000001320EB36FEAEC26F00001120EB36F5D
:1041D00012EC27F00001400EB36FFCEC26F000015A
:1041E0003F0EB36F0001090E37EC27F0120EB36FCC
:1041F0000001060E40EC27F0070E37EC27F0EE0E1C
:10420000B36F00010A0E37EC27F0050EB36F000103
:104210000B0E53EC26F00001040E8EEC26F01CC2AF
:10422000B3F012EC27F01DC2B3F00001050E53EC01
:1042300026F01EC2B3F0EAEC26F01FC2B3F0FCEC8D
:1042400026F020C2B3F075EC26F021C2B3F0E6EC04
:1042500026F00001B36B16EC27F00001120E4FECB4
:1042600026F0E8CF85F00001B96B010EBA6F0001AE
:10427000100EB86FFFEC25F00001720EB96F340E0E
:10428000BA6F0001140EB86FFFEC25F00001B96B96
:10429000BA6B0001B86BFFEC25F091EC26F0000141
:1042A000040EB76FACEF26F00001010EB16FA9EC60
:1042B00025F0F350040B01E0010E1200C4EC26F0CF
:1042C000080B080A01E0010E12000001845101E010
:1042D0001200010E846F80C037F481C038F40401ED
:1042E000375F000E385B37C414F038C415F056EC55
:1042F00026F004E26B0E376F0C0E386F0001400E93
:10430000CAEC26F037C4B3F000010C0E53EC26F0D3
:1043100038C4B3F000010D0E53EF26F0BFEC26F0C9
:104320000001190E4FEC26F0E8CFAFF40E0ED0ECE2
:1043300026F00E0E4FEC26F0E8CFB1F400010F0E80
:104340004FEC26F0E8CFB2F4BFEC26F00001190ED6
:104350004FEC26F00401AF510001145CE1E10C0EBA
:10436000D0EC26F00C0E4FEC26F0E8CFAFF40001B5
:104370000D0E4FEC26F0E8CFB0F40401B151AF5D63
:10438000B251B0591BE26B0E186E0C0E196E1A6A00
:104390001B6AAF51B15D1C6EB251B0551D6E1E6AE5
:1043A0001F6A1C50185C146E1D501958156E1E5053
:1043B0001A58166E1F501B58176E14D0AF51B119F2
:1043C00008E1B051B21905E16B0EF36E0C0EF46EFC
:1043D0001200B151AF5D146EB051B255156E140696
:1043E000000E155A14C0F3FF15C0F4FF12000001AF
:1043F000190EBB6F010EBC6F15EC26F00001190EF3
:10440000AF6F81DB146E14C014F40001BB6BBC6B86
:1044100015EC26F00401145102E1000E8CD00001CD
:10442000845103E152DF000E86D080C082F081C04B
:1044300083F082C0B3F00001B26BB1DB83C0B3F094
:104440000001010EB26FABDB140E0001A36FA46B71
:104450000001000EA16F040EA26FD8DA12C4AFF5EE
:1044600013C4B0F59DEC2CF0F3CF12F4F4CF13F499
:1044700000C414F001C415F0166A176AD8806B0ED8
:1044800014540C0E1554000E1654000E17541BE352
:10449000040104010051010B16E10401040105515E
:1044A000800B11E1040104010451100B0CE1040123
:1044B000EE0ED8800255050E035505E304010401F4
:1044C0000451800B01E1FF0000C480F001C481F0C1
:1044D000060EE66EE66A0C0EE66E040EE66E86C00A
:1044E000E9FF87C0EAFFE9CF14F0EACF15F014C066
:1044F000E6FF15C0E6FF2AEC32F0166E060EE15E0E
:10450000165088C0E9FF89C0EAFFEF68080E040171
:10451000135D0DE10401125104E0060E0401125D69
:1045200006E188C0E9FF89C0EAFF12C4EFFF00017D
:10453000846B010E00D0120000016E0E31EC27F0EA
:104540007B0E00018D270C0E8E238DC0B3F0000171
:10455000060EA9DB8EC0B3F00001070EA4DB060E29
:104560000001A86FA96B8AC0A6F08BC0A7F08DDAF6
:10457000060E0001A86FA96B00011C0EA66F020EAB
:10458000A76F83DA0001080EA56F74DA00018C5161
:1045900002E1000E01D0060E0001A56F3AEF25F0F2
:1045A00091DB050E0001855D03E0060E855D56E199
:1045B0000401AF6BB06B00EC27F00A0E000114147D
:1045C00009E10401AF2B000EB023E80EAF5D030E2E
:1045D000B059F1E300EC27F00001E850020B06E1CE
:1045E0000401E80EAF5D030EB05938E3B7DB81DBA1
:1045F000E8CFB1F4EEEC26F0E8CFB2F40001060EFD
:104600004EDBE8CFB3F40001070E49DBE8CFB4F48A
:104610000401B32B000EB42329EC27F0BC6B100E61
:10462000BC5D16E200EC27F00001E850020B10E040
:104630000401B851200B0CE045DB00EC27F00A0E1A
:1046400000011414FAE08ADB29EC27F0BC2BE7D731
:10465000B1C4B3F04ADBB2C4B3F0C9DB120082DBF1
:104660008F250401496F15500001902104014A6F04
:1046700049C414F0156E1ADB04E26C0E495F0C0E8F
:104680004A5B49C4B3F031DB4AC4B3F0E6EF26F02D
:10469000D1DBE8CFAFF4D2DBE8CFB0F491C0B3F018
:1046A00099DB92C0B3F0A8DBAFC4F3FFB0C4F4FF52
:1046B00012001FDBE8CFAFF491DBE8CFB0F493C07A
:1046C000B3F013DB94C0B3F081DBAFC4F3FFB0C42D
:1046D000F4FF120047DB95250401166F1550000109
:1046E00096210401176F16C414F0156EDFDA04E288
:1046F0006C0E165F0C0E175BFCDAE8CF18F46EDB5D
:10470000E8CF19F416C4B3F0F0DA17C4B3F05EDBE7
:1047100097C099F098C09AF00FD8F3CF16F4F4CF61
:1047200017F418C4B3F0E1DA19C4B3F04FDB16C4C0
:10473000F3FF17C4F4FF12000401B16BB26BB36B4B
:10474000B46BD7DAE8CFAFF449DBE8CFB0F40001BF
:1047500099519A1151E0140ED8809955000E9A552E
:1047600005E20401140EB56FB66B04D099C0B5F420
:104770009AC0B6F4B5C4A3F0B6C4A4F00001B70E55
:10478000A16F040EA26F42D90401B5510001995FD7
:104790000401B65100019A5B0401B5A10AD0B70E1D
:1047A000B525E96E040EB621EA6EEF6AB52B000E50
:1047B000B623B70ECB6F040ECC6FB551B611C7E060
:1047C000CBC4E9FFCCC4EAFF020ECB27000ECC23FA
:1047D000EECF14F0EFCF15F0000114500401B12713
:1047E000000115500401B223000EB323B423020EBE
:1047F000B55F000EB65BE1D7AFC4B3F076DAB0C4F4
:10480000B3F0E4DAB1C414F0B2C415F0166A176A52
:10481000B3C418F0B4C419F01A6A1B6A14501824EF
:104820000401B16F15501920B26F16501A20B36FE2
:1048300017501B20B46FB351B127B451B223B1C488
:1048400014F0B2C415F0141E151E14C0F3FF15C0E9
:10485000F4FF12000401B36BB46B00019CAF09D0EC
:104860000401010EB36FE6DAE8CF9BF0E7DAE8CF98
:104870009CF000019EAF09D00401010EB46F39DA3B
:10488000E8CF9DF0ABDAE8CF9EF00001010ED880B2
:104890009F55000EA05540E30401B45106E129DA0A
:1048A000E8CFAFF49BDAE8CFB0F40401B35106E1EE
:1048B000C1DAE8CFB1F4C2DAE8CFB2F49DC0B3F008
:1048C00014DA9EC0B3F082DA9BC0B3F083DA9CC0E6
:1048D000B3F00001030EB26F62D900019FC014F063
:1048E000A0C015F09F07000EA05B1450151005E046
:1048F0007CD80001A56FBED8F0D70401B45106E101
:10490000AFC4B3F0F2D9B0C4B3F071DA0401B3515B
:1049100065E1B0DAFCEF26F00401B3510FE00001CD
:104920009B519F250401B16F00019C51A0210401FE
:10493000B26FA0DA0001030EB26F31D937DA140674
:10494000000E155A145000019F271550A023000196
:104950001F0EA5D9000114BAFAD79DC0B3F000010B
:10496000100EA1D99EC0B3F00001110E9CD99BC0BE
:10497000B3F068DA9CC0B3F059DA18DA97D907E3D4
:10498000BDD905E26C0E00019F5F0C0EA05B9FC0BD
:10499000B3F00001120E87D9A0C0B3F00001130ECE
:1049A00082D90001100E0CDA0001200EB76F1ADA5E
:1049B0000401B45113E000019F2B000EA023F6D98F
:1049C00075D906E39BD904E26C0E9F5F0C0EA05BC9
:1049D0009FC0B3F08AD9A0C0B3F009DA1200D4D9CD
:1049E000200B200A01E0010E12008A969E963A0ED4
:1049F000C96E9EA6FED79E96C96A9EA6FED7C9CF4F
:104A0000B5F49E968A860401B55112008A969E9648
:104A10003A0EC96E0401E76BE86B0001A107000EB6
:104A2000A25B9EA6FED79E960001A3510401E75DFE
:104A30000001A4510401E85917E2C96AE72B000EEE
:104A4000E8230001A151A2110CE0A12B000EA2232A
:104A50009EA6FED7C950A1C0E9FFA2C0EAFFEF6E33
:104A6000E2D79EA6FED7DFD78A86E7C4F3FFE8C465
:104A7000F4FF1200A0D99EA6FED79E96A5C0C9FF3E
:104A80009EA6FED79E968A86120095D99EA6FED730
:104A9000C9CFC3F49E960001A851A9110EE0A6C08B
:104AA000E9FFA7C0EAFFEF50C96EA62B000EA723AF
:104AB000A807A95B9EA6FED7EBD78A8612007BD9F2
:104AC0009EA6FED79E960001AD51AE1112E0AAC07F
:104AD000F6FFABC0F7FFACC0F8FF0800F550C96E99
:104AE000AA2B000EAB23AC23AD07AE5B9EA6FED770
:104AF000E9D78A8612008A969E96C9689EA6FED736
:104B00009E968A8612008A969E96AFC0C9FF9EA680
:104B1000FED79E96C96A9EA6FED7C9CFE7F49E9699
:104B20008A860401E75112008A969E96B0C0C9FF9A
:104B30009EA6FED79E96C96A9EA6FED79E96C96A75
:104B40009EA6FED7C9CF02F49E968A860401025122
:104B50001200F8D8B1C0B3F075D90001010EB36FDF
:104B60000001120E56D900010A0E05D9000114B039
:104B7000FAD7E8D80001B36B0001120E94D80001F7
:104B8000180EF9D8E8CF00F40001190EF4D8E8CFD8
:104B900001F4C7D800C4F3FF01C4F4FF12008A96E1
:104BA0009E96400E0001B211C96E9EA6FED79E963B
:104BB000B3C0C9FF9EA6FED79E968A8612008A962B
:104BC0009E96A00E0001B411C96E9EA6FED79E96B9
:104BD000B5C0C9FF9EA6FED79E968A8612008A9609
:104BE0009E96800E0001B611C96E9EA6FED79E96B7
:104BF000B7C0C9FF9EA6FED79E968A861200A2D88D
:104C0000B8C0B3F01FD9B9C0B3F00001160E4BD82D
:104C1000BAC0B3F00001170EFCD800010A0EABD8E1
:104C2000000114B0FAD791EF26F00001030EC8D8A6
:104C3000BCC0B7F091D00001040EC2D8EFD800017B
:104C400014B4FCD700011F0E2AD8000114B6FAD7FD
:104C50000001200ECAEF26F00001200EB56F000102
:104C60001E0EB46FACDFDAD8000114A0FCD700012F
:104C7000040EB76F71D00001150E50D8BDC0B3F04F
:104C8000D5D891EF26F00001150E48D80001150E79
:104C900006D8E8CF00F445D8040100511200AF6FE8
:104CA00032DF146E1200B26FCFEF25F0166A176A6A
:104CB000D8806B0E14540C0E1554000E1654000EB2
:104CC000175412000001800EB76F8CD80001800EBF
:104CD00077D800010A0EB56F00011C0EB46F6FDFAC
:104CE0000001080EB76FF2EF26F00001B26BCFEFB4
:104CF00025F00001AF6B07DF146E12009FC018F0A3
:104D0000A0C019F01A6A1B6AD8806B0E18540C0EDA
:104D10001954000E1A54000E1B541200BB6F030EE0
:104D200095D00001BB6BBC6B15EF26F0070E0001A0
:104D3000A36FA46B0001B50EA16F040EA26F66DE17
:104D4000040112000001140EBB6F020E7FD000019F
:104D50000C0EB36F00011200F2EF26F00001080EF6
:104D6000E0EF26F0140E0001156A8225146E8351BF
:104D7000152214501200B06FD7DE146E120000011D
:104D8000190EBB6F010E62D000011F0EAF6FBBDEAC
:104D9000E8501200B76F00011E0EB66FEFEF25F05E
:104DA0000001BB6FBC6B41DF000112009DC014F01D
:104DB0009EC015F012008A969E967A0EC96E120059
:104DC000B56F00011F0EB46FDFEF25F00001010E7B
:104DD00053EF26F00001020E53EF26F00001010E02
:104DE0004FEF26F000011F0EB66FEFEF25F0000128
:104DF000010EB26FCFEF25F00001030E53EF26F046
:104E000000011C0E4FEF26F032D86B0EB36F00017D
:104E1000120049DF00010A0E8EEF26F000011D0E80
:104E20004FEF26F00001040E53EF26F00001150E9F
:104E300053EF26F00001020E4FEF26F00001030EA3
:104E40004FEF26F00001140E53EF26F0BC6F15EF64
:104E500026F0B3C4B3F049DFB4C4B3F0B7DF96EFC4
:104E600026F0B36FB7DF73DF030E53EF26F01BDFBF
:104E700000011200B1C4B3F0ADDFB2C4B3F0120050
:064E800012DFA7EF26F08F
:0A4E86000401036B03C414F0A8DB61
:104E900012E2500E0501256F266B01EC01F0E66E63
:104EA0000401BBDBE552E750EF6EB7DB050E86DB96
:104EB000EF6A032BEAD712000401EE6BEEC414F084
:104EC0008FDB06E2EEC4F4F104D80401EE2BF6D732
:104ED00012000101F4510C0DF3CF7FF4F4CF80F4F4
:104EE000D00E04017F27010E8023666BE7DB0501EE
:104EF000346F66EC01F0000903E1CEDBEF6A1200CB
:104F000053DB050EEB50010A01E157D1080A01E11C
:104F1000ECD00B0A01E1B7D0020A01E05BD1050138
:104F2000676B0501656B666B020E0501636F646B51
:104F300005013C0E606F660E616F000E626FBEDB96
:104F400005015F6FFCEC06F0F3CF81F4F4CF82F43F
:104F50000401F31C0EE1821D0CE1B0DB0501566F6C
:104F6000B4EC05F07DDBF350F41001E033D1C8DB85
:104F700031D1010E666F640ED8808155000E8255C6
:104F800003E2640E816F826B81C454F582C455F5CF
:104F90000501000E526F040E536F90DB0501516F37
:104FA00006EC05F0000E04018125E96E040E822155
:104FB000EA6EEF6AAADB70DB020EEF6E04010B0EE5
:104FC0007D6FF2DAFBDAE9CFFDF1EACFFEF1010104
:104FD0007D0EFB6F040EFC6F0101670EF96F040E6E
:104FE000FA6F0101000EF76F040EF86FE6D90401A5
:104FF000656FE85001E0EED07D5101080EE27DC4FE
:1050000082F20201670E806F040E816F7EEC17F052
:10501000CBDA0B0ED3DA020EEF6E67C492F568C4DA
:1050200093F59AEC30F00EDBBFDA02DBBDDAEE521C
:10503000E868EE180EE1E868EE180BE1E868EE1893
:1050400008E1E868EE1805E1AFDA0A0EB7DAEF6AB0
:1050500014D0AADAEE52EECF14F0EECF15F0EECF68
:1050600016F0EFCF17F0145015101610171008E1B6
:105070009BDA0A0EA3DA010EEF6E0EDB020E9BD056
:105080000BDB090E98D028DB166AF3CFE6FFF4CFCE
:10509000E6FF16C0E6FF88DAAFDAEECFE6FFEECF26
:1050A000E6FFEFCFE6FFBEEC32F0E552E552E55207
:1050B000E552E7CF16F0E552E7CF15F0E552E7CF1E
:1050C00014F00750145C085015580950165801E2A6
:1050D00081D06ADA91DAEECF49F5EECF4AF5EFCF1B
:1050E0004BF518DB61DAB7DA72D0F6DAF350F41068
:1050F00071E00401010E666F57DA0B0EEB500208E7
:105100000DE152DA090E5ADA010EEF6E840EB5DAAD
:10511000860E406F700E416F000E0BD045DA090EFF
:105120004DDAEF6A1F0EA9DA660E406F700E416FFE
:10513000000EE0DA9E0E146E6F0E156E000E166EE7
:1051400033DA0B0EEB50176E186A196A140E0C6ED8
:105150000D6A0E6A17C007F018C008F019C009F0F0
:10516000D3EC38F004C017F005C018F006C019F0F1
:1051700014500424F36E15500520F46E16500620CA
:10518000F86EF4CFF7FFF3CFF6FFF6CF49F5F7CF80
:105190004AF5F8CF4BF5BEDA040E6FDA0B0E406F0E
:1051A000710E416F000EA6DAFFD9060E07DA030E64
:1051B000EF6E72DA010EEF6E0DD0A7DA7FC4F5F153
:1051C00080C4F6F10CD8000905E021EC31F098DA42
:1051D00063DAEF6A0401665101E087D61200E9D96B
:1051E000EE52EECF94F5EECF95F5EECF96F5EFCFEC
:1051F00097F528EC31F0DDD9090EEB50000901E1FB
:1052000093D063DA0401D751D81101E1D0D0CD6B2E
:10521000D0D9060EEB50080814E03EEC31F0040142
:10522000CE6FE868050189190CE1E8688A1909E17F
:10523000E8688B1906E1E8688C1903E150EC31F05D
:10524000A2D0B7D9060EEB50080A34E00E0A1AE0D5
:10525000030A0CE0060A58E1250E0401CE5D03E1C5
:1052600030DA050E50D0010ECD6F4ED0250E040160
:10527000CE5D03E1010ECD6F44D0CEC4DAF421DA65
:10528000060E41D0CEC4D9F4CEC4ABF5DAC4ACF529
:1052900065EC2CF0E66E8DD90A0E90D9E552E750F8
:1052A000EF6E0FDA080EEF6E84D9070EEB6A080E68
:1052B000EB6A2AD00201CE0E866F040E876F79D971
:1052C000070E7CD9EECF84F2EDCF85F272D90A0EAB
:1052D000EB500201836F7AEC1AF0C2D96AD9070E3B
:1052E000F3CFEBFF080E15C0EBFF0401010ECD6FED
:1052F00060D9070E63D9FF0EEE1806E1FF0EED1818
:1053000003E1DFD9030EEF6E0401CD5108E0CEC4F6
:1053100039F54FD9EF500501386F32EC02F0040136
:10532000D707000ED85B6ED7D0D90401080ED75D21
:10533000000ED85938E3CE6BCE51146E156A080EA4
:10534000145C000E155825E23EEC31F0E66E0401C7
:10535000CE51EA6ACF0FE96E040EEA22E552E75019
:10536000EF6EE8680501891911E1E8688A190EE114
:10537000E8688B190BE1E8688C1908E150EC31F012
:105380000401CE518DD915D966D9010C0401CE2B5B
:10539000D3D7080E85D9080E0401D75F000ED85B5D
:1053A000010ECD6FC2D7CD5102E003D954D950ECD4
:1053B00031F048D9FED83CD9000C0401846B866BCF
:1053C000876B836B030EE66EE66A100EE66E710E57
:1053D000E66E000EE66EF7C1E6FFF8C1E6FF45D9BE
:1053E00008E1040E0101F727000EF8230401856B84
:1053F00001D0020CF0D8EF50200802E143D9FAD7CF
:1054000075D9200E0401885D5EE088515CE00D0EC8
:10541000885D59E00A0E885D56E0FBC1E9FFFCC1DA
:10542000EAFFEF50835D4FE28451020A15E0030A60
:105430000DE0010A46E1835153D958D92F0E0401DA
:10544000885D28E05C0E885D3CE124D08351832B8D
:1054500047D90401020E846F49D93F0E885D18E0D8
:10546000260E885D15E02B0E885D04E1200EB3D872
:10547000EF6E27D02E0E885D08E1830506E102D984
:10548000F7C186F4F8C187F41CD03D0E885D05E1B4
:10549000A2D8EF6A010E846F14D02F0E885D03E04E
:1054A0005C0E885D0EE1010E0101156AF725146E90
:1054B000F85115220401830585D814C0EEFF15C0EC
:1054C000EDFFE0D89DD787D8EF6A090EE0D8EF6EE0
:1054D0008651871137E086C4E6FF87C4E6FF09ECF2
:1054E00033F0E552E552F3CF86F4F4CF87F40401AC
:1054F000760E896F6F0E8A6F000E8B6F886B8851E6
:10550000146E156A0A0E145C000E15581BE2030E89
:10551000E66EE66A89C4E6FF8AC4E6FF8BC4E6FF4E
:1055200086C4E6FF87C4E6FFA0D804E1B0D888C4EB
:10553000EFFF08D0040E04018927000E8A238B2375
:10554000882BDDD70401835127E1090EE66EE66A58
:10555000140EE66E710EE66E000EE66EF9C1E9FFFE
:10556000FAC1EAFFEECFE6FFEFCFE6FF55EC32F0EF
:10557000146E070EE15E1450F9C1E9FFFAC1EAFFAB
:10558000EE50EFCFEAFFE96E090E18D8EF6A010E70
:105590007ED8EF6E0401832BFBC1E9FFFCC1EAFF5B
:1055A00083C4EFFF855112007FC4E9FF80C4EAFF86
:1055B0001200F5C1E9FFF6C1EAFF1200E926000E6C
:1055C000EA221200020D0101F951F324E96EFA51A9
:1055D000F420EA6E1200F7C1E9FFF8C1EAFF1200F9
:1055E000156A166A176A030E145C000E1558000E31
:1055F0001658000E175812000A0EEB50030DF3CF89
:10560000E9FFF4CFEAFFB90EE926050EEA221200FF
:10561000EF500501376FD9EF01F003510C0DF3CFB7
:10562000E9FFF4CFEAFFD00EE926010EEA221200CC
:10563000EE5206C0EEFF15C0EEFF16C0EEFF17C01B
:10564000EEFF120006C014F007C015F008C016F0F7
:1056500009C017F01200EF500501366FA8EF01F0F6
:10566000F3CF14F0F4CF15F012000BEC32F0146EFF
:10567000070EE15E1450000912000501436F446BF0
:10568000050112000101F72B000EF8231200FDC1E5
:10569000E9FFFEC1EAFF120087DF050EDEEF2AF008
:1056A00005013D6F3E6B0501CF0E3B6F040E3C6F55
:1056B00080DFEF5005013A6F9FEF02F075DFEF508A
:1056C000120077DF060EDEEF2AF073DFA1DFF3CFE3
:1056D000D7F4F4CFD8F4120067DF9ADF30EF2BF065
:1056E00071DFF7C1EEFFF8C1EDFF120074DFEFCFFD
:1056F00088F41200426FE2DF05013F6F47EF03F0CD
:10570000DDDF0501356F71EF01F0D8DF05014C6F6A
:0E57100037EF04F0D3DF0501486F0EEF04F011
:02571E00250E56
:10572000E66EA1C5E6FFA2C5E6FF9CEC32F0E552AD
:10573000E552E552F3CF00F4F4CF01F40401F35045
:10574000F41030E0010E90D9EF5001E11200020E8A
:105750008BD9EF5001E11200020E86D9EFCF04F48D
:10576000010E82D9EFCF05F404C4ABF505C4ACF546
:10577000ACD8E66E04017ED900C4A1F501C4A2F53F
:10578000020E0025026F000E0121036F02C4E9FF23
:1057900003C4EAFF022B000E0323EF50E66E6AD922
:1057A000BEE0F4D712000401016B026B0501A3C532
:1057B000E9FFA4C5EAFFA32B000EA423EFCF00F45A
:1057C000EF5021E02E0E0401005D08E1015167D980
:1057D000EF6A016B38D9022B58D910D0300E005D1A
:1057E00003E30051390801E2000C0151012B57D9A4
:1057F00000C4EFFF025161D901E3000C0401015123
:105800005CD9D4E3000C0401015149D9EF6A1BD9DA
:105810003CD9030E0401025D01E0000C010C0401FF
:10582000056B0501A751A81147E00401006B100E9C
:10583000036F270E046F050E005D41E2A7C508F057
:10584000A8C509F003C40DF004C40EF0E0EC3AF072
:1058500008C001F409C002F404010850091002E173
:1058600005511AE0300E0125E66E05011ED9E552FC
:10587000E750EF6E01C408F002C409F003C40DF054
:1058800004C40EF0B5EC38F006500501A75F0750D0
:10589000A85B0401010E056F0A0E0D6E0E6A03C4AB
:1058A00008F004C409F0E0EC3AF008C003F409C0C1
:1058B00004F40401002BBFD7F8D8300EEF6EA9C551
:1058C000E9FFAAC5EAFFEF6A12000501AC514608DC
:1058D00002E2200EAC5FAB51460802E2200EAB5F45
:1058E000AC51390802E2370E01D0300EAC5FAB513B
:1058F000390802E2370E01D0300EAB5FAC39F00B45
:10590000AB1112000501AD390F0BAD6FE85009085E
:1059100004E2410EAD25F60F1200300EAD25120047
:105920000F0E0501AE17AE51090804E2410EAE2577
:10593000F60F1200300EAE251200B0C5F3FFAFC552
:10594000F4FF12000501B451B11BB151B41BB451A5
:10595000B11BB351B21BB251B31BB351B21BB1C592
:1059600006F0B2C507F0B3C508F0B4C509F01200DF
:105970000401C76BC86BC96BCA6BB7C5C3F4B8C5A4
:10598000C4F4D890C433C333B5C5C5F4B6C5C6F4A2
:10599000C3C414F0C4C415F0C307000EC45B145094
:1059A000151018E0C5C4E9FFC6C4EAFF020EC527FA
:1059B000000EC623EECF14F0EFCF15F00001145007
:1059C0000401C727000115500401C823000EC92394
:1059D000CA23DED70501B7A10ED0C5C4E9FFC6C4EE
:1059E000EAFFEFCF14F0000114500401C727000EA6
:1059F000C823C923CA23C7C414F0C8C415F0166A43
:105A0000176AC9C418F0CAC419F01A6A1B6A14507C
:105A100018240401C76F15501920C86F16501A209A
:105A2000C96F17501B20CA6FC951C727CA51C82355
:105A3000C7C414F0C8C415F0141E151E14C0F3FF1B
:105A400015C0F4FF1200030EE66E040EE66E56EC6F
:105A500034F0E552E552F350E66EA5C514F0A6C544
:105A600015F0040102511200EA6A0025E96E0151A5
:105A7000EA22120000C4E9FF01C4EAFF002B000E75
:105A80000123E552E750EF6E12000F011424E96E76
:105A9000000E1520EA6EE552E750EF6E1200EA6A3A
:105AA000030FE96E040EEA221200A9C5E9FFAAC598
:105AB000EAFFA92B000EAA231200146E156A040E29
:085AC000145C000E15581200E1
:085AC800CAC2C9FF9EA6FED769
