:020000040000FA
:060000003AEF3BF0120094
:06000800ABEF2FF0120027
:06001800DDEF15F01200FF
:06002A00070073760000E0
:10003000FF00000001000000EC760000F700000067
:1000400006000000EA760000FD000000020000004B
:10005000B1760000C502000039000000AD76000056
:100060001903000004000000A27600000003000055
:100070000B000000A0760000FE020000020000005D
:100080000201235108EC12F059EC15F0EECF9AF270
:10009000EFCF9BF20201230E9A5F000E9B5B7DEC7B
:1000A00023F0F3CF83F4F4CF84F4230EADEC13F0FC
:1000B000000EA86F020EA96F2AEC25F083C49AF2F5
:1000C00084C49BF27DEF23F00201245108EC12F06E
:1000D00059EC15F0EECF98F2EFCF99F20201230E12
:1000E000985F000E995B6CEC23F0F3CF83F4F4CFB0
:1000F00084F4230EB2EC13F0000EAD6F020EAE6F5F
:1001000069EC25F083C498F284C499F26CEF23F073
:100110000401006B00C414F017EC12F067E2005108
:100120001A0DF3CF01F4F4CF02F4000E0127010EF3
:1001300002232CEC12F074EC15F00A0EEF6E00C4E2
:1001400014F0156A166A176AB50E0B6E010E0C6E66
:100150000D6A0E6A00C406F015C007F016C008F05C
:1001600017C009F067EC3AF002C014F003C015F0B4
:10017000820E1426120E15222CEC12F0020E14C060
:10018000EBFF030E14EC15F05CEC15F013EC14F01F
:10019000142A15222CEC12F0040E14C0EBFF050EED
:1001A00014EC15F050EC15F013EC14F02CEC12F0EC
:1001B000060E14C0EBFF070E14EC15F033EC14F030
:1001C000EF9053EC15F0EF9253EC15F0EF9453ECE5
:1001D00015F0EF9653EC15F0EF9853EC15F0EF9AFD
:1001E00053EC15F0EF9C0401002B94D763EC14F052
:1001F00006C0E6FF07C0E6FF89EC35F0E552E552A0
:1002000012000401006B00C414F017EC12F045E278
:1002100000511A0DF3CF01F4F4CF02F4000E0127C0
:10022000010E022331EC12F0180EEB500A0833E1F4
:1002300031EC12F033EC14F0EF8031EC12F074EC8E
:1002400015F0EF6A31EC12F025C2EEFF26C2EDFF89
:10025000BDEC15F065EC13F0BDEC15F063EC12F09D
:10026000C1EC15F06AEC12F0C1EC15F0FBEC12F0E9
:1002700002011F69206925C20CF226C20DF231EC81
:1002800012F0D5EC14F056EC12F000C424F21CDF8E
:10029000040100511200002BB6D7FE0C27C223F236
:1002A000EFDE0A0EE66EE66A000EE66E020EE66EFF
:1002B000280EE66E020EB7EC13F00AC232F20BC241
:1002C00033F2280E146E020E71EF12F00201345157
:1002D00008EC12F074EC15F0EF50030801E0000C8C
:1002E000010C020135511A0DF3CFCDF4F4CFCEF449
:1002F000000E0401CD27010ECE2335C223F2C0DE4D
:1003000070EC13F0180EEB50080A0FE00A0A09E02F
:10031000010A07E0020A18E135C27BF27DEC0DF01C
:1003200013D07CEC14F0040E03D07CEC14F0090E16
:10033000EF6E7DEC11F070EC13F047EC14F070EC04
:1003400013F033EC14F0EF8235C224F264EF00F0C6
:10035000020136511A0DF3CFECF4F4CFEDF4000E98
:100360000401EC27010EED2336C223F289DE15ECE1
:1003700014F0080E30EC14F002010E51141802E1D2
:100380000F51151812E00201180E746F36C273F285
:100390003AEC0AF07DEC11F015EC14F047EC14F097
:1003A00015EC14F033EC14F0EF8236C224F264EF53
:1003B00000F0020137511A0DF3CF83F4F4CF84F427
:1003C000000E04018327010E842376EC12F0180E30
:1003D000EB50030809E076EC12F0180EEB50080819
:1003E00003E0F36AF46A120076EC12F0080E30ECC7
:1003F00014F076EC12F00A0E32EC15F021E376ECF4
:1004000012F0A3EC15F076EC12F059EC15F0A0EC1C
:1004100012F01606000E175A76EC12F0080EFBECDE
:1004200014F076EC12F07FEC15F0DDEC13F01A50BE
:10043000165C146E1B50175814C0F3FFF46E1200B4
:1004400076EC12F00A0E36EC14F076EC12F0080E90
:1004500057EC14F01406000E155A14C0F3FF15C023
:10046000F4FF1200020138511A0DF3CFDBF4F4CF80
:10047000DCF4000E0401DB27010EDC2338C237F266
:1004800098DFF3CFDDF4F4CFDEF40401F350F41081
:1004900001E1000C010EDD1904E1DE5102E11AEC6C
:1004A00014F03BEC12F02FEC15F0200B15E13BECB7
:1004B00012F0DAEC15F03BEC12F062EC15F00401EE
:1004C000DD51145CDE51155807E31AEC14F03BECD7
:1004D00012F033EC14F0EF8A3BEC12F08EEC14F0D7
:1004E00039C2ACF25EEC25F03BEC12F071EC15F089
:1004F000E4EC13F03BEC12F0040E32EC15F008E3E0
:100500003BEC12F05CEC15F03BEC12F063EC12F0FB
:100510000401010EDD1904E1DE5102E11AEC14F0D0
:100520003BEC12F02FEC15F0040B08E13BEC12F061
:100530006EEC15F03BEC12F0ADEC12F0010C040186
:10054000DF6BE06B02013A511A0DF3CFE1F4F4CF07
:10055000E2F4000E0401E127010EE2233AC237F271
:1005600028DFF3CFDDF4F4CFDEF40401F350F41010
:1005700005E11EEC14F0F36AF46A1200DDC4DBF44A
:10058000DEC4DCF4BFEC13F004E23DC2DBF43EC297
:10059000DCF4EEEC11F02FEC15F0200B15E1EEEC95
:1005A00011F0DAEC15F0EEEC11F062EC15F004014C
:1005B000DD51145CDE51155807E31EEC14F0EEEC2F
:1005C00011F033EC14F0EF8AE9EC14F0EE24146E21
:1005D000DC51EE20156EEEEC11F0040E32EC15F04D
:1005E0002CE3EEEC11F050EC15F0EEEC11F0080EEF
:1005F000DEEC14F0DF6FEE501558E06FEEEC11F00A
:100600008EEC14F0DFC4AFF2E0C4B0F2EBEC13F008
:100610000401DF5102013B270401E05102013C23A8
:100620000401DF51DB5FE051DC5BEEEC11F05CECD0
:1006300015F0EEEC11F063EC12F0EEEC11F08EEC34
:1006400014F0DBC4AFF2DCC4B0F2EBEC13F0E9EC75
:1006500014F0EE26DC51ED22BFEC13F002E31EECA9
:1006600014F0EEEC11F02FEC15F0040B08E1EEECB9
:1006700011F06EEC15F0EEEC11F0ADEC12F004019F
:10068000DB51DF25146EDC51E02171EF12F0040123
:10069000D16BD26B02013F511A0DF3CFD3F4F4CFDB
:1006A000D4F4000E0401D327010ED4233FC237F245
:1006B00080DEF3CFCFF4F4CFD0F40401F350F41084
:1006C00005E122EC14F0F36AF46A1200F3EC11F085
:1006D0002FEC15F0200B14E1F3EC11F0DAEC15F02F
:1006E000F3EC11F062EC15F0CF51145CD0511558B9
:1006F00007E322EC14F0F3EC11F033EC14F0EF8A82
:10070000CFC4CDF4D0C4CEF40401C7EC13F004E29E
:1007100043C2CDF444C2CEF4EEEC14F0EE24146ED9
:10072000CE51EE20156EF3EC11F0040E32EC15F004
:1007300030E3F3EC11F050EC15F0F3EC11F0080E8F
:10074000DEEC14F0D16FEE501558D26FF3EC11F0CF
:100750008EEC14F0D1C4B4F2D2C4B5F293EC13F021
:10076000D1C414F0D2C415F0166A14500201402707
:1007700015504123165042230401D151CD5FD2516F
:10078000CE5BF3EC11F05CEC15F0F3EC11F063ECE4
:1007900012F0F3EC11F08EEC14F0CDC4B4F2CEC430
:1007A000B5F293EC13F0EEEC14F0EE26CE51ED2200
:1007B000C7EC13F002E322EC14F0F3EC11F02FEC91
:1007C00015F0040B08E1F3EC11F06EEC15F0F3EC0E
:1007D00011F0ADEC12F00401CD51D125146ECE51C3
:1007E000D22171EF12F046C2E6FF47C2E6FFD4EC19
:1007F00032F0E552E552F3CF3DF2F4CF3EF246C27D
:100800003BF247C23CF245C23AF299DE0201465140
:10081000F324146E4751F42071EF12F049C2E6FF41
:100820004AC2E6FF4BC2E6FFE2EC32F0E552E55287
:10083000E55207C043F208C044F249C240F24AC23E
:1008400041F24BC242F248C23FF221DF196A020173
:100850004951F324146E4A51F420156E4B5119205E
:10086000166E14C007F015C008F0096E12004CC2D5
:100870004DF22FD8F3CF14F0F4CF15F0F350F4105D
:1008800027E002014C511A0DF3CFCDF4F4CFCEF492
:10089000000E0401CD27010ECE234CC223F240EC02
:1008A00000F0CDC4E9FFCEC4EAFF96EC15F0CDC44C
:1008B000E9FFCEC4EAFF6AEC12F00201100E746F79
:1008C0004CC273F23AEC0AF04CC224F264EC00F031
:1008D000120002014D511A0DF3CF9BF4F4CF9CF49A
:1008E000000E04019B27010E9C23DCEC12F096EC19
:1008F00015F0DCEC12F00E0E32EC15F00FE3DCEC30
:1009000012F00C0E36EC14F0DCEC12F05FEC15F08B
:10091000EE50165C146EEE5017581BD0DCEC12F043
:1009200085EC15F036EC12F0DCEC12F00E0EC3EC98
:1009300014F0DCEC12F00C0EFBEC14F0DCEC12F01A
:1009400035EC15F0DDEC13F016501A24146E175028
:100950001B2071EF12F04EC24DF2BBDFF3CF02F459
:10096000F4CF03F4F350F41001E1000C02014E51F6
:100970001A0DF3CF00F4F4CF01F4000E04010027A8
:10098000010E0123E1EC12F05FEC15F0B4EC12F073
:1009900019EC25F04FC2E9FF50C2EAFFEF6EE1EC1F
:1009A00012F05FEC15F0E4EC13F0E1EC12F0BAECAD
:1009B00015F0B6EC14F008E2E1EC12F050EC15F092
:1009C000E1EC12F06AEC12F00401010E02190FE1E1
:1009D00003510DE14EC223F2D8EC14F04EC273F273
:1009E0003AEC0AF04EC224F264EC00F0010CE1ECA7
:1009F00012F02FEC15F0040B08E1E1EC12F06EECB4
:100A000015F0E1EC12F0ADEC12F0010C0401CF6B2B
:100A1000D06B020151511A0DF3CFD1F4F4CFD2F4BF
:100A2000000E0401D127010ED22351C24DF251DF35
:100A3000F3CFCDF4F4CFCEF4020154510401F35CB2
:100A4000020155510401F45804E2CDC454F2CEC45D
:100A500055F291EC14F002015451EE24146E5551EC
:100A6000EE20156E40EC12F0BAEC15F0B6EC14F076
:100A700037E240EC12F099EC15F091EC14F004011F
:100A8000EE50145CCF6FEE501558D06F010ECF278B
:100A9000000ED02391EC14F0B4EC12F0CFC4AAF203
:100AA000D0C4ABF2F1EC13F002015251531108E043
:100AB0000401CF51020152270401D05102015323F6
:100AC0000401CF510201545F0401D0510201555B72
:100AD00040EC12F050EC15F040EC12F06AEC12F021
:100AE00091EC14F0B4EC12F054C2AAF255C2ABF27D
:100AF000F1EC13F091EC14F002015451EE26555133
:100B0000ED2254510401CD5D146ECE5102015555B4
:100B1000156E1450545D155055590DE351C223F212
:100B2000D8EC14F051C273F23AEC0AF051C224F23C
:100B300064EC00F00ED040EC12F02FEC15F0040B3A
:100B400008E140EC12F06EEC15F040EC12F0ADEC68
:100B500012F0020154510401CF25146E02015551C7
:100B60000401D02171EF12F00201565108EC12F08D
:100B700099EC15F0565108EC12F035EC15F0040123
:100B8000EE50145C856FEE501558866F56C24DF2CC
:100B9000A0DEF3CF83F4F4CF84F40401F350855D39
:100BA000146E8651F45471EF12F002015A515B1128
:100BB00003E1F36AF46A120057511A0DF3CF15F4EA
:100BC000F4CF16F4000E04011527010E162357C2A8
:100BD0004DF27FDEF3CF00F4F4CF01F402015A515D
:100BE0005C25146E5B515D21156E04011450F35C9D
:100BF0001550F45801E2F6D021EC13F05FEC15F03B
:100C000002015C51EE240401046F02015D51EE20EB
:100C10000401056F21EC13F099EC15F00451145CFC
:100C2000055115580CE221EC13F0BAEC15F021EC4B
:100C300013F077EC15F01450045F1550055B04C4F5
:100C40009AF205C49BF27DEC23F021EC13F085ECC5
:100C500015F004010451EE5C026F0551EE58036F6C
:100C6000010E0227000E03235CC204F45DC205F4EA
:100C70005AC206F45BC207F458C208F459C209F418
:100C8000020158C2E9FF59C2EAFF582B5923EFCF9E
:100C90000BF45E5109E0610E04010B5D05E30B519D
:100CA0007A0802E3E00E0B270401080E0C6FE850EF
:100CB000025D000E035902E202C40CF40C51020161
:100CC0005A5D000E5B5902E25AC20CF404010C5149
:100CD000ADEC13F00D0EA86F040EA96F2AEC25F0F1
:100CE00004010C51D9EC13F0025F1550035B025163
:100CF000031109E121EC13F035EC15F0B4EC12F01E
:100D000004010269036902015E513FE004010A6BBC
:100D10000C510A5D58E2BAEC12F0EFCF14F0610EFC
:100D2000145C0BE3BAEC12F0EF507A0806E3E00E25
:100D3000146EBAEC12F01450EF26BAEC12F0EF5029
:100D40000B5D0DE1F7EC13F02DE075EC13F0610E87
:100D500004010B5D18E30B517A0815E312D07FEC08
:100D600013F008C4E9FF09C4EAFF582B000E592309
:100D7000EFCF0BF4610E04010B5D05E30B517A0814
:100D800002E3E00E0B270A2BC3D704010A6B0C51B8
:100D90000A5D19E2BAEC12F0EF500B5D0DE1F7ECD1
:100DA00013F00CE104010651045D166E0551075560
:100DB000176E0A51E6EF12F07FEC13F075EC13F0AA
:100DC00004010A2BE4D70C51D9EC13F0005F155045
:100DD000015B02015A510401005D02015B510401F3
:100DE000015903E2F368F46812000C51D9EC13F0D6
:100DF00004271550052358D702016351641103E1FC
:100E0000F36AF46A12005F511A0DF3CF99F4F4CF2C
:100E10009AF4000E04019927010E9A235FC24DF245
:100E200058DDF3CF83F4F4CF84F4020163516525D8
:100E3000146E64516621156E04011450F35C155054
:100E4000F45801E2FBD026EC13F05FEC15F0020140
:100E50006551EE240401876F02016651EE20040102
:100E6000886F26EC13F099EC15F08751145C8851CB
:100E700015580CE226EC13F0BAEC15F026EC13F042
:100E800077EC15F01450875F1550885B87C49AF291
:100E900088C49BF27DEC23F026EC13F085EC15F072
:100EA00004018751EE5C856F8851EE58866F010E04
:100EB0008527000E862365C287F466C288F463C264
:100EC00089F464C28AF460C28BF461C28CF462C299
:100ED0008DF4020160C2F6FF602B61C2F7FFF3ECF4
:100EE00014F0675109E0610E04018F5D05E38F5135
:100EF0007A0802E3E00E8F270401080E906FE85095
:100F0000855D000E865902E285C490F4905102017D
:100F1000635D000E645902E263C290F404019051D3
:100F2000ADEC13F0910EA86F040EA96F2AEC25F01A
:100F300004019051D9EC13F0855F1550865B855103
:100F4000861109E126EC13F035EC15F0B4EC12F043
:100F50000401856986690201675143E004018E6BD3
:100F600090518E5D5CE2C1EC12F0EFCF14F0610E97
:100F7000145C0BE3C1EC12F0EF507A0806E3E00ECC
:100F8000146EC1EC12F01450EF26C1EC12F0EF50C9
:100F90008F5D0DE1FEEC13F031E007EC13F0610E14
:100FA00004018F5D1CE38F517A0819E316D02BECF6
:100FB00013F08BC4F6FF602B8CC4F7FF000E612387
:100FC0008DC4F8FF62230800F5CF8FF4610E040191
:100FD0008F5D05E38F517A0802E3E00E8F278E2B99
:100FE000BFD704018E6B90518E5D19E2C1EC12F0F7
:100FF000EF508F5D0DE1FEEC13F00CE1040189511F
:10100000875D166E88518A55176E8E51E6EF12F085
:101010002BEC13F007EC13F004018E2BE4D7905166
:10102000D9EC13F0835F1550845B02016351040116
:10103000835D020164510401845903E2F368F4689A
:1010400012009051D9EC13F087271550882354D7FC
:101050006CC25EF26AC25CF26BC25DF2010E02010A
:101060005A6F5B6B0201690E586F020E596F68C2AE
:1010700057F2D5EF05F00401006B00C414F017EC33
:1010800012F001E356D100511A0DF3CF01F4F4CF61
:1010900002F4000E0127010E0223036B9FEC15F0F2
:1010A000400B06E082EC21F0000902E0D2EC11F0E6
:1010B0009FEC15F0040B12E09EEC11F0140E36ECD0
:1010C00014F07BEC12F004E214500008000E1554EA
:1010D00005E30401035102E1D2EC11F09FEC15F09D
:1010E000080B12E09EEC11F0160E36EC14F07BECBF
:1010F00012F004E214500008000E155405E3040138
:10110000035102E1D2EC11F09FEC15F0020B01E16A
:101110000DD19EEC11F0100E79EC11F0EECF18F01D
:10112000EECF19F026EC14F018C0E6FF19C0E6FF68
:101130001AC0E6FF1BC0E6FFA9EC3AF0E552E7CF84
:101140001BF0E552E7CF1AF0E552E7CF19F0E55270
:10115000E7CF18F000011850065C146E19500758BC
:10116000156E1A500858166E1B500958176E800ECF
:10117000171401E0DBD00401035104E100C423F2A1
:1011800040EC00F002011A2BD8901B371C371D379A
:101190001E37A9EC3AF0065002011B25146E0750C9
:1011A0001C21156E08501D21166E09501E21176E48
:1011B0009EEC11F047EC14F09EEC11F0180EEB5081
:1011C000090A01E19ED0010A01E182D00F0A01E182
:1011D000A6D0010A6CE0030A01E19CD0010A50E0AC
:1011E000070A1EE0010A04E0030A01E09BD013D0C5
:1011F0001A51050803E30201120E88D09FEC15F086
:10120000010B03E00201040E87D09EEC11F074EC98
:1012100015F0010EEF6ECFEC13F00201020E76D046
:101220009EEC11F00A0E30EC14F014500E1902E18D
:1012300015500F1901E176D01A51050816E36AEC32
:1012400014F015AE02D01668176825EC15F008E208
:101250003EEC14F015AE02D016681768C4EC11F01D
:1012600099EC14F00201180E51D04EEC13F09EECE4
:1012700011F074EC15F0040EEF6ECFEC13F044D0C7
:101280001A51050847E36AEC14F015AE02D016684F
:10129000176825EC15F008E23EEC14F015AE02D00C
:1012A00016681768C4EC11F099EC14F02DD01A519F
:1012B000050830E36AEC14F015AE02D01668176822
:1012C00025EC15F019E23EEC14F015AE13D010D059
:1012D0001A5105081FE36AEC14F015AE02D0166827
:1012E000176825EC15F008E23EEC14F015AE02D0BC
:1012F00016681768C4EC11F099EC14F00201100E96
:1013000005D01A51050806E30201110E746F18EC9E
:1013100015F008D00201140E746F18EC15F000C41B
:101320007BF2EBDB00C424F264EC00F00401002B40
:10133000A4D612006DC2E9FF6EC2EAFF85EC15F07B
:10134000EECF14F4EECF15F4EECF16F4EFCF17F482
:101350006FC2E9FF70C2EAFFEECF18F4EECF19F4C6
:10136000EECF1AF4EFCF1BF404011C6B060E1D6FB9
:1013700071C21EF472C21FF471C2C2F072C2C3F015
:10138000C1EC2CF0F3CF1EF4F4CF1FF40C0E0001CF
:10139000CA6FCB6B0001140EC86F040EC96FDCEC72
:1013A0002CF0F3CF21F4F4CF22F40401211F221FEB
:1013B00071C2A0F272C2A1F2C0EC23F0F3CF23F409
:1013C000F4CF24F40401F350211951E124512219DE
:1013D0004EE10001DA6BDB6B88EC36F0140EADECFD
:1013E00013F0000EA86F040EA96F2AEC25F002017D
:1013F000000E796F040E7A6F43DB04010C5114EC7C
:1014000013F0146E156A140E145E000E155A14C0F3
:1014100025F41450146E156AE8500201715D716F65
:1014200015507259726F140E715F000E725B6DC2AF
:1014300077F26EC278F20201000E756F040E766FBD
:101440005CDA0401206FFE0E205D11E071C27FF2B4
:1014500072C280F20201000E7D6F040E7E6F20C406
:101460007CF296DB20C424F264EC00F0010C89ECE1
:1014700021F0010C020173511A0DF3CF83F4F4CF64
:1014800084F4000E04018327010E842356EC15F02A
:10149000EF9456EC15F0EF9C56EC15F0EF9656ECE9
:1014A00015F0EF9882EC21F00009FCE0020174B322
:1014B0000BD099EC11F0080E30EC14F00E5114180A
:1014C00007E10F51151804E10401AB6BAC6BC9D0F7
:1014D00099EC11F0080E30EC14F0C8EC12F02CE28C
:1014E00099EC11F071EC15F00E51EE5C0401AB6F4C
:1014F00002010F51EE5804013EEC15F003E3AEEC8F
:1015000014F002D05AEC14F054EC13F004E2ADC421
:10151000ABF4AEC4ACF4400ED880AB55020EAC5563
:1015200002E2A6EC15F0ABC4A6F2ACC4A7F243EC01
:1015300013F09BEC13F095D099EC11F035EC15F00D
:101540000E51EE5C0401A96F02010F51EE58040127
:10155000AA6F99EC11F071EC15F0A951EE24146EFC
:10156000AA51EE20156E99EC11F0020EDEEC14F08B
:10157000AB6FEE5015583EEC15F003E3AEEC14F0F3
:1015800002D05AEC14F054EC13F004E2ADC4ABF406
:10159000AEC4ACF4400ED880AB55020EAC5502E29E
:1015A000A6EC15F0A951AD5DAA51AE5904E2ADC447
:1015B000A9F4AEC4AAF4400ED880A955020EAA55CB
:1015C00004E2400EA96F020EAA6FA9C4A6F2AAC433
:1015D000A7F243EC13F00401A951AB5DA96FAA5126
:1015E000AC59AA6FA951AA1126E0A9C4A6F2AAC4AF
:1015F000A7F299EC11F059EC15F0EECFA4F2EDCF73
:10160000A5F299EC11F035EC15F002010E51EE5CEB
:10161000146E0F51EE58156E166A176AA40E142632
:101620000C0E1522000E1622172214C0A2F215C0AD
:10163000A3F24EEC24F09BEC13F099EC11F050EC7B
:1016400015F0C8EC12F00DE399EC11F0DAEC15F09E
:1016500099EC11F0020E57EC14F014500E5F155077
:101660000F5B0CC287F40DC288F40AC289F40BC266
:101670008AF4030E0201741509E0A4EC13F00401CE
:101680008B07000E8C5B8D5B8E5B02D0A4EC13F09D
:1016900016C28FF417C290F418C291F419C292F4D2
:1016A0000401949D949F939193939395939774C2FF
:1016B00094F4996B9A6BAB51020112270401AC515F
:1016C00002011323000E1423152399EC11F096EC5C
:1016D00015F099EC11F00E0E32EC15F01EE399ECBA
:1016E00011F0BAEC15F099EC11F0040E57EC14F06F
:1016F00099EC11F00C0E79EC11F026EC14F099EC49
:1017000011F05FEC15F005EC14F004011850145CB6
:10171000956F19501558966F15D099EC11F00E0E63
:1017200030EC14F099EC11F00C0E79EC11F004018E
:10173000EE50145C956FEE501558966F010E955F44
:10174000000E965BB2EC21F0F3CF85F4F4CF86F473
:101750000401400E855F000E865B800E861502E058
:10176000856B866B9551855D9651865909E2D00E41
:10177000855D070E865904E285C495F486C496F407
:101780000201870E796F040E7A6F7AD9140E040164
:10179000AB27000EAC239389939B938D939F0201FB
:1017A00074A326D0040E0401AB27000EAC23020E56
:1017B0009B6F040E9C6F020E9D6F400E9E6F010E7C
:1017C000146E930EE96E040EEA6EEF50F00BE842D1
:1017D000E842E842E84214240F0BF36EF46EF3463D
:1017E000F346F346F3460F0EEF14F310EF6EF4508A
:1017F00000C59FF401C5A0F402C5A1F403C5A2F47D
:1018000006C2A3F407C2A4F408C2A5F409C2A6F450
:101810000401A76B060EA86FABC4A9F4ACC4AAF46C
:10182000ABC4C2F0ACC4C3F0C1EC2CF0F3CFA9F44C
:10183000F4CFAAF40C0E0001CA6FCB6B00019F0E0F
:10184000C86F040EC96FDCEC2CF0F3CF97F4F4CF23
:1018500098F40401971F981F02017C0E986F0C0EDC
:10186000996F6CEC23F0ABC4D8F0ACC4D9F0000194
:10187000060ED76F0001000ED56F020ED66F15EC65
:1018800036F0140EB2EC13F0870EAD6F040EAE6F8F
:1018900069EC25F0020174A309D0040EB2EC13F038
:1018A0009B0EAD6F040EAE6F69EC25F00201900E39
:1018B0009A6F0C0E9B6F7DEC23F0ABC4A0F2ACC40E
:1018C000A1F2C0EC23F0F3CF85F4F4CF86F402014B
:1018D000A00E986F0C0E996F6CEC23F0020EB2EC18
:1018E00013F0850EAD6F040EAE6F69EC25F013ECAE
:1018F00025F00009FCE0F4EF22F00401FE0E296F50
:101900009DEC14F059EC15F036EC12F09DEC14F04F
:101910001850EE24166E1950EE20176E02EC13F0DC
:101920000CEC14F002EC13F059EC15F01450EE1816
:101930002A6F1550EE182B6F286B28C414F017EC83
:1019400012F05BE22851A3EC14F0180EEB500A08D9
:1019500051E012EC12F0180EEB50000913E112ECFA
:1019600012F08AEC11F002EC13F0020E36EC14F0D7
:101970001650000114183EE1175015183BE128C419
:1019800029F438D012EC12F08AEC11F02A5100013F
:10199000141830E104012B51000115182BE128C463
:1019A00023F240EC00F002EC13F05CEC15F00201C5
:1019B0000C5114181FE10D5115181CE102EC13F025
:1019C000A3EC11F00A51161815E10B51171812E18A
:1019D0009DEC14F0EE5006190DE1EE5007190AE1E6
:1019E000EE50081907E1EE50091904E103E1040182
:1019F000285112000401282BA0D7FE0E295D01E119
:101A0000FE0C2951A3EC14F02AC4EEFF2BC4EDFF09
:101A1000C5EC15F063EC12F0C5EC15F065EC13F0B5
:101A2000C9EC15F0FBEC12F0C9EC15F06AEC12F001
:101A300012EC12F033EC14F0EF920A0EE66EE66A46
:101A400077C2E6FF78C2E6FF000EE66E020EB7EC44
:101A500013F002EC13F0EECF0AF2EDCF0BF202EC32
:101A600013F059EC15F0EECF0CF2EDCF0DF256EC71
:101A700012F012EC12F0D5EC14F00401295112000E
:101A800094EC14F0A8EC11F0F3CFEEFF15C0EDFFCD
:101A900094EC14F0020EE2EC14F0020EF3CFEBFF24
:101AA000030E6CEC13F035EC15F045EC12F0040E5F
:101AB00088EC15F071EC15F045EC12F0080E88EC8E
:101AC00015F00E0EE2EC14F00E0EF3CFEBFF0F0E3E
:101AD0006CEC13F0100EE2EC14F0100EF3CFEBFFF1
:101AE000110E6CEC13F0120EE2EC14F0120EF3CFA8
:101AF000EBFF130E15C0EBFF120002017B511A0D14
:101B0000F3CF83F4F4CF84F4000E04018327010E95
:101B10008423CDEC11F02FEC15F0010B02E0000E48
:101B200001D00A0EE66ECDEC11F074EC15F0E55222
:101B3000E750EF6E9CEC15F0EF929CEC15F0EF94F3
:101B40009CEC15F0EF969CEC15F0EF989CEC15F0E2
:101B5000EF9A9CEC15F0EF9CCDEC11F00CC2EEFF6F
:101B60000DC2EDFFCDEC15F065EC13F0CDEC15F0EA
:101B700063EC12F0D2EC15F06AEC12F0D2EC15F036
:101B8000FBEC12F0CDEC11F0D5EC14F056EF12F0A6
:101B900002017C511A0DF3CF34F4F4CF35F4000E6A
:101BA00004013427010E3523366B39EC14F0040B95
:101BB00007E0D2EC13F07CC27BF29FDF89EF21F0CB
:101BC00002011051111109E1CFDB5FEC15F0EE506D
:101BD000ED1003E03BEC15F0EF8CC6DB5FEC15F08D
:101BE000EECF10F2EDCF11F2E5EC14F0070A01E1AF
:101BF00011D10E0A01E1FAD0010A01E1F4D00E0A76
:101C000001E1D6D0030A01E1CCD0010A01E188D07C
:101C1000070A61E0010A46E0030A10E0010A01E058
:101C2000FCD039EC14F0020B03E1D2EC13F0EED04F
:101C300049EC15F03BEC15F0EF8223D039EC14F0B1
:101C4000020B01E1EAD082EC15F019E04DEC14F042
:101C500001E0E0D0EE50131901E0DCD0EE50141991
:101C600001E0D8D0EE50151901E0D4D001E0D2D077
:101C70000401100E366FADEC15F0BADB02D049EC62
:101C800015F072DB35EC15F0EECF16F2EECF17F251
:101C9000EECF18F2EFCF19F20201162B17231823FB
:101CA0001923BBD082EC15F001E1B7D04DEC14F054
:101CB00001E0B3D0EE50131901E0AFD0EE5014198B
:101CC00001E0ABD0EE50151901E0A7D001E0A5D09E
:101CD000ADEC15F086D08CDB39EC14F0010B01E192
:101CE0009CD00201162B000E1723182319237F51B5
:101CF00080110AE10401110E366F02014EEC13F05F
:101D000044EC14F0090E06D00401100E366F44ECBA
:101D100014F0080EB3EC15F03BEC15F0EF827DD01B
:101D200039EC14F0010B17E082EC15F014E04DECE7
:101D300014F011E1EE5013190EE1EE5014190BE1FD
:101D4000EE50151908E107E1F2EC12F044EC14F042
:101D50000FEC13F020D082EC15F012E04DEC14F0F3
:101D60000FE1EE5013190CE1EE50141909E1EE5099
:101D7000151906E105E144EC14F0050EEF6E31D0C3
:101D800039EC14F0010B2DE0F2EC12F044EC14F0FD
:101D9000060EEF6EB2DAC3DA100EABDA14C0EEFF45
:101DA0001FD039EC14F0010B1CE0F2EC12F010D053
:101DB00082EC15F016E04DEC14F013E1EE5013191F
:101DC00010E1EE5014190DE1EE5015190AE109E188
:101DD00044EC14F00FEC13F0A2DA100E1CEC15F02A
:101DE000EDDA06DB1AD00401100E16D082EC15F0E5
:101DF00014E04DEC14F011E1EE5013190EE1EE5029
:101E000014190BE1EE50151908E107E17CC27BF2D1
:101E100074DE03D00401040E366F82EC15F001E18C
:101E200089D0E5EC14F00A0801E184D0E5EC14F067
:101E3000000901E17FD073DA7FEC15F0020103DBCA
:101E400015AE02D016681768120EE96E020EEA6E21
:101E50001450EE5C0401266F1550EE58276F165093
:101E6000EE58286F1750EE58296F7BEC15F00201E1
:101E70008FDB0BE288EC14F014500401265F155040
:101E8000275B1650285B1750295B6EDA71EC15F052
:101E900004012651EE5C266F2751EE58276F28511A
:101EA000EE58286F2951EE58296FE834000E291991
:101EB00009E6D880000E2655000E2755000E28553D
:101EC000000E295537E288EC14F02651145C275196
:101ED000155828511658295117582CE33BEC15F08A
:101EE000EF9A1DDA7FEC15F02651EE262751ED22F0
:101EF0007BEC15F014DA040E32EC15F00BE30FDA7C
:101F0000DAEC15F00CDA020E57EC14F008DA0A0ECF
:101F100001EC15F0E5EC14F003080CE17BEC15F096
:101F200002010E51141806E10F51151803E13BECA4
:101F300015F0EF9213EC25F00009FCE089EC21F09C
:101F40000401365106E036C474F27CC273F23AECF6
:101F50000AF0120002018551861101E1000C2BEC00
:101F600014F035EC15F01651EE5C0401396F0201E6
:101F70001751EE5804013A6F02011851EE5804014E
:101F80003B6F02011951EE5804013C6F39C43DF416
:101F90003AC43EF4C9D996EC15F0C6D90E0E32EC0F
:101FA00015F015E3D7EC15F0040E57EC14F02BECFC
:101FB00015F026EC14F0B8D95FEC15F005EC14F030
:101FC0001850145C3F6F19501558406F10D0ACD9A1
:101FD0000E0E30EC14F0A8D90C0EDEEC14F03F6FAE
:101FE000EE501558406F010E3F5F000E405B3FC43E
:101FF00014F040C415F0166A176A3C511718E8AE81
:1020000002D0173408D01450395D15503A59165083
:102010003B5917503C5901E353D1BFDAE83401E38F
:102020004FD118500008000E195401E349D10401A2
:102030003E3504E23D510008000E3E5501E295D0C8
:10204000CAEC14F0146E156A3D51F35C0001DA6FAE
:1020500004013E5115580001DB6F88EC36F0040195
:102060003D510201852704013E510201862385511D
:1020700016278651BDEC14F08551EE24146E86515E
:10208000EE20156E38EC15F0B6EC14F022E24CD9C7
:1020900099EC15F02BEC15F00401EE50145C376F41
:1020A000EE501558386F010E3727000E38238CEC90
:1020B00015F005DB6EEC14F002DB166E86510401A0
:1020C0003855176E31D935EC15F0A6DB2DD993DADA
:1020D0000BD068EC15F007EC15F02BEC15F00201B5
:1020E0008551EE268651ED2202011F1D01E1201DC2
:1020F00001E1E6D085511F5F8651205B21511F25EC
:102100000401376F0201225120210401386F800E33
:10211000381527E10201203504E21F510008000EA6
:10212000205501E2CDD004013751020116270401E8
:1021300038510201BDEC14F004013751EE2638513C
:10214000ED22F2D896EC15F038EC15F0B6EC14F060
:1021500008E2D7EC15F077EC15F0E6D80C0E01ECA0
:1021600015F002011F692069ABD03E3501E3A8D00C
:102170003D510008000E3E5501E3A2D0CAEC14F018
:102180000001DA6FDB6B88EC36F02BEC15F0040104
:102190003D51EE24166E3E51EE20176E1650020190
:1021A0008525146E17508621D0EC14F01450185C5D
:1021B0001550195832E2D7EC15F00C0E78DBDBDB4A
:1021C00004013D51145C376F3E511558386F800E35
:1021D000381510E18CEC15F09CDAA36F4EEC24F06E
:1021E000040137510201855D79DBEECFA2F2EDCF1C
:1021F000A3F217D068EC15F004013D51EE24146EE3
:102200003E51EE20CDDB90D8040EBDDB020116500E
:10221000145CA26F1750155803D068EC15F079DAEA
:10222000A36F4EEC24F002011F1D0BE1201D09E1FC
:102230003DC41FF23EC420F285C221F286C222F2C2
:102240003FD01F5104013D5D0201205104013E5960
:1022500023E265D907E30401A0D91F51185C20517E
:10226000195805E285C221F286C222F210D01F5110
:102270002125146E20512221156E04013D51145C5C
:102280000201216F04013E5115580201226F3DC425
:102290001FF23EC420F214D042D912E204017DD9CB
:1022A0001F51185C166E20511958176E2151165C7B
:1022B000146E22511758156E1450212715502223E1
:1022C00033D8CDDB100B01E0100C2ED8CCDAEF8820
:1022D0002BD8C5DB080B0CE127D8C5DAEF86F3DA7B
:1022E000A2DA22D8160E14C0EBFF170E15C0EBFFB2
:1022F000000CE926000EEA22120002011A6B8DDBA7
:10230000E2DA9EDBE80E1426030E1522000E1622DA
:1023100017221200EECF14F0EFCF15F0120034C4E4
:10232000E9FF35C4EAFF120081C2E9FF82C2EAFF79
:10233000120083C4E9FF84C4EAFF120001C4E9FF6C
:1023400002C4EAFF1200EECF16F0EFCF17F0120032
:10235000EECFC2F0EDCFC3F0C1EC2CF0F3CF14F010
:10236000F4CF15F094EF14F07DC2E9FF7EC2EAFFCE
:102370001200EE50165C146EEE501758156E1200D7
:10238000EF84A1DA280ECED31450125F1550135BE0
:102390001650145B1750155B120083C4E9FF84C408
:1023A000EAFF120000C423F203DB42DB00C424F284
:1023B00064EC00F00401010E036F120015C0EEFF83
:1023C00016C0EEFF17C0EEFF1200EE50185C146E40
:1023D000EE501958156E166A176A1200E1C4E9FF2B
:1023E000E2C4EAFF1200D3C4E9FFD4C4EAFF12003A
:1023F0007FC285F280C286F27DC283F27EC284F201
:1024000034C481F235C482F2A5DD04013613120012
:102410001A0DF3CFE9FFF4CFEAFF000EE926010E13
:10242000EA22120026C4E9FF27C4EAFF1200156A57
:10243000166A176A080E145C000E1558000E16581E
:10244000000E17581200EE500E5D146EEE500F592C
:10245000156E166A176A120001C4E9FF02C4EAFF8A
:10246000120001C4E9FF02C4EAFF1200EECF18F027
:10247000EFCF19F01200DBC4E9FFDCC4EAFF120061
:10248000D1C4E9FFD2C4EAFF1200EECFC4F0EECF10
:10249000C5F0EECFC6F0EFCFC7F0C6EC2CF006C00B
:1024A00014F007C015F0CCDA94EF14F090EC35F08E
:1024B000F3CF12F2F4CF13F290EC35F0F3CF14F225
:1024C000F4CF15F21200080E14C0EBFF090E15C070
:1024D000EBFF12000E0E14C0EBFF0F0E15C0EBFF4A
:1024E0001200156E14C0F3FFF46E120083C4E9FFEE
:1024F00084C4EAFF120016C0E6FF17C0E6FFA9EC8D
:102500003AF0E552E7CF17F0E552E7CF16F0065064
:10251000165C146E07501758156EE83412003D51C2
:1025200002018525146E04013E5102018621156EBB
:102530001F512125166E20512221176EB6EF14F07F
:10254000EE50185C166EEE501958176E1200EECF52
:1025500098F2EDCF99F26CEF23F0140E14C0EBFF5C
:10256000150E15C0EBFF1200EECF9AF2EDCF9BF2E5
:102570007DEF23F00A51EA6A0D0FE96E040EEA229C
:1025800012008E51EA6A910FE96E040EEA221200DF
:1025900014500E5D15500F5912003D510201852552
:1025A000186E04013E5102018621196E1200165068
:1025B000145C1750155812009BC4E9FF9CC4EAFF35
:1025C000120000C4E9FF01C4EAFF12000001162452
:1025D000146E000E1720156ECED914C0F3FF15C06F
:1025E000F4FF1200162B000E1723182319230401E1
:1025F000100E366F12000C0E14C0EBFF0D0E15C03E
:10260000EBFF120075C2E9FF76C2EAFF120060C25A
:10261000F6FF602B61C2F7FF000EF3EF14F0070E18
:10262000EF6E51D920EF15F0F00BE842E842E84296
:10263000E842040DF3501200EECF0EF2EDCF0FF290
:10264000120015C4E9FF16C4EAFF120099C4E9FF9D
:102650009AC4EAFF120089C463F28AC464F28BC48C
:1026600060F28CC461F28DC462F2020112000E515C
:10267000EE5C1A6E0F51EE581B6E1A50165C146EFB
:102680001B50175812000EC2A4F20FC2A5F202018D
:10269000A40EA26F0C0EA36F4EEF24F0122B000EAF
:1026A0001323142315231200156E14500401AD5F7B
:1026B0001550AE5BAB51AD5DAC51AE591200A7D910
:1026C000040137510201855D12000A0E14C0EBFFB0
:1026D0000B0E15C0EBFF120015C0EBFF94EF14F0CA
:1026E000CDC4E9FFCEC4EAFF120058C2E9FF59C2C7
:1026F000EAFF582B000E5923EFCF0BF4120006C44B
:102700005AF207C45BF208C458F209C459F2020134
:10271000120004013D51EE240201A26F04013E515A
:10272000EE200201120040C2B1F241C2B2F242C236
:10273000B3F283EF25F00401AB5102010E2704012F
:10274000AC5102010F23120012C28BF413C28CF49D
:1027500014C28DF415C28EF412000201AA6FAB6B85
:10276000020112000201AF6FB06B02011200E66EAF
:102770004EEC32F0146E060EE15E14501200DD5184
:1027800002013D5D0401DE5102013E591200CF51AC
:102790000201435D0401D0510201445912003DD9A8
:1027A0001A6B12000201040E746F7CC273F23AEFCE
:1027B0000AF0146E156A14501200EE501C5C1A6E6A
:1027C000EE501D581B6E1200EE2AED22EECF14F0D3
:1027D000EDCF15F012003BC2ADF23CC2AEF269EF94
:1027E00025F052C2A8F253C2A9F22AEF25F0020145
:1027F0005A07000E5B5B5A515B111200020163071E
:10280000000E645B635164111200EE501A5C186E86
:10281000EE501B58196E12001650EE24146E17500D
:10282000EE20156E1200C80E7DD1ECC4E9FFEDC498
:10283000EAFF120038C236F2A8EF01F03AC236F2CF
:10284000A8EF01F03FC236F2A8EF01F0EECF1AF088
:10285000EFCF1BF0120083C2E9FF84C2EAFF12002F
:1028600048DD8AEF11F0190E79EF11F042DDA3EF88
:1028700011F07ADD0D0E3DDDEF5012005FDD63D902
:102880005DDD17D9E5EF11F04ADD74EF15F0100E9C
:1028900030DD14C0EEFFDEEF11F066DD22D9EE5020
:1028A000121912000201A469A5692BEF15F021DDB0
:1028B000B9EF11F03EDD47D93CDDFBD841DE39DD13
:1028C0001ED937EF13F0A9EC3AF006C014F007C098
:1028D00015F0120033DD13D923EF12F00201A66FB9
:1028E00004013851020186590201A76F0201A4694F
:1028F000A5691ADD35EF15F00201D0DE0201110ED7
:10290000746F35C273F23AEC0AF0EADE74EF15F038
:1029100006DD19D904DDCDD8E5EF11F0E2D8A7EF37
:1029200012F0AEDD5FEF15F079C2E9FF7AC2EAFF7F
:10293000120004DDE4D81CEF13F077C2E9FF78C27F
:10294000EAFF85EF15F01A0DF3CF26F4F4CF27F444
:10295000000E2627010E272312EF12F0EADCCFD853
:10296000EE500E5D146EEE500F5912001450165CAE
:10297000155017581200010ED5D01723000E18233A
:1029800019232BEF15F0B5DCDBDD010E1626000E4A
:102990001722120060DF0C0EACDCEF5014EF13F0C6
:1029A000156EC2DCB2D836EF12F083D81CEF13F0EC
:1029B00040EC00F00201100E746F12009ADCEE5031
:1029C000145C120096DCA8EF11F0A9DC180EEB5095
:1029D000120004DD86D80401DB51120004DD81D829
:1029E0000401CD511200612362C2F8FF6223080086
:1029F000F5CF8FF412007DDCEECF1CF0EFCF1DF091
:102A0000120077DC1450EE5E1550ED5A1200EECF36
:102A1000A2F2EDCFA3F24EEF24F0E80E1B6F030EEF
:102A20001C6F1D6B1E6B120015C0EBFF2CEF12F01C
:102A300000C473F23AEF0AF05CDC06C0EEFF12004D
:102A400008C016F009C017F012009EDC77DC0A0EF1
:102A500007DFC8EF12F068DC0C0E79EF11F003DF2E
:102A6000EF50120003DFD7EF12F0040E79EF11F0F0
:102A70005BDCBAEF15F053DC33EF14F0AC6F10C22F
:102A8000ADF411C2AEF455DC0A0EEADE0201C8EF65
:102A900012F00401120E366FF7DE020EB3EF15F0DE
:102AA000040E30EF14F0D8DC33EF14F042DC33EFD7
:102AB00014F0020E79EF11F0020E30EF14F00E0E4A
:102AC00079EF11F0020EF3DED890153214321200B5
:102AD00085C2A6F286C2A7F252EF14F0C4DEC0EFA0
:102AE00011F0080E79EF11F0180E79EF11F0040EC5
:102AF000DEDEBBEF14F013DC0A0E30EF14F00A0E2A
:102B000079EF11F0B6DE100B1200060E79EF11F01E
:102B100093DF54DC94EF14F037C4A6F238C4A7F264
:102B200052EF14F01426000E152212000C0E30EF96
:102B300014F0060E30EF14F030DC33EF14F09EEC9E
:102B400011F02FEF15F091DF36EF12F0400EAB6F62
:102B5000020EAC6FABDFEF8C120096DE030EEF6E51
:102B60008ADFEF921200EF6E7DEC11F08FEC11F026
:102B700047EF14F0060E36EF14F073DC9DDF31EFF3
:102B800012F06FDC8DDF31EF12F04CDC95DF12EFCD
:102B900012F048DC85DF12EF12F0CDEC11F08CDF83
:102BA000CDEF11F0CDEC11F07BDFCDEF11F060DF58
:0A2BB00094EF11F0040E36EF14F05C
:062BBA00D8CFE4FFE0CFDC
:102BC000E4FFE46EDACFE4FFE2CFDAFFE9CFE4FF1F
:102BD000EACFE4FFF6CFE4FFF7CFE4FFF8CFE4FF5E
:102BE000F5CFE4FFF3CFE4FFF4CFE4FFFACFE4FF47
:102BF000FBCFE4FF00EE00F0140EE80403E3EECF99
:102C0000E4FFFBD700EE14F00C0EE80403E3EECF74
:102C1000E4FFFBD7E652B2EC3AF0E55200EE1FF0CB
:102C20000C0EE80403E3E5CFEDFFFBD700EE13F055
:102C3000140EE80403E3E5CFEDFFFBD7E5CFFBFF80
:102C4000E5CFFAFFE5CFF4FFE5CFF3FFE5CFF5FFE2
:102C5000E5CFF8FFE5CFF7FFE5CFF6FFE5CFEAFFD9
:102C6000E5CFE9FFE5CFDAFFE550E5CFE0FFE5CFBF
:102C7000D8FF1000E66AEDEC3AF0E55201EC1CF0EA
:102C80009FEC3AF0B8EC30F015EC1CF081B066D057
:102C9000A9EC3AF006C0E3F407C0E4F408C0E5F498
:102CA00009C0E6F481B058D0A9EC3AF00401E35130
:102CB000065C146E0401E4510758156E0401E551D9
:102CC0000858166E0401E6510958176ED880A00EF8
:102CD00014540F0E1554000E1654000E17543BE2F8
:102CE00000019F6BA06BA16BA26B1EEC2EF000018C
:102CF000A3692EEC2EF056EC2EF00501AD0EBD6F43
:102D0000680EBE6F000EBF6FB0EC39F0959A838AE3
:102D1000A9EC3AF00401E351065C146E0401E4519D
:102D20000758156E0401E5510858166E0401E65166
:102D30000958176E1734000E171809E6D880940E3C
:102D40001454110E1554000E1654000E175401E3BE
:102D5000DFD7FF0001D0A6D7C0EC1CF01BEC3AF087
:102D600067EC27F021EC3AF080EC27F040D8FF0E1A
:102D70000201F95D02E00201F969F4D712000401D1
:102D80000A6B0A51146E156A040E145C000E155875
:102D90002DE20001060EBC6F040EBD6F04010A5146
:102DA000EA6A4B0FE96E050EEA22EF500001BA6F96
:102DB000BB6B33EC2CF00501060EBB6F040EBC6F31
:102DC0009BEC39F004010A51146E156A030E1418B5
:102DD00003E1155001E11200E1EC1FF0FDE10501F6
:102DE0002E0EF6EC1FF004010A2BCBD71200810E39
:102DF000C26E0401640E026F025102070009FCE179
:102E0000C284C2B4FED7C3CF02F4C4CF03F4330EDE
:102E1000E66E050E86EC1FF0C40EC16E890EC26E02
:102E20000401640E026F025102070009FCE1C28432
:102E3000C2B4FED7C3CF02F4C4CF03F402C400F47B
:102E400003C401F40401013513E200510008020E2D
:102E500001550EE2000E005F020E015BB7EC1FF0A1
:102E6000140E04010824006F000E0920016F11D018
:102E7000000ED8800057020E0157B7EC1FF008C0B3
:102E800000F409C001F40401140ED8800057000EAC
:102E900001573B0EE66E050E86EC1FF0430EE66E04
:102EA000050EE66E00C4E6FF01C4E6FF5CEC20F010
:102EB000CE0EC16E1200300E05014F5D1CE34F5166
:102EC000390803E3300E4F5D11D0410E4F5D13E31F
:102ED0004F51460802E3410E07D0610E4F5D0BE3F0
:102EE0004F51660808E3610E4F5D0A0F156AF36ED5
:102EF00015C0F4FF1200F368F468120050C5E9FF32
:102F000051C5EAFFE5EC1FF00401836FE850030AA6
:102F10000FE0030A01E0C6D2020E8BEC20F0E5ECD4
:102F20001FF00401846FE85001E0BCD2837ABAD26A
:102F300005015251020801E3B5D20401846B876B8D
:102F400087511AEC1FF0EF501AE0E1EC1FF0FDE1A1
:102F500004018751EDEC1EF032EC1FF0FDE1B2EC04
:102F60001FF00401872937EC1FF0156E14C0B7F568
:102F70007EEC39F0020E04018725876FE1D704014A
:102F80008A6B05EC20F0EECFE6FFEFCFE6FFD4EC46
:102F900032F0E552E552F3CF14F0F4CF15F0400EC5
:102FA000D880F354000EF45401E270D204018A5127
:102FB0001AEC1FF0EF5001E175D204014FEC20F044
:102FC00001E1F4502DE0080EF31801E1F4501EE089
:102FD000020EF31801E1F4500FE0010EF3182FE197
:102FE000F4502DE10E0E3AEC20F032EC1FF0FDE132
:102FF000B2EC1FF00F0E1DD0040E3AEC20F032ECB4
:103000001FF0FDE1B2EC1FF0050E13D01A0E3AECE2
:1030100020F032EC1FF0FDE1B2EC1FF01B0E09D0E6
:10302000080E3AEC20F032EC1FF0FDE1B2EC1FF09C
:10303000090E04018A2537EC1FF014C084F4040142
:103040008451FF0A14E0FB0A0EE0070A09E0010AB6
:1030500004E0030A0EE1886B0BD0020E886F08D0E3
:10306000886B020E02D0020E886F896F02D0886BC7
:10307000896B4FEC20F001E1F45001E16BD1080EB7
:10308000F31801E1F45001E1BFD0020EF31801E1A1
:10309000F45001E187D0010EF31801E093D1F45010
:1030A00001E090D1020E3AEC20F032EC1FF0FDE18D
:1030B00096EC20F016C0EFFF030E8A25EDEC1EF013
:1030C00032EC1FF0FDE196EC20F037EC20F0040E1E
:1030D0008A25EDEC1EF032EC1FF0FDE196EC20F0BD
:1030E0003EEC20F0050E8A25EDEC1EF032EC1FF0D0
:1030F000FDE19AEC20F016C0EFFF060E8A25EDECFC
:103100001EF032EC1FF0FDE19AEC20F037EC20F0DD
:10311000070E8A25EDEC1EF032EC1FF0FDE19AEC73
:1031200020F03EEC20F0080E8A25EDEC1EF032EC8B
:103130001FF0FDE19EEC20F016C0EFFF090E8A257E
:10314000EDEC1EF032EC1FF0FDE19EEC20F037ECD0
:1031500020F00A0E8A25EDEC1EF032EC1FF0FDE1A6
:103160009EEC20F03EEC20F00B0E8A25EDEC1EF0DC
:1031700032EC1FF0FDE1A2EC20F016C0EFFF0C0EC8
:103180008A25EDEC1EF032EC1FF0FDE1A2EC20F000
:1031900037EC20F00D0E8A25EDEC1EF032EC1FF01E
:1031A000FDE1D3D089C486F4020E04018925865D31
:1031B00001E308D188C485F4020E8825855D22E2EA
:1031C0008A29EDEC1EF032EC1FF0FDE108EC20F056
:1031D00016C0EFFF020E8A25EDEC1EF032EC1FF058
:1031E000FDE108EC20F037EC20F0030E8A25EDEC31
:1031F0001EF032EC1FF0FDE108EC20F03EEC20F078
:10320000852BDAD7862BD0D7020E0401FBEC1EF0FB
:1032100044EC1FF0FDE149EC1FF0030E7FEC20F0C1
:1032200016C0EFFF040EFBEC1EF044EC1FF0FDE1B6
:1032300049EC1FF0050E7FEC20F037EC20F0060E75
:10324000FBEC1EF044EC1FF0FDE149EC1FF0070E13
:103250007FEC20F03EEC20F0080EFBEC1EF044EC7E
:103260001FF0FDE149EC1FF0090E83EC20F016C0C1
:10327000EFFF0A0EFBEC1EF044EC1FF0FDE149EC01
:103280001FF00B0E83EC20F037EC20F00C0EFBEC63
:103290001EF044EC1FF0FDE149EC1FF00D0E83EC35
:1032A00020F03EEC20F00E0EFBEC1EF044EC1FF084
:1032B000FDE149EC1FF00F0E87EC20F016C0EFFF88
:1032C000100EFBEC1EF044EC1FF0FDE149EC1FF08A
:1032D000110E87EC20F037EC20F0120EFBEC1EF004
:1032E00044EC1FF0FDE149EC1FF0130E87EC20F0D9
:1032F0003EEC20F0140EFBEC1EF044EC1FF0FDE160
:1033000049EC1FF0150E34EC20F0882901EC20F078
:1033100016C0EFFF160EFBEC1EF044EC1FF0FDE1B3
:1033200049EC1FF0170E34EC20F0882901EC20F056
:1033300037EC20F0180EFBEC1EF044EC1FF0FDE122
:1033400049EC1FF0190ED0EC1EF0A2EC20F03EEC80
:1033500020F038D089C486F4020E04018925865DE8
:1033600031E288C485F4020E8825855D29E2020ECB
:10337000FBEC1EF044EC1FF0FDE149EC1FF0030EE6
:10338000A6EC20F016C0EFFF040EFBEC1EF044ECA0
:103390001FF0FDE149EC1FF0050EA6EC20F037EC24
:1033A00020F0060EFBEC1EF044EC1FF0FDE149ECB2
:1033B0001FF0070EA6EC20F03EEC20F0852BD3D7B3
:1033C000862BCAD7FF0E0401845D3FE189C486F4D1
:1033D000020E8925865D39E288C485F4020E8825AF
:1033E000855D31E218EC20F0EF50E66E2CEC20F019
:1033F00053EC20F02CEC20F023EC20F02CEC20F00F
:1034000041EC20F085510BEC20F053EC20F085517D
:103410000BEC20F023EC20F085510BEC20F041EC7C
:1034200020F0A9EC20F053EC20F0A9EC20F023ECE4
:1034300020F0A9EC20F0020EADEC20F0E552E750B0
:10344000EF6E852BCBD7862BC3D74FEC20F001E155
:10345000F45017E0080EF31801E1F45010E0020EEA
:10346000F31801E1F45009E0010EF31801E09ED5D4
:10347000F45001E09BD5100E05D0060E03D01B0EB4
:1034800001D00A0E04018A258A6F90D50501100E1D
:10349000F6EC1FF00501B76B7EEC39F00501B7695A
:1034A0007EEC39F00A0EE66EE66A540EE66E760E93
:1034B000E66E000EE66E50C5E9FF51C5EAFFEECF9D
:1034C000E6FFEFCFE6FF79EC32F0146E070EE15E17
:1034D0001450120005015351200A01E1B2D0010A33
:1034E00001E1AFD0030A01E1ACD0010A01E1A9D0AA
:1034F000630A01E1A6D0010A01E1A3D0030A01E1B8
:10350000A0D0010A01E19DD0130A01E19AD0010A7D
:1035100001E197D0030A01E194D0010A01E191D0C1
:10352000330A01E18ED0010A01E18BD0030A01E1E7
:1035300088D0010A01E185D0130A01E182D0010A95
:1035400001E17FD0030A01E17CD0010A01E179D0D9
:10355000640A61E0010A49E0120A3EE01C0A2CE01C
:103560001B0A1AE0010A08E0020A01E047D1835071
:10357000200B35E1300E36D06EEC1FF060EC1FF002
:103580006EEC1FF001E13AD1542B000E55236EEC86
:103590001FF001E02ED132D176EC1FF060EC1FF06D
:1035A00076EC1FF001E12AD1542B000E552376EC66
:1035B0001FF001E01ED122D17EEC1FF060EC1FF065
:1035C0007EEC1FF001E11AD1542B000E55237EEC46
:1035D0001FF001E00ED112D18150010B02E0310E3B
:1035E00001D0300E60EC1FF009D1545155110AE1A1
:1035F000400EE66EE66AA70EE66E680EE66E000EF8
:103600008DEC1FF02FEC20F001E1F8D057EC20F00A
:1036100001E0EFD0F3D0545155110AE1400EE66EAF
:10362000E66A920EE66E680EE66E000E8DEC1FF0F6
:103630002FEC20F001E1E2D057EC20F001E0D9D0EE
:10364000DDD05451551101E0CED05351730A01E140
:103650007ED0010A01E177D0030A6EE0010A69E039
:10366000130A64E0010A5EE0030A58E0010A52E02E
:10367000330A49E0010A44E0030A3CE0010A37E06A
:10368000130A32E0010A2BE0030A26E0010A1EE0D9
:10369000630A15E0010A0FE0030A06E0010A5EE191
:1036A0000401856B020E15D00401020E856F040E15
:1036B000866F876B2DD00401856B020E46D0040106
:1036C000020E856F040E866F020E45D00401856BD5
:1036D000010E866F876B41D0D2EC1FF00DD0040134
:1036E000856B010E866F13D0D2EC1FF00ED0D7EC95
:1036F0001FF002D0DCEC1FF0866F876B010E2DD01F
:10370000D7EC1FF002D0DCEC1FF0866F010E876F44
:10371000020E23D00401856B010E10D0D2EC1FF0F5
:10372000866F0ED00401856B010E13D0D2EC1FF012
:1037300010D0D7EC1FF002D0DCEC1FF0866F020E29
:10374000876F030E0AD0D7EC1FF0866F04D0DCEC35
:103750001FF0866F030E876F040E886F0501586B8C
:1037600087C484F404018851845D3DE285C483F4F8
:103770008651835D36E2896B030E895D30E28EDB14
:10378000EF380F0B04018A6F0A0E8A5D03E2300ED8
:103790008A2503D0410E8A25F60F8B6F7FDBEF5011
:1037A0000F0B04018A6F0A0E8A5D03E2300E8A2530
:1037B00003D0410E8A25F60F8C6F8D6B8B0EE66E53
:1037C000040EE66E580EE66E050EE66E9CEC32F0C8
:1037D000E552E552E552E5520401892BCDD7832B02
:1037E000C7D7842BBFD72FEC20F008E057EC20F090
:1037F00005E054C5F3FF55C5F4FF1200F368F46803
:103800001200959A839A810EC26E8E0EC16E230E9F
:10381000926EF19E200EAC6E900EAB6E800EAF6E6F
:10382000AC84D08EF28EF28C12000501328D328F74
:103830001C6B040E1D6FA30E1E6F1F6B206B070EFB
:10384000216FC00E006FA80E016F010E026F080EEF
:10385000036F00C514F501C515F502C516F5176F00
:10386000046905690669076B04C518F505C519F5EE
:1038700006C51AF507C51BF5C00E086FA80E096F1F
:10388000010E0A6F0B6FC00E0C6FA80E0D6F010EAC
:103890000E6F0F6FC00E106FA80E116F010E126F1A
:1038A000136F100EE66EE66A870EE66E680EE66E21
:1038B000000EE66E220EE66E050EE66E79EC32F034
:1038C000146E070E5DDB0401000E046F050E056F1C
:1038D0000001946B956B966B976B9CEC2DF0AAECAA
:1038E0002DF00401036FD9EC2DF0600E0401035D8F
:1038F0001FE10001010E946F956B966B976B9CEC2A
:103900002DF00401036B035167DB10E2AAEC2DF0EC
:10391000E66E040104C4E9FF05C4EAFF042B000EAF
:103920000523E552E750EF6E032BEDD7D9EF2DF0CD
:103930009AEF1CF00401000E016F050E026F0001EA
:103940009F6BA06BA16BA26B1EEC2EF00001600EB2
:10395000A36F2EEC2EF00401006B00513DDB0EE254
:1039600001C4E9FF02C4EAFF012B000E0223EFCFDE
:10397000A3F02EEC2EF00401002BEFD756EF2EF023
:103980000401AD6B0401AD5101E02DD10501450EDF
:10399000BD6F680EBE6F000E26DB290EBD6F680E70
:1039A000BE6F000E56DB20C5ACF421C5ABF40001A0
:1039B000910EBC6F040EBD6F21C5BAF020C5BBF0DF
:1039C00033EC2CF00501910EBB6F040EBC6F9BEC29
:1039D00039F005010E0EBD6F680EBE6F000E39DBAB
:1039E0000501220EBB6F050EBC6F9BEC39F0050183
:1039F000EC0EBD6F670EBE6F000E2BDB00C54BF5E6
:103A000001C54CF502C54DF503C54EF5F2DAC60EFB
:103A1000BD6F670EBE6F000E1CDB08C54BF509C5F8
:103A20004CF50AC54DF50BC54EF5E3DAA30EBD6F97
:103A3000670EBE6F000E0DDB04C54BF505C54CF5DA
:103A400006C54DF507C54EF5D4DA7A0EBD6F670E83
:103A5000BE6F000EFEDA0CC54BF50DC54CF50EC55C
:103A60004DF50FC54EF5C5DA4F0EBD6F670EBE6F33
:103A7000000EEFDA10C54BF511C54CF512C54DF52A
:103A800013C54EF5B6DA340EBD6F670EBE6F000E6D
:103A9000AADA210EBD6F670EBE6F000EA4DA090E02
:103AA000BD6F670EBE6F000EBF6FB0EC39F073ECE8
:103AB00039F00009FCE00501060EBD6F670EBE6F10
:103AC000000EC7DA7CEC39F0300A01E180D0090A37
:103AD00001E17BD0010A01E155D70F0A4EE0010A4E
:103AE00047E0030A40E0010A39E0070A32E0010A30
:103AF00018E0030A01E046D7E9D9000901E142D7FD
:103B0000910EE66E040EE66E7AEC34F0E552E55264
:103B1000F3CFABF4F4CFACF4F4CF20F5F3CF21F531
:103B200031D7DADA100EB3DA0401915101E12AD764
:103B3000100EE66EE66A910EE66E040EE66E220E3A
:103B4000E66E050EE66E4EEC32F0146E060E18DAD6
:103B500019D70401000EA96F050E13D00401080E39
:103B6000A96F050E0ED00401040EA96F050E09D031
:103B700004010C0EA96F050E04D00401100EA96FEC
:103B8000050EAA6FA3D90001A50EB86F040EB96F78
:103B90000001910EB66F040EB76FF7EC2BF0000921
:103BA0000DE0A9C4E9FFAAC4EAFFA5C4EEFFA6C4BC
:103BB000EEFFA7C4EEFFA8C4EEFFE4D60501E70EB2
:103BC000BD6F660EBE6F000E0CD00ED8DBD60401A2
:103BD000010EAD6FAFDE0501D50EBD6F660EBE6F77
:103BE000000E37DACFD612000401006BA2D9A9EC7F
:103BF0003AF006C08DF407C08EF408C08FF409C0F7
:103C000090F4890EE96E040EEA6EEE500401065C33
:103C1000146EEE500758156EEE500858166EEE50A2
:103C20000958176EF40E145C010E1558000E165844
:103C3000000E175809E37DD9837AC3D9FEE1050147
:103C4000150EB76F7EEC39F073EC39F00009CFE058
:103C500077EC31F09ED90401010E076F0401075182
:103C600001E17BD073EC39F00009F8E0837A7CEC59
:103C700039F00401016FE80404E1005102E1010E92
:103C800006D0040E015D04E1005102E1060E006F52
:103C90000051060A51E0030A21E0010A0EE0070A7A
:103CA0000AE0010A06E0030A52E1086B026B020E09
:103CB00013D0030E11D0040E0FD00151022708516A
:103CC000082BEA6A090FE96E040EEA2201C4EFFF2D
:103CD000800E085DC3E1050E006FC0D772D9FEE10A
:103CE00004010251015D22E103C4ABF504C4ACF54B
:103CF00005C4ADF506C4AEF57FEC31F00401016BEF
:103D0000800E015D0DE20151EA6A090FE96E040EB1
:103D1000EA22EFCFAFF59AEC31F00401012BF0D796
:103D2000B7EC31F036D90501060E02D00501150EAB
:103D30005DD90401006B92D7839A45EC31F041D9EB
:103D4000FEE10501060E52D90401076B87D739D968
:103D5000FEE10501150E4AD981D712000F0EFBD8DE
:103D6000EF6A98C5E6FF99C5E6FF2DEC33F0E55202
:103D7000E5520401006B0F0E005D11E20051EBD81B
:103D8000EF500AE10F0E0401005D09E20051002B23
:103D9000E2D8200EEF6EF6D70401002BECD712000C
:103DA00004018A251C6E1D6A30D91C50EE24E76E72
:103DB0001D5036D9E552E7CF19F0E552E7CF18F09C
:103DC0001850F324166E1950F420176ED89016363A
:103DD0001736D890163617361200186E196A15D98C
:103DE0001850EE24E76E19501BD9F3CF16F0F4CF1C
:103DF00017F0040E12008A2566D9F3CF18F0F4CF1D
:103E000019F0040E12000C0DF3CF14F0F4CF15F0DE
:103E1000C70E1426020E15221200030D1450F324AF
:103E2000E96E1550F420EA6E1200E552E750EF6E8D
:103E300018EF20F0146E156AE8D81450EE24E76EDF
:103E40001550EE20EA6EE7CFE9FF120086D916C0C2
:103E5000EFFF12005451EA6A580FE96E050EEA228C
:103E6000EF501200D89016361736E80412002BD9FE
:103E7000E552E7CF17F0E552E7CF16F01650F324DE
:103E8000146E1750F4201200D89018361936E80432
:103E9000120018C0E6FF19C0E6FF1200835125D9B1
:103EA0008451030D1650F324146E1750F420156E30
:103EB00089510F011424E96E000E1520EA6E1200DC
:103EC00056C5E9FF57C5EAFFEF6E120005D9140E7B
:103ED00047EF20F042D9EF50E66E12005451EA6AE3
:103EE000330FE96E050EEA22EF5012005451EA6AD0
:103EF0003B0FE96E050EEA22EF5012005451EA6AB8
:103F0000430FE96E050EEA22EF501200E66E02C47E
:103F1000E6FF03C4E6FF5CEF20F0E66E580EE66EA7
:103F2000050EE66E07EC33F0146E070EE15E1450DA
:103F30001200A9EC3AF006C089F407C08AF408C060
:103F40008BF409C08CF41200EFCF4FF55BEC17F047
:103F5000090EF31812000501EA6A9825E96E9951D5
:103F6000EA22120016C0E6FF17C0E6FF1200090E93
:103F70000D6E0E6A00C408F001C409F0B3EF38F00A
:103F8000E15E14500501220E986F050E996FAEEF99
:103F90001EF006C003F407C004F408C005F409C00D
:103FA00006F412000401010E856F020E12000401D6
:103FB000020E856F030E12000401030E856F040EBE
:103FC000120067EC39F000091200EE50EFCFEAFF63
:103FD000E96EEF50D00F1200146E156A330E145CA8
:103FE000000E1558120035D805011200B76F7EEF8C
:103FF00039F0BFEC16F00501120005DF89510DEF15
:104000001FF001DF89290DEF1FF0040E8BEF20F068
:104010000401855187D0F7DE020E86250DEF1FF0D3
:10402000EE20EA6EE7CFE9FFEFCF4FF55BEF17F039
:1040300085515BD88651030D1650F324E96E175055
:10404000F420EA6E1200010E88D8EFDE020E6AEF4D
:104050001FF0BF6FB0EF39F0020E852563D0050168
:10406000F9DE2EDF2AEF1FF09BDE04011200010EA5
:1040700026EF1FF004018A25EDEF1EF0020E26EF59
:104080001FF0020E6AD8D1DEEF50E66E1200B66F56
:104090000501910EB46F040EB56F40EF39F08A51EF
:1040A000C9DEA4EF1FF0C1DE010E6AEF1FF0542B32
:1040B000000E55232AEF1FF0EFEC34F0E552E552E5
:1040C000E552E55212001A6E1B6A9FDF1A50EE2469
:1040D000E76E1B5010EF20F00501F80EBD6F660E65
:1040E000BE6F000EB6DF050112000C0DF3CF16F007
:1040F000F4CF17F0C70E1626020E17221200B4DFF7
:104100008851FDEF1FF0B0DF8829FDEF1FF0ACDF15
:10411000885101EF20F00501EA6A5025E96E5151FE
:10412000EA22120070DE86510DEF1FF00401885163
:10413000FDEF1FF004018829FDEF1FF004018851F5
:1041400001EF20F00401882901EF20F029DE08EFBB
:1041500020F0020E85250BEF20F0E926000EEA2262
:0241600012004B
:0E4162008A8693969496949A9488200EC66E40
:104170009E96C78CC79E32EC27F0E8CF01F4080E5C
:1041800004010115F8E1011D010BF5E19FEC25F09B
:104190000A0EE66E1AEC3BF0E5520201010E8B6F3F
:1041A000876B886B0201BA6B0201080E5BEC27F08B
:1041B000BA6B0201090E28EC27F00C0E64EC27F014
:1041C0000D0E28EC27F00A0E64EC27F00B0E5BECCA
:1041D00027F06D0EBA6F36EC27F0CBEC26F0050E0B
:1041E0005BEC27F06D0E55EC27F00201AC6B5EEC3A
:1041F00025F00201C26B020EC36F39EC26F00201FA
:104200000D0EBA6F99EC26F00201320EBA6F0EEC69
:1042100027F00201120EBA6F36EC27F00201400EB1
:10422000BA6F20EC27F002013F0EBA6F0201090EAF
:104230005BEC27F0120EBA6F0201060E64EC27F059
:10424000070E5BEC27F0EE0EBA6F02010A0E5BEC74
:1042500027F0050EBA6F02010B0E77EC26F0020173
:10426000040EB2EC26F01CC5BAF236EC27F01DC5E0
:10427000BAF20201050E77EC26F01EC5BAF20EEC7A
:1042800027F01FC5BAF220EC27F020C5BAF299EC4E
:1042900026F021C5BAF20AEC27F00201BA6B3AEC1B
:1042A00027F00201120E73EC26F0E8CF8CF2020127
:1042B000C06B010EC16F0201100EBF6F23EC26F020
:1042C0000201720EC06F340EC16F0201140EBF6F77
:1042D00023EC26F00201C06BC16B0201BF6B23EC23
:1042E00026F0B5EC26F00201040EBE6FD0EF26F0EA
:1042F0000201010EB86FCDEC25F0F350040B01E084
:10430000010E1200E8EC26F0080B080A01E0010E8D
:10431000120002018B5101E01200010E8B6F87C267
:1043200037F488C238F40401375F000E385B37C4B5
:1043300014F038C415F07AEC26F004E26B0E376FF7
:104340000C0E386F0201400EEEEC26F037C4BAF2C4
:1043500002010C0E77EC26F038C4BAF202010D0E01
:1043600077EF26F0E3EC26F00201190E73EC26F04D
:10437000E8CFAFF40E0EF4EC26F00E0E73EC26F040
:10438000E8CFB1F402010F0E73EC26F0E8CFB2F4DF
:10439000E3EC26F00201190E73EC26F00401AF5194
:1043A0000001145CE1E10C0EF4EC26F00C0E73EC51
:1043B00026F0E8CFAFF402010D0E73EC26F0E8CF43
:1043C000B0F40401B151AF5DB251B0591BE26B0EB4
:1043D000186E0C0E196E1A6A1B6AAF51B15D1C6E15
:1043E000B251B0551D6E1E6A1F6A1C50185C146EC7
:1043F0001D501958156E1E501A58166E1F501B5816
:10440000176E14D0AF51B11908E1B051B21905E1DE
:104410006B0EF36E0C0EF46E1200B151AF5D146EA4
:10442000B051B255156E1406000E155A14C0F3FFA4
:1044300015C0F4FF12000201190EC26F010EC36F06
:1044400039EC26F00201190EB66F81DB146E14C030
:1044500014F40201C26BC36B39EC26F00401145151
:1044600002E1000E8CD002018B5103E152DF000EFD
:1044700086D087C289F288C28AF289C2BAF2020162
:10448000B96BB1DB8AC2BAF20201010EB96FABDBC4
:10449000140E0201AA6FAB6B0201000EA86F040E8E
:1044A000A96FD8DA12C4C2F013C4C3F0C1EC2CF067
:1044B000F3CF12F4F4CF13F400C414F001C415F0D8
:1044C000166A176AD8806B0E14540C0E1554000E21
:1044D0001654000E17541BE3040104010051010B94
:1044E00016E1040104010551800B11E104010401EE
:1044F0000451100B0CE10401EE0ED8800255050E9C
:10450000035505E3040104010451800B01E1FF00A0
:1045100000C487F201C488F2060EE66EE66A0C0E4D
:10452000E66E040EE66E8DC2E9FF8EC2EAFFE9CFA9
:1045300014F0EACF15F014C0E6FF15C0E6FF4EEC0C
:1045400032F0166E060EE15E16508FC2E9FF90C281
:10455000EAFFEF68080E0401135D0DE1040112513A
:1045600004E0060E0401125D06E18FC2E9FF90C26D
:10457000EAFF12C4EFFF02018B6B010E00D01200A4
:1045800002016E0E55EC27F07B0E020194270C0EF3
:10459000952394C2BAF20201060EA9DB95C2BAF2C3
:1045A0000201070EA4DB060E0201AF6FB06B91C2D1
:1045B000ADF292C2AEF28DDA060E0201AF6FB06BB1
:1045C00002011C0EAD6F050EAE6F83DA0201080EFC
:1045D000AC6F74DA0201935102E1000E01D0060EB5
:1045E0000201AC6F5EEF25F091DB050E02018C5DE0
:1045F00003E0060E8C5D56E10401AF6BB06B24EC5A
:1046000027F00A0E0001141409E10401AF2B000E7B
:10461000B023E80EAF5D030EB059F1E324EC27F0B0
:104620000001E850020B06E10401E80EAF5D030E45
:10463000B05938E3B7DB81DBE8CFB1F412EC27F0F7
:10464000E8CFB2F40201060E4EDBE8CFB3F402016C
:10465000070E49DBE8CFB4F40401B32B000EB423FA
:104660004DEC27F0BC6B100EBC5D16E224EC27F07D
:104670000001E850020B10E00401B851200B0CE0DF
:1046800045DB24EC27F00A0E00011414FAE08ADB63
:104690004DEC27F0BC2BE7D7B1C4BAF24ADBB2C469
:1046A000BAF2C9DB120082DB96250401496F15506E
:1046B0000201972104014A6F49C414F0156E1ADBF8
:1046C00004E26C0E495F0C0E4A5B49C4BAF231DB5E
:1046D0004AC4BAF20AEF27F0D1DBE8CFAFF4D2DB5D
:1046E000E8CFB0F498C2BAF299DB99C2BAF2A8DB6B
:1046F000AFC4F3FFB0C4F4FF12001FDBE8CFAFF488
:1047000091DBE8CFB0F49AC2BAF213DB9BC2BAF2E3
:1047100081DBAFC4F3FFB0C4F4FF120047DB9C257C
:104720000401166F155002019D210401176F16C474
:1047300014F0156EDFDA04E26C0E165F0C0E175BD8
:10474000FCDAE8CF18F46EDBE8CF19F416C4BAF23D
:10475000F0DA17C4BAF25EDB9EC2A0F29FC2A1F2E9
:104760000FD8F3CF16F4F4CF17F418C4BAF2E1DA85
:1047700019C4BAF24FDB16C4F3FF17C4F4FF1200DA
:104780000401B16BB26BB36BB46BD7DAE8CFAFF4A3
:1047900049DBE8CFB0F40201A051A11151E0140EA1
:1047A000D880A055000EA15505E20401140EB56F86
:1047B000B66B04D0A0C2B5F4A1C2B6F4B5C4AAF2D7
:1047C000B6C4ABF20201B70EA86F040EA96F42D9AE
:1047D0000401B5510201A05F0401B6510201A15BC1
:1047E0000401B5A10AD0B70EB525E96E040EB621B5
:1047F000EA6EEF6AB52B000EB623B70ECB6F040E30
:10480000CC6FB551B611C7E0CBC4E9FFCCC4EAFF09
:10481000020ECB27000ECC23EECF14F0EFCF15F015
:10482000000114500401B127000115500401B22306
:10483000000EB323B423020EB55F000EB65BE1D7C2
:10484000AFC4BAF276DAB0C4BAF2E4DAB1C414F0A2
:10485000B2C415F0166A176AB3C418F0B4C419F0DC
:104860001A6A1B6A145018240401B16F15501920DC
:10487000B26F16501A20B36F17501B20B46FB3518C
:10488000B127B451B223B1C414F0B2C415F0141E50
:10489000151E14C0F3FF15C0F4FF12000401B36B22
:1048A000B46B0201A3AF09D00401010EB36FE6DAC5
:1048B000E8CFA2F2E7DAE8CFA3F20201A5AF09D070
:1048C0000401010EB46F39DAE8CFA4F2ABDAE8CF15
:1048D000A5F20201010ED880A655000EA75540E3AF
:1048E0000401B45106E129DAE8CFAFF49BDAE8CF4E
:1048F000B0F40401B35106E1C1DAE8CFB1F4C2DA91
:10490000E8CFB2F4A4C2BAF214DAA5C2BAF282DADB
:10491000A2C2BAF283DAA3C2BAF20201030EB96FDD
:1049200062D90201A6C214F0A7C215F0A607000EB4
:10493000A75B1450151005E07CD80201AC6FBED8FF
:10494000F0D70401B45106E1AFC4BAF2F2D9B0C451
:10495000BAF271DA0401B35165E1B0DA20EF27F061
:104960000401B3510FE00201A251A6250401B16F69
:104970000201A351A7210401B26FA0DA0201030EC4
:10498000B96F31D937DA1406000E155A14500201E6
:10499000A6271550A72302011F0EA5D9000114BA9E
:1049A000FAD7A4C2BAF20201100EA1D9A5C2BAF276
:1049B0000201110E9CD9A2C2BAF268DAA3C2BAF2FD
:1049C00059DA18DA97D907E3BDD905E26C0E02016E
:1049D000A65F0C0EA75BA6C2BAF20201120E87D91F
:1049E000A7C2BAF20201130E82D90201100E0CDA2C
:1049F0000201200EBE6F1ADA0401B45113E0020165
:104A0000A62B000EA723F6D975D906E39BD904E29D
:104A10006C0EA65F0C0EA75BA6C2BAF28AD9A7C21B
:104A2000BAF209DA1200D4D9200B200A01E0010EF3
:104A300012008A969E963A0EC96E9EA6FED79E9644
:104A4000C96A9EA6FED7C9CFB5F49E968A86040190
:104A5000B55112008A969E963A0EC96E0401E76B14
:104A6000E86B0201A807000EA95B9EA6FED79E96E2
:104A70000201AA510401E75D0201AB510401E859AA
:104A800017E2C96AE72B000EE8230201A851A91119
:104A90000CE0A82B000EA9239EA6FED7C950A8C2E1
:104AA000E9FFA9C2EAFFEF6EE2D79EA6FED7DFD7E5
:104AB0008A86E7C4F3FFE8C4F4FF1200A0D99EA6DB
:104AC000FED79E96ACC2C9FF9EA6FED79E968A864A
:104AD000120095D99EA6FED7C9CFC3F49E960201B7
:104AE000AF51B0110EE0ADC2E9FFAEC2EAFFEF5028
:104AF000C96EAD2B000EAE23AF07B05B9EA6FED7EE
:104B0000EBD78A8612007BD99EA6FED79E9602011D
:104B1000B451B51112E0B1C2F6FFB2C2F7FFB3C291
:104B2000F8FF0800F550C96EB12B000EB223B32375
:104B3000B407B55B9EA6FED7E9D78A8612008A968F
:104B40009E96C9689EA6FED79E968A8612008A9671
:104B50009E96B6C2C9FF9EA6FED79E96C96A9EA61D
:104B6000FED7C9CFE7F49E968A860401E75112006A
:104B70008A969E96B7C2C9FF9EA6FED79E96C96A20
:104B80009EA6FED79E96C96A9EA6FED7C9CF02F4FE
:104B90009E968A86040102511200F8D8B8C2BAF271
:104BA00075D90201010EBA6F0201120E56D9020127
:104BB0000A0E05D9000114B0FAD7E8D80201BA6B81
:104BC0000201120E94D80201180EF9D8E8CF00F4B1
:104BD0000201190EF4D8E8CF01F4C7D800C4F3FFDE
:104BE00001C4F4FF12008A969E96400E0201B9118C
:104BF000C96E9EA6FED79E96BAC2C9FF9EA6FED7D4
:104C00009E968A8612008A969E96A00E0201BB117D
:104C1000C96E9EA6FED79E96BCC2C9FF9EA6FED7B1
:104C20009E968A8612008A969E96800E0201BD117B
:104C3000C96E9EA6FED79E96BEC2C9FF9EA6FED78F
:104C40009E968A861200A2D8BFC2BAF21FD9C0C2ED
:104C5000BAF20201160E4BD8C1C2BAF20201170E07
:104C6000FCD802010A0EABD8000114B0FAD7B5EF98
:104C700026F00201030EC8D8C3C2BEF291D00201D1
:104C8000040EC2D8EFD8000114B4FCD702011F0EE5
:104C90002AD8000114B6FAD70201200EEEEF26F052
:104CA0000201200EBC6F02011E0EBB6FACDFDAD812
:104CB000000114A0FCD70201040EBE6F71D00201E6
:104CC000150E50D8C4C2BAF2D5D8B5EF26F00201FD
:104CD000150E48D80201150E06D8E8CF00F445D8C5
:104CE000040100511200B66F32DF146E1200B96F6A
:104CF000F3EF25F0166A176AD8806B0E14540C0E69
:104D00001554000E1654000E175412000201800EA6
:104D1000BE6F8CD80201800E77D802010A0EBC6FDC
:104D200002011C0EBB6F6FDF0201080EBE6F16EF93
:104D300027F00201B96BF3EF25F00201B66B07DF34
:104D4000146E1200A6C218F0A7C219F01A6A1B6AE4
:104D5000D8806B0E18540C0E1954000E1A54000E05
:104D60001B541200C26F030E95D00201C26BC36BBD
:104D700039EF26F0070E0201AA6FAB6B0201B50EE8
:104D8000A86F040EA96F66DE040112000201140E62
:104D9000C26F020E7FD002010C0EBA6F0201120028
:104DA00016EF27F00201080E04EF27F0140E02019F
:104DB000156A8925146E8A51152214501200B76F96
:104DC000D7DE146E12000201190EC26F010E62D0FE
:104DD00002011F0EB66FBBDEE8501200BE6F02016B
:104DE0001E0EBD6F13EF26F00201C26FC36B41DFD1
:104DF00002011200A4C214F0A5C215F012008A9696
:104E00009E967A0EC96E1200BC6F02011F0EBB6F18
:104E100003EF26F00201010E77EF26F00201020EE9
:104E200077EF26F00201010E73EF26F002011F0E4C
:104E3000BD6F13EF26F00201010EB96FF3EF25F0FD
:104E40000201030E77EF26F002011C0E73EF26F02D
:104E500032D86B0EBA6F0201120049DF02010A0E4E
:104E6000B2EF26F002011D0E73EF26F00201040ED0
:104E700077EF26F00201150E77EF26F00201020E01
:104E800073EF26F00201030E73EF26F00201140EF9
:104E900077EF26F0C36F39EF26F0B3C4BAF249DFDB
:104EA000B4C4BAF2B7DFBAEF26F0BA6FB7DF73DF78
:104EB000030E77EF26F01BDF02011200B1C4BAF235
:0E4EC000ADDFB2C4BAF2120012DFCBEF26F063
:024ECE000401DD
:104ED000036B03C414F0A8DB12E2500E0201256F2D
:104EE000266B01EC01F0E66E0401BBDBE552E750F6
:104EF000EF6EB7DB050E86DBEF6A032BEAD71200F5
:104F00000401EE6BEEC414F08FDB06E2EEC4F4F1A4
:104F100004D80401EE2BF6D712000101F4510C0D58
:104F2000F3CF7FF4F4CF80F4D00E04017F27010E7D
:104F30008023666BE7DB0201346F66EC01F0000949
:104F400003E1CEDBEF6A120053DB050EEB50010AE2
:104F500001E157D1080A01E1ECD00B0A01E1B7D019
:104F6000020A01E05BD10201676B0201656B666BAF
:104F7000020E0201636F646B0201840E606F660EA5
:104F8000616F000E626FBEDB02015F6FFCEC06F02A
:104F9000F3CF81F4F4CF82F40401F31C0EE1821DFF
:104FA0000CE1B0DB0201566FB4EC05F07DDBF35091
:104FB000F41001E033D1C8DB31D1010E666F640E0D
:104FC000D8808155000E825503E2640E816F826B9A
:104FD00081C454F282C455F20201000E526F040ED5
:104FE000536F90DB0201516F06EC05F0000E0401D7
:104FF0008125E96E040E8221EA6EEF6AAADB70DB7E
:10500000020EEF6E04010B0E7D6FF2DAFBDAE9CFD0
:10501000FDF1EACFFEF101017D0EFB6F040EFC6F86
:105020000101670EF96F040EFA6F0101000EF76FB0
:10503000040EF86FE6D90401656FE85001E0EED088
:105040007D5101080EE27DC452F50501670E506FD7
:10505000040E516F7EEC17F0CBDA0B0ED3DA020E92
:10506000EF6E67C4A5F568C4A6F5BEEC30F00EDBA4
:10507000BFDA02DBBDDAEE52E868EE180EE1E8684E
:10508000EE180BE1E868EE1808E1E868EE1805E1B3
:10509000AFDA0A0EB7DAEF6A14D0AADAEE52EECF20
:1050A00014F0EECF15F0EECF16F0EFCF17F014504E
:1050B00015101610171008E19BDA0A0EA3DA010E7C
:1050C000EF6E0EDB020E9BD00BDB090E98D028DBB7
:1050D000166AF3CFE6FFF4CFE6FF16C0E6FF88DAE4
:1050E000AFDAEECFE6FFEECFE6FFEFCFE6FFE2EC82
:1050F00032F0E552E552E552E552E7CF16F0E552BF
:10510000E7CF15F0E552E7CF14F00750145C0850D4
:1051100015580950165801E281D06ADA91DAEECFBB
:1051200049F2EECF4AF2EFCF4BF218DB61DAB7DA91
:1051300072D0F6DAF350F41071E00401010E666FDC
:1051400057DA0B0EEB5002080DE152DA090E5ADA6B
:10515000010EEF6E840EB5DACE0E406F700E416F09
:10516000000E0BD045DA090E4DDAEF6A1F0EA9DAF0
:10517000AE0E406F700E416F000EE0DAE60E146E58
:105180006F0E156E000E166E33DA0B0EEB50176EA7
:10519000186A196A140E0C6E0D6A0E6A17C007F0B1
:1051A00018C008F019C009F0F7EC38F004C017F087
:1051B00005C018F006C019F014500424F36E155001
:1051C0000520F46E16500620F86EF4CFF7FFF3CFEB
:1051D000F6FFF6CF49F2F7CF4AF2F8CF4BF2BEDA3C
:1051E000040E6FDA530E406F710E416F000EA6DA97
:1051F000FFD9060E07DA030EEF6E72DA010EEF6EBC
:105200000DD0A7DA7FC4F5F180C4F6F10CD80009FF
:1052100005E045EC31F098DA63DAEF6A0401665193
:1052200001E087D61200E9D9EE52EECFA7F5EECF16
:10523000A8F5EECFA9F5EFCFAAF54CEC31F0DDD90A
:10524000090EEB50000901E193D063DA0401D75154
:10525000D81101E1D0D0CD6BD0D9060EEB500808A3
:1052600014E062EC31F00401CE6FE86805019C198E
:105270000CE1E8689D1909E1E8689E1906E1E86813
:105280009F1903E174EC31F0A2D0B7D9060EEB50B0
:10529000080A34E00E0A1AE0030A0CE0060A58E194
:1052A000250E0401CE5D03E130DA050E50D0010E6B
:1052B000CD6F4ED0250E0401CE5D03E1010ECD6F02
:1052C00044D0CEC4DAF421DA060E41D0CEC4D9F4EB
:1052D000CEC4BEF0DAC4BFF089EC2CF0E66E8DD9F6
:1052E0000A0E90D9E552E750EF6E0FDA080EEF6E16
:1052F00084D9070EEB6A080EEB6A2AD00501CE0EA0
:10530000566F040E576F79D9070E7CD9EECF54F53E
:10531000EDCF55F572D90A0EEB500501536F6AECCB
:105320001AF0C2D96AD9070EF3CFEBFF080E15C0E9
:10533000EBFF0401010ECD6F60D9070E63D9FF0E9C
:10534000EE1806E1FF0EED1803E1DFD9030EEF6E54
:105350000401CD5108E0CEC439F24FD9EF5002011B
:10536000386F32EC02F00401D707000ED85B6ED71D
:10537000D0D90401080ED75D000ED85938E3CE6BA2
:10538000CE51146E156A080E145C000E155825E2F5
:1053900062EC31F0E66E0401CE51EA6ACF0FE96E9D
:1053A000040EEA22E552E750EF6EE86805019C1909
:1053B00011E1E8689D190EE1E8689E190BE1E868C3
:1053C0009F1908E174EC31F00401CE518DD915D943
:1053D00066D9010C0401CE2BD3D7080E85D9080E4F
:1053E0000401D75F000ED85B010ECD6FC2D7CD513F
:1053F00002E003D954D974EC31F048D9FED83CD935
:10540000000C0401846B866B876B836B030EE66E66
:10541000E66A580EE66E710EE66E000EE66EF7C195
:10542000E6FFF8C1E6FF45D908E1040E0101F727C0
:10543000000EF8230401856B01D0020CF0D8EF5068
:10544000200802E143D9FAD775D9200E0401885DFE
:105450005EE088515CE00D0E885D59E00A0E885DC3
:1054600056E0FBC1E9FFFCC1EAFFEF50835D4FE26C
:105470008451020A15E0030A0DE0010A46E1835156
:1054800053D958D92F0E0401885D28E05C0E885D41
:105490003CE124D08351832B47D90401020E846F51
:1054A00049D93F0E885D18E0260E885D15E02B0E69
:1054B000885D04E1200EB3D8EF6E27D02E0E885DF4
:1054C00008E1830506E102D9F7C186F4F8C187F443
:1054D0001CD03D0E885D05E1A2D8EF6A010E846FF5
:1054E00014D02F0E885D03E05C0E885D0EE1010E86
:1054F0000101156AF725146EF85115220401830580
:1055000085D814C0EEFF15C0EDFFE0D89DD787D831
:10551000EF6A090EE0D8EF6E8651871137E086C436
:10552000E6FF87C4E6FF2DEC33F0E552E552F3CFFA
:1055300086F4F4CF87F40401BE0E896F6F0E8A6F74
:10554000000E8B6F886B8851146E156A0A0E145CFE
:10555000000E15581BE2030EE66EE66A89C4E6FFEC
:105560008AC4E6FF8BC4E6FF86C4E6FF87C4E6FF75
:10557000A0D804E1B0D888C4EFFF08D0040E04011D
:105580008927000E8A238B23882BDDD704018351C2
:1055900027E1090EE66EE66A5C0EE66E710EE66EB7
:1055A000000EE66EF9C1E9FFFAC1EAFFEECFE6FFB1
:1055B000EFCFE6FF79EC32F0146E070EE15E145087
:1055C000F9C1E9FFFAC1EAFFEE50EFCFEAFFE96E59
:1055D000090E18D8EF6A010E7ED8EF6E0401832BF6
:1055E000FBC1E9FFFCC1EAFF83C4EFFF8551120054
:1055F0007FC4E9FF80C4EAFF1200F5C1E9FFF6C1EC
:10560000EAFF1200E926000EEA221200020D010153
:10561000F951F324E96EFA51F420EA6E1200F7C151
:10562000E9FFF8C1EAFF1200156A166A176A030E4D
:10563000145C000E1558000E1658000E1758120074
:105640000A0EEB50030DF3CFE9FFF4CFEAFFF70E9C
:10565000E926000EEA221200EF500201376FD9EF5F
:1056600001F003510C0DF3CFE9FFF4CFEAFFD00EA8
:10567000E926010EEA221200EE5206C0EEFF15C026
:10568000EEFF16C0EEFF17C0EEFF120006C014F0CA
:1056900007C015F008C016F009C017F01200EF504F
:1056A0000201366FA8EF01F0F3CF14F0F4CF15F03C
:1056B00012002FEC32F0146E070EE15E1450000958
:1056C00012000201436F446B020112000101F72B2B
:1056D000000EF8231200FDC1E9FFFEC1EAFF12002F
:1056E00087DF050E02EF2BF002013D6F3E6B0201DA
:1056F000CF0E3B6F040E3C6F80DFEF5002013A6F1C
:105700009FEF02F075DFEF50120077DF060E02EF19
:105710002BF073DFA1DFF3CFD7F4F4CFD8F412006E
:1057200067DF9ADF54EF2BF071DFF7C1EEFFF8C1AE
:10573000EDFF120074DFEFCF88F41200426FE2DF5A
:1057400002013F6F47EF03F0DDDF0201356F71EFBC
:1057500001F0D8DF02014C6F37EF04F0D3DF020114
:06576000486F0EEF04F09B
:0A576600250EE66EB4C0E6FFB5C0E4
:10577000E6FFC0EC32F0E552E552E552F3CF00F41B
:10578000F4CF01F40401F350F41030E0010E90D98D
:10579000EF5001E11200020E8BD9EF5001E112002F
:1057A000020E86D9EFCF04F4010E82D9EFCF05F4B3
:1057B00004C4BEF005C4BFF0ACD8E66E04017ED9C7
:1057C00000C4B4F001C4B5F0020E0025026F000E53
:1057D0000121036F02C4E9FF03C4EAFF022B000E9C
:1057E0000323EF50E66E6AD9BEE0F4D7120004013D
:1057F000016B026B0001B6C0E9FFB7C0EAFFB62B30
:10580000000EB723EFCF00F4EF5021E02E0E04017D
:10581000005D08E1015167D9EF6A016B38D9022BAD
:1058200058D910D0300E005D03E30051390801E271
:10583000000C0151012B57D900C4EFFF025161D96F
:1058400001E3000C040101515CD9D4E3000C040114
:10585000015149D9EF6A1BD93CD9030E0401025DFD
:1058600001E0000C010C0401056B0001BA51BB11F1
:1058700047E00401006B100E036F270E046F050E46
:10588000005D41E2BAC008F0BBC009F003C40DF0EE
:1058900004C40EF004EC3BF008C001F409C002F4AB
:1058A00004010850091002E105511AE0300E0125EB
:1058B000E66E00011ED9E552E750EF6E01C408F014
:1058C00002C409F003C40DF004C40EF0D9EC38F0A2
:1058D00006500001BA5F0750BB5B0401010E056F63
:1058E0000A0E0D6E0E6A03C408F004C409F004EC3D
:1058F0003BF008C003F409C004F40401002BBFD737
:10590000F8D8300EEF6EBCC0E9FFBDC0EAFFEF6A09
:1059100012000001BF51460802E2200EBF5FBE51D7
:10592000460802E2200EBE5FBF51390802E2370E80
:1059300001D0300EBF5FBE51390802E2370E01D0F0
:10594000300EBE5FBF39F00BBE1112000001C0392E
:105950000F0BC06FE850090804E2410EC025F60F96
:105960001200300EC02512000F0E0001C117C151E8
:10597000090804E2410EC125F60F1200300EC125C0
:105980001200C3C0F3FFC2C0F4FF12000001C751F0
:10599000C41BC451C71BC751C41BC651C51BC5512D
:1059A000C61BC651C51BC4C006F0C5C007F0C6C0A3
:1059B00008F0C7C009F012000401C76BC86BC96BBF
:1059C000CA6BCAC0C3F4CBC0C4F4D890C433C333C9
:1059D000C8C0C5F4C9C0C6F4C3C414F0C4C415F02B
:1059E000C307000EC45B1450151018E0C5C4E9FFCE
:1059F000C6C4EAFF020EC527000EC623EECF14F080
:105A0000EFCF15F0000114500401C7270001155015
:105A10000401C823000EC923CA23DED70001CAA18E
:105A20000ED0C5C4E9FFC6C4EAFFEFCF14F00001F1
:105A300014500401C727000EC823C923CA23C7C4B2
:105A400014F0C8C415F0166A176AC9C418F0CAC49D
:105A500019F01A6A1B6A145018240401C76F1550F4
:105A60001920C86F16501A20C96F17501B20CA6F13
:105A7000C951C727CA51C823C7C414F0C8C415F0F8
:105A8000141E151E14C0F3FF15C0F4FF1200030E00
:105A9000E66E040EE66E7AEC34F0E552E552F35011
:105AA000E66EB8C014F0B9C015F00401025112003E
:105AB000EA6A0025E96E0151EA22120000C4E9FFFA
:105AC00001C4EAFF002B000E0123E552E750EF6E00
