:020000040000FA
:060000003BEF3EF0120090
:06000800EFEF31F01200E1
:06001800DDEF15F01200FF
:06002A000700BF7C00008E
:10003000FF01000001000000EE7C00000903000049
:1000400006000000EC7C000013030000020000002A
:10005000E37C00000003000009000000DF7C0000DA
:100060000F03000004000000D47C0000E900000041
:100070000B000000D27C0000FE0000000200000027
:100080000501235108EC12F059EC15F0EECFD5F232
:10009000EFCFD6F20201230ED55F000ED65BB0EC97
:1000A0001FF0F3CF83F4F4CF84F4230EADEC13F000
:1000B000000EE36F050EE46F5DEC21F083C4D5F212
:1000C00084C4D6F2B0EF1FF00501245108EC12F001
:1000D00059EC15F0EECFD3F2EFCFD4F20201230E9C
:1000E000D35F000ED45B9FEC1FF0F3CF83F4F4CF0B
:1000F00084F4230EB2EC13F0000EE86F050EE96FE6
:100100009CEC21F083C4D3F284C4D4F29FEF1FF09F
:100110000401006B00C414F017EC12F067E2005108
:100120001A0DF3CF01F4F4CF02F4000E0127010EF3
:1001300002232CEC12F074EC15F00A0EEF6E00C4E2
:1001400014F0156A166A176AB50E0B6E010E0C6E66
:100150000D6A0E6A00C406F015C007F016C008F05C
:1001600017C009F056EC3DF002C014F003C015F0C2
:10017000820E1426120E15222CEC12F0020E14C060
:10018000EBFF030E14EC15F05CEC15F013EC14F01F
:10019000142A15222CEC12F0040E14C0EBFF050EED
:1001A00014EC15F050EC15F013EC14F02CEC12F0EC
:1001B000060E14C0EBFF070E14EC15F033EC14F030
:1001C000EF9053EC15F0EF9253EC15F0EF9453ECE5
:1001D00015F0EF9653EC15F0EF9853EC15F0EF9AFD
:1001E00053EC15F0EF9C0401002B94D763EC14F052
:1001F00006C0E6FF07C0E6FF9BEC36F0E552E5528D
:1002000012000401006B00C414F017EC12F045E278
:1002100000511A0DF3CF01F4F4CF02F4000E0127C0
:10022000010E022331EC12F0180EEB500A0833E1F4
:1002300031EC12F033EC14F0EF8031EC12F074EC8E
:1002400015F0EF6A31EC12F025C5EEFF26C5EDFF83
:10025000BDEC15F065EC13F0BDEC15F063EC12F09D
:10026000C1EC15F06AEC12F0C1EC15F0FBEC12F0E9
:1002700005011F69206925C50CF526C50DF531EC72
:1002800012F0D5EC14F056EC12F000C424F51CDF8B
:10029000040100511200002BB6D7FE0C27C523F530
:1002A000EFDE0A0EE66EE66A000EE66E050EE66EFC
:1002B000280EE66E050EB7EC13F00AC532F50BC535
:1002C00033F5280E146E050E71EF12F0050134514E
:1002D00008EC12F074EC15F0EF50030801E0000C8C
:1002E000010C050135511A0DF3CFCDF4F4CFCEF446
:1002F000000E0401CD27010ECE2335C523F5C0DE47
:1003000070EC13F0180EEB50080A0FE00A0A09E02F
:10031000010A07E0020A18E135C57BF57DEC0DF016
:1003200013D07CEC14F0040E03D07CEC14F0090E16
:10033000EF6E7DEC11F070EC13F047EC14F070EC04
:1003400013F033EC14F0EF8235C524F564EF00F0C0
:10035000050136511A0DF3CFECF4F4CFEDF4000E95
:100360000401EC27010EED2336C523F589DE15ECDB
:1003700014F0080E30EC14F005010E51141802E1CF
:100380000F51151812E00501180E746F36C573F57C
:100390003AEC0AF07DEC11F015EC14F047EC14F097
:1003A00015EC14F033EC14F0EF8236C524F564EF4D
:1003B00000F0050137511A0DF3CF83F4F4CF84F424
:1003C000000E04018327010E842376EC12F0180E30
:1003D000EB50030809E076EC12F0180EEB50080819
:1003E00003E0F36AF46A120076EC12F0080E30ECC7
:1003F00014F076EC12F00A0E32EC15F021E376ECF4
:1004000012F0A3EC15F076EC12F059EC15F0A0EC1C
:1004100012F01606000E175A76EC12F0080EFBECDE
:1004200014F076EC12F07FEC15F0DDEC13F01A50BE
:10043000165C146E1B50175814C0F3FFF46E1200B4
:1004400076EC12F00A0E36EC14F076EC12F0080E90
:1004500057EC14F01406000E155A14C0F3FF15C023
:10046000F4FF1200050138511A0DF3CFDBF4F4CF7D
:10047000DCF4000E0401DB27010EDC2338C537F560
:1004800098DFF3CFDDF4F4CFDEF40401F350F41081
:1004900001E1000C010EDD1904E1DE5102E11AEC6C
:1004A00014F03BEC12F02FEC15F0200B15E13BECB7
:1004B00012F0DAEC15F03BEC12F062EC15F00401EE
:1004C000DD51145CDE51155807E31AEC14F03BECD7
:1004D00012F033EC14F0EF8A3BEC12F08EEC14F0D7
:1004E00039C5E7F291EC21F03BEC12F071EC15F01C
:1004F000E4EC13F03BEC12F0040E32EC15F008E3E0
:100500003BEC12F05CEC15F03BEC12F063EC12F0FB
:100510000401010EDD1904E1DE5102E11AEC14F0D0
:100520003BEC12F02FEC15F0040B08E13BEC12F061
:100530006EEC15F03BEC12F0ADEC12F0010C040186
:10054000DF6BE06B05013A511A0DF3CFE1F4F4CF04
:10055000E2F4000E0401E127010EE2233AC537F56B
:1005600028DFF3CFDDF4F4CFDEF40401F350F41010
:1005700005E11EEC14F0F36AF46A1200DDC4DBF44A
:10058000DEC4DCF4BFEC13F004E23DC5DBF43EC591
:10059000DCF4EEEC11F02FEC15F0200B15E1EEEC95
:1005A00011F0DAEC15F0EEEC11F062EC15F004014C
:1005B000DD51145CDE51155807E31EEC14F0EEEC2F
:1005C00011F033EC14F0EF8AE9EC14F0EE24146E21
:1005D000DC51EE20156EEEEC11F0040E32EC15F04D
:1005E0002CE3EEEC11F050EC15F0EEEC11F0080EEF
:1005F000DEEC14F0DF6FEE501558E06FEEEC11F00A
:100600008EEC14F0DFC4EAF2E0C4EBF2EBEC13F092
:100610000401DF5105013B270401E05105013C23A2
:100620000401DF51DB5FE051DC5BEEEC11F05CECD0
:1006300015F0EEEC11F063EC12F0EEEC11F08EEC34
:1006400014F0DBC4EAF2DCC4EBF2EBEC13F0E9ECFF
:1006500014F0EE26DC51ED22BFEC13F002E31EECA9
:1006600014F0EEEC11F02FEC15F0040B08E1EEECB9
:1006700011F06EEC15F0EEEC11F0ADEC12F004019F
:10068000DB51DF25146EDC51E02171EF12F0040123
:10069000D16BD26B05013F511A0DF3CFD3F4F4CFD8
:1006A000D4F4000E0401D327010ED4233FC537F53F
:1006B00080DEF3CFCFF4F4CFD0F40401F350F41084
:1006C00005E122EC14F0F36AF46A1200F3EC11F085
:1006D0002FEC15F0200B14E1F3EC11F0DAEC15F02F
:1006E000F3EC11F062EC15F0CF51145CD0511558B9
:1006F00007E322EC14F0F3EC11F033EC14F0EF8A82
:10070000CFC4CDF4D0C4CEF40401C7EC13F004E29E
:1007100043C5CDF444C5CEF4EEEC14F0EE24146ED3
:10072000CE51EE20156EF3EC11F0040E32EC15F004
:1007300030E3F3EC11F050EC15F0F3EC11F0080E8F
:10074000DEEC14F0D16FEE501558D26FF3EC11F0CF
:100750008EEC14F0D1C4EFF2D2C4F0F293EC13F0AB
:10076000D1C414F0D2C415F0166A14500501402704
:1007700015504123165042230401D151CD5FD2516F
:10078000CE5BF3EC11F05CEC15F0F3EC11F063ECE4
:1007900012F0F3EC11F08EEC14F0CDC4EFF2CEC4F5
:1007A000F0F293EC13F0EEEC14F0EE26CE51ED22C5
:1007B000C7EC13F002E322EC14F0F3EC11F02FEC91
:1007C00015F0040B08E1F3EC11F06EEC15F0F3EC0E
:1007D00011F0ADEC12F00401CD51D125146ECE51C3
:1007E000D22171EF12F046C5E6FF47C5E6FF9BEC4C
:1007F00039F0E552E552F3CF3DF5F4CF3EF546C56D
:100800003BF547C53CF545C53AF599DE050146512E
:10081000F324146E4751F42071EF12F049C5E6FF3E
:100820004AC5E6FF4BC5E6FFA9EC39F0E552E552B3
:10083000E55207C043F508C044F549C540F54AC52F
:1008400041F54BC542F548C53FF521DF196A050161
:100850004951F324146E4A51F420156E4B5119205E
:10086000166E14C007F015C008F0096E12004CC5D2
:100870004DF52FD8F3CF14F0F4CF15F0F350F4105A
:1008800027E005014C511A0DF3CFCDF4F4CFCEF48F
:10089000000E0401CD27010ECE234CC523F540ECFC
:1008A00000F0CDC4E9FFCEC4EAFF96EC15F0CDC44C
:1008B000E9FFCEC4EAFF6AEC12F00501100E746F76
:1008C0004CC573F53AEC0AF04CC524F564EC00F025
:1008D000120005014D511A0DF3CF9BF4F4CF9CF497
:1008E000000E04019B27010E9C23DCEC12F096EC19
:1008F00015F0DCEC12F00E0E32EC15F00FE3DCEC30
:1009000012F00C0E36EC14F0DCEC12F05FEC15F08B
:10091000EE50165C146EEE5017581BD0DCEC12F043
:1009200085EC15F036EC12F0DCEC12F00E0EC3EC98
:1009300014F0DCEC12F00C0EFBEC14F0DCEC12F01A
:1009400035EC15F0DDEC13F016501A24146E175028
:100950001B2071EF12F04EC54DF5BBDFF3CF02F453
:10096000F4CF03F4F350F41001E1000C05014E51F3
:100970001A0DF3CF00F4F4CF01F4000E04010027A8
:10098000010E0123E1EC12F05FEC15F0B4EC12F073
:100990004CEC21F04FC5E9FF50C5EAFFEF6EE1ECEA
:1009A00012F05FEC15F0E4EC13F0E1EC12F0BAECAD
:1009B00015F0B6EC14F008E2E1EC12F050EC15F092
:1009C000E1EC12F06AEC12F00401010E02190FE1E1
:1009D00003510DE14EC523F5D8EC14F04EC573F567
:1009E0003AEC0AF04EC524F564EC00F0010CE1ECA1
:1009F00012F02FEC15F0040B08E1E1EC12F06EECB4
:100A000015F0E1EC12F0ADEC12F0010C0401CF6B2B
:100A1000D06B050151511A0DF3CFD1F4F4CFD2F4BC
:100A2000000E0401D127010ED22351C54DF551DF2F
:100A3000F3CFCDF4F4CFCEF4050154510401F35CAF
:100A4000050155510401F45804E2CDC454F5CEC457
:100A500055F591EC14F005015451EE24146E5551E6
:100A6000EE20156E40EC12F0BAEC15F0B6EC14F076
:100A700037E240EC12F099EC15F091EC14F004011F
:100A8000EE50145CCF6FEE501558D06F010ECF278B
:100A9000000ED02391EC14F0B4EC12F0CFC4E5F2C8
:100AA000D0C4E6F2F1EC13F005015251531108E005
:100AB0000401CF51050152270401D05105015323F0
:100AC0000401CF510501545F0401D0510501555B6C
:100AD00040EC12F050EC15F040EC12F06AEC12F021
:100AE00091EC14F0B4EC12F054C5E5F255C5E6F201
:100AF000F1EC13F091EC14F005015451EE26555130
:100B0000ED2254510401CD5D146ECE5105015555B1
:100B1000156E1450545D155055590DE351C523F50C
:100B2000D8EC14F051C573F53AEC0AF051C524F530
:100B300064EC00F00ED040EC12F02FEC15F0040B3A
:100B400008E140EC12F06EEC15F040EC12F0ADEC68
:100B500012F0050154510401CF25146E05015551C1
:100B60000401D02171EF12F00501565108EC12F08A
:100B700099EC15F0565108EC12F035EC15F0040123
:100B8000EE50145C856FEE501558866F56C54DF5C6
:100B9000A0DEF3CF83F4F4CF84F40401F350855D39
:100BA000146E8651F45471EF12F005015A515B1125
:100BB00003E1F36AF46A120057511A0DF3CF15F4EA
:100BC000F4CF16F4000E04011527010E162357C5A5
:100BD0004DF57FDEF3CF00F4F4CF01F405015A5157
:100BE0005C25146E5B515D21156E04011450F35C9D
:100BF0001550F45801E2F6D021EC13F05FEC15F03B
:100C000005015C51EE240401046F05015D51EE20E5
:100C10000401056F21EC13F099EC15F00451145CFC
:100C2000055115580CE221EC13F0BAEC15F021EC4B
:100C300013F077EC15F01450045F1550055B04C4F5
:100C4000D5F205C4D6F2B0EC1FF021EC13F085EC20
:100C500015F004010451EE5C026F0551EE58036F6C
:100C6000010E0227000E03235CC504F45DC505F4E4
:100C70005AC506F45BC507F458C508F459C509F40C
:100C8000050158C5E9FF59C5EAFF582B5923EFCF95
:100C90000BF45E5109E0610E04010B5D05E30B519D
:100CA0007A0802E3E00E0B270401080E0C6FE850EF
:100CB000025D000E035902E202C40CF40C5105015E
:100CC0005A5D000E5B5902E25AC50CF404010C5146
:100CD000ADEC13F00D0EE36F040EE46F5DEC21F04C
:100CE00004010C51D9EC13F0025F1550035B025163
:100CF000031109E121EC13F035EC15F0B4EC12F01E
:100D000004010269036905015E513FE004010A6BB9
:100D10000C510A5D58E2BAEC12F0EFCF14F0610EFC
:100D2000145C0BE3BAEC12F0EF507A0806E3E00E25
:100D3000146EBAEC12F01450EF26BAEC12F0EF5029
:100D40000B5D0DE1F7EC13F02DE075EC13F0610E87
:100D500004010B5D18E30B517A0815E312D07FEC08
:100D600013F008C4E9FF09C4EAFF582B000E592309
:100D7000EFCF0BF4610E04010B5D05E30B517A0814
:100D800002E3E00E0B270A2BC3D704010A6B0C51B8
:100D90000A5D19E2BAEC12F0EF500B5D0DE1F7ECD1
:100DA00013F00CE104010651045D166E0551075560
:100DB000176E0A51E6EF12F07FEC13F075EC13F0AA
:100DC00004010A2BE4D70C51D9EC13F0005F155045
:100DD000015B05015A510401005D05015B510401ED
:100DE000015903E2F368F46812000C51D9EC13F0D6
:100DF00004271550052358D705016351641103E1F9
:100E0000F36AF46A12005F511A0DF3CF99F4F4CF2C
:100E10009AF4000E04019927010E9A235FC54DF53F
:100E200058DDF3CF83F4F4CF84F4050163516525D5
:100E3000146E64516621156E04011450F35C155054
:100E4000F45801E2FBD026EC13F05FEC15F005013D
:100E50006551EE240401876F05016651EE200401FF
:100E6000886F26EC13F099EC15F08751145C8851CB
:100E700015580CE226EC13F0BAEC15F026EC13F042
:100E800077EC15F01450875F1550885B87C4D5F256
:100E900088C4D6F2B0EC1FF026EC13F085EC15F008
:100EA00004018751EE5C856F8851EE58866F010E04
:100EB0008527000E862365C587F466C588F463C55B
:100EC00089F464C58AF460C58BF461C58CF462C58D
:100ED0008DF4050160C5F6FF602B61C5F7FFF3ECEB
:100EE00014F0675109E0610E04018F5D05E38F5135
:100EF0007A0802E3E00E8F270401080E906FE85095
:100F0000855D000E865902E285C490F4905105017A
:100F1000635D000E645902E263C590F404019051D0
:100F2000ADEC13F0910EE36F040EE46F5DEC21F075
:100F300004019051D9EC13F0855F1550865B855103
:100F4000861109E126EC13F035EC15F0B4EC12F043
:100F50000401856986690501675143E004018E6BD0
:100F600090518E5D5CE2C1EC12F0EFCF14F0610E97
:100F7000145C0BE3C1EC12F0EF507A0806E3E00ECC
:100F8000146EC1EC12F01450EF26C1EC12F0EF50C9
:100F90008F5D0DE1FEEC13F031E007EC13F0610E14
:100FA00004018F5D1CE38F517A0819E316D02BECF6
:100FB00013F08BC4F6FF602B8CC4F7FF000E612387
:100FC0008DC4F8FF62230800F5CF8FF4610E040191
:100FD0008F5D05E38F517A0802E3E00E8F278E2B99
:100FE000BFD704018E6B90518E5D19E2C1EC12F0F7
:100FF000EF508F5D0DE1FEEC13F00CE1040189511F
:10100000875D166E88518A55176E8E51E6EF12F085
:101010002BEC13F007EC13F004018E2BE4D7905166
:10102000D9EC13F0835F1550845B05016351040113
:10103000835D050164510401845903E2F368F46897
:1010400012009051D9EC13F087271550882354D7FC
:101050006CC55EF56AC55CF56BC55DF5010E0501F5
:101060005A6F5B6B0501690E586F050E596F68C5A5
:1010700057F5D5EF05F00401006B00C414F017EC30
:1010800012F001E356D100511A0DF3CF01F4F4CF61
:1010900002F4000E0127010E0223036B9FEC15F0F2
:1010A000400B06E0B5EC1DF0000902E0D2EC11F0B7
:1010B0009FEC15F0040B12E09EEC11F0140E36ECD0
:1010C00014F07BEC12F004E214500008000E1554EA
:1010D00005E30401035102E1D2EC11F09FEC15F09D
:1010E000080B12E09EEC11F0160E36EC14F07BECBF
:1010F00012F004E214500008000E155405E3040138
:10110000035102E1D2EC11F09FEC15F0020B01E16A
:101110000DD19EEC11F0100E79EC11F0EECF18F01D
:10112000EECF19F026EC14F018C0E6FF19C0E6FF68
:101130001AC0E6FF1BC0E6FF98EC3DF0E552E7CF92
:101140001BF0E552E7CF1AF0E552E7CF19F0E55270
:10115000E7CF18F000011850065C146E19500758BC
:10116000156E1A500858166E1B500958176E800ECF
:10117000171401E0DBD00401035104E100C423F59E
:1011800040EC00F005011A2BD8901B371C371D3797
:101190001E3798EC3DF0065005011B25146E0750D4
:1011A0001C21156E08501D21166E09501E21176E48
:1011B0009EEC11F047EC14F09EEC11F0180EEB5081
:1011C000090A01E19ED0010A01E182D00F0A01E182
:1011D000A6D0010A6CE0030A01E19CD0010A50E0AC
:1011E000070A1EE0010A04E0030A01E09BD013D0C5
:1011F0001A51050803E30501120E88D09FEC15F083
:10120000010B03E00501040E87D09EEC11F074EC95
:1012100015F0010EEF6ECFEC13F00501020E76D043
:101220009EEC11F00A0E30EC14F014500E1902E18D
:1012300015500F1901E176D01A51050816E36AEC32
:1012400014F015AE02D01668176825EC15F008E208
:101250003EEC14F015AE02D016681768C4EC11F01D
:1012600099EC14F00501180E51D04EEC13F09EECE1
:1012700011F074EC15F0040EEF6ECFEC13F044D0C7
:101280001A51050847E36AEC14F015AE02D016684F
:10129000176825EC15F008E23EEC14F015AE02D00C
:1012A00016681768C4EC11F099EC14F02DD01A519F
:1012B000050830E36AEC14F015AE02D01668176822
:1012C00025EC15F019E23EEC14F015AE13D010D059
:1012D0001A5105081FE36AEC14F015AE02D0166827
:1012E000176825EC15F008E23EEC14F015AE02D0BC
:1012F00016681768C4EC11F099EC14F00501100E93
:1013000005D01A51050806E30501110E746F18EC9B
:1013100015F008D00501140E746F18EC15F000C418
:101320007BF5EBDB00C424F564EC00F00401002B3A
:10133000A4D612006DC5E9FF6EC5EAFF85EC15F075
:10134000EECF14F4EECF15F4EECF16F4EFCF17F482
:101350006FC5E9FF70C5EAFFEECF18F4EECF19F4C0
:10136000EECF1AF4EFCF1BF404011C6B060E1D6FB9
:1013700071C51EF472C51FF471C5A8F072C5A9F03D
:1013800005EC2FF0F3CF1EF4F4CF1FF40C0E000188
:10139000B06FB16B0001140EAE6F040EAF6F20EC96
:1013A0002FF0F3CF21F4F4CF22F40401211F221FE8
:1013B00071C5DBF272C5DCF2F3EC1FF0F3CF23F45E
:1013C000F4CF24F40401F350211951E124512219DE
:1013D0004EE10001C06BC16B9AEC37F0140EADEC1E
:1013E00013F0000EE36F040EE46F5DEC21F00501D5
:1013F000000E796F040E7A6F43DB04010C5114EC7C
:1014000013F0146E156A140E145E000E155A14C0F3
:1014100025F41450146E156AE8500501715D716F62
:1014200015507259726F140E715F000E725B6DC5AC
:1014300077F56EC578F50501000E756F040E766FB1
:101440005CDA0401206FFE0E205D11E071C57FF5AE
:1014500072C580F50501000E7D6F040E7E6F20C4FD
:101460007CF596DB20C424F564EC00F0010CBCECA8
:101470001DF0010C050173511A0DF3CF83F4F4CF65
:1014800084F4000E04018327010E842356EC15F02A
:10149000EF9456EC15F0EF9C56EC15F0EF9656ECE9
:1014A00015F0EF98B5EC1DF00009FCE0050174B3F0
:1014B0000BD099EC11F0080E30EC14F00E5114180A
:1014C00007E10F51151804E10401AB6BAC6BC9D0F7
:1014D00099EC11F0080E30EC14F0C8EC12F02CE28C
:1014E00099EC11F071EC15F00E51EE5C0401AB6F4C
:1014F00005010F51EE5804013EEC15F003E3AEEC8C
:1015000014F002D05AEC14F054EC13F004E2ADC421
:10151000ABF4AEC4ACF4400ED880AB55020EAC5563
:1015200002E2A6EC15F0ABC4E1F2ACC4E2F243EC8B
:1015300013F09BEC13F095D099EC11F035EC15F00D
:101540000E51EE5C0401A96F05010F51EE58040124
:10155000AA6F99EC11F071EC15F0A951EE24146EFC
:10156000AA51EE20156E99EC11F0020EDEEC14F08B
:10157000AB6FEE5015583EEC15F003E3AEEC14F0F3
:1015800002D05AEC14F054EC13F004E2ADC4ABF406
:10159000AEC4ACF4400ED880AB55020EAC5502E29E
:1015A000A6EC15F0A951AD5DAA51AE5904E2ADC447
:1015B000A9F4AEC4AAF4400ED880A955020EAA55CB
:1015C00004E2400EA96F020EAA6FA9C4E1F2AAC4F8
:1015D000E2F243EC13F00401A951AB5DA96FAA51EB
:1015E000AC59AA6FA951AA1126E0A9C4E1F2AAC474
:1015F000E2F299EC11F059EC15F0EECFDFF2EDCFFD
:10160000E0F299EC11F035EC15F005010E51EE5CAD
:10161000146E0F51EE58156E166A176AA40E142632
:101620000C0E1522000E1622172214C0DDF215C072
:10163000DEF281EC20F09BEC13F099EC11F050EC11
:1016400015F0C8EC12F00DE399EC11F0DAEC15F09E
:1016500099EC11F0020E57EC14F014500E5F155077
:101660000F5B0CC587F40DC588F40AC589F40BC55A
:101670008AF4030E0501741509E0A4EC13F00401CB
:101680008B07000E8C5B8D5B8E5B02D0A4EC13F09D
:1016900016C58FF417C590F418C591F419C592F4C6
:1016A0000401949D949F939193939395939774C5FC
:1016B00094F4996B9A6BAB51050112270401AC515C
:1016C00005011323000E1423152399EC11F096EC59
:1016D00015F099EC11F00E0E32EC15F01EE399ECBA
:1016E00011F0BAEC15F099EC11F0040E57EC14F06F
:1016F00099EC11F00C0E79EC11F026EC14F099EC49
:1017000011F05FEC15F005EC14F004011850145CB6
:10171000956F19501558966F15D099EC11F00E0E63
:1017200030EC14F099EC11F00C0E79EC11F004018E
:10173000EE50145C956FEE501558966F010E955F44
:10174000000E965BE5EC1DF0F3CF85F4F4CF86F444
:101750000401400E855F000E865B800E861502E058
:10176000856B866B9551855D9651865909E2D00E41
:10177000855D070E865904E285C495F486C496F407
:101780000501870E796F040E7A6F7AD9140E040161
:10179000AB27000EAC239389939B938D939F0501F8
:1017A00074A326D0040E0401AB27000EAC23020E56
:1017B0009B6F040E9C6F020E9D6F400E9E6F010E7C
:1017C000146E930EE96E040EEA6EEF50F00BE842D1
:1017D000E842E842E84214240F0BF36EF46EF3463D
:1017E000F346F346F3460F0EEF14F310EF6EF4508A
:1017F00000C29FF401C2A0F402C2A1F403C2A2F489
:1018000006C5A3F407C5A4F408C5A5F409C5A6F444
:101810000401A76B060EA86FABC4A9F4ACC4AAF46C
:10182000ABC4A8F0ACC4A9F005EC2FF0F3CFA9F439
:10183000F4CFAAF40C0E0001B06FB16B00019F0E43
:10184000AE6F040EAF6F20EC2FF0F3CF97F4F4CF10
:1018500098F40401971F981F02017C0ED36F0C0EA1
:10186000D46F9FEC1FF0ABC4BEF0ACC4BFF000015E
:10187000060EBD6F0001000EBB6F050EBC6F27EC9E
:1018800037F0140EB2EC13F0870EE86F040EE96F18
:101890009CEC21F0050174A309D0040EB2EC13F006
:1018A0009B0EE86F040EE96F9CEC21F00201900E94
:1018B000D56F0C0ED66FB0EC1FF0ABC4DBF2ACC42E
:1018C000DCF2F3EC1FF0F3CF85F4F4CF86F40201E1
:1018D000A00ED36F0C0ED46F9FEC1FF0020EB2EC73
:1018E00013F0850EE86F040EE96F9CEC21F046ECD6
:1018F00021F00009FCE027EF1FF00401FE0E296F24
:101900009DEC14F059EC15F036EC12F09DEC14F04F
:101910001850EE24166E1950EE20176E02EC13F0DC
:101920000CEC14F002EC13F059EC15F01450EE1816
:101930002A6F1550EE182B6F286B28C414F017EC83
:1019400012F05BE22851A3EC14F0180EEB500A08D9
:1019500051E012EC12F0180EEB50000913E112ECFA
:1019600012F08AEC11F002EC13F0020E36EC14F0D7
:101970001650000114183EE1175015183BE128C419
:1019800029F438D012EC12F08AEC11F02A5100013F
:10199000141830E104012B51000115182BE128C463
:1019A00023F540EC00F002EC13F05CEC15F00501BF
:1019B0000C5114181FE10D5115181CE102EC13F025
:1019C000A3EC11F00A51161815E10B51171812E18A
:1019D0009DEC14F0EE5006190DE1EE5007190AE1E6
:1019E000EE50081907E1EE50091904E103E1040182
:1019F000285112000401282BA0D7FE0E295D01E119
:101A0000FE0C2951A3EC14F02AC4EEFF2BC4EDFF09
:101A1000C5EC15F063EC12F0C5EC15F065EC13F0B5
:101A2000C9EC15F0FBEC12F0C9EC15F06AEC12F001
:101A300012EC12F033EC14F0EF920A0EE66EE66A46
:101A400077C5E6FF78C5E6FF000EE66E050EB7EC3B
:101A500013F002EC13F0EECF0AF5EDCF0BF502EC2C
:101A600013F059EC15F0EECF0CF5EDCF0DF556EC6B
:101A700012F012EC12F0D5EC14F00401295112000E
:101A800094EC14F0A8EC11F0F3CFEEFF15C0EDFFCD
:101A900094EC14F0020EE2EC14F0020EF3CFEBFF24
:101AA000030E6CEC13F035EC15F045EC12F0040E5F
:101AB00088EC15F071EC15F045EC12F0080E88EC8E
:101AC00015F00E0EE2EC14F00E0EF3CFEBFF0F0E3E
:101AD0006CEC13F0100EE2EC14F0100EF3CFEBFFF1
:101AE000110E6CEC13F0120EE2EC14F0120EF3CFA8
:101AF000EBFF130E15C0EBFF120005017B511A0D11
:101B0000F3CF83F4F4CF84F4000E04018327010E95
:101B10008423CDEC11F02FEC15F0010B02E0000E48
:101B200001D00A0EE66ECDEC11F074EC15F0E55222
:101B3000E750EF6E9CEC15F0EF929CEC15F0EF94F3
:101B40009CEC15F0EF969CEC15F0EF989CEC15F0E2
:101B5000EF9A9CEC15F0EF9CCDEC11F00CC5EEFF6C
:101B60000DC5EDFFCDEC15F065EC13F0CDEC15F0E7
:101B700063EC12F0D2EC15F06AEC12F0D2EC15F036
:101B8000FBEC12F0CDEC11F0D5EC14F056EF12F0A6
:101B900005017C511A0DF3CF34F4F4CF35F4000E67
:101BA00004013427010E3523366B39EC14F0040B95
:101BB00007E0D2EC13F07CC57BF59FDFBCEF1DF096
:101BC00005011051111109E1CFDB5FEC15F0EE506A
:101BD000ED1003E03BEC15F0EF8CC6DB5FEC15F08D
:101BE000EECF10F5EDCF11F5E5EC14F0070A01E1A9
:101BF00011D10E0A01E1FAD0010A01E1F4D00E0A76
:101C000001E1D6D0030A01E1CCD0010A01E188D07C
:101C1000070A61E0010A46E0030A10E0010A01E058
:101C2000FCD039EC14F0020B03E1D2EC13F0EED04F
:101C300049EC15F03BEC15F0EF8223D039EC14F0B1
:101C4000020B01E1EAD082EC15F019E04DEC14F042
:101C500001E0E0D0EE50131901E0DCD0EE50141991
:101C600001E0D8D0EE50151901E0D4D001E0D2D077
:101C70000401100E366FADEC15F0BADB02D049EC62
:101C800015F072DB35EC15F0EECF16F5EECF17F54B
:101C9000EECF18F5EFCF19F50501162B17231823F2
:101CA0001923BBD082EC15F001E1B7D04DEC14F054
:101CB00001E0B3D0EE50131901E0AFD0EE5014198B
:101CC00001E0ABD0EE50151901E0A7D001E0A5D09E
:101CD000ADEC15F086D08CDB39EC14F0010B01E192
:101CE0009CD00501162B000E1723182319237F51B2
:101CF00080110AE10401110E366F05014EEC13F05C
:101D000044EC14F0090E06D00401100E366F44ECBA
:101D100014F0080EB3EC15F03BEC15F0EF827DD01B
:101D200039EC14F0010B17E082EC15F014E04DECE7
:101D300014F011E1EE5013190EE1EE5014190BE1FD
:101D4000EE50151908E107E1F2EC12F044EC14F042
:101D50000FEC13F020D082EC15F012E04DEC14F0F3
:101D60000FE1EE5013190CE1EE50141909E1EE5099
:101D7000151906E105E144EC14F0050EEF6E31D0C3
:101D800039EC14F0010B2DE0F2EC12F044EC14F0FD
:101D9000060EEF6EB2DAC3DA100EABDA14C0EEFF45
:101DA0001FD039EC14F0010B1CE0F2EC12F010D053
:101DB00082EC15F016E04DEC14F013E1EE5013191F
:101DC00010E1EE5014190DE1EE5015190AE109E188
:101DD00044EC14F00FEC13F0A2DA100E1CEC15F02A
:101DE000EDDA06DB1AD00401100E16D082EC15F0E5
:101DF00014E04DEC14F011E1EE5013190EE1EE5029
:101E000014190BE1EE50151908E107E17CC57BF5CB
:101E100074DE03D00401040E366F82EC15F001E18C
:101E200089D0E5EC14F00A0801E184D0E5EC14F067
:101E3000000901E17FD073DA7FEC15F0050103DBC7
:101E400015AE02D016681768120EE96E050EEA6E1E
:101E50001450EE5C0401266F1550EE58276F165093
:101E6000EE58286F1750EE58296F7BEC15F00501DE
:101E70008FDB0BE288EC14F014500401265F155040
:101E8000275B1650285B1750295B6EDA71EC15F052
:101E900004012651EE5C266F2751EE58276F28511A
:101EA000EE58286F2951EE58296FE834000E291991
:101EB00009E6D880000E2655000E2755000E28553D
:101EC000000E295537E288EC14F02651145C275196
:101ED000155828511658295117582CE33BEC15F08A
:101EE000EF9A1DDA7FEC15F02651EE262751ED22F0
:101EF0007BEC15F014DA040E32EC15F00BE30FDA7C
:101F0000DAEC15F00CDA020E57EC14F008DA0A0ECF
:101F100001EC15F0E5EC14F003080CE17BEC15F096
:101F200005010E51141806E10F51151803E13BECA1
:101F300015F0EF9246EC21F00009FCE0BCEC1DF03E
:101F40000401365106E036C474F57CC573F53AECED
:101F50000AF0120005018551861101E1000C2BECFD
:101F600014F035EC15F01651EE5C0401396F0501E3
:101F70001751EE5804013A6F05011851EE5804014B
:101F80003B6F05011951EE5804013C6F39C43DF413
:101F90003AC43EF4C9D996EC15F0C6D90E0E32EC0F
:101FA00015F015E3D7EC15F0040E57EC14F02BECFC
:101FB00015F026EC14F0B8D95FEC15F005EC14F030
:101FC0001850145C3F6F19501558406F10D0ACD9A1
:101FD0000E0E30EC14F0A8D90C0EDEEC14F03F6FAE
:101FE000EE501558406F010E3F5F000E405B3FC43E
:101FF00014F040C415F0166A176A3C511718E8AE81
:1020000002D0173408D01450395D15503A59165083
:102010003B5917503C5901E353D1BFDAE83401E38F
:102020004FD118500008000E195401E349D10401A2
:102030003E3504E23D510008000E3E5501E295D0C8
:10204000CAEC14F0146E156A3D51F35C0001C06FC8
:1020500004013E5115580001C16F9AEC37F004019C
:102060003D510501852704013E5105018623855117
:1020700016278651BDEC14F08551EE24146E86515E
:10208000EE20156E38EC15F0B6EC14F022E24CD9C7
:1020900099EC15F02BEC15F00401EE50145C376F41
:1020A000EE501558386F010E3727000E38238CEC90
:1020B00015F005DB6EEC14F002DB166E86510401A0
:1020C0003855176E31D935EC15F0A6DB2DD993DADA
:1020D0000BD068EC15F007EC15F02BEC15F00501B2
:1020E0008551EE268651ED2205011F1D01E1201DBF
:1020F00001E1E6D085511F5F8651205B21511F25EC
:102100000401376F0501225120210401386F800E30
:10211000381527E10501203504E21F510008000EA3
:10212000205501E2CDD004013751050116270401E5
:1021300038510501BDEC14F004013751EE26385139
:10214000ED22F2D896EC15F038EC15F0B6EC14F060
:1021500008E2D7EC15F077EC15F0E6D80C0E01ECA0
:1021600015F005011F692069ABD03E3501E3A8D009
:102170003D510008000E3E5501E3A2D0CAEC14F018
:102180000001C06FC16B9AEC37F02BEC15F0040125
:102190003D51EE24166E3E51EE20176E165005018D
:1021A0008525146E17508621D0EC14F01450185C5D
:1021B0001550195832E2D7EC15F00C0E78DBDBDB4A
:1021C00004013D51145C376F3E511558386F800E35
:1021D000381510E18CEC15F09CDADE6F81EC20F004
:1021E000040137510501855D79DBEECFDDF2EDCFDE
:1021F000DEF217D068EC15F004013D51EE24146EA8
:102200003E51EE20CDDB90D8040EBDDB020116500E
:10221000145CDD6F1750155803D068EC15F079DAAF
:10222000DE6F81EC20F005011F1D0BE1201D09E18F
:102230003DC41FF53EC420F585C521F586C522F5B0
:102240003FD01F5104013D5D0501205104013E595D
:1022500023E265D907E30401A0D91F51185C20517E
:10226000195805E285C521F586C522F510D01F5104
:102270002125146E20512221156E04013D51145C5C
:102280000501216F04013E5115580501226F3DC41F
:102290001FF53EC420F514D042D912E204017DD9C5
:1022A0001F51185C166E20511958176E2151165C7B
:1022B000146E22511758156E1450212715502223E1
:1022C00033D8CDDB100B01E0100C2ED8CCDAEF8820
:1022D0002BD8C5DB080B0CE127D8C5DAEF86F3DA7B
:1022E000A2DA22D8160E14C0EBFF170E15C0EBFFB2
:1022F000000CE926000EEA22120005011A6B8DDBA4
:10230000E2DA9EDBE80E1426030E1522000E1622DA
:1023100017221200EECF14F0EFCF15F0120034C4E4
:10232000E9FF35C4EAFF120081C5E9FF82C5EAFF73
:10233000120083C4E9FF84C4EAFF120001C4E9FF6C
:1023400002C4EAFF1200EECF16F0EFCF17F0120032
:10235000EECFA8F0EDCFA9F005EC2FF0F3CF14F0FD
:10236000F4CF15F094EF14F07DC5E9FF7EC5EAFFC8
:102370001200EE50165C146EEE501758156E1200D7
:10238000EF84A1DA280ECED31450125F1550135BE0
:102390001650145B1750155B120083C4E9FF84C408
:1023A000EAFF120000C423F503DB42DB00C424F57E
:1023B00064EC00F00401010E036F120015C0EEFF83
:1023C00016C0EEFF17C0EEFF1200EE50185C146E40
:1023D000EE501958156E166A176A1200E1C4E9FF2B
:1023E000E2C4EAFF1200D3C4E9FFD4C4EAFF12003A
:1023F0007FC585F580C586F57DC583F57EC584F5E9
:1024000034C481F535C482F5A5DD0401361312000C
:102410001A0DF3CFE9FFF4CFEAFF000EE926010E13
:10242000EA22120026C4E9FF27C4EAFF1200156A57
:10243000166A176A080E145C000E1558000E16581E
:10244000000E17581200EE500E5D146EEE500F592C
:10245000156E166A176A120001C4E9FF02C4EAFF8A
:10246000120001C4E9FF02C4EAFF1200EECF18F027
:10247000EFCF19F01200DBC4E9FFDCC4EAFF120061
:10248000D1C4E9FFD2C4EAFF1200EECFAAF0EECF2A
:10249000ABF0EECFACF0EFCFADF00AEC2FF006C012
:1024A00014F007C015F0CCDA94EF14F0A2EC36F07B
:1024B000F3CF12F5F4CF13F5A2EC36F0F3CF14F509
:1024C000F4CF15F51200080E14C0EBFF090E15C06D
:1024D000EBFF12000E0E14C0EBFF0F0E15C0EBFF4A
:1024E0001200156E14C0F3FFF46E120083C4E9FFEE
:1024F00084C4EAFF120016C0E6FF17C0E6FF98EC9E
:102500003DF0E552E7CF17F0E552E7CF16F0065061
:10251000165C146E07501758156EE83412003D51C2
:1025200005018525146E04013E5105018621156EB5
:102530001F512125166E20512221176EB6EF14F07F
:10254000EE50185C166EEE501958176E1200EECF52
:10255000D3F2EDCFD4F29FEF1FF0140E14C0EBFFB7
:10256000150E15C0EBFF1200EECFD5F2EDCFD6F26F
:10257000B0EF1FF00A51EA6A0D0FE96E040EEA226D
:1025800012008E51EA6A910FE96E040EEA221200DF
:1025900014500E5D15500F5912003D51050185254F
:1025A000186E04013E5105018621196E1200165065
:1025B000145C1750155812009BC4E9FF9CC4EAFF35
:1025C000120000C4E9FF01C4EAFF12000001162452
:1025D000146E000E1720156ECED914C0F3FF15C06F
:1025E000F4FF1200162B000E1723182319230401E1
:1025F000100E366F12000C0E14C0EBFF0D0E15C03E
:10260000EBFF120075C5E9FF76C5EAFF120060C551
:10261000F6FF602B61C5F7FF000EF3EF14F0070E15
:10262000EF6E51D920EF15F0F00BE842E842E84296
:10263000E842040DF3501200EECF0EF5EDCF0FF58A
:10264000120015C4E9FF16C4EAFF120099C4E9FF9D
:102650009AC4EAFF120089C463F58AC464F58BC486
:1026600060F58CC461F58DC462F5050112000E5150
:10267000EE5C1A6E0F51EE581B6E1A50165C146EFB
:102680001B50175812000EC5DFF20FC5E0F2020111
:10269000A40EDD6F0C0EDE6F81EF20F0122B000E0A
:1026A0001323142315231200156E14500401AD5F7B
:1026B0001550AE5BAB51AD5DAC51AE591200A7D910
:1026C000040137510501855D12000A0E14C0EBFFAD
:1026D0000B0E15C0EBFF120015C0EBFF94EF14F0CA
:1026E000CDC4E9FFCEC4EAFF120058C5E9FF59C5C1
:1026F000EAFF582B000E5923EFCF0BF4120006C44B
:102700005AF507C45BF508C458F509C459F5050125
:10271000120004013D51EE240201DD6F04013E511F
:10272000EE200201120040C5ECF241C5EDF242C5B7
:10273000EEF2B6EF21F00401AB5105010E270401C2
:10274000AC5105010F23120012C58BF413C58CF494
:1027500014C58DF415C58EF412000201E56FE66B09
:10276000020112000201EA6FEB6B02011200E66E39
:1027700039EC39F0146E060EE15E14501200DD5192
:1027800005013D5D0401DE5105013E591200CF51A6
:102790000501435D0401D0510501445912003DD9A2
:1027A0001A6B12000501040E746F7CC573F53AEFC5
:1027B0000AF0146E156A14501200EE501C5C1A6E6A
:1027C000EE501D581B6E1200EE2AED22EECF14F0D3
:1027D000EDCF15F012003BC5E8F23CC5E9F29CEFE5
:1027E00021F052C5E3F253C5E4F25DEF21F005019B
:1027F0005A07000E5B5B5A515B111200050163071B
:10280000000E645B635164111200EE501A5C186E86
:10281000EE501B58196E12001650EE24146E17500D
:10282000EE20156E1200C80E7DD1ECC4E9FFEDC498
:10283000EAFF120038C536F5A8EF01F03AC536F5C3
:10284000A8EF01F03FC536F5A8EF01F0EECF1AF082
:10285000EFCF1BF0120083C5E9FF84C5EAFF120029
:1028600048DD8AEF11F0190E79EF11F042DDA3EF88
:1028700011F07ADD0D0E3DDDEF5012005FDD63D902
:102880005DDD17D9E5EF11F04ADD74EF15F0100E9C
:1028900030DD14C0EEFFDEEF11F066DD22D9EE5020
:1028A000121912000201DF69E0692BEF15F021DD3A
:1028B000B9EF11F03EDD47D93CDDFBD841DE39DD13
:1028C0001ED937EF13F098EC3DF006C014F007C0A6
:1028D00015F0120033DD13D923EF12F00201E16F7E
:1028E00004013851050186590201E26F0201DF69D6
:1028F000E0691ADD35EF15F00501D0DE0501110E96
:10290000746F35C573F53AEC0AF0EADE74EF15F032
:1029100006DD19D904DDCDD8E5EF11F0E2D8A7EF37
:1029200012F0AEDD5FEF15F079C5E9FF7AC5EAFF79
:10293000120004DDE4D81CEF13F077C5E9FF78C579
:10294000EAFF85EF15F01A0DF3CF26F4F4CF27F444
:10295000000E2627010E272312EF12F0EADCCFD853
:10296000EE500E5D146EEE500F5912001450165CAE
:10297000155017581200010ED5D01723000E18233A
:1029800019232BEF15F0B5DCDBDD010E1626000E4A
:102990001722120060DF0C0EACDCEF5014EF13F0C6
:1029A000156EC2DCB2D836EF12F083D81CEF13F0EC
:1029B00040EC00F00501100E746F12009ADCEE502E
:1029C000145C120096DCA8EF11F0A9DC180EEB5095
:1029D000120004DD86D80401DB51120004DD81D829
:1029E0000401CD511200612362C5F8FF6223080083
:1029F000F5CF8FF412007DDCEECF1CF0EFCF1DF091
:102A0000120077DC1450EE5E1550ED5A1200EECF36
:102A1000DDF2EDCFDEF281EF20F0E80E1B6F030E4A
:102A20001C6F1D6B1E6B120015C0EBFF2CEF12F01C
:102A300000C473F53AEF0AF05CDC06C0EEFF12004A
:102A400008C016F009C017F012009EDC77DC0A0EF1
:102A500007DFC8EF12F068DC0C0E79EF11F003DF2E
:102A6000EF50120003DFD7EF12F0040E79EF11F0F0
:102A70005BDCBAEF15F053DC33EF14F0AC6F10C52C
:102A8000ADF411C5AEF455DC0A0EEADE0501C8EF5F
:102A900012F00401120E366FF7DE020EB3EF15F0DE
:102AA000040E30EF14F0D8DC33EF14F042DC33EFD7
:102AB00014F0020E79EF11F0020E30EF14F00E0E4A
:102AC00079EF11F0020EF3DED890153214321200B5
:102AD00085C5E1F286C5E2F252EF14F0C4DEC0EF24
:102AE00011F0080E79EF11F0180E79EF11F0040EC5
:102AF000DEDEBBEF14F013DC0A0E30EF14F00A0E2A
:102B000079EF11F0B6DE100B1200060E79EF11F01E
:102B100093DF54DC94EF14F037C4E1F238C4E2F2EE
:102B200052EF14F01426000E152212000C0E30EF96
:102B300014F0060E30EF14F030DC33EF14F09EEC9E
:102B400011F02FEF15F091DF36EF12F0400EAB6F62
:102B5000020EAC6FABDFEF8C120096DE030EEF6E51
:102B60008ADFEF921200EF6E7DEC11F08FEC11F026
:102B700047EF14F0060E36EF14F073DC9DDF31EFF3
:102B800012F06FDC8DDF31EF12F04CDC95DF12EFCD
:102B900012F048DC85DF12EF12F0CDEC11F08CDF83
:102BA000CDEF11F0CDEC11F07BDFCDEF11F060DF58
:0A2BB00094EF11F0040E36EF14F05C
:062BBA00D8CFE4FFE0CFDC
:102BC000E4FFE46EDACFE4FFE2CFDAFFE9CFE4FF1F
:102BD000EACFE4FFF6CFE4FFF7CFE4FFF8CFE4FF5E
:102BE000F5CFE4FFF3CFE4FFF4CFE4FFFACFE4FF47
:102BF000FBCFE4FF00EE00F0140EE80403E3EECF99
:102C0000E4FFFBD700EE14F00C0EE80403E3EECF74
:102C1000E4FFFBD7E652A1EC3DF0E55200EE1FF0D9
:102C20000C0EE80403E3E5CFEDFFFBD700EE13F055
:102C3000140EE80403E3E5CFEDFFFBD7E5CFFBFF80
:102C4000E5CFFAFFE5CFF4FFE5CFF3FFE5CFF5FFE2
:102C5000E5CFF8FFE5CFF7FFE5CFF6FFE5CFEAFFD9
:102C6000E5CFE9FFE5CFDAFFE550E5CFE0FFE5CFBF
:102C7000D8FF1000E66ADCEC3DF0E552EBDA8EECB2
:102C80003DF0FCEC32F0FADA81B065D098EC3DF022
:102C900006C0E3F407C0E4F408C0E5F409C0E6F4B4
:102CA00081B058D098EC3DF00401E351065C146EFD
:102CB0000401E4510758156E0401E5510858166ED9
:102CC0000401E6510958176ED880A00E14540F0E57
:102CD0001554000E1654000E17543BE20501A66B66
:102CE000A76BA86BA96B62EC30F00501AA6972ECC6
:102CF00030F09AEC30F00001D00EDB6F6A0EDC6F22
:102D0000000EDD6F07EC3CF0959A838A98EC3DF05D
:102D10000401E351065C146E0401E4510758156E7A
:102D20000401E5510858166E0401E6510958176E62
:102D30001734000E171809E6D880940E1454110E9B
:102D40001554000E1654000E175401E3DFD7FF0090
:102D500001D0A6D73EDBC8EC3CF0ABEC29F0CEECC2
:102D60003CF0C4EC29F040D8FF0E0301045D02E002
:102D700003010469F4D7120004010A6B0A51146EAE
:102D8000156A040E145C000E15582DE20001060EA3
:102D9000A26F040EA36F04010A51EA6A730FE96E71
:102DA000020EEA22EF500001A06FA16B77EC2EF02B
:102DB0000001060ED96F040EDA6FF2EC3BF004014D
:102DC0000A51146E156A030E141803E1155001E13F
:102DD000120087EC1CF0FDE100012E0EA7EC1CF0A8
:102DE00004010A2BCBD71200810EC26E0401640EBF
:102DF000026F025102070009FCE1C284C2B4FED78F
:102E0000C3CF02F4C4CF03F4330EE66E020EE66EB7
:102E100002C4E6FF03C4E6FF8BEC1CF0C40EC16ED7
:102E2000890EC26E0401640E026F0251020700098E
:102E3000FCE1C284C2B4FED7C3CF02F4C4CF03F412
:102E400002C400F403C401F40401013513E200518B
:102E50000008020E01550EE2000E005F020E015B3B
:102E60006CEC1CF0140E04010824006F000E092005
:102E7000016F11D0000ED8800057020E01576CEC84
:102E80001CF008C000F409C001F40401140ED8803D
:102E90000057000E01573B0EE66E020EE66E00C4B0
:102EA000E6FF01C4E6FF8BEC1CF0CE0EC16E1200F3
:102EB000300E0201775D1CE37751390803E3300ED1
:102EC000775D11D0410E775D13E37751460802E339
:102ED000410E07D0610E775D0BE37751660808E37A
:102EE000610E775D0A0F156AF36E15C0F4FF1200CC
:102EF000F368F468120078C2E9FF79C2EAFF92EC45
:102F00001CF00401836FE850030A10E0030A01E09B
:102F1000C2D0020E0201AEEC1CF092EC1CF00401D7
:102F2000846FE85001E0B7D0837AB5D002017A51BE
:102F3000020801E3B0D0040EAEEC1CF0EECFE6FFC9
:102F4000EFCFE6FF9BEC39F0E552E552F3CF14F0FA
:102F5000F4CF15F0200EF35C000EF45801E38FD08F
:102F60000401876B2CEC1CF0EF500DE087EC1CF09B
:102F7000FDE104012CEC1CF0EFCFD5F0D5EC3BF0DB
:102F80000401872BEFD756EC1CF0EF380F0B020A29
:102F900054E0030A01E07FD056EC1CF0010EFEEC79
:102FA0001BF0F3CF52F2F9EC1BF0020EFEEC1BF01B
:102FB000F3CF53F2F9EC1BF0030EFEEC1BF0F3CF52
:102FC00054F2F9EC1BF0040EFEEC1BF0F3CF5EF2B2
:102FD000F9EC1BF0050EFEEC1BF0F3CF5FF2F9EC01
:102FE0001BF0060EFEEC1BF0F3CF60F2F9EC1BF0C9
:102FF000070EFEEC1BF0F3CF55F2F9EC1BF0080EB8
:10300000FEEC1BF0F3CF56F2F9EC1BF0090EFEECD0
:103010001BF0F3CF57F2F9EC1BF00A0EFEEC1BF09D
:10302000F3CF61F2E6DB0B0EE9DBF3CF62F2E1DB1B
:103030000C0EE4DBF3CF63F22ED00401866B040E9A
:10304000865D29E2856B040E855D17E2D2DB010EF9
:10305000D3EC1CF0E552E750EF6ECBDB020ED3EC65
:103060001CF0010E96EC1CF0C4DB030ED3EC1CF03C
:10307000020E96EC1CF0852BE6D7862BE0D70001DC
:10308000100EA7EC1CF00001D56BD5EC3BF0000155
:10309000D569D5EC3BF00A0EE66EE66A560EE66E92
:1030A0007C0EE66E000EE66E78C2E9FF79C2EAFF9A
:1030B000EECFE6FFEFCFE6FF64EC39F0C9EF1CF08E
:1030C00002017B51200A5AE0370A45E0010A2EE04E
:1030D000120A24E0070A16E0010A08E0020A01E0E9
:1030E000B6D08350200B1DE1300E1ED0CADBC3DBEF
:1030F000C8DB01E1ACD07C2B000E7D23C2DB01E0FC
:10310000A1D0A5D0C6DBB7DBC4DB01E1A0D07C2B0E
:10311000000E7D23BEDB01E095D099D08150010BDC
:1031200002E0310E01D0300EA6DB91D07C517D1132
:1031300009E1400EE66EE66ACA0EE66E6A0EE66EBB
:10314000000EAFDBBCEC1CF001E181D0CEEC1CF03A
:1031500001E078D07CD07C517D1109E1400EE66E13
:10316000E66AB50EE66E6A0EE66E000E9ADBBCEC01
:103170001CF06DE0CEEC1CF065E169D07C517D1156
:103180005DE1806B0401846B040E845D57E2836B08
:10319000040E835D49E2856B030E855D38E2835141
:1031A0000C0DF3CF16F0F4CF17F0430E1626020ED7
:1031B00017228451030D1650F324146E1750F42077
:1031C000156E85510F011424E96E000E1520EA6E6C
:1031D000EF50E66EE66AC8DBAF0EE66E6A0EE66E8C
:1031E000000EE66EC1DB23EC3CF0186E090EE15ECA
:1031F0001850020E0401855D07E0B6DBAB0EE66EEB
:103200006A0EE66E000E1FDB0401852BC5D7030E88
:10321000835D07E0A9DBA70EE66E6A0EE66E000E80
:1032200012DB0401832BB4D79FDBA20EE66E6A0E7D
:10323000E66E000E08DB0401842BA6D79DDB07E0B9
:10324000ADDB05E07CC2F3FF7DC2F4FF1200F36842
:10325000F4681200959A839A810EC26E8E0EC16E2A
:10326000230E926EF19E200EAC6E900EAB6E800E11
:10327000AF6EAC84D08EF28EF28C12000201328DD1
:10328000328F1C6B040E1D6FA30E1E6F1F6B206B05
:10329000070E216FC00E006FA80E016F010E026FA6
:1032A000080E036F00C214F201C215F202C216F238
:1032B000176F046905690669076B04C218F205C235
:1032C00019F206C21AF207C21BF2C00E086FA80E4E
:1032D000096F010E0A6F0B6FC00E0C6FA80E0D6FF9
:1032E000010E0E6F0F6FC00E106FA80E116F010E42
:1032F000126F136F100EE66EE66A970EE66E6A0E98
:10330000E66E000EE66E220EE66E020EE66E64ECCF
:1033100039F0146E070EE9DA0401000E046F020E94
:10332000056F05019B6B9C6B9D6B9E6BE0EC2FF01A
:10333000EEEC2FF00401036F1DEC30F0600E040181
:10334000035D1FE10501010E9B6F9C6B9D6B9E6BE6
:10335000E0EC2FF00401036B0351EFDA10E2EEEC26
:103360002FF0E66E040104C4E9FF05C4EAFF042B54
:10337000000E0523E552E750EF6E032BEDD71DEF4E
:1033800030F0C3EF19F00401000E016F020E026F5E
:103390000501A66BA76BA86BA96B62EC30F0050169
:1033A000600EAA6F72EC30F00401006B0051C5DAB8
:1033B0000EE201C4E9FF02C4EAFF012B000E022362
:1033C000EFCFAAF572EC30F00401002BEFD79AEFA3
:1033D00030F00401AD6B0401AD5101E02DD10001CD
:1033E000550EDB6F6A0EDC6F000EAEDA390EDB6F46
:1033F0006A0EDC6F000EBDDA20C2ACF421C2ABF461
:103400000001910EA26F040EA36F21C2A0F020C292
:10341000A1F077EC2EF00001910ED96F040EDA6F57
:10342000F2EC3BF000011E0EDB6F6A0EDC6F000E4B
:10343000A0DA0001220ED96F020EDA6FF2EC3BF037
:103440000001FC0EDB6F690EDC6F000E92DA00C229
:1034500073F201C274F202C275F203C276F27ADA32
:10346000D60EDB6F690EDC6F000E83DA08C273F2D2
:1034700009C274F20AC275F20BC276F26BDAB30EAD
:10348000DB6F690EDC6F000E74DA04C273F205C2E2
:1034900074F206C275F207C276F25CDA8A0EDB6F4E
:1034A000690EDC6F000E65DA0CC273F20DC274F2A5
:1034B0000EC275F20FC276F24DDA5F0EDB6F690E47
:1034C000DC6F000E56DA10C273F211C274F212C22F
:1034D00075F213C276F23EDA440EDB6F690EDC6FD2
:1034E000000E32DA310EDB6F690EDC6F000E2CDA63
:1034F000190EDB6F690EDC6F000EDD6F07EC3CF020
:10350000CAEC3BF00009FCE00001160EDB6F690E0F
:10351000DC6F000E2EDAD3EC3BF0300A01E180D0F4
:10352000090A01E17BD0010A01E155D70F0A4EE0FB
:10353000010A47E0030A40E0010A39E0070A32E0E5
:10354000010A18E0030A01E046D782D9000901E127
:1035500042D7910EE66E040EE66E8CEC35F0E55225
:10356000E552F3CFABF4F4CFACF4F4CF20F2F3CFC9
:1035700021F231D720DA100E04DA0401915101E171
:103580002AD7100EE66EE66A910EE66E040EE66E1F
:10359000220EE66E020EE66E39EC39F0146E060E5F
:1035A000A4D919D70401000EA96F020E13D004018B
:1035B000080EA96F020E0ED00401040EA96F020EB0
:1035C00009D004010C0EA96F020E04D00401100EE4
:1035D000A96F020EAA6F3CD90001A50E9E6F040EC2
:1035E0009F6F0001910E9C6F040E9D6F3BEC2EF0BF
:1035F00000090DE0A9C4E9FFAAC4EAFFA5C4EEFFD3
:10360000A6C4EEFFA7C4EEFFA8C4EEFFE4D60001F7
:10361000F70EDB6F680EDC6F000E0CD00ED8DBD619
:103620000401010EAD6FAFDE0001E50EDB6F680E29
:10363000DC6F000E9ED9CFD612000401006B3AD980
:1036400098EC3DF006C08DF407C08EF408C08FF4EE
:1036500009C090F4890EE96E040EEA6EEE50040182
:10366000065C146EEE500758156EEE500858166E34
:10367000EE500958176EF40E145C010E1558000E2A
:103680001658000E175809E315D9837A40D9FEE180
:103690000001150ED56FD5EC3BF0CAEC3BF00009EC
:1036A000CFE0BBEC33F02AD90401010E076F04010F
:1036B000075101E17BD0CAEC3BF00009F8E0837AC6
:1036C000D3EC3BF00401016FE80404E1005102E196
:1036D000010E06D0040E015D04E1005102E1060E68
:1036E000006F0051060A51E0030A21E0010A0EE0D2
:1036F000070A0AE0010A06E0030A52E1086B026BBE
:10370000020E13D0030E11D0040E0FD00151022768
:103710000851082BEA6A090FE96E040EEA2201C477
:10372000EFFF800E085DC3E1050E006FC0D7EFD834
:10373000FEE104010251015D22E103C491F004C4E1
:1037400092F005C493F006C494F0C3EC33F0040186
:10375000016B800E015D0DE20151EA6A090FE96E0D
:10376000040EEA22EFCF95F0DEEC33F00401012BDA
:10377000F0D7FBEC33F0C2D80001060E02D00001F6
:10378000150EE5D80401006B92D7839A89EC33F0CB
:10379000BED8FEE10001060EDAD80401076B87D718
:1037A000B6D8FEE10001150ED2D881D712000F0E57
:1037B0008CD8EF6AC0C2E6FFC1C2E6FFF4EC39F074
:1037C000E552E5520401006B0F0E005D11E200515D
:1037D0007CD8EF500AE10F0E0401005D09E20051B0
:1037E000002B73D8200EEF6EF6D70401002BECD718
:1037F0001200040E0201B2D8D6EF1CF0E926000E2A
:10380000EA22EFCF77F258EF17F07C51EA6A800F87
:10381000E96E020EEA22EF501200F350E66E040148
:1038200085510C0DF3CF14F0F4CF15F0430E142690
:10383000020E15228651030D1450F324E96E155023
:10384000F420EA6E1200E66E8FD823EC3CF0A1D093
:10385000B2D8140EC1EF1CF08751146E156A040E15
:1038600002017CD81450EE24E76E1550EE20EA6E6B
:10387000E7CFE9FF12007EC2E9FF7FC2EAFFEF6EE9
:1038800012007C51EA6A330FE96E020EEA22EF5011
:1038900012007C51EA6A3B0FE96E020EEA22EF50F9
:1038A0001200E66E61D8CEEC39F073D0040E56D813
:1038B000D6EF1CF098EC3DF006C089F407C08AF4FE
:1038C00008C08BF409C08CF412000201EA6AC0251A
:1038D000E96EC151EA221200090E0D6E0E6A00C493
:1038E00008F001C409F0DDEF3AF0E15E1450020186
:1038F000220EC06F020EC16FD7EF1BF006C003F49B
:1039000007C004F408C005F409C006F41200BEECB8
:103910003BF00009120001EC36F0E552E552E552A9
:10392000E552120043D8EF50D00F1200E926000EE6
:10393000EA22E552E750EF6E1200146E156A330E5C
:10394000145C000E1558120014D800011200D56F37
:10395000D5EF3BF0BCEC16F000011200EA6A7825C6
:10396000E96E7951EA221200800EE66E020EE66ED2
:103970001200DD6F07EF3CF0020147DF7CDF05EF4F
:103980001CF0D46F0001910ED26F040ED36F97EF2D
:103990003BF0146E070EE15E145012007C2B000EFB
:1039A0007D2305EF1CF02ADF0DEF1CF0EE50EFCF6A
:1039B000EAFFE96E12000001080EDB6F690EDC6F92
:0839C000000ED7DF0001120028
:0839C8008A8693969496949A66
:1039D0009488200EC66E9E96C78CC79E65EC23F019
:1039E000E8CF01F4080E04010115F8E1011D010BF7
:1039F000F5E1D2EC21F00A0EE66E1BEC3EF0E5524A
:103A00000201010EC66FC26BC36B0201F56B0201AE
:103A1000080E8EEC23F0F56B0201090E5BEC23F02F
:103A20000C0E97EC23F00D0E5BEC23F00A0E97ECD6
:103A300023F00B0E8EEC23F06D0EF56F69EC23F086
:103A4000FEEC22F0050E8EEC23F06D0E88EC23F0D8
:103A50000201E76B91EC21F00201FD6B020EFE6F9B
:103A60006CEC22F002010D0EF56FCCEC22F002019D
:103A7000320EF56F41EC23F00201120EF56F69EC86
:103A800023F00201400EF56F53EC23F002013F0ECC
:103A9000F56F0201090E8EEC23F0120EF56F020194
:103AA000060E97EC23F0070E8EEC23F0EE0EF56F6A
:103AB00002010A0E8EEC23F0050EF56F02010B0ECB
:103AC000AAEC22F00201040EE5EC22F01CC2F5F291
:103AD00069EC23F01DC2F5F20201050EAAEC22F0FA
:103AE0001EC2F5F241EC23F01FC2F5F253EC23F0B5
:103AF00020C2F5F2CCEC22F021C2F5F23DEC23F02D
:103B00000201F56B6DEC23F00201120EA6EC22F01F
:103B1000E8CFC7F20201FB6B010EFC6F0201100E31
:103B2000FA6F56EC22F00201720EFB6F340EFC6F3E
:103B30000201140EFA6F56EC22F00201FB6BFC6BD3
:103B40000201FA6B56EC22F0E8EC22F00201040EBE
:103B5000F96F03EF23F00201010EF36F00EC22F086
:103B6000F350040B01E0010E12001BEC23F0080BD4
:103B7000080A01E0010E12000201C65101E0120024
:103B8000010EC66FC2C237F4C3C238F40401375FF6
:103B9000000E385B37C414F038C415F0ADEC22F0D9
:103BA00004E26B0E376F0C0E386F0201400E21ECF1
:103BB00023F037C4F5F202010C0EAAEC22F038C44F
:103BC000F5F202010D0EAAEF22F016EC23F002012D
:103BD000190EA6EC22F0E8CFAFF40E0E27EC23F07E
:103BE0000E0EA6EC22F0E8CFB1F402010F0EA6EC07
:103BF00022F0E8CFB2F416EC23F00201190EA6EC85
:103C000022F00401AF510001145CE1E10C0E27EC3D
:103C100023F00C0EA6EC22F0E8CFAFF402010D0E5B
:103C2000A6EC22F0E8CFB0F40401B151AF5DB2517F
:103C3000B0591BE26B0E186E0C0E196E1A6A1B6AD5
:103C4000AF51B15D1C6EB251B0551D6E1E6A1F6A38
:103C50001C50185C146E1D501958156E1E501A58C1
:103C6000166E1F501B58176E14D0AF51B11908E1D2
:103C7000B051B21905E16B0EF36E0C0EF46E12002A
:103C8000B151AF5D146EB051B255156E1406000EF1
:103C9000155A14C0F3FF15C0F4FF12000201190EEB
:103CA000FD6F010EFE6F6CEC22F00201190EF16F38
:103CB00081DB146E14C014F40201FD6BFE6B6CEC1E
:103CC00022F00401145102E1000E8CD00201C65111
:103CD00003E152DF000E86D0C2C2C4F2C3C2C5F2F5
:103CE000C4C2F5F20201F46BB1DBC5C2F5F2020108
:103CF000010EF46FABDB140E0201E56FE66B0201FF
:103D0000000EE36F040EE46FD8DA12C4A8F013C4F7
:103D1000A9F005EC2FF0F3CF12F4F4CF13F400C4A4
:103D200014F001C415F0166A176AD8806B0E14548B
:103D30000C0E1554000E1654000E17541BE304010C
:103D400004010051010B16E1040104010551800B2F
:103D500011E1040104010451100B0CE10401EE0E09
:103D6000D8800255050E035505E3040104010451F2
:103D7000800B01E1FF0000C4C2F201C4C3F2060ED1
:103D8000E66EE66A0C0EE66E040EE66EC8C2E9FF49
:103D9000C9C2EAFFE9CF14F0EACF15F014C0E6FF7C
:103DA00015C0E6FF39EC39F0166E060EE15E1650CE
:103DB000CAC2E9FFCBC2EAFFEF68080E0401135D37
:103DC0000DE10401125104E0060E0401125D06E14A
:103DD000CAC2E9FFCBC2EAFF12C4EFFF0201C66B01
:103DE000010E00D0120002016E0E88EC23F07B0E53
:103DF0000201CF270C0ED023CFC2F5F20201060E2E
:103E0000A9DBD0C2F5F20201070EA4DB060E020107
:103E1000EA6FEB6BCCC2E8F2CDC2E9F28DDA060EA6
:103E20000201EA6FEB6B02011C0EE86F020EE96FF4
:103E300083DA0201080EE76F74DA0201CE5102E163
:103E4000000E01D0060E0201E76F91EF21F091DB29
:103E5000050E0201C75D03E0060EC75D56E10401D1
:103E6000AF6BB06B57EC23F00A0E0001141409E19C
:103E70000401AF2B000EB023E80EAF5D030EB05966
:103E8000F1E357EC23F00001E850020B06E10401D6
:103E9000E80EAF5D030EB05938E3B7DB81DBE8CF46
:103EA000B1F445EC23F0E8CFB2F40201060E4EDB8C
:103EB000E8CFB3F40201070E49DBE8CFB4F4040104
:103EC000B32B000EB42380EC23F0BC6B100EBC5D52
:103ED00016E257EC23F00001E850020B10E0040159
:103EE000B851200B0CE045DB57EC23F00A0E000123
:103EF0001414FAE08ADB80EC23F0BC2BE7D7B1C4C2
:103F0000F5F24ADBB2C4F5F2C9DB120082DBD1253F
:103F10000401496F15500201D22104014A6F49C4BE
:103F200014F0156E1ADB04E26C0E495F0C0E4A5B4E
:103F300049C4F5F231DB4AC4F5F23DEF23F0D1DBA1
:103F4000E8CFAFF4D2DBE8CFB0F4D3C2F5F299DB1F
:103F5000D4C2F5F2A8DBAFC4F3FFB0C4F4FF120083
:103F60001FDBE8CFAFF491DBE8CFB0F4D5C2F5F2B8
:103F700013DBD6C2F5F281DBAFC4F3FFB0C4F4FFAC
:103F8000120047DBD7250401166F15500201D82116
:103F90000401176F16C414F0156EDFDA04E26C0E1C
:103FA000165F0C0E175BFCDAE8CF18F46EDBE8CF77
:103FB00019F416C4F5F2F0DA17C4F5F25EDBD9C2D3
:103FC000DBF2DAC2DCF20FD8F3CF16F4F4CF17F439
:103FD00018C4F5F2E1DA19C4F5F24FDB16C4F3FFA9
:103FE00017C4F4FF12000401B16BB26BB36BB46B76
:103FF000D7DAE8CFAFF449DBE8CFB0F40201DB5108
:10400000DC1151E0140ED880DB55000EDC5505E2C2
:104010000401140EB56FB66B04D0DBC2B5F4DCC27C
:10402000B6F4B5C4E5F2B6C4E6F20201B70EE36F2A
:10403000040EE46F42D90401B5510201DB5F0401B3
:10404000B6510201DC5B0401B5A10AD0B70EB5255B
:10405000E96E040EB621EA6EEF6AB52B000EB623A8
:10406000B70ECB6F040ECC6FB551B611C7E0CBC401
:10407000E9FFCCC4EAFF020ECB27000ECC23EECF23
:1040800014F0EFCF15F0000114500401B127000126
:1040900015500401B223000EB323B423020EB55F02
:1040A000000EB65BE1D7AFC4F5F276DAB0C4F5F234
:1040B000E4DAB1C414F0B2C415F0166A176AB3C4D6
:1040C00018F0B4C419F01A6A1B6A145018240401B9
:1040D000B16F15501920B26F16501A20B36F1750D8
:1040E0001B20B46FB351B127B451B223B1C414F043
:1040F000B2C415F0141E151E14C0F3FF15C0F4FF52
:1041000012000401B36BB46B0201DEAF09D00401ED
:10411000010EB36FE6DAE8CFDDF2E7DAE8CFDEF2E0
:104120000201E0AF09D00401010EB46F39DAE8CF23
:10413000DFF2ABDAE8CFE0F20201010ED880E15500
:10414000000EE25540E30401B45106E129DAE8CF5C
:10415000AFF49BDAE8CFB0F40401B35106E1C1DA61
:10416000E8CFB1F4C2DAE8CFB2F4DFC2F5F214DA84
:10417000E0C2F5F282DADDC2F5F283DADEC2F5F2F0
:104180000201030EF46F62D90201E1C214F0E2C22F
:1041900015F0E107000EE25B1450151005E07CD825
:1041A0000201E76FBED8F0D70401B45106E1AFC4F5
:1041B000F5F2F2D9B0C4F5F271DA0401B35165E158
:1041C000B0DA53EF23F00401B3510FE00201DD51E7
:1041D000E1250401B16F0201DE51E2210401B26F59
:1041E000A0DA0201030EF46F31D937DA1406000E9B
:1041F000155A14500201E1271550E22302011F0E47
:10420000A5D9000114BAFAD7DFC2F5F20201100EE7
:10421000A1D9E0C2F5F20201110E9CD9DDC2F5F27E
:1042200068DADEC2F5F259DA18DA97D907E3BDD9B0
:1042300005E26C0E0201E15F0C0EE25BE1C2F5F2F9
:104240000201120E87D9E2C2F5F20201130E82D9E1
:104250000201100E0CDA0201200EF96F1ADA0401C5
:10426000B45113E00201E12B000EE223F6D975D917
:1042700006E39BD904E26C0EE15F0C0EE25BE1C247
:10428000F5F28AD9E2C2F5F209DA1200D4D9200B8C
:10429000200A01E0010E12008A969E963A0EC96E1F
:1042A0009EA6FED79E96C96A9EA6FED7C9CFB5F434
:1042B0009E968A860401B55112008A969E963A0E01
:1042C000C96E0401E76BE86B0201E307000EE45BD3
:1042D0009EA6FED79E960201E5510401E75D02010C
:1042E000E6510401E85917E2C96AE72B000EE823FA
:1042F0000201E351E4110CE0E32B000EE4239EA63F
:10430000FED7C950E3C2E9FFE4C2EAFFEF6EE2D78D
:104310009EA6FED7DFD78A86E7C4F3FFE8C4F4FF82
:104320001200A0D99EA6FED79E96E7C2C9FF9EA600
:10433000FED79E968A86120095D99EA6FED7C9CF33
:10434000C3F49E960201EA51EB110EE0E8C2E9FFC8
:10435000E9C2EAFFEF50C96EE82B000EE923EA0735
:10436000EB5B9EA6FED7EBD78A8612007BD99EA672
:10437000FED79E960201EF51F01112E0ECC2F6FF5B
:10438000EDC2F7FFEEC2F8FF0800F550C96EEC2B46
:10439000000EED23EE23EF07F05B9EA6FED7E9D7D4
:1043A0008A8612008A969E96C9689EA6FED79E9619
:1043B0008A8612008A969E96F1C2C9FF9EA6FED7F3
:1043C0009E96C96A9EA6FED7C9CFE7F49E968A86B6
:1043D0000401E75112008A969E96F2C2C9FF9EA67A
:1043E000FED79E96C96A9EA6FED79E96C96A9EA6CD
:1043F000FED7C9CF02F49E968A86040102511200AC
:10440000F8D8F3C2F5F275D90201010EF56F020179
:10441000120E56D902010A0E05D9000114B0FAD7BE
:10442000E8D80201F56B0201120E94D80201180EB1
:10443000F9D8E8CF00F40201190EF4D8E8CF01F45E
:10444000C7D800C4F3FF01C4F4FF12008A969E96F9
:10445000400E0201F411C96E9EA6FED79E96F5C2CB
:10446000C9FF9EA6FED79E968A8612008A969E96C1
:10447000A00E0201F611C96E9EA6FED79E96F7C247
:10448000C9FF9EA6FED79E968A8612008A969E96A1
:10449000800E0201F811C96E9EA6FED79E96F9C243
:1044A000C9FF9EA6FED79E968A861200A2D8FAC29F
:1044B000F5F21FD9FBC2F5F20201160E4BD8FCC271
:1044C000F5F20201170EFCD802010A0EABD800016A
:1044D00014B0FAD7E8EF22F00201030EC8D8FEC2EA
:1044E000F9F291D00201040EC2D8EFD8000114B441
:1044F000FCD702011F0E2AD8000114B6FAD7020118
:10450000200E21EF23F00201200EF76F02011E0E94
:10451000F66FACDFDAD8000114A0FCD70201040E5C
:10452000F96F71D00201150E50D8FFC2F5F2D5D83F
:10453000E8EF22F00201150E48D80201150E06D848
:10454000E8CF00F445D8040100511200F16F32DFCA
:10455000146E1200F46F26EF22F0166A176AD880E4
:104560006B0E14540C0E1554000E1654000E1754F6
:1045700012000201800EF96F8CD80201800E77D8EC
:1045800002010A0EF76F02011C0EF66F6FDF0201C7
:10459000080EF96F49EF23F00201F46B26EF22F0C9
:1045A0000201F16B07DF146E1200E1C218F0E2C2E3
:1045B00019F01A6A1B6AD8806B0E18540C0E195425
:1045C000000E1A54000E1B541200FD6F030E95D0FE
:1045D0000201FD6BFE6B6CEF22F0070E0201E56F2E
:1045E000E66B0201B50EE36F040EE46F66DE0401B4
:1045F00012000201140EFD6F020E7FD002010C0E9C
:10460000F56F0201120049EF23F00201080E37EFA7
:1046100023F0140E0201156AC425146EC55115222B
:1046200014501200F26FD7DE146E12000201190E40
:10463000FD6F010E62D002011F0EF16FBBDEE8506C
:104640001200F96F02011E0EF86F46EF22F0020110
:10465000FD6FFE6B41DF02011200DFC214F0E0C209
:1046600015F012008A969E967A0EC96E1200F76FA8
:1046700002011F0EF66F36EF22F00201010EAAEFC3
:1046800022F00201020EAAEF22F00201010EA6EFB3
:1046900022F002011F0EF86F46EF22F00201010E18
:1046A000F46F26EF22F00201030EAAEF22F00201BE
:1046B0001C0EA6EF22F032D86B0EF56F020112002D
:1046C00049DF02010A0EE5EF22F002011D0EA6EFFE
:1046D00022F00201040EAAEF22F00201150EAAEF49
:1046E00022F00201020EA6EF22F00201030EA6EF55
:1046F00022F00201140EAAEF22F0FE6F6CEF22F0FE
:10470000B3C4F5F249DFB4C4F5F2B7DFEDEF22F040
:10471000F56FB7DF73DF030EAAEF22F01BDF020194
:104720001200B1C4F5F2ADDFB2C4F5F2120012DF2F
:04473000FEEF22F086
:0C473400D6EC28F0FB0EDBCFF3FFDB0619
:10474000F35000090AE024EC29F0FA0E8FEC29F06E
:10475000F3E1151CF1E1010E01D0000E05EF29F087
:10476000D6EC28F03B0EE12402E3E168E652E16E6C
:10477000010EDB6A020EDB6AF90EDBCFF6FFFA0EE2
:10478000DBCFF7FFFB0EDBCFF8FF0800F550DF6E45
:10479000DF5002E129EF28F0250EDF5C02E01CEF7C
:1047A00028F0030EDB6A040EDB6A050EDB6A060ED8
:1047B000DB6A070EDB6A3EEC28F02D0EDF5C0CE0B6
:1047C0002B0EDF5C09E0200EDF5C06E0230EDF5CD1
:1047D00003E0300EDF5C1AE1DF50300A14E0130A08
:1047E0000FE0030A0AE00B0A05E0060AE4E1030E03
:1047F000DB80E1D7030EDB82DED7030EDB84DBD761
:10480000030EDB86D8D7030EDB88D5D72A0EDF5CF4
:104810001BE13AEC28F088EC28F010E0030EDB8076
:1048200008680968130EDBCF0DF0140EDBCF0EF015
:104830006AEC3BF0040E06C0DBFF03D0130E71ECF4
:1048400028F03EEC28F00BD0090EDB6ADFEC28F0F4
:1048500003E053EC29F0FAD7090E71EC28F0030EAF
:10486000DBB0DB982E0EDF5C1BE13EEC28F02A0E5D
:10487000DF5C0BE13AEC28F088EC28F003E1130E42
:10488000C3EC28F03EEC28F00BD0090EDB6ADFEC1D
:1048900028F003E053EC29F0FAD7090EC3EC28F016
:1048A000680EDF5C07E13EEC28F0680EDF5C1DE17E
:1048B000030E18D0740EDF5C17E07A0EDF5C14E094
:1048C000480EDF5C06E0540EDF5C03E05A0EDF5C4E
:1048D00002E1020E07D06C0EDF5C03E06A0EDF5CC3
:1048E00004E1010E16EC29F0C9DBDF506E0A01E18C
:1048F0007FD31E0A01E192D1200A01E18FD13F0A44
:1049000001E149D11A0A01E146D10D0A01E143D181
:10491000200A01E140D13A0A01E13DD1200A01E13A
:104920003AD1260A01E135D10D0A01E132D11A0A44
:1049300001E1D9D0200A4AE0300A1FE0460A0EE021
:10494000250A01E083D3D950F90FE96EFF0EDA2072
:10495000EA6E010EEE5E000EEE5AEE5A24EC29F0DD
:10496000250EE66E95DB03E1151C01E169D320EC11
:1049700029F001E26BD3DB2A69D3080EDB6A040E4F
:10498000DB50010806E2040EDB04E8EC28F0DB5003
:104990008BDB080EDB5009E0030EDB50010B05E159
:1049A00072DB01E04DD3080EDB6A64DBEFCFDFFF83
:1049B00098EC29F003E1151C01E142D320EC29F029
:1049C00001E3DB2A60DB01E141D33AD3070EDB5080
:1049D00002080FE164EC29F0030E2BEC29F00E0E17
:1049E000EECFDBFF0F0EEECFDBFF100EEECFDBFFC7
:1049F00020D0F70EDBCF17F0F80EDBCF18F0020E49
:104A0000175E000E185AF70E17C0DBFFF80E18C01D
:104A1000DBFF17C0E9FF18C0EAFF1BEC29F0166A9C
:104A20000E0E14C0DBFF0F0E15C0DBFF100E16C0FC
:104A3000DBFF0E0EDBCFE6FF0F0EDBCFE6FF100E27
:104A4000DBCFE6FFA9EC39F0E552E552E552130E53
:104A500007C0DBFF140E08C0DBFF060EDB5005E0CD
:104A6000130E5FEC29F001E26ADB83EC29F002E22D
:104A7000130E37DB46EC29F006E0040E5FEC29F05C
:104A800002E2050E2EDB030EDBB005D0FCDA01E0FE
:104A9000D7D2080EDB6A090EDB6A0E0EDBCFF6FFFB
:104AA0000F0EDBCFF7FF100EDBCFF8FF0800F5503D
:104AB000DF6EDF5014E089EC29F011E298EC29F068
:104AC00003E1151C01E1BCD2BBDB01E3DB2A090ECB
:104AD000DB2AD9500E0FE96E000ECBDBE7D7D3DA15
:104AE00001E1B4D2ADD2C6DA110EEECFDBFF120E69
:104AF000EDCFDBFF110EDBCFE6FF120EDBCFE6FFC3
:104B00009BEC39F0E552E552130EF3CFDBFF140EA8
:104B1000F4CFDBFF060EDB5004E0130ED0DB01E226
:104B20000EDB83EC29F002E2130EDBDAAFDB05E0EB
:104B3000040EC5DB02E2050ED4DA030EDBB005D0AD
:104B4000A2DA01E07DD2080EDB6A090EDB6A110EE3
:104B5000DBCFE9FF120EDBCFEAFFEFCFDFFFDF5045
:104B600014E0D7DB12E2E4DB03E1151C01E168D2BB
:104B700067DB01E3DB2A090EDB2A110EDB2ADBCF20
:104B8000E9FF120EE8E3DB2AE6D77DDA01E15ED227
:104B900057D2030EDB8E070EDB0410E195DB040E0B
:104BA0005ADB0A0EEECFDBFF0B0EEECFDBFF0C0E57
:104BB000EECFDBFF0D0EEECFDBFF6CD0070EDB5030
:104BC00003082CE1030EDBAE0DD0B2DA020E76DA6A
:104BD000EFCF14F0156A166A176A14AE39D015684B
:104BE000166835D0F70EDBCF15F0F80EDBCF16F0D8
:104BF000020E155E000E165AF70E15C0DBFFF80EFA
:104C000016C0DBFF15C0E9FF16C0EAFFEFCF14F0B6
:104C10000A0E14C0DBFF0B0EDB6A38D0070EDB5028
:104C2000020809E1030EDBAE04D059DB16AE10D04A
:104C30000ED055DB0DD0030EDBAE12D079DA020EAA
:104C40003DDAF9DA166A176A15AE02D016681768E7
:104C5000E2DA0C0E16C0DBFF0D0E17C0DBFF1AD018
:104C6000F70EDBCF16F0F80EDBCF17F0020E165E54
:104C7000000E175AF70E16C0DBFFF80E17C0DBFF49
:104C800016C0E9FF17C0EAFFD6DAC5DA0C0EDB6AF8
:104C90000D0EDB6A060EDB5005E1010EF36E050E0C
:104CA000F3CFDBFF150EDB6A160EDB6AD950370F28
:104CB000146E000EDA20156E390E14C0DBFF3A0EAA
:104CC00015C0DBFF380EDB6A080EDB6A0A0EAEDAAF
:104CD000DF50780A12E0200A10E0280A0CE0200ACF
:104CE0000AE03F0A06E00D0A02E0200A08E1020E8F
:104CF00005D0080E03D0080EDF26100E97DA030E3B
:104D0000DBBE02D0DB92DB94DB50800B24E08ADA3E
:104D1000D890030EEB50000A08E6000EEE5C000E81
:104D2000EE58000EEE58000EEE5815E213DA0B683E
:104D30000C680D680E6856EC3DF00A0E02C0DBFFF1
:104D40000B0E03C0DBFF0C0E04C0DBFF0D0E05C015
:104D5000DBFF2D0E08D0030EDBA202D02B0E03D0FA
:104D6000DBA408D0200EF36E170EF3CFDBFF150E79
:104D7000DB2A02D0170EDB6A050EDB5003E1B7D940
:104D800001E189D0AE0E146E7C0E156E000E166E0B
:104D9000070EDBCF17F0186A196A1A6A17C00BF0F2
:104DA00018C00CF019C00DF01AC00EF0D3D9B8EC31
:104DB0003DF014500224F36E15500320F46E16508B
:104DC0000420F86EF4CFF7FFF3CFF6FF0800090ECA
:104DD000F5CFDBFF580EDF5C0FE1610EF36E090EBD
:104DE0007BD90AE3200E146E090EDBCFE7FF1450C7
:104DF000E75E090EE7CFDBFF070EDBCF14F0156A85
:104E0000166A176A0FDA14C00BF015C00CF016C042
:104E10000DF017C00EF0EECF06F0EECF07F0EECF9C
:104E200008F0EFCF09F0B8EC3DF009C0EDFF08C085
:104E3000EDFF07C0EDFF06C0EFFF390EDBCFE9FF46
:104E4000DB063A0EDBCFEAFF01E2DB06090EDBCF21
:104E5000EFFF150EDB2A4BD995E1030EDBA61DD023
:104E60006F0EDF5C06E1C1D918E3150EDB285BDAB3
:104E700014D0780EDF5C09E0580EDF5C06E0620EAD
:104E8000DF5C03E0420EDF5C08E1020EF36E160EFB
:104E9000F3CFDBFF02D0150EDB6A030EDB50100BE5
:104EA0000EE0040EDBCF14F0050EDB50D880145456
:104EB00006E2060EDB5003E1040EDB5034DA95D92E
:104EC0000AE2050EDBCFE7FF150EDB50E75E050EAD
:104ED000E7CFDBFF02D0050EDB6A040EDBCF14F058
:104EE000160E45D9D880145414E2160EDBCFE6FF17
:104EF000150EDBCFE6FF040EDBCFE6FF050EDB5021
:104F0000E552E75CE552D880E754E552D880E75493
:104F10005FD9030EDB50010B0BE1080EDB5008E0FC
:104F2000B2D801E08DD0080EDB50BED8080EDB6A87
:104F3000170EDB5007E088D9170EF1D903E1151CD5
:104F400001E17ED0160EDB5016E07ED9300EE66E03
:104F50009FD802E1151C74E077D9DFCFE6FF14EC8F
:104F60003DF0E552E552E552F4CF15F00001F31C97
:104F700002E1151C65E0050EDBCF14F0160EDB50C8
:104F8000D880145409E2050EDBCFE7FF160EDB5084
:104F9000E75E050EE7CFDBFF300EE66E050ECBD9E0
:104FA0004FE1390EDB2ADBCFE9FF3A0E01E3DB2AC2
:104FB000DBCFEAFF090EEFCFDBFFDB500EE044D979
:104FC000090EADD902E1151C3BE0390EDB2ADBCF1F
:104FD000E9FF3A0EEDE3DB2AEBD755D831E1160EA7
:104FE000DBCFE6FF080EC3D8E552E7245DD82ED00C
:104FF000070EDB50030A1CE0010A14E0030A07E075
:105000007BD9DBCFEEFF020EDBCFEDFF1FD0F5D853
:10501000196A17AE02D0186819682CD8BCD819C004
:10502000EEFF14D0EAD817BE186824D8B4D80ED032
:1050300063D9DBCFEFFF0AD07BD905E1151C03E173
:10504000F368F46810D0FCD801E3DB2A79D9C5EF06
:1050500023F0010EDBCF14F0020EDBCF15F014C0ED
:10506000F3FF15C0F4FF3B0EE15C02E2E16AE5529A
:10507000E16ECBD029D9020E2BEF29F061D90800BF
:10508000F550DF6E1200200EE66E080E9BEF29F041
:1050900014EC3DF0E552E552E552F3CF14F0F4CFB5
:1050A00015F00001F31C1200146E156AD950010F9F
:1050B0004DD91450EE261550ED221200185E000E48
:1050C000195AF70E18C0DBFFF80E19C0DBFF18C025
:1050D000E9FF19C0EAFF1200DBCFF4FFF350F45CE4
:1050E0001200DB50E76E040EE7CFDBFF12000A0E62
:1050F000DBCF14F00B0EDBCF15F00C0EDBCF16F070
:105100000D0EDBCF17F014501510161017101200EB
:10511000130EEECFDBFF140EEDCFDBFF130EDBCF54
:1051200014F0140EDBCF15F00001800E15141200E0
:10513000F70EDBCF18F0F80EDBCF19F01200050EDA
:10514000DB50E66ED950130F01D9E552E750EE6EF1
:10515000ED6A12000A0EDBCF06F00B0EDBCF07F074
:105160000C0EDBCF08F00D0EDBCF09F01200DBCF09
:10517000E6FF150EDBCFE6FF050EDB50E552E72418
:10518000E552E7241200DB50CED8010EF36E060E76
:10519000F3CFDBFF1200EE50EFCFEAFFE96E16C04F
:1051A000EEFF17C0EEFF18C0EEFF1200D9CFE6FFEA
:1051B000DACFE6FFE1CFD9FFE2CFDAFF1200DFCF8F
:1051C000E6FFE66A09EC3EF0E552E552F3501200C4
:1051D000E76E080EE7CFDBFF1200EECF14F0EECF44
:1051E00015F0EFCF16F0176A1200050EDBCF14F0A2
:1051F000150EDB50D88014541200010EDBCF16F0D0
:10520000020EDBCF17F0186A1200E552E5CFDAFF85
:10521000E7CFD9FF12000A0E14C0DBFF0B0E15C03A
:10522000DBFF1200D9500A0FA6EF29F0F36E070E2C
:10523000F3CFDBFF1200EECF14F0EFCF15F012002A
:10524000010EDB2A020E1200FC0EDBCFE6FFFD0E84
:10525000DBCFE6FF1200145E000E155AF70E14C0E5
:10526000DBFFF80E15C0DBFF14C0E9FF15C0EAFF35
:105270001200DA20EA6EEF2AEECFF6FF000EEF22E0
:10528000EECFF7FFEF22EECFF8FF1200040EDBCFD8
:10529000E6FF130EDB50E552E75C9ADFDB5004DFDC
:1052A000060EDB501200090EDB500A0DF350DF240E
:1052B000D00FE76E090EE7CFDBFF3EEF28F0DB50A3
:1052C000F36E050E6CEF28F0F70EDBCF14F0F80E3E
:1052D000DBCF15F01200DFCFE6FF48EF28F028DF24
:1052E000030EECDEEDEF28F09AEC23F0E552E552E8
:1052F000E552E55200091200BDDEEE50EFCFEAFFA5
:10530000E96E010E1200130EDB50F36E040E6CEF0B
:1053100028F0040EDB50F36E090E6CEF28F0DBCFA3
:10532000E6FF48EF28F0E76E050EE7CFDBFF12003F
:105330008BDF6BEF29F0DBCFE6FF86DF74EF29F020
:10534000D950F90FE96EFF0E39EF29F0E96E000E22
:06535000DA20EA6E1200F3
:0A5356000401036B03C414F0A8DB8C
:1053600012E2500E0501256F266B01EC01F0E66E8E
:105370000401BBDBE552E750EF6EB7DB050E86DBC1
:10538000EF6A032BEAD712000401EE6BEEC414F0AF
:105390008FDB06E2EEC4F4F104D80401EE2BF6D75D
:1053A00012000101F4510C0DF3CF7FF4F4CF80F41F
:1053B000D00E04017F27010E8023666BE7DB050119
:1053C000346F66EC01F0000903E1CEDBEF6A1200F6
:1053D00053DB050EEB50010A01E157D1080A01E148
:1053E000ECD00B0A01E1B7D0020A01E05BD1050164
:1053F000676B0501656B666B020E0501636F646B7D
:105400000501940E606F680E616F000E626FBEDB67
:1054100005015F6FFCEC06F0F3CF81F4F4CF82F46A
:105420000401F31C0EE1821D0CE1B0DB0501566F97
:10543000B4EC05F07DDBF350F41001E033D1C8DBB0
:1054400031D1010E666F640ED8808155000E8255F1
:1054500003E2640E816F826B81C454F582C455F5FA
:105460000501000E526F040E536F90DB0501516F62
:1054700006EC05F0000E04018125E96E040E822180
:10548000EA6EEF6AAADB70DB020EEF6E04010B0E10
:105490007D6FF2DAFBDAE9CFFDF1EACFFEF101012F
:1054A0007D0EFB6F040EFC6F0101670EF96F040E99
:1054B000FA6F0101000EF76F040EF86FE6D90401D0
:1054C000656FE85001E0EED07D5101080EE27DC429
:1054D0007AF20201670E786F040E796F7BEC17F099
:1054E000CBDA0B0ED3DA020EEF6E67C48BF068C412
:1054F0008CF002EC33F00EDBBFDA02DBBDDAEE52E9
:10550000E868EE180EE1E868EE180BE1E868EE18BE
:1055100008E1E868EE1805E1AFDA0A0EB7DAEF6ADB
:1055200014D0AADAEE52EECF14F0EECF15F0EECF93
:1055300016F0EFCF17F0145015101610171008E1E1
:105540009BDA0A0EA3DA010EEF6E0EDB020E9BD081
:105550000BDB090E98D028DB166AF3CFE6FFF4CFF9
:10556000E6FF16C0E6FF88DAAFDAEECFE6FFEECF51
:10557000E6FFEFCFE6FFA9EC39F0E552E552E55240
:10558000E552E7CF16F0E552E7CF15F0E552E7CF49
:1055900014F00750145C085015580950165801E2D1
:1055A00081D06ADA91DAEECF49F5EECF4AF5EFCF46
:1055B0004BF518DB61DAB7DA72D0F6DAF350F41093
:1055C00071E00401010E666F57DA0B0EEB50020812
:1055D0000DE152DA090E5ADA010EEF6E840EB5DAD9
:1055E000220E406F750E416F000E0BD045DA090E8A
:1055F0004DDAEF6A1F0EA9DA020E406F750E416F89
:10560000000EE0DA3A0E146E740E156E000E166E71
:1056100033DA0B0EEB50176E186A196A140E0C6E03
:105620000D6A0E6A17C007F018C008F019C009F01B
:1056300021EC3BF004C017F005C018F006C019F0CB
:1056400014500424F36E15500520F46E16500620F5
:10565000F86EF4CFF7FFF3CFF6FFF6CF49F5F7CFAB
:105660004AF5F8CF4BF5BEDA040E6FDAA70E406F9D
:10567000750E416F000EA6DAFFD9060E07DA030E8B
:10568000EF6E72DA010EEF6E0DD0A7DA7FC4F5F17E
:1056900080C4F6F10CD8000905E089EC33F098DA03
:1056A00063DAEF6A0401665101E087D61200E9D996
:1056B000EE52EECF8DF0EECF8EF0EECF8FF0EFCF3B
:1056C00090F090EC33F0DDD9090EEB50000901E1C8
:1056D00093D063DA0401D751D81101E1D0D0CD6B5A
:1056E000D0D9060EEB50080814E0A6EC33F0040104
:1056F000CE6FE868000182190CE1E868831909E1BE
:10570000E868841906E1E868851903E1B8EC33F02C
:10571000A2D0B7D9060EEB50080A34E00E0A1AE000
:10572000030A0CE0060A58E1250E0401CE5D03E1F0
:1057300030DA050E50D0010ECD6F4ED0250E04018B
:10574000CE5D03E1010ECD6F44D0CEC4DAF421DA90
:10575000060E41D0CEC4D9F4CEC4A4F0DAC4A5F06C
:10576000CDEC2EF0E66E8DD90A0E90D9E552E750B9
:10577000EF6E0FDA080EEF6E84D9070EEB6A080E93
:10578000EB6A2AD00201CE0E7E6F040E7F6F79D9AC
:10579000070E7CD9EECF7CF2EDCF7DF272D90A0EE6
:1057A000EB5002017B6F60EC18F0C2D96AD9070E8A
:1057B000F3CFEBFF080E15C0EBFF0401010ECD6F18
:1057C00060D9070E63D9FF0EEE1806E1FF0EED1843
:1057D00003E1DFD9030EEF6E0401CD5108E0CEC422
:1057E00039F54FD9EF500501386F32EC02F0040162
:1057F000D707000ED85B6ED7D0D90401080ED75D4D
:10580000000ED85938E3CE6BCE51146E156A080ECF
:10581000145C000E155825E2A6EC33F0E66E040188
:10582000CE51EA6ACF0FE96E040EEA22E552E75044
:10583000EF6EE8680001821911E1E86883190EE152
:10584000E86884190BE1E868851908E1B8EC33F0E1
:105850000401CE518DD915D966D9010C0401CE2B86
:10586000D3D7080E85D9080E0401D75F000ED85B88
:10587000010ECD6FC2D7CD5102E003D954D9B8EC97
:1058800033F048D9FED83CD9000C0401846B866BF8
:10589000876B836B030EE66EE66AAC0EE66E750EE2
:1058A000E66E000EE66EF7C1E6FFF8C1E6FF45D9E9
:1058B00008E1040E0101F727000EF8230401856BAF
:1058C00001D0020CF0D8EF50200802E143D9FAD7FA
:1058D00075D9200E0401885D5EE088515CE00D0EF4
:1058E000885D59E00A0E885D56E0FBC1E9FFFCC106
:1058F000EAFFEF50835D4FE28451020A15E0030A8C
:105900000DE0010A46E1835153D958D92F0E040105
:10591000885D28E05C0E885D3CE124D08351832BB8
:1059200047D90401020E846F49D93F0E885D18E003
:10593000260E885D15E02B0E885D04E1200EB3D89D
:10594000EF6E27D02E0E885D08E1830506E102D9AF
:10595000F7C186F4F8C187F41CD03D0E885D05E1DF
:10596000A2D8EF6A010E846F14D02F0E885D03E079
:105970005C0E885D0EE1010E0101156AF725146EBB
:10598000F85115220401830585D814C0EEFF15C017
:10599000EDFFE0D89DD787D8EF6A090EE0D8EF6E0B
:1059A0008651871137E086C4E6FF87C4E6FFF4EC32
:1059B00039F0E552E552F3CF86F4F4CF87F40401D1
:1059C000120E896F740E8A6F000E8B6F886B885170
:1059D000146E156A0A0E145C000E15581BE2030EB5
:1059E000E66EE66A89C4E6FF8AC4E6FF8BC4E6FF7A
:1059F00086C4E6FF87C4E6FFA0D804E1B0D888C417
:105A0000EFFF08D0040E04018927000E8A238B23A0
:105A1000882BDDD70401835127E1090EE66EE66A83
:105A2000B00EE66E750EE66E000EE66EF9C1E9FF89
:105A3000FAC1EAFFEECFE6FFEFCFE6FF64EC39F004
:105A4000146E070EE15E1450F9C1E9FFFAC1EAFFD6
:105A5000EE50EFCFEAFFE96E090E18D8EF6A010E9B
:105A60007ED8EF6E0401832BFBC1E9FFFCC1EAFF86
:105A700083C4EFFF855112007FC4E9FF80C4EAFFB1
:105A80001200F5C1E9FFF6C1EAFF1200E926000E97
:105A9000EA221200020D0101F951F324E96EFA51D4
:105AA000F420EA6E1200F7C1E9FFF8C1EAFF120024
:105AB000156A166A176A030E145C000E1558000E5C
:105AC0001658000E175812000A0EEB50030DF3CFB4
