:020000040000FA
:100000000CEF00F0FFFF1200FACFFFF362EF2BF0CE
:10001000FFFFFFFFFFFFFFFF00EE10F012EE79F091
:1000200031EC00F000EE0FF0EE6A03EE2EF010EE71
:10003000B7F031EC00F003EE25F0CC0EF66E030EB7
:10004000F76E10EE09F038EC00F001EE00F0D60E7D
:10005000F66E030EF76E10EE2AF038EC00F0A8EF03
:100060002BF0EE6AE550E150FCE1E250FAE11200BB
:100070000900F5CFEEFFE550E150FAE1E250F8E17A
:100080001200D96E390ED96401D006D0300ED96075
:1000900001D002D0D8801200D8901200E96AEA6A32
:1000A0000050086E0150096E02500A6E03500B6E2C
:1000B000026A036A08500402F3CF00F0F4CF01F0A3
:1000C00008500502F3500126F450022209500402A0
:1000D000F3500126F4500222D8B0032A0850060239
:1000E000F3500226F450032209500502F350022671
:1000F000F45003220A500402F3500226F450032263
:1001000008500702F350032609500602F350032655
:100110000A500502F35003260B500402F350032645
:1001200096EF06F023000001270E4E6F000E4F6F72
:100130001C0E506F516BB4EC29F0FFEC26F000015F
:10014000270E436F000E446FFFD800EE27F0EE50ED
:10015000010AED1007E100012B51060A03E12C51C1
:10016000040A01E0000C25C0E1FF26C0E2FF23C025
:10017000D9FF24C0DAFF00EE2DF0EE50020AED1098
:1001800002E1000E07D000EE2DF0EE50010AED1056
:1001900003E1010EE76E03D0020EE76E000C04C20D
:1001A000E8FF00013F63000C05C2E8FF4063000C5C
:1001B00006C2E8FF4163000C07C2E8FF4263000C7F
:1001C0002F0EE96E000EEA6ED9CFE1FFDACFE2FF23
:1001D000060E57EC06F000EE06F0D950E926DA508C
:1001E000EA2235C0EEFF36C0EEFF37C0EEFF38C062
:1001F000EEFF010C230023C0D9FF24C0DAFF010E5B
:100200000001266F276B286B080E296F060E2A6FD8
:10021000040E2B6F25050AE1010E2C6F2D6B38693A
:1002200039693A693B693C693D690FD0020E0001AA
:100230002C6F2D6BD9CFE9FFDACFEAFF380EE16ED4
:10024000000EE26E060E57EC06F008C22EF009C250
:100250002FF00AC230F00BC231F00CC232F00DC2E6
:1002600033F004C234F005C235F006C236F007C2DE
:1002700037F00EC200F000EE06F0D950E926DA5051
:10028000EA22EF5000013419016E001427E10FC279
:1002900000F000EE07F0D950E926DA50EA22EF50DC
:1002A0003519016E00141AE110C200F000EE08F0DA
:1002B000D950E926DA50EA22EF503619016E0014BF
:1002C0000DE111C200F000EE09F0D950E926DA5034
:1002D000EA22EF503719016E001409E012C23EF015
:1002E00013C23FF014C240F015C241F00ED000EE30
:1002F00006F0D950E926DA50EA22EECF3EF0EECFF2
:100300003FF0EECF40F0EECF41F00001260E436FFC
:10031000000E446F19D80001380EF76F000EF86F09
:10032000060EF96F1C0EFA6FFB6BE8EC27F000016C
:10033000260EFC6F000EFD6F1C0EFE6FFF6BE8ECCF
:1003400029F02BEF28F0430043C0E9FF44C0EAFF47
:10035000EECFF9F0EDCFFAF0DFEC0EF043C0E9FF9D
:1003600044C0EAFF00C0EEFF01C0EDFF000100EE57
:1003700002F04351E9264451EA22EECFF9F0EDCFE5
:10038000FAF0DFEC0EF0000100EE02F04351E92636
:100390004451EA2200C0EEFF01C0EDFF00EE06F07E
:1003A0004351E9264451EA22EECFF9F0EDCFFAF0BD
:1003B000DFEC0EF0000100EE06F04351E926445157
:1003C000EA2200C0EEFF01C0EDFF120000FF002F87
:1003D00000C30A0A0A0019040A0405040F040004F1
:1003E00014041E0490042A044304CF0465047B040F
:1003F000B404A8044D043A04F805B1051F06D1055C
:10040000504F5254005155495400504153530053DA
:10041000544F520041424F52005553455200323220
:10042000302052656164790D0A00323330204C6F00
:100430006767656420696E0D0A00323030206F6B8B
:100440000D0A00323231204279650D0A003232360F
:10045000205472616E7366657220436F6D706C65B7
:1004600074650D0A00353032204E6F7420696D704E
:100470006C656D656E7465640D0A00353330204C13
:100480006F67696E2072657175697265640D0A0027
:100490003333312050617373776F726420726571EA
:1004A00075697265640D0A0031323520446F6E65DE
:1004B0002E0D0A00313530205472616E73666572FC
:1004C00072696E6720646174612E2E2E0D0A0035EC
:1004D0003030200D0A005458540048544D0047490C
:1004E0004600434749004A504700434C41005741AA
:1004F0005600746578742F706C61696E000000009E
:10050000000000000000746578742F68746D6C0042
:1005100000000000000000000000696D6167652FA9
:1005200067696600000000000000000000007465BC
:1005300078742F68746D6C000000000000000000EB
:100540000000696D6167652F6A70656700000000D3
:100550000000000000006170706C69636174696F75
:100560006E2F6A6176612D766D00617564696F2FFB
:10057000782D776176650000000000000000485487
:1005800054502F312E3020323030204F4B0D0A4343
:100590006F6E74656E742D747970653A20000D0A63
:1005A0000D0A0047455400494E4445582E48544DC5
:1005B00000485454502F312E3020323030204F4BD1
:1005C0000D0A436F6E74656E742D747970653A20F0
:1005D00000485454502F312E3020353033200D0A2E
:1005E0000D0A5365727669636520556E617661699F
:1005F0006C61626C650D0A00485454502F312E30E6
:1006000020343034204E6F7420666F756E640D0A8E
:100610000D0A4E6F7420666F756E642E0D0A000D04
:100620000A0D0A004D434850537461636B20332E0A
:10063000303200426F6172642053657475702E2EE3
:100640002E004E65772049502041646472657373B3
:100650003A20000D0A00434F4D4D414E44532E4366
:10066000474900434F4E4649472E43474900494EAC
:100670004445582E48544D00667470006D6963728D
:100680006F63686970000D0A0D0A0D4D43485053A1
:100690007461636B20436F6E666967204170706C94
:1006A00069636174696F6E20284D434850537461CB
:1006B000636B20332E30322C204E6F762032372061
:1006C00032303036290D0A0D0A09313A204368616B
:1006D0006E676520426F6172642073657269616C38
:1006E000206E756D6265722E0D0A09323A204368DC
:1006F000616E67652064656661756C742049502081
:10070000616464726573732E0D0A09333A2043687D
:10071000616E67652064656661756C7420676174DD
:100720006577617920616464726573732E0D0A09BF
:10073000343A204368616E67652064656661756C54
:1007400074207375626E6574206D61736B2E0D0A73
:1007500009353A20456E61626C652044484350205B
:100760002620495020476C65616E696E672E0D0A20
:1007700009363A2044697361626C652044484350ED
:10078000202620495020476C65616E696E672E0DEA
:100790000A09373A20446F776E6C6F6164204D50C0
:1007A000465320696D6167652E0D0A09383A20535A
:1007B000617665202620517569742E0D0A0D0A4553
:1007C0006E7465722061206D656E752063686F6957
:1007D00063652028312D38293A2000880871085592
:1007E000089A080B09EA08B20838080D0A496E761B
:1007F000616C696420696E707574207265636569E7
:10080000766564202D20496E7075742069676E6F5F
:100810007265642E0D0A507265737320616E7920C3
:100820006B657920746F20636F6E74696E75652EC9
:100830002E2E0D0A002575000D0A4E6F7720727559
:100840006E6E696E67206170706C69636174696F48
:100850006E2E2E2E000D0A44656661756C7420475D
:1008600061746577617920416464726573732028CF
:10087000000D0A44656661756C742049502041641E
:1008800064726573732028000D0A53657269616C88
:10089000204E756D6265722028000D0A4465666100
:1008A000756C74205375626E6574204D61736B2096
:1008B00028000D0A526561647920746F20646F7797
:1008C0006E6C6F6164204D50465320696D616765A1
:1008D000202D2055736520586D6F64656D207072F2
:1008E0006F746F636F6C2E0D0A000D0A44484350FD
:1008F000202620495020476C65616E696E67206430
:10090000697361626C65642E0D0A000D0A444843E8
:1009100050202620495020476C65616E696E672023
:10092000656E61626C65642E0D0A0000003FCD4C5F
:100930003DD7A33B12033AB75138C6A73638063520
:10094000FFFFFFFFFFFFFFFFFFFFFFFFFFFFFFFFB7
:10095000FFFFFFFFFFFFFFFFFFFFFFFFFFFFFFFFA7
:10096000FFFFFFFFFFFFFFFFFFFFFFFFFFFFFFFF97
:10097000FFFFFFFFFFFFFFFFFFFFFFFFFFFFFFFF87
:100CA000FFFFFFFFFFFFFFFFFFFFFFFFFFFFEECF95
:100CB000E6FFE82EFCD7000CEECF00F0EECF01F0FF
:100CC000EECF02F0EFCF03F050EF00F0EFCF00F0E7
:100CD000EE2AEFCF01F0000EEE22EFCF02F0EE226F
:100CE000EFCF03F0EE221200E96EE906E928D8B44E
:100CF0001200040EE16EE106E128F7E03E0ED96E27
:100D0000D92EFED7F8D702500002F3CF04F0F4CF6B
:100D100005F002500102F350052603500002F35083
:100D200005261200036A026A016A006AE950EA10A5
:100D300008E003C0EDFF02C0EDFF01C0EDFF00C001
:100D4000EFFF000C790ED66EFE0ED76E070ED56E35
:100D5000D58EF284F28A12007BC200F07CC201F0D0
:100D60007DC202F07EC203F01200F2A41200FE0E59
:100D7000D76E790ED66E02017B2B000E7C237D236D
:100D80007E23F2941200AC00ACC0F3FFADC0F4FFC0
:100D9000F3CFF6FFF4CFF7FFF32A000EF422030E91
:100DA000F76403D00800F55005D0F6CFE9FFF7CF80
:100DB000EAFFEF500009ECE1F3CF00F0F4CF01F0CF
:100DC0000001AC51005EAD51015AFF0E000601203A
:100DD000016E1200006E046AD890FD0E01241AE321
:100DE000036AF00E011403E1040E036E013A026A75
:100DF000D890032A0136FDE301320150005CD8B0DF
:100E0000006E0236032EF8D704BE026C025004BEF8
:100E1000006C1200013206E20132D8A0006AD890BC
:100E20000032D8A0D89000C002F0006A0036ECD79B
:100E3000066A046A056A0250031003E1006A016A47
:100E4000000C1F0E0612D890062A02360336FCE369
:100E5000033202320250005C0350015804E3016E79
:100E60000250005ED88004360536062E06BAF0D74A
:100E700006AE05D0041E042AD8B40506051F04508A
:100E8000026E0550036E06AC000C001E002AD8B49A
:100E90000106011E000CAC0005D00001AC4BAD2BCF
:100EA000AE4BAF2BB007B02925E0AEC0F6FFAFC008
:100EB000F7FF030EF76403D00800F55005D0F6CF16
:100EC000E9FFF7CFEAFFEF50016EACC0F6FFADC00F
:100ED000F7FF030EF76403D00800F55005D0F6CFF6
:100EE000E9FFF7CFEAFFEF50006E0150005CD96ECA
:100EF000D950D3E00001B107B129D4E1D9CF00F036
:100F0000016A00BE01061200190019C0D9FF1AC0FB
:100F1000DAFF00011E511D111EE01D07D8A01E079B
:100F20001BC0F6FF1CC0F7FF1B2B000E1C23D9CFE4
:100F3000E9FFDACFEAFFD94ADA2A030EF76403D0D1
:100F40000800F55005D0F6CFE1FFF7CFE2FFE750FC
:100F5000EF6EEF50DEE100011D51006E1E51016E7B
:100F60001D07000E1E5B0150001008E0D9CFE9FFFD
:100F7000DACFEAFFD94ADA2AEF6AEDD719C000F0D2
:100F80001AC001F01200A300A5C0F3FFA6C0F4FF31
:100F9000A3C002F0A4C003F00001A751006EA85145
:100FA000016EA707000EA85B015000102AE0F3CFE6
:100FB000F6FFF4CFF7FFF32A000EF422030EF764D6
:100FC00003D00800F55005D0F6CFE9FFF7CFEAFFD0
:100FD000EF50006E02C0F6FF03C0F7FF022A000EBA
:100FE0000322030EF76406D000C0F5FF0C000B00CF
:100FF0000E00D2D7F6CFE9FFF7CFEAFF00C0EFFF30
:10100000CBD7A3C000F0A4C001F01200AA00AAC070
:10101000F6FFABC0F7FF030EF76403D00800F550EE
:1010200005D0F6CFE9FFF7CFEAFFEF50D96ED950E0
:10103000200A03E0D950090A04E10001AA4BAB2BB6
:10104000E6D70001AE6BAF6BAC6BD9502D0A02E155
:10105000AC2B1BD0D9502B0A1AE1000116D00A0E76
:10106000026E036AAEC000F0AFC001F083EC06F080
:101070000001AD510424006E000E0520016ED00E5B
:101080000024AE6FFF0E0120AF6FAA4BAB2BAAC09E
:10109000F6FFABC0F7FF030EF76403D00800F5506E
:1010A00005D0F6CFE9FFF7CFEAFFEF500001AD6FB3
:1010B000AD5141EC00F0D8B0D2D70001AC51AEC078
:1010C00000F008E0AFC001F0001E011E002AD8B4F5
:1010D000012A1200AFC001F0120003012E6BFF0EB7
:1010E000E8CFF4F1E8CFF5F1E8CFF6F1E8CFF7F18A
:1010F000E8CFF8F1E8CFF9F101EEFAF0EE6AEE6A26
:10110000EE6AEE6A12002FD00001190E236F000E56
:10111000246F180E256F000E266F93EC00F0006E02
:1011200000C002F0036A035002102FE000011851C2
:1011300015E119C0F4F11AC0F5F11BC0F6F11CC09D
:10114000F7F11DC0F8F11EC0F9F11FC0FAF120C07F
:10115000FBF121C0FCF122C0FDF1010C010EE8CF32
:101160002EF305D0000C2EC3E8FF000ACDE0F6EC0C
:1011700026F00009F7E00001190E236F000E246F1E
:10118000256BFBEC00F003012E6B010C120012C06A
:10119000E9FF13C0EAFFEECF18F0EECF19F0EECF63
:1011A0001AF0EECF1BF00001120E236F000E246F19
:1011B000010E256FFBEF00F0120012C0E9FF13C013
:1011C000EAFF0101FA51EE1808E1FB51EE1805E1C2
:1011D000FC51EE1802E1FD51EE1812E012C2E8FFD8
:1011E000FA63000C13C2E8FFFB63000C14C2E8FFB3
:1011F0000101FC63000C15C2E8FF0101FD63000C56
:1012000001EEF4F014C0E1FF15C0E2FF060E57EC4A
:1012100006F0010C0001146915691669176918694F
:1012200019690EC204F00FC205F010C206F011C217
:1012300007F0041E051E061E071E02EE04F00EC275
:10124000E8FFEE14006E0FC2E8FFEE14016E10C24C
:10125000E8FFEE14026E11C2E8FFED14036EED52CA
:10126000ED52045000101A6F055001101B6F06500C
:1012700002101C6F075003101D6F2C0E246F0B0EF5
:10128000256F140E266F000E276F5F0E286F760EE7
:10129000296F81EC1AF00001126F1229D8B41200E4
:1012A00012C08AF3F6EC26F00009FAE04D0EE9ECE4
:1012B0001AF0410EE9EC1AF0430EE9EC1AF0200E98
:1012C000E9EC1AF0410EE9EC1AF0640EE9EC1AF0C0
:1012D000640EE9EC1AF0720EE9EC1AF0650EE9EC16
:1012E0001AF0730EE9EC1AF0730EE9EC1AF03A0EEC
:1012F000E9EC1AF0200EE9EC1AF00001136B000182
:10130000135102EE08F0E926000EEA22EF50BBEC82
:101310000EF0E9EC1AF00001135102EE08F0E92694
:10132000000EEA22EF50CDEC0EF0E9EC1AF00001CD
:10133000132B1351060A04E02D0EE9EC1AF0DFD747
:101340002E0EE9EC1AF0200EE9EC1AF04D0EE9EC45
:101350001AF0790EE9EC1AF0200EE9EC1AF0490EB9
:10136000E9EC1AF0500EE9EC1AF0200EE9EC1AF054
:10137000410EE9EC1AF0640EE9EC1AF0640EE9ECA7
:101380001AF0720EE9EC1AF0650EE9EC1AF0730E21
:10139000E9EC1AF0730EE9EC1AF0200EE9EC1AF001
:1013A000680EE9EC1AF0610EE9EC1AF0730EE9EC44
:1013B0001AF0200EE9EC1AF0630EE9EC1AF0680E50
:1013C000E9EC1AF0610EE9EC1AF06E0EE9EC1AF095
:1013D000670EE9EC1AF0650EE9EC1AF0640EE9EC20
:1013E0001AF02E0EE9EC1AF05EEC1BF0000112511F
:1013F000DCEF1AF018000001260E4E6F000E4F6F42
:10140000080E506F516BB4EC29F00001226B236B76
:10141000140E4E6F4F6B1CC0E9FF1DC0EAFFEF506A
:10142000506F516B94EC28F000C024F001C025F0FF
:101430001CC0E1FF1DC0E2FFF80EE7261AC04EF007
:101440001BC04FF0E7500001506F516BB4EC29F016
:101450000001260E4E6F000E4F6F81D818C0E9FFB5
:1014600019C0EAFF26C0EFFF1EC0E9FF1FC0EAFF58
:101470002AC0EEFF2BC0EDFF20C0E9FF21C0EAFF2C
:101480002CC0EEFF2DC0EDFF000125512411000EF0
:10149000D8B4010E120018000001080E1D25226F9D
:1014A000236B000E2323256B1A51246F266B276BA9
:1014B0001EC028F01FC029F020C02AF021C02BF048
:1014C0002C0EA36F000EA46F1BC0A5F01CC0A6F0CD
:1014D0001D51A76FA86BC4EC07F00001240E4E6FDE
:1014E000000E4F6F3CD818C0DEF019C0DFF0010EBF
:1014F0000001E06F080E1D25E16FE26B000EE22394
:10150000C6EC0DF00001240EFC6F000EFD6F22C032
:10151000FEF023C0FFF0E8EC29F0140E0001F76F95
:10152000F86B22C0F9F023C0FAF0F5EC28F000C007
:1015300026F001C027F0160E0001F76FF86B000EC1
:1015400073EC28F00001260EFC6F000EFD6F020EFA
:10155000FE6FFF6BE8EC29F02BEF28F04E00000146
:1015600000EE04F04E51E9264F51EA22EECFF9F099
:10157000EDCFFAF0DFEC0EF0000100EE04F04E517A
:10158000E9264F51EA2200C0EEFF01C0EDFF00EE58
:1015900006F04E51E9264F51EA22EECFF9F0EDCF99
:1015A000FAF0DFEC0EF0000100EE06F04E51E926F5
:1015B0004F51EA2200C0EEFF01C0EDFF00EE02F045
:1015C0004E51E9264F51EA22EECFF9F0EDCFFAF075
:1015D000DFEC0EF0000100EE02F04E51E9264F5113
:1015E000EA2200C0EEFF01C0EDFF12000301686BAC
:1015F0000301698147EC26F06DEC08F066EC1AF007
:10160000BBEF32F00001126BF3D00001690E186FCE
:10161000020E196F130E1A6F000E1B6F8FEC27F05E
:10162000006E00C002F0036A0350021015E10201CF
:101630001CA1F5D0EFEC26F0000901E0F0D002018A
:10164000046B0201056B0201066B0201076B0301CB
:101650006981DEEC1DF0E3D0010E0001126F135121
:1016600002E1020E3BD000011351060A02E1050E11
:1016700035D0FFEC26F0D3D083EC08F0000901E16F
:10168000CED033D00001140E186F000E196F690E02
:101690001A6F020E1B6F130E1C6F000E1D6F630E70
:1016A0001E6F020E1F6F51EC0DF0006E00C002F0B5
:1016B000036A035002101CE0010E0001126F1305B3
:1016C00002E1030E0BD000011351060A02E1060EDF
:1016D00005D000011351110A04E1070EE8CF68F3A9
:1016E0009ED00001126BFFEC26F00301686B97D0CF
:1016F000FFEC26F0FAD70001690E186F020E196F81
:10170000140E1A6F000E1B6F00EE1CF063C2EEFF8A
:1017100064C2EDFF61EC1CF011D00001690E186F7E
:10172000020E196F140E1A6F000E1B6F00EE1CF0E4
:1017300063C2EEFF64C2EDFF44EC38F0006E00C0FF
:1017400002F0036A035002109AD70301686B02018A
:10175000000E645D290ED8B4635DD8B027D00001B7
:10176000130E186F000E196F6A0E1A6F030E1B6F9F
:10177000630E1C6F020E1D6F650E1E6F020E1F6F33
:10178000670E206F020E216FFBEC09F0006E00C0A7
:1017900002F0036A0350021009E000011351080A25
:1017A00005E1010E126F040EE8CF68F3FFEC26F09E
:1017B00036D0F6EC26F00009000132E0690E186F11
:1017C000020E196F1A6B6A0E1B6F030E1C6F63C239
:1017D0001DF000EE1EF065C2EEFF66C2EDFF00EEEA
:1017E00020F067C2EEFF68C2EDFF4CEC0AF07DD737
:1017F00068C3E8FF000A01E108D7010A01E105D743
:10180000030A01E13FD7010AA0E0070AD2E0010A7A
:1018100001E132D7030A81E0010A01E16CD700013E
:10182000125101E0EFD6E9EC36F0F5EC1DF00301C2
:1018300027A112000301699112000301676B0301E4
:10184000666B180ED9EC0FF0010C9800030166A12D
:1018500003D0006A016A1200200E00019B6F9C6B8E
:1018600098C0E9FF99C0EAFFEF5004E1FF0E00685D
:101870000168120098C0ACF099C0ADF096EC0FF082
:1018800000C098F001C099F09BC0ACF09CC0ADF0D6
:1018900000019D0EAE6F000EAF6F0F0EB06FA00E69
:1018A0001AEC10F000019D5132E198C0ACF099C0E3
:1018B000ADF0C4EC06F0005000019A6F0C0E9A6572
:1018C00001D09A6F98C0ACF099C0ADF00001A00EA5
:1018D000AE6F000EAF6F9A51B06FB16B4CEC07F06A
:1018E000015000100EE19EC07FF29FC080F2030104
:1018F000010E672B00EE9EF0EECF00F0EDCF01F071
:1019000012000F0E00019B27000E9C23BDD7000183
:101910009D51040A0DE100EE9EF0EE52ED1CFF0E0B
:10192000D8B4EF1809E09EC09BF09FC09CF0ACD7E4
:10193000FF0E006801681200FF0E006801681200C7
:101940000301656B0301669103016753D8B412006C
:10195000010E670712009E009EC081F29FC082F2B6
:101960009EC0A0F09FC0A1F0A00EE8EC0FF0006EAA
:1019700000C002F0036A03500210000ED8B4010E3A
:101980001200F2EC0FF000019E6F0201812B000E9D
:10199000822300019E51030A09E1F2EC0FF00001DD
:1019A0009E6F0201812B000E822309D000019E51FF
:1019B000040A05E1FF0EE8CF81F2E8CF82F20001D0
:1019C0009E51120018EC10F081C200F082C201F0AA
:1019D000120003016681200E006E016A1200BD0034
:1019E000BDC081F2BEC082F2BDC065F303013F0EEF
:1019F0006517BDC0BFF0BEC0C0F0A00E86EC10F0F1
:101A0000006E00C002F0036A03500210000ED8B44A
:101A1000010E12000001BD6FBD5193EC10F00009E2
:101A200001E0000C0301652B0201812B000E8223D3
:101A30003F0E03016565010C08D881C2BFF082C268
:101A4000C0F0A00E86EC10F0010C0301656BC8EC31
:101A500010F0A00EE4EC10F00009FBE181C200F0F0
:101A600082C201F0120012007FC29EF080C29FF07D
:101A700073DF0001126B136B00011251006E1351E2
:101A8000016E124B132B131902E11251001802E0E0
:101A900078DFF2D797DF81C200F082C201F0120036
:101AA00018000001220E4E6F000E4F6F140E506F83
:101AB000516BB4EC29F000012251F00B400A01E017
:101AC000000C22C000F00F0E0016D8900036D890FF
:101AD0000034E8CF64F300014E6B4F6B64C350F0E9
:101AE000516B94EC28F000C020F001C021F064C3D9
:101AF000E8FF00019E6F9F6B42EC28F0000121512E
:101B0000201101E0000C0001220EF76F000EF86FAB
:101B1000C3D818C0E1FF19C0E2FFE250E1100CE0A9
:101B2000E1CFE9FFE2CFEAFF32C0EEFF33C0EEFFC4
:101B300034C0EEFF35C0EEFF000100EE06F01A5192
:101B4000E9261B51EA222EC0EEFF2FC0EEFF30C067
:101B5000EEFF31C0EEFF1CC0E9FF1DC0EAFF2BC045
:101B6000EFFF64C3E8FF00EE24F0EECF00F0EDCF0E
:101B700001F0005E000E015A1EC0E9FF1FC0EAFF1F
:101B800000C0EEFF01C0EDFF010CDE00140EE8CF37
:101B900064F3450E0001E36FE46B140EE125E56F7D
:101BA000000EE221E66F0101FE2B000EFF2300EE86
:101BB000E7F0FEC1EEFFFFC1EDFF0001E96BEA6B4C
:101BC000640EEB6FE051EC6FED6BEE6B04C2EFF067
:101BD00005C2F0F006C2F1F007C2F2F000EE06F026
:101BE000DE51E926DF51EA22EECFF3F0EECFF4F03A
:101BF000EECFF5F0EECFF6F0E30EF76F000EF86FD4
:101C00004BD8DEC0F7F0DFC0F8F00001F96B140E1E
:101C1000E125FA6F000EE221FB6FE8EC27F00001EE
:101C2000E30EFC6F000EFD6F140EFE6FFF6BE8EC11
:101C300029F00001F76BF86B140EF96FFA6BF5ECF5
:101C400028F000C0EDF001C0EEF00A0E0001F76FC1
:101C5000F86B000E73EC28F00001ED0EFC6F000E27
:101C6000FD6F020EFE6FFF6BE8EC29F0140E000111
:101C7000F76FF86B000E73EC28F0006A016A12002F
:101C80009C0064C3E8FF00019C259E6F000E9D210F
:101C90009F6F42EF28F0F700000100EE02F0F751CD
:101CA000E926F851EA22EECFF9F0EDCFFAF0DFECB9
:101CB0000EF0000100EE02F0F751E926F851EA2299
:101CC00000C0EEFF01C0EDFF00EE04F0F751E92681
:101CD000F851EA22EECFF9F0EDCFFAF0DFEC0EF09A
:101CE000000100EE04F0F751E926F851EA2200C0A5
:101CF000EEFF01C0EDFF00EE0AF0F751E926F851C2
:101D0000EA22EECFF9F0EDCFFAF0DFEC0EF00001B1
:101D100000EE0AF0F751E926F851EA2200C0EEFF82
:101D200001C0EDFF1200A300460E0001A46502D021
:101D3000E00EA427460E0001A36502D0E00EA32703
:101D4000390E0001A46502D0C90E02D0D00E0001E8
:101D5000A427390E0001A36502D0C90E02D0D00E0F
:101D60000001A327A4C000F0003AF00E0016000105
:101D7000A35100101200D96ED93A0F0ED9160A0ECF
:101D8000D96002D0300E01D0370ED9CF00F0016AF1
:101D90000026000E012200501200D96E0F0ED91637
:101DA0000A0ED96002D0300E01D0370ED9CF00F024
:101DB000016A0026000E012200501200F900F9C04D
:101DC000FBF0FAC0FCF00001FC51D96EFB51FC6F36
:101DD000D950FB6FFBC000F0FCC001F01200E00026
:101DE000E0C0E4F0E1C0E5F0E2C0E6F0E3C0E7F017
:101DF000E40ED96E000EDA6E00EE03F0D950E9263B
:101E0000DA50EA22EF50F36E00EE03F0D950E926E3
:101E1000DA50EA22DFCFEFFFF3CFDFFF00EE02F070
:101E2000D950E926DA50EA22EF50F36E10EE01F0B5
:101E3000D950E126DA50E22200EE02F0D950E9262C
:101E4000DA50EA22E7CFEFFF00EE01F0D950E926A1
:101E5000DA50EA22F3CFEFFFE4C000F0E5C001F072
:101E6000E6C002F0E7C003F01200DE000001E66BFE
:101E7000E76BE86BE96BD890E131F46EE031F36E1B
:101E8000DEC0E1FFDFC0E2FFF350006EF450016EF0
:101E9000F306000EF45A0150001018E0E1CFE9FFFC
:101EA000E2CFEAFF020EE126000EE222EECF00F0C2
:101EB000EDCF01F0026A036A00010050E6270150ED
:101EC000E7230250E8230350E923DED70001E0A115
:101ED00009D0E750E627010ED8B0E727D8B0E827A9
:101EE000D8B0E927E6C0E2F0E7C0E3F0E8C0E4F0EC
:101EF000E9C0E5F0E4C0F3FFE5C0F4FFF450F310EF
:101F00000EE00001E86BE96BE651F324E66FE75160
:101F1000F420E76FE86BD8B0E82BE96BE3D700015A
:101F2000E61D006EE71D016E1200AC00ACC0E1FFC3
:101F3000ADC0E2FFE750D96ED9500AE0600ED96417
:101F400005D07B0ED96002D0E00EE726E652F2D72C
:101F5000ACC000F0ADC001F01200A800AAC0F3FFB1
:101F6000ABC0F4FFA8C0D9FFA9C0DAFF0001AC07DD
:101F7000AC291AE0F3CFF6FFF4CFF7FFF32A000EF7
:101F8000F422D9CFE9FFDACFEAFFD94ADA2A030EE1
:101F9000F76403D00800F55005D0F6CFE1FFF7CF86
:101FA000E2FFE750EF6EE2D7A8C000F0A9C001F051
:101FB00012008A88939894969488949A200EC66EFC
:101FC0009E96C78CC79E010EE8CF8BF31200A0002F
:101FD000A0C077F2A1C078F20201A40E796F030EBF
:101FE0007A6F000C02017A51030AA40ED8B4791951
:101FF00016E177C2ACF078C2ADF00001980EAE6F7A
:10200000030EAF6F0C0EB06F000E14D802010C0E51
:102010007727000E7823980E796F030E7A6F79C2B6
:10202000E9FF7AC2EAFF0201794B7A2BEF501200E6
:10203000000CAC00AEC0E1FFAFC0E2FF0001B16B2D
:10204000B26BB36BB46B080E026E010E036EACC0C4
:1020500000F0ADC001F018EC07F004C0B3F005C00B
:10206000B4F0080E026E010E036EACC000F0ADC0FD
:1020700001F018EC07F000C0B1F001C0B2F0D89048
:10208000B337B437C79C300EC66E8A98E80EC96E57
:102090009EA6FED79E960001B451C96E9EA6FED79D
:1020A0009E96B2C001F0010E0116B3C000F0FE0E04
:1020B000001601500010C96E9EA6FED79E96000124
:1020C000B151C96E9EA6FED79E96C96A9EA6FED73E
:1020D0009E96C96A9EA6FED79E96C96A9EA6FED700
:1020E0009E96C96A9EA6FED79E960001B007B029AB
:1020F00007E0C96A9EA6FED79E96C9CFE6FFF5D730
:102100008A88C78C200EC66E000CBF00010EE8CF77
:102110008BF3BFC077F2C0C078F20201980E796FDE
:10212000030E7A6F000C0001BE6F8BC300F0000439
:1021300007E177C2BFF078C2C0F0F3D803018B6B20
:102140000001BE51BF6FC06B00EEC1F077C2EEFF61
:1021500078C2EDFF31D90201772B000E78230C0EE7
:10216000026E036A77C200F078C201F018EC07F043
:10217000015000100CE177C200F078C201F0FF0EB0
:1021800000240001BF6FFF0E0120C06F7FD8000C3C
:1021900003018B6B0C0E026E036A77C200F078C2EB
:1021A00001F018EC07F0015000100CE077C200F0CD
:1021B00078C201F0FF0E00240001BF6FFF0E012066
:1021C000C06F64D8000C1200C79C300EC66E8A988F
:1021D000D70EC96E9EA6FED79E96C96A9EA6FED74A
:1021E0009E96C950D96E8A88C78C200EC66ED9BEFD
:1021F000000E12001200F36AF46A0001126B136BF6
:10220000080E026E010E036E12C000F013C001F042
:1022100018EC07F004C012F005C013F0080E026EAF
:10222000010E036E12C000F013C001F018EC07F0AD
:1022300000C0F3FF01C0F4FFD89012371337000E2F
:10224000C3DF0009FCE1C79C300EC66E8A98810E80
:10225000C96E9EA6FED79E9600011351C96E9EA61A
:10226000FED79E9600011251C96E9EA6FED79E967D
:10227000C96A9EA6FED79E968A88000EA5DF000931
:10228000FCE1C78C200EC66E1200BF00F36AF46A30
:102290000001C16BC26B080E026E010E036EBFC05F
:1022A00000F0C0C001F018EC07F004C0C1F005C098
:1022B000C2F0080E026E010E036EBFC000F0C0C077
:1022C00001F018EC07F000C0F3FF01C0F4FFD89054
:1022D000C137C237000E78DF0009FCE1C79C300E21
:1022E000C66E8A98830EC96E9EA6FED79E96000182
:1022F000C251C96E9EA6FED79E960001C151C96EFD
:102300009EA6FED79E96C96A9EA6FED79E968A88EE
:10231000000E5ADF0009FCE1C78C200EC66E1200C9
:10232000BF00F36AF46A0001C16BC26B080E026E53
:10233000010E036EBFC000F0C0C001F018EC07F042
:1023400004C0C1F005C0C2F0080E026E010E036E9B
:10235000BFC000F0C0C001F018EC07F000C0F3FFF0
:1023600001C0F4FFD890C137C237000E2DDF00093D
:10237000FCE1C79C300EC66E8A98530EC96E9EA6AD
:10238000FED79E960001C251C96E9EA6FED79E96AC
:102390000001C151C96E9EA6FED79E96C96A9EA62F
:1023A000FED79E968A88000E0FDF0009FCE1C78CDD
:1023B000200EC66E1200BF000001C36BC46BF36A2F
:1023C000F46A080E026E010E036EC1C000F0C2C0B6
:1023D00001F018EC07F004C0F3FF05C0F4FF080E8D
:1023E000026E010E036EC1C000F0C2C001F018EC15
:1023F00007F000C0C3F001C0C4F0000EE5DE000924
:10240000FCE1C79C300EC66E8A98840EC96E9EA6EB
:10241000FED79E96C96A9EA6FED79E960001C4511D
:10242000C96E9EA6FED79E960001C351C96E9EA698
:10243000FED79E960001BF51C96E9EA6FED79E96FE
:102440008A88000EC1DE0009FCE1C78C200EC66E32
:1024500012008A98550EC96E9EA6FED79E968A884F
:102460001200BB00BBC0F6FFBCC0F7FF030EF76451
:1024700003D00800F55005D0F6CFE9FFF7CFEAFF0B
:10248000EF501200A9000001B76BB86BA9C0B5F0FE
:10249000AAC0B6F00001AD51BB6FAE51BC6FAD4BE1
:1024A000AE2BE0DF0001B26FB25101E178D2B25140
:1024B000250A0AE0B74BB82BAC51AB1101E06CD147
:1024C000B25103EC00F0E6D70001AF69B16BB06B1D
:1024D00021D20001AC51AB1106E0ABC0E9FFACC0AA
:1024E000EAFF000EEF6AB7C000F0B8C001F01200BA
:1024F000B5C0E9FFB6C0EAFF0001020EB527000E25
:10250000B623EF503FD20001B08D04D2100E04D09C
:10251000080E02D0B02B0A0E0001AF6FB5C0E9FF64
:10252000B6C0EAFF020EB527000EB623EECFB3F019
:10253000EDCFB4F0B0A10DD0B4AF06D0B36DB41FE1
:10254000D8B0B42BB10707D00001B091B0AD03D023
:10255000F9D70001B091AFC002F0036AB3C000F038
:10256000B4C001F018EC07F000500001B26FAFC02A
:1025700002F0036AB3C000F0B4C001F018EC07F039
:1025800004C0B3F005C0B4F0010EB96FBA6B00011E
:10259000BA51B45D02E1B951B35DD8A012D0AFC059
:1025A00002F0036AB9C000F0BAC001F083EC06F093
:1025B00004C0B9F005C0BAF00001B151E8E0B12F94
:1025C000E6D70001B0A913D019D00001B74BB82B42
:1025D000AC51AB1109E0ABC0E9FFACC0EAFF200E83
:1025E000EF6EAB4BAC2B03D0200E03EC00F00001E0
:1025F000B107B151800A7F0FD8B0E7D70001B0A171
:1026000012D0B74BB82BAC51AB1109E0ABC0E9FF0E
:10261000ACC0EAFF2D0EEF6EAB4BAC2B15D02D0EE0
:1026200003EC00F011D00001B0AD0ED0B74BB82BC9
:10263000AC51AB1106E0ABC0E9FFACC0EAFF2B0E1A
:10264000EAD72B0E03EC00F00001B0B913D04CD048
:102650000001B74BB82BAC51AB1109E0ABC0E9FF9F
:10266000ACC0EAFF300EEF6EAB4BAC2B03D0300E9C
:1026700003EC00F00001B107B151800A7F0FD8A030
:1026800033D0E6D7B9C002F0BAC003F0B3C000F04F
:10269000B4C001F018EC07F004C000F005C001F070
:1026A000AFC002F0036A18EC07F000500001B16FF0
:1026B000B151800A760FD8A002D0070EB1270001D1
:1026C000B74BB82BAC51AB110AE0B151300FABC0D6
:1026D000E9FFACC0EAFFEF6EAB4BAC2B05D00001BD
:1026E000B151300F03EC00F0AFC002F0036AB90E35
:1026F000E96E000EEA6EEE50006EEF50016E18ECBF
:1027000007F00550ED6E0450EF6EEE50ED10BAE19B
:10271000090E0001B26502D0070EB2270001B74BC7
:10272000B82BAC51AB1108E0B251300FABC0E9FF90
:10273000ACC0EAFFEF6E36D00001B251300F03ECAF
:1027400000F0A8D60001B151800A7E0FD8A014D0A5
:102750000001B74BB82BAC51AB1109E0ABC0E9FF9E
:10276000ACC0EAFF200EEF6EAB4BAC2B03D0200EBB
:1027700003EC00F0B107E6D7B5C0E9FFB6C0EAFF49
:102780000001020EB527000EB623EF50B26FB74B13
:10279000B82BAC51AB1109E0ABC0E9FFACC0EAFF0C
:1027A000B2C0EFFFAB4BAC2B75D60001B25103ECBE
:1027B00000F070D6B5C0E9FFB6C0EAFF0001020E16
:1027C000B527000EB623EECF00F0EDCF01F000C02C
:1027D00010F001C011F0D96A10C000F011C001F072
:1027E000D9500024026E000E0120036E02C0F6FFD5
:1027F00003C0F7FF030EF76403D00800F55005D0BF
:10280000F6CFE9FFF7CFEAFFEF50000902E0D92A3F
:10281000E3D70001AF51D96002D0D950AF6F0001AA
:10282000AF51B1BF3BD0FF0AB1250001D8A036D0CF
:10283000B74BB82BAC51AB1109E0ABC0E9FFACC052
:10284000EAFF200EEF6EAB4BAC2B03D0200E03EC57
:1028500000F0B107E4D7000110C000F011C001F092
:102860000028106F02E10128116F00C0BBF001C009
:10287000BCF0F8DD0001B26FB74BB82BAC51AB1117
:1028800009E0ABC0E9FFACC0EAFFB2C0EFFFAB4B61
:10289000AC2B04D00001B25103EC00F0AF07AF291C
:1028A00001E1F8D5D8D7ADC0BBF0AEC0BCF0DADDE1
:1028B0002A0A0EE1B5C0E9FFB6C0EAFF0001020E28
:1028C000B527000EB623EF50AF6FAD4BAE2B22D025
:1028D0000001AD51BB6FAE51BC6FAD4BAE2BC2DD35
:1028E000D00F0001AF6FADC0BBF0AEC0BCF0BADD21
:1028F000D96E2F0ED9640ED03A0ED9600BD00001DC
:10290000AF510A0DD950F324D00FDED70001B0B576
:102910002DD0B0890001AD51BB6FAE51BC6FAD4B36
:10292000AE2BA0DD0001B26FB25101E1D2D52A0A6F
:1029300001E1DED5010A01E1E6D5050AB4E01E0A8F
:10294000E5E0680A01E1E2D53B0A01E1FBD6070AAE
:1029500001E1E0D50B0A01E1DBD51C0A01E12AD730
:10296000060A01E1D8D50D0A01E1D0D52F0EB265D6
:102970000BD03A0EB26108D0B085B1510A0DB251F8
:10298000F324D00FB16FC6D70001B74BB82BAC51B1
:10299000AB1101E001D7B25103EC00F07BD500018F
:1029A000AC51AB1106E0ABC0E9FFACC0EAFF000ED2
:1029B000EF6AB7C000F0B8C001F01200150E0001B8
:1029C000136F146B1DEC33F0E8CF34F30301376B56
:1029D0000301356B0301326B0201140E396F000ED7
:1029E0003A6B120034C3E8FF4DEC34F000090CE1FF
:1029F0000301356B070EE8CF30F30301376B03019A
:102A0000326B0301386B010C34C3E8FFDAEC36F0AB
:102A1000000947E0ACEC06F000C03DF201C03EF218
:102A200002C03FF203C040F20001120E986F000E88
:102A3000996F34C3E8FF82EC36F0006E00C002F0FC
:102A4000036A0350021011E035C3E8FF03EE43F0C0
:102A5000E926000EEA2212C0EFFF0301352B35C331
:102A6000E8FF1F0AE1E1356BDFD734C3E8FF15EC5F
:102A700036F0000112510A0A01E0C4D035C3E8FF64
:102A800003EE43F0E926000EEA22EF6A0301356BFC
:102A900013DA41C219F042C21AF0EAD9E8CF30F392
:102AA000B1D00301375301E1ADD0ACEC06F000C06A
:102AB00013F001C014F002C015F003C016F0130E9D
:102AC000E96E000EEA6E3DC2E8FFEE5E3EC2E8FF30
:102AD000EE5A3FC2E8FFEE5A40C2E8FFED5AED520F
:102AE000ED520001000E165D08E1000E155D05E1D6
:102AF000460E145D02E1500E135DD8A083D0ACECFD
:102B000006F000C03DF201C03EF202C03FF203C039
:102B100040F2020EE8CF30F3010EE8CF37F372D067
:102B20000301336BACEC06F000C03DF201C03EF295
:102B300002C03FF203C040F234C3E8FF89EC35F035
:102B4000000934C3E8FFFAE089EC35F0000935E00C
:102B500033C3E8FF020D0C0EF324E96E010EF420DE
:102B6000EA6EEECF17F0EDCF18F0000117C0F6FFB8
:102B700018C0F7FF172B000E1823030EF76403D0BD
:102B80000800F55005D0F6CFE9FFF7CFEAFFEF5088
:102B9000126F125108E0000112519E6F34C3E8FF1A
:102BA000A4EC35F0E2D734C3E8FFCDEC34F00B0EE3
:102BB000E8CF33F3010EE8CF37F330C3E8FF070A5D
:102BC00029E030C3E8FF27D8000914E033C3E8FF49
:102BD0000B0A04E0040EE8CF37F306D030C3E8FF59
:102BE000020A02E10301376B070EE8CF30F303015D
:102BF000386B010C33C3E8FF0B0A0CE0040EE8CF7E
:102C000037F39AD737C3E8FF000A8AE0010AD5E014
:102C1000050A92E0010CD96E58D00301328132933B
:102C2000010EE8CF33F30001390E196F030E1A6F4E
:102C300000EE1BF043C2EEFF44C2EDFF0A0E1D6F13
:102C40001E6B85EC07F0010C030132B102D0060EB9
:102C500017D00001390E196F030E1A6F00EE1BF02A
:102C600043C2EEFF44C2EDFF0EEC30F0006E00C038
:102C700002F0036A03500210EAE003013283020EFD
:102C8000E8CF33F3010C2FD04BC2AAF04CC2ABF00B
:102C900007EC08F000C03AF24DC2AAF04EC2ABF009
:102CA00007EC08F000C039F20A0EEAD757D00A0E36
:102CB000E8CF33F331C3E8FFFE0A14E031C3E8FF85
:102CC0005CEC34F0010C050EDBD7D950A6E0010A0C
:102CD000BBE0030AD8E0010AE9E0070AD5E0010AEF
:102CE000E6E0F1D7010C31D038C3E8FF020AD8B4CE
:102CF000A0EC0CF031C3E8FFFE0A10E0A0EC0CF0F1
:102D000031C3E8FF5CEC34F0010EE8CF38F3000C7F
:102D100031C3E8FF4DEC34F000091FE1030EE8CFAA
:102D200033F3E8CF38F3000C34C3E8FF89EC35F017
:102D3000000913E034C3E8FF4DEC34F000090DE066
:102D400034C3E8FF5CEC34F0000C38C3E8FF000A41
:102D5000CBE0010ADDE0020AE7E0000C7ED00301CF
:102D600032B304D0060EE8CF33F3010C070EE8CFE0
:102D700033F334C3E8FF260D310EF32400011A6F3C
:102D8000010EF4201B6F00EE1CF039C2EEFF3AC2B8
:102D9000EDFF72EC33F0E8CF31F3010E10D031C308
:102DA000E8FF4DEC34F0000961E0030167535EE198
:102DB000E9EC0CF000C03BF201C03CF2020EE8CF9F
:102DC00038F3000C31C3E8FFDAEC36F0000930E0EC
:102DD000ACEC06F000C03DF201C03EF202C03FF292
:102DE00003C040F23BC2BDF03CC2BEF0F0EC0CF0C0
:102DF0000001190E986F000E996F31C3E8FF82EC45
:102E000036F0006E00C002F0036A0350021005E0C5
:102E1000000119510AEC0DF0EBD725EC0DF000C0C4
:102E20003BF201C03CF231C3E8FF15EC36F0000C78
:102E300031C3E8FF4DEC34F0000918E125EC0DF04A
:102E4000A0EC0CF031C3E8FF5CEC34F0FE0EE8CFF0
:102E500031F3090EE8CF33F3010C38C3E8FF000A61
:102E600001E17DD7010A9BE0030AACE0000C1900E8
:102E700000011B6B19C0ACF01AC0ADF000011B5172
:102E8000020D000EF324E96E010EF420EA6EEECF7F
:102E9000AEF0EDCFAFF0040EB06FB16B4CEC07F0BD
:102EA0000150001003E100011B51120000011B2B17
:102EB000050E1B65DFD7060C006A430EE16E030E9C
:102EC000E26EE750200A02E1E652FBD7E1CF41F281
:102ED000E2CF42F2010EE8CF36F328D0D950200AD3
:102EE00003E0D9502C0A05E1000EE76E010E006EDA
:102EF0001CD0D9500D0A03E0D9500A0A16E1000E81
:102F0000E76E13D0D950200A10E036C3E8FF020D57
:102F1000410EF324D96E020EF420DA6EE1CFDEFF0B
:102F2000E2CFDDFF0301362B006AE652E750D96E8F
:102F3000D950D8B412000050D1E0010AE3E0F5D72F
:102F40001200AA0E046E056A066A076A120EE96E7E
:102F5000000EEA6E5CEC06F00001FF0E1207132370
:102F6000142315231551121113111411D8B4120082
:102F7000F3D79494828412008294C80E0001126FD9
:102F8000136B146B156BDDDF8284C80E0001126FAA
:102F9000136B146B156BD5DF8294C80E0001126F92
:102FA000136B146B156BCDDF8284C80E0001126F9A
:102FB000136B146B156BC5DF0001DC0E126F050E71
:102FC000136F146B156BBDD7D96ED906D928D8B439
:102FD000120082940001E80E126F030E136F146B3F
:102FE000156BAFDF82840001E80E126F030E136FC2
:102FF000146B156BA6DFE9D71200720E046E010E7A
:10300000056E066A076A120EE96E000EEA6E5CEC47
:1030100006F00001FF0E1207132314231523155188
:10302000121113111411D8B41200F3D7A2DF030147
:10303000DF5302E0010EC8DF0301E05302E0020E9D
:10304000C3DF0301E15302E0030EBEDF0301DC53E3
:1030500002E0040EB9DF0301DD5302E0050EB4DF28
:103060000301DE5302E0060EAFDF2BC3E8FF0A0ABE
:1030700004E02BC3E8FF070FA7DF2CC3E8FF0A0A11
:1030800004E02CC3E8FF0F0F9FDF2DC3E8FF0A0AFF
:1030900004E02DC3E8FF170F97DF0F0EC16E926893
:1030A00093689468FFD70F0EC16E92689468936816
:1030B000939281820A0E0001126F136B146B156BD1
:1030C0009CDF80CFE2F328C3E8FFFF0A0301E2138D
:1030D000E2C300F0002804E0010EE8CFDCF3A6DF35
:1030E00081CFE3F329C3E8FFFF0A0301E313E3C33E
:1030F00000F0002804E0010EE8CFDDF397DF82CF77
:10310000E4F32AC3E8FFFF0A0301E413E4C300F079
:10311000002804E0010EE8CFDEF388DF0F0EC16E59
:10312000926894689368939281920A0E0001126FDC
:10313000136B146B156B61DF80CFE2F328C3E8FFDC
:103140000301E217E25304E0010EE8CFDFF36EDF84
:1031500081CFE3F329C3E8FF0301E317E35304E05E
:10316000010EE8CFE0F362DF82CFE4F32AC3E8FF89
:103170000301E417E45304E0010EE8CFE1F356DF66
:103180000F0EC16E9268946893689568070E966EEC
:10319000939281820A0E0001126F136B146B156BF0
:1031A0002CDF02EE87F0EE6AEE6A0201000E885D07
:1031B000080ED8B4875DD8B070D028C300F087C29D
:1031C00002F0010E016E022A02D0D8900136022EC2
:1031D000FCD7005001145CE087C201F0010E006EC4
:1031E000012A02D0D8900036012EFCD7001C926E26
:1031F00087C201F0010E006E012A02D0D89000367D
:10320000012EFCD7001C806E0A0E0001126F136B9A
:10321000146B156BF2DE80CFE2F328C3E8FFFF0AE0
:103220000301E21387C202F0010E006E016A022A56
:1032300003D0D89000360136022EFBD7001C026E58
:10324000011C036E036AE2C3E8FF021801E10352A6
:1032500003E087C22BF3EADE81CFE3F329C3E8FF63
:10326000FF0A0301E313E3C300F0002803E087C271
:103270002CF3DCDE82CFE4F32AC3E8FFFF0A03016C
:10328000E413E4C300F0002803E087C22DF3CEDE90
:103290000201872B000E882388D70F0EC16E92681B
:1032A00094689368939281820A0E0001126F136BE7
:1032B000146B156BA2DE02EE87F0EE6AEE6A020175
:1032C000000E885D080ED8B4875DD8B072D029C3CF
:1032D00000F087C202F0010E016E022A02D0D890DF
:1032E0000136022EFCD7005001145EE087C201F0C7
:1032F000010E006E012A02D0D8900036012EFCD7B4
:1033000000500209FF0A936E87C201F0010E006EA1
:10331000012A02D0D8900036012EFCD7001C816E05
:103320000A0E0001126F136B146B156B66DE80CFF3
:10333000E2F328C3E8FFFF0A0301E213E2C300F04F
:10334000002803E087C22BF371DE81CFE3F329C3AA
:10335000E8FFFF0A0301E31387C202F0010E006ECB
:10336000016A022A03D0D89000360136022EFBD71C
:10337000001C026E011C036E036AE3C3E8FF02181F
:1033800001E1035203E087C22CF350DE82CFE4F365
:103390002AC3E8FFFF0A0301E413E4C300F0002896
:1033A00003E087C22DF342DE0201872B000E882343
:1033B00086D70F0EC16E926894689368939281824B
:1033C0000A0E0001126F136B146B156B16DE02EE02
:1033D00087F0EE6AEE6A0201000E885D080ED8B42E
:1033E000875DD8B070D02AC300F087C202F0010E0A
:1033F000016E022A02D0D8900136022EFCD700506E
:1034000001145CE087C201F0010E006E012A02D0B7
:10341000D8900036012EFCD7001C946E87C201F0B4
:10342000010E006E012A02D0D8900036012EFCD782
:10343000001C826E0A0E0001126F136B146B156B69
:10344000DCDD80CFE2F328C3E8FFFF0A0301E213CB
:10345000E2C300F0002803E087C22BF3E7DD81CF51
:10346000E3F329C3E8FFFF0A0301E313E3C300F01A
:10347000002803E087C22CF3D9DD82CFE4F32AC30E
:10348000E8FFFF0A0301E41387C202F0010E006E99
:10349000016A022A03D0D89000360136022EFBD7EB
:1034A000001C026E011C036E036AE4C3E8FF0218ED
:1034B00001E1035203E087C22DF3B8DD0201872B3F
:1034C000000E882388D755DD57DDFED7D96AD9503D
:1034D000160DD40EF324E96E010EF420EA6EEE6AA6
:1034E000ED6AD950160DDD0EF324E96E010EF420BD
:1034F000EA6EFE0EEF16D92A010ED964E8D7120043
:103500002400C80EE16E010EE26E00012A6B00EE8F
:103510000CF0E150E926E250EA22EE50ED1042E1D3
:1035200000EE0CF0E150E926E250EA2224C0EEFF62
:1035300025C0EDFFE1CF2BF0E2CF2CF000012751A9
:1035400026110DE02BC0A3F02CC0A4F026C0A5F0DE
:1035500027C0A6F00A0EA76FA86BC4EC07F02BC01B
:10356000E1FF2CC0E2FF00EE0AF0E150E926E25054
:10357000EA2228C0EEFF29C0EDFF00EE0EF0E15078
:10358000E926E250EA22EE6AED6A00EE10F0E15020
:10359000E926E250EA22EE6AED6A2AC08AF30001C7
:1035A0002A511200160EE126000EE22200012A2BFB
:1035B000010E2A65ACD7FF0CD96ED950160DD40E6A
:1035C000F324E96E010EF420EA6E000EEE6AED6A55
:1035D00012000001266F8AC3E8FF160DC80EF324FF
:1035E000E16E010EF420E26EE1CF27F0E2CF28F089
:1035F00000EE0EF0E150E926E250EA22EE50ED1026
:103600001CE100EE12F02751E9262851EA22EF6A68
:103610001C0EF76FF86B00EE12F02751E9262851C7
:10362000EA22EF5073EC28F0000100EE13F027516E
:10363000E9262851EA22EE6AED6A00012651D9EC0A
:1036400029F027C0E1FF28C0E2FF00EE0EF0E150B4
:10365000E926E250EA22EECF00F0EDCF01F000EED5
:1036600013F0E150E926E250EA22EFCF02F0EE2A11
:10367000EFCF03F0000EED220150035C02E1005099
:10368000025CD8A009D000EE0EF0E150E926E2502D
:10369000EA22EE2A000EED2200EE0EF0E150E926BD
:1036A000E250EA22EECFF3FFEDCFF4FF030EF45C1D
:1036B000D60ED8B4F35CD8B001D8010CF6EC26F0E5
:1036C0000009FCE08AC3E8FF160DC80EF3240001D0
:1036D000296F010EF4202A6F00EE0CF02951E92623
:1036E0002A51EA22EECFF9F0EDCFFAF0DFEC0EF03E
:1036F00000C02BF001C02CF0000100EE0AF02951AF
:10370000E9262A51EA22EECFF9F0EDCFFAF0DFEC0C
:103710000EF000C02DF001C02EF0000100EE0EF002
:103720002951E9262A51EA22EECF00F0EDCF01F02F
:10373000080E00242F6F000E0120306F316B326BAA
:10374000140EF76FF86B00EE12F02951E9262A519A
:10375000EA22EF5073EC28F029C0DEF02AC0DFF037
:10376000110E0001E06F2FC0E1F030C0E2F0C6ECB6
:103770000DF02FC0F9F030C0FAF0DFEC0EF000C011
:103780002FF001C030F000012B0EFC6F000EFD6F1A
:10379000080EFE6FFF6BE8EC29F02BEC28F029C037
:1037A000E1FF2AC0E2FF00EE12F0E150E926E2500C
:1037B000EA22FF0EEF6E00EE0EF0E150E926E25035
:1037C000EA22000EEE6AED6A1200D96ED9CF8AF3B2
:1037D0008AC3E8FF160DD80EF324D96E010EF4202B
:1037E000DA6EDE50DD10000ED8A4010E12002C009F
:1037F0008AC3E8FF160DD80EF324E96E010EF420FB
:10380000EA6EEE50ED1001E1000C8AC3E8FF160DE0
:10381000DD0EF324E96E010EF420EA6EEF50006E27
:1038200000A011D08AC3E8FF160DDD0EF324E96E67
:10383000010EF420EA6EFE0EEF16080E00019C6FDA
:103840009D6B41EC0EF0A6EC29F02CC0E9FF2DC0D9
:10385000EAFFEF6E8AC3E8FF160DD80EF324E96E77
:10386000010EF420EA6EEE06000EED5A8AC3E8FF60
:10387000160DD80EF324E96E010EF420EA6EEE5018
:10388000ED10D8B4FFEC26F0010C8AC3E8FF160D4A
:10389000D80EF324E96E010EF420EA6EEE50ED101E
:1038A000D8A4FFEC26F08AC3E8FF160DD80EF32447
:1038B000E96E010EF420EA6E000EEE6AED6A120067
:1038C00018000001210E4E6F000E4F6F080E506F52
:1038D000516BB4EC29F021C0F9F022C0FAF0DFEC12
:1038E0000EF000C021F001C022F023C0F9F024C086
:1038F000FAF0DFEC0EF000C023F001C024F025C088
:10390000F9F026C0FAF0DFEC0EF0F80E002400010A
:10391000256FFF0E0120266F27C0F9F028C0FAF0AE
:10392000DFEC0EF000C027F001C028F0000100EE2F
:1039300006F01851E9261951EA22EECF29F0EECF10
:103940002AF0EECF2BF0EECF2CF01AC0E1FF1BC017
:10395000E2FFE7502D6F00EE01F0E150E926E25062
:10396000EA22EF502E6F00EE02F0E150E926E2501D
:10397000EA22EF502F6F00EE03F0E150E926E2500B
:10398000EA22EF50306F316B110E326F1CC033F0F2
:103990001DC034F033C0F9F034C0FAF0DFEC0EF0A3
:1039A00000C033F001C034F00001290EDE6F000EBC
:1039B000DF6F0C0EE06FE16B36EC0FF0001C0001C6
:1039C0001F6F011C206F060E9C6F9D6B41EC0EF06B
:1039D00000011F51D9EC29F0070E00019C6F9D6B6F
:1039E00041EC0EF000012051D9EC29F000019C6B54
:1039F0009D6B41EC0EF01CC0DEF01DC0DFF036EC1C
:103A000029F000C01FF001C020F000EE27F00001F7
:103A1000EE522051ED181FC0E8FFD8B4EF1803E0B4
:103A2000FFEC26F0010C0001210E356F000E366F01
:103A300018C037F019C038F01AC039F01BC03AF07E
:103A400022D800011E6F1E2903E1FFEC26F0010CB5
:103A500000011E51160DD80EF324E96E010EF4205C
:103A6000EA6E25C0EEFF26C0EDFF1E51160DDD0EDD
:103A7000F324E96E010EF420EA6EEF50FE0B01090B
:103A8000EF6E010C350000013B69C80ED96E010EC6
:103A9000DA6EF36A000110EE02F03551E12636517C
:103AA000E22200EE0CF0D950E926DA50EA22EE527A
:103AB000E652E550ED18E7CFE8FFD8B4EF1848E13B
:103AC00035C0E9FF36C0EAFF10EE0AF0D950E12612
:103AD000DA50E222E652EE52ED50E518EFCFE8FF61
:103AE000D8B4E71832E100EE10F0D950E926DA50E8
:103AF000EA22EE50ED1029E110EE06F03751E126F2
:103B00003851E22200EE06F0D950E926DA50EA22D6
:103B1000EE50E61808E1EE50E61805E1EE50E61822
:103B200002E1EE50E6180FE039C0E9FF3AC0EAFFC3
:103B3000EE1CFF0ED8B4EE18FF0ED8B4EE18FF0E30
:103B4000D8B4EE1802E1F3501200F35000013B6FBD
:103B5000160ED926000EDA22F32A010EF3649AD744
:103B600000013B2928E03B51160DC80EF324D96E05
:103B7000010EF420DA6ED9CFA3F0DACFA4F0D9CFBA
:103B80003CF0DACF3DF037C0A5F038C0A6F00A0E01
:103B9000A76FA86BC4EC07F035C0E9FF36C0EAFF99
:103BA000000110EE0AF03C51E1263D51E222EECF39
:103BB000E6FFEDCFE5FF00013B51120025C3E8FF12
:103BC000070AD8B4120026C300F0002804E026C378
:103BD000E8FFDCEC1AF0FF0EE8CF26F30301256BBB
:103BE00003012F6B03012791120049D100011A69CB
:103BF0001B691C691D691E691F6920692169226989
:103C0000236902EE31F0EE6AEE6AEE6AEE6A440E65
:103C1000246F256B1A0E266F000E276F430E286F38
:103C2000296B81EC1AF0E8CF26F3ACEC06F000C06B
:103C300021F201C022F202C023F203C024F2010EDD
:103C4000E8CF25F3ACEC06F021C2E8FF005C046E7F
:103C500022C2E8FF0158056E23C2E8FF0258066E33
:103C600024C2E8FF0358076E000E075C08E1000E4F
:103C7000065C05E1000E055C02E1140E045CD8A0B0
:103C80001200020EE8CF25F31200030127A104D091
:103C9000040EE8CF25F3120026C38AF3F6EC26F0D3
:103CA0000009D8B41200010EADDAACEC06F000C089
:103CB00021F201C022F202C023F203C024F2030E5B
:103CC000E8CF25F31200ACEC06F021C2E8FF005C5F
:103CD000046E22C2E8FF0158056E23C2E8FF0258B5
:103CE000066E24C2E8FF0358076E000E075C08E169
:103CF000000E065C05E1000E055C02E1C80E045CE6
:103D0000D8A003D0020EE8CF25F326C3E8FFE5ECE8
:103D10001BF00009D8B41200D0D8020AD8A41200AF
:103D2000040EE8CF25F326C38AF3F6EC26F000094B
:103D3000D8B41200030E66DAACEC06F000C021F233
:103D400001C022F202C023F203C024F2050EE8CF24
:103D500025F3120026C3E8FFE5EC1BF0000941E063
:103D6000ACD80001186F1851060A04E1040EE8CF20
:103D700025F3120000011851050AD8A4120026C329
:103D8000E8FFDCEC1AF0FF0EE8CF26F3ACEC06F00F
:103D900000C021F201C022F202C023F203C024F2CB
:103DA000060EE8CF25F331C204F232C205F233C267
:103DB00006F234C207F235C20EF236C20FF237C233
:103DC00010F238C211F22DC212F22EC213F22FC21B
:103DD00014F230C215F2030127810301010E2F2BCB
:103DE0001200ACEC06F021C2E8FF005C046E22C2B7
:103DF000E8FF0158056E23C2E8FF0258066E24C290
:103E0000E8FF0358076E000E075C08E1000E065C31
:103E100005E1000E055C02E1C80E045CD8A01200AA
:103E2000020EE8CF25F31200ACEC06F021C2E8FF49
:103E3000005C0001196F630E19651200640E016EBB
:103E40001951EAEC06F002EE25F0EE5E000EEE5A95
:103E5000EE5AED5AED52ED5202012551261127116D
:103E6000281102E10301256BACEC06F000C021F241
:103E700001C022F202C023F203C024F2120025C3C3
:103E8000E8FF000A01E1B2D6010A01E1DBD6030A2C
:103E900001E1FBD6010A01E116D7070A01E143D788
:103EA000010A01E157D7030ABFE01200080EE8CF6C
:103EB00025F326C3E8FFDCEF1AF00001256B0201B1
:103EC000286B276B266B3C0E256F0001270E2C6F8D
:103ED000000E2D6FF8EC1BF000012751020A01E0E3
:103EE0006CD1266B09D00001270E2C6F000E2D6FB0
:103EF000F8EC1BF00001262B0E0E2665F4D700010E
:103F0000310E2C6F020E2D6FF8EC1BF00001320EFB
:103F10002C6F020E2D6FF8EC1BF00001330E2C6F8E
:103F2000020E2D6FF8EC1BF00001340E2C6F020E08
:103F30002D6FF8EC1BF00001266B09D00001270E55
:103F40002C6F000E2D6FF8EC1BF00001262B070ED6
:103F50002665F4D70001266B13D00001270E2C6FC5
:103F6000000E2D6FF8EC1BF00001265102EE08F058
:103F7000E926000EEA22EF50271901E040D1262B56
:103F8000050E2665EAD70001266B09D00001270E31
:103F90002C6F000E2D6FF8EC1BF00001262BCD0EC0
:103FA0002665F4D70001246B0001270E2C6F000E4C
:103FB0002D6FF8EC1BF0EAD00001270E2C6F000EDD
:103FC0002D6FF8EC1BF00001270501E018D1250E3C
:103FD0002C6F000E2D6FF8EC1BF0EBD00001270EBC
:103FE0002C6F000E2D6FF8EC1BF000012751040A16
:103FF00001E005D1350E2C6F020E2D6FF8EC1BF091
:104000000001360E2C6F020E2D6FF8EC1BF0000134
:10401000370E2C6F020E2D6FF8EC1BF00001380EDE
:104020002C6F020E2D6FF8EC1BF0C3D00001270E91
:104030002C6F000E2D6FF8EC1BF0030E00012765AE
:10404000DED02D0E2C6F020E2D6FF8EC1BF0000150
:104050002E0E2C6F020E2D6FF8EC1BF000012F0EB0
:104060002C6F020E2D6FF8EC1BF00001300E2C6F40
:10407000020E2D6FF8EC1BF0FC0E0001272700014B
:104080002707272901E196D0260E2C6F000E2D6FF1
:10409000F8EC1BF0F4D70001270E2C6F000E2D6FEB
:1040A000F8EC1BF000012751040A01E0A8D02B0E08
:1040B0002C6F000E2D6FF8EC1BF000012A0E2C6FF8
:1040C000000E2D6FF8EC1BF00001290E2C6F000E76
:1040D0002D6FF8EC1BF00001280E2C6F000E2D6FD9
:1040E000F8EC1BF066D0010E0001246F62D00001D5
:1040F000270E2C6F000E2D6FF8EC1BF000012751DE
:10410000040A7DE1280E2C6F020E2D6FF8EC1BF0D7
:104110000001270E2C6F020E2D6FF8EC1BF0000132
:10412000260E2C6F020E2D6FF8EC1BF00001250EF1
:104130002C6F020E2D6FF8EC1BF002EE28F0000E33
:10414000ED5C08E1000EED5C05E1070EED5C02E1BF
:10415000090EEF5CD8A02DD00201F80E25272623EA
:10416000FF0E2723282325D00001270E2C6F000ED9
:104170002D6FF8EC1BF00001270727291BE0260E06
:104180002C6F000E2D6FF8EC1BF0F5D700012751B6
:10419000010A01E123D7020A01E148D7300AA7E06A
:1041A000060A01E109D7030A01E175D7C90A9BE0B4
:1041B000DBD70001245101E1F7D600012551020AA5
:1041C00009E128C029F229C02AF22AC02BF22BC00B
:1041D0002CF210D002EE29F00001EE50281908E16F
:1041E000EE50291905E1EE502A1902E1EE502B1983
:1041F000D8A4256B45EC1CF000012551120045ECBC
:104200001CF0000C0001246F010EE9EC1AF0010E05
:10421000E9EC1AF0060EE9EC1AF0000EE9EC1AF0DF
:10422000120EE9EC1AF0230EE9EC1AF0340EE9EC68
:104230001AF0560EE9EC1AF0000EE9EC1AF0000E36
:10424000E9EC1AF0800EE9EC1AF0000EE9EC1AF035
:10425000000EE9EC1AF0000EE9EC1AF0000EE9ECA1
:104260001AF0000EE9EC1AF00001256B000EE9ECE3
:104270001AF00001252B0B0E2565F8D708C2E8FFC0
:10428000E9EC1AF009C2E8FFE9EC1AF00AC2E8FF0B
:10429000E9EC1AF00BC2E8FFE9EC1AF00CC2E8FFF7
:1042A000E9EC1AF00DC2E8FFE9EC1AF00001256B09
:1042B000000EE9EC1AF00001252BC90E2565F8D790
:1042C000630EE9EC1AF0820EE9EC1AF0530EE9ECF9
:1042D0001AF0630EE9EC1AF0350EE9EC1AF0010E53
:1042E000E9EC1AF000012451E9EC1AF00001240570
:1042F0001CE00201315132113311341116E0360E37
:10430000E9EC1AF0040EE9EC1AF02CC2E8FFE9EC33
:104310001AF02BC2E8FFE9EC1AF02AC2E8FFE9EC38
:104320001AF029C2E8FFE9EC1AF0370EE9EC1AF0AE
:10433000020EE9EC1AF0010EE9EC1AF0030EE9ECBA
:104340001AF000012451030A16E1320EE9EC1AF0CA
:10435000040EE9EC1AF031C2E8FFE9EC1AF032C2BF
:10436000E8FFE9EC1AF033C2E8FFE9EC1AF034C2D6
:10437000E8FFE9EC1AF0FF0EE9EC1AF05EEF1BF033
:104380000001126B500E0001136F146B1DEC33F023
:10439000006E000112510A0D4F0EF324E96E020E59
:1043A000F420EA6E00C0EFFF12510A0D520EF32402
:1043B000E96E020EF420EA6EEF6A122B010E12650E
:1043C000E1D712000001126B0001125106D8000162
:1043D000122B010E1265F8D71200E16EE1500A0DA2
:1043E0004F0EF32400011B6F020EF4201C6F00011E
:1043F000146B1BC0E9FF1CC0EAFFEF504DEC34F01A
:10440000000901E0FBD1000100EE03F01B51E92699
:104410001C51EA22000EEF6A12001BC0E9FF1CC00B
:10442000EAFFEF50DAEC36F0000901E1FBD1010EB2
:104430000001146F176B186B0001000E185D640EFD
:10444000D8B4175DD8B01AD01751006E1851016E4C
:10445000174B182B330E0024986F000E0120996F14
:104460001BC0E9FF1CC0EAFFEF5082EC36F0006E83
:1044700000C002F0036A03500210DEE1000100EE0A
:1044800033F01751E9261851EA22EF6A1BC0E9FF01
:104490001CC0EAFFEF5015EC36F0000100EE03F00F
:1044A0001B51E9261C51EA22020EEF6E0B0E156F0E
:1044B000330E986F000E996F1D0E9A6F000E9B6F52
:1044C000150E9C6F000E9D6F090E1B259E6F000E32
:1044D0001C219F6FAFDA0001136F135101E0A2D1CD
:1044E000010E156511D01D0E986F000E996F1551B4
:1044F0009A6FAAEC2CF0000100EE09F01B51E9269E
:104500001C51EA22030EEF6E1DC098F01EC099F0F8
:1045100026EC0CF0000100EE01F01B51E9261C51C5
:10452000EA2200C0EEFF01C0EDFF1BC0E1FF1CC08E
:10453000E2FF00EE01F0E150E926E250EA22EE52FD
:10454000ED1CFF0ED8B4EF1811E100EE08F0E150B9
:10455000E926E250EA22000EEF6E00EE03F0E15091
:10456000E926E250EA22020EEF6E5CD100EE01F085
:10457000E150E926E250EA22EE50ED1008E100EEAB
:1045800008F0E150E926E250EA22030EE5D700EEFA
:1045900003F0E150E926E250EA220B0EE5D71BC0FA
:1045A000E9FF1CC0EAFFEF5089EC35F0000901E19A
:1045B00039D1000100EE08F01B51E9261C51EA2216
:1045C000EF50020D220EF324E96E010EF420EA6E84
:1045D000EECF19F0EDCF1AF0000119C0F6FF1AC0A6
:1045E000F7FF192B000E1A23030EF76403D00800FF
:1045F000F55005D0F6CFE9FFF7CFEAFFEF50E16EB7
:10460000E1500BE0E15000019E6F1BC0E9FF1CC0B0
:10461000EAFFEF50A4EC35F0DFD71BC0E9FF1CC068
:10462000EAFFEF50CDEC34F0BED01BC0E9FF1CC058
:10463000EAFFEF5089EC35F0000901E1F3D0010EFB
:104640000001146F166B16C000F0016A00507E0F57
:10465000F66E0150F76E050EF7220800F5500001C6
:104660009E6F1BC0E9FF1CC0EAFFEF50A4EC35F0C1
:104670000001162B1E0E1665E6D700EE09F01B5141
:10468000E9261C51EA22EF50140DF20EF324196FA3
:10469000040EF4201A6F000119C0F6FF1AC0F7FFCC
:1046A000192B000E1A23030EF76403D00800F550EF
:1046B00005D0F6CFE9FFF7CFEAFFEF50E16EE1500A
:1046C0000BE0E15000019E6F1BC0E9FF1CC0EAFF38
:1046D000EF50A4EC35F0DFD70001166B16C000F0E8
:1046E000016A00509E0FF66E0150F76E050EF7221C
:1046F0000800F55000019E6F1BC0E9FF1CC0EAFFD7
:10470000EF50A4EC35F00001162B030E1665E6D72A
:104710001BC0E1FF1CC0E2FF00EE09F0E150E926FA
:10472000E250EA22EF50030A08E100EE07F0E15000
:10473000E926E250EA22010E07D000EE07F0E15030
:10474000E926E250EA22000EEF6E00EE04F0E1509E
:10475000E926E250EA22030EEF6E00EE03F0E1508C
:10476000E926E250EA22010EFFD61BC0E9FF1CC079
:10477000EAFFEF50DAEC36F0000907E01BC0E9FF72
:104780001CC0EAFFEF5015EC36F01BC098F01CC0BF
:1047900099F04ED8006E00C002F0036A0350021078
:1047A00041E0A0EC0CF0000100EE03F01B51E92603
:1047B0001C51EA22090ED8D61BC0E9FF1CC0EAFF33
:1047C000EF504DEC34F000092DE01BC0E9FF1CC098
:1047D000EAFFEF5089EC35F0000924E01BC0E9FF47
:1047E0001CC0EAFFEF505CEC34F0000100EE03F077
:1047F0001B51E9261C51EA220A0EB6D6000100EE32
:1048000003F01B51E9261C51EA22EF5001E105D6C5
:10481000010AABE0030A01E1C2D60B0ACDE0020AAD
:1048200001E103D700011451D8B41200E0D598007B
:10483000000100EE01F09851E9269951EA22EECFED
:104840009EF0EDCF9FF0ACEC0CF0A6D000019B5198
:10485000250A08E100EE04F0E150E926E250EA22E0
:10486000050E11D0010E00019A6F8AD000019B51F4
:10487000250A0BE1010E9A6F00EE04F0E150E926E3
:10488000E250EA22030EEF6E7BD000019B519D6F38
:1048900000EE04F0E150E926E250EA22060EF3D7DA
:1048A00000019B519C6F9CC0A3F09DC0A4F094ECB0
:1048B0000EF0006E000100EE08F09851E9269951C3
:1048C000EA2200C0EFFF98C0E1FF99C0E2FF00EECE
:1048D00004F0E150E926E250EA22080EEF6E00EE05
:1048E00005F0E150E926E250EA22000EEE6EED6E90
:1048F00047D0000100EE05F09851E9269951EA22CF
:10490000EECF9EF0EDCF9FF09B0EA06F000EA16F3B
:1049100000EE08F09851E9269951EA22EF502FEC69
:104920002EF0000100EE05F09851E9269951EA2297
:1049300000C0EEFF01C0EDFF010E9A6F98C0E1FFCD
:1049400099C0E2FF00EE05F0E150E926E250EA22CC
:10495000EE52ED1CFF0ED8B4EF1812E18DD700EE29
:1049600004F0E150E926E250EA22EF50030A01E1A7
:104970006DD7060A01E17AD7030A92E00E0AB9E080
:1049800000019A5109E09B519E6F98C0E9FF99C0C0
:10499000EAFFEF50A4EC35F098C0E9FF99C0EAFFB8
:1049A000EF5089EC35F0000936E000019A6B00EE1B
:1049B00004F09851E9269951EA22EF50080A14E0D0
:1049C000C1EC0CF000019B6F0201821DFF0ED8B4F8
:1049D00081190AE1E2EC0CF098C0E9FF99C0EAFF06
:1049E000EF50CDEC34F0010C98C0E1FF99C0E2FF2C
:1049F00000EE07F0E150E926E250EA22EF50AFE185
:104A000000019B519E6F98C0E9FF99C0EAFFEF50EB
:104A1000A4EC35F0C1D7E2EC0CF0000100EE01F09F
:104A20009851E9269951EA2200C0EEFF01C0EDFF3E
:104A3000000C98000001A16BA66BA76BA26B98C03D
:104A4000ACF099C0ADF0A30EAE6F050EAF6F030EC4
:104A5000B06FB16B4CEC07F0015000100BE198C047
:104A6000E1FF99C0E2FF040EE126000EE222000100
:104A7000A06B02D0020CE652E750200AFCE089D07D
:104A80009CC0E9FF9DC0EAFFEF500001A25DD8B0D5
:104A90008FD077D00001D890A235006E016A013620
:104AA0009A510024E96E9B510120EA6EE1CFEEFF9E
:104AB000E2CFEDFFE750A36FA3512F0A21E0A351EE
:104AC0005C0A66E11DD00001D890A235006E016A33
:104AD00001369A510024E96E9B510120EA6EE1CF24
:104AE000EEFFE2CFEDFFA22B020EA16FE750000117
:104AF000A36FA3513F0A03E0A351260A04E1E76A2A
:104B0000010E000119D00001A3512B0A03E1200E70
:104B1000E76E3ED00001A3512E0A08E1A20506E18E
:104B2000E652E1CFA6F0E2CFA7F032D00001A351C8
:104B30003D0A04E1E76A010EA16F2AD00001A351EA
:104B40002F0A03E0A3515C0A23E1E1CF00F0E2CF9A
:104B500001F0002A000E01220001D890A235026E59
:104B6000036A03369A5102269B510322FE0E022449
:104B7000E96EFF0E0320EA6E00C0EEFF01C0EDFFFC
:104B800007D00001A15186E0010A9DE0030AAEE0D2
:104B9000E652E7500001A36FA351200A09E0A35198
:104BA00007E0A3510D0A04E0A3510A0A01E068D707
:104BB000E76A9EC0E9FF9FC0EAFF070EEF6E0001A3
:104BC000A751A61131E0A6C0ACF0A7C0ADF096EC9D
:104BD0000FF000C0A6F001C0A7F00001D60EA46F30
:104BE000040EA56FA36BA6C0ACF0A7C0ADF0A4C027
:104BF000AEF0A5C0AFF0030E0001B06FB16B4CEC8E
:104C000007F00150001007E19EC0E9FF9FC0EAFFD6
:104C1000A3C0EFFF09D0040E0001A427000EA523B6
:104C2000A32B060EA365DFD70001A25127E19AC08E
:104C3000E9FF9BC0EAFFEECFA8F0EDCFA9F0A70EE9
:104C4000AA6F050EAB6F090EAC6FAEEC0FF09AC0F9
:104C5000E9FF9BC0EAFFEECF00F0EDCF01F0090EB7
:104C60000024E96E000E0120EA6EEF6A9EC0E9FFA3
:104C70009FC0EAFF010EEF6E0001A22B9CC0E9FF6E
:104C80009DC0EAFFA2C0EFFF0001A05112008A9A66
:104C9000939A010E74EC06F08A8A010E74EC06F009
:104CA0008A86939694969488949A200EC66E9E96C1
:104CB000C78CC79E1D0EACDB0001126F12B7FAD76E
:104CC00012C000F0016A001C026E011C036E02B0EB
:104CD000F1D797DB010E74EC06F00301A46B010E13
:104CE000E8CFA5F302EE85F0EE6AEE6A0001FD6BF7
:104CF000080EDEDB0001FD6B090EDADBF70E0001AA
:104D0000FD6F0C0ED5DB1B0E0001FD6F0D0ED0DB11
:104D1000F70E0001FD6F0A0ECBDB1B0E0001FD6FCD
:104D20000B0EC6DBF80E0001FD6F040EC1DB1B0E7F
:104D30000001FD6F050EBCDB0001FD6B020EFE6F76
:104D4000AEEC2AF00D0E0001FD6F000EB1DB320E4D
:104D50000001FD6F020EACDB120E0001FD6F060EAE
:104D6000A7DB0C0E0001FD6F070EA2DBEE0E0001AB
:104D7000FD6F0A0E9DDB050E0001FD6F0B0E98DB2B
:104D80000001040EFD6F030EFE6FE8DB08C2FDF0AC
:104D9000040E8EDB09C2FDF0050E8ADB0AC2FDF0AF
:104DA000020E86DB0BC2FDF0030E82DB0CC2FDF0AF
:104DB000000E7EDB0DC2FDF0010E7ADB0001166BEA
:104DC000010E176F100EA7DB0001720E166F040E96
:104DD000176F140EA0DB000EC9DBF1EF2AF0010EF5
:104DE00033DB0030026E0230010B12001F0E10DBAD
:104DF000006E000E00A6010E120012001200030148
:104E0000A553D8A41200010EE8CFA5F385C200F087
:104E100086C201F0FF0E002400019D6FFF0E0120ED
:104E20009E6F1B0E9E5DF80ED8B49D5DD8A004D079
:104E3000F70E9D6F1B0E9E6F400E0001FF6F1E0E42
:104E400059DB0C0E0001FD6FFE6B88DB00019D51EC
:104E5000FD6F0C0E2DDB00019E51FD6F0D0E28D352
:104E60000001190EFD6F010EFE6F78DB190ED0DA0E
:104E70000001E06F0C0EFD6FFE6B70DB0E0EC8DAEA
:104E80000001DE6F0F0EC4DA0001DF6F190EFD6F37
:104E9000010EFE6F63DB190EBBDA0001E019E6E1DB
:104EA0000C0EFD6FFE6B5ADB0C0EB2DA0001E06FE8
:104EB0000D0EAEDA0001E16FDF51E15D02E1DE517E
:104EC000E05DD8B011D0DEC002F0DFC003F0E051E9
:104ED000025EE151035AF70E006E1B0E016E025086
:104EE000005E0350015A12000001E151DF1902E196
:104EF000E051DE1905E1F70E006E1B0E016E120087
:104F0000E0C000F0E1C001F00001DE51005EDF51C1
:104F1000015AFF0E00060120016E12001800000168
:104F2000190EFD6F010EFE6F19DB190E71DA000903
:104F300001E1000C0301A553D8B461DF85C283F2FF
:104F400086C284F20001FD6BFE6B08DB85C2FDF0BA
:104F5000000EAEDA86C2FDF0010EAADA00011C0EC8
:104F60004E6F000E4F6F140E506F516BFDD92EC057
:104F7000F9F02FC0FAF0DFEC0EF000C02EF001C007
:104F80002FF01CC085F21DC086F218C0A3F019C016
:104F9000A4F00001280EA56F000EA66F060EA76FE5
:104FA000A86BC4EC07F01AC0E1FF1BC0E2FFFF0EC4
:104FB000E76E00012F51080A07E12E5103E02E5140
:104FC000060AD8B42EC0E7FF0301A56B010CF70059
:104FD000020E0001FD6FFE6BC1DAF80E0001FD6FDD
:104FE000020E66DA1B0E0001FD6F030E61DA00018E
:104FF000060EFA271C0EFB23FA51FD6F060E58DA37
:105000000001FB51FD6F070E53DA000ED2D9F7C035
:10501000FCF0F8C0FDF0060E0001FE6FFF6BD8D962
:1050200008C2E8FFC6D909C2E8FFC3D90AC2E8FF2F
:10503000C0D90BC2E8FFBDD90CC2E8FFBAD90DC276
:10504000E8FFB7D9080EB5D90001F95102E0060E04
:10505000B0D1000EAED11C0EDBD9006E00A20FD075
:10506000020E0001FF6F1C0E34DA800E0001FF6F8C
:105070001F0E40DA800E0001FF6F1F0E2ADA080EA5
:10508000B1D29E0083C200F084C201F000019E51A3
:1050900000269F510122140E0024A06F000E012053
:1050A000A16F1B0EA15DF80ED8B4A05DD8A004D0EE
:1050B000080EA027E40EA1230001FD6BFE6B4EDA63
:1050C0000001A051FD6F000EF3D90001A151FD6F49
:1050D000010EEED90001A051FD6F020EE9D90001C9
:1050E000A1511ED0F700D96ED9CFA4F30001070E4D
:1050F000F7271C0EF823020EFD6FFE6B2FDA00015E
:10510000F751FD6F000ED4D90001F851FD6F010E6B
:10511000CFD90001F751FD6F020ECAD90001F85135
:10512000FD6F030EC5D14E0083C200F084C201F0B2
:1051300000014E5100264F510122140E0024526FDF
:10514000000E0120536F1B0E535DF80ED8B4525D54
:10515000D8A004D0080E5227E40E5323100E0001ED
:10516000FD6FFE6BFBD900015251FD6F100EA0D9EF
:1051700000015351FD6F110E9BD90001FF0E502508
:10518000006EFF0E5121016E005052270150532333
:105190001B0E535DF80ED8B4525DD8A004D0080E93
:1051A0005227E40E532300015251FD6F120E80D995
:1051B00000015351FD6F130E7BD9300E0001FF6FBC
:1051C0001F0E98D91F0E24D9006E00BAFBD7160EF9
:1051D0001FD90001536F170E1BD90001526F52C027
:1051E00000F053C001F01200F7000001070EF72590
:1051F000FB6F1C0EF821FC6F100EFD6FFE6BAED91D
:105200000001FB51FD6F100E53D90001FC51FD6FE1
:10521000110E4ED90001FF0EF925006EFF0EFA2186
:10522000016E0050FB270150FC23FB51FD6F120E55
:105230003FD90001FC51FD6F130E3AD9300E000129
:10524000FF6F1F0E57D91F0EE3D8006E00BAFBD7B1
:10525000160EDED80001FC6F170EDAD80001FB6FC6
:10526000FBC000F0FCC001F01200DE000001DF51C5
:10527000DE1104E1FF0E0068016812000001DE0586
:10528000DF1106E163D8016E006A001E011E1200E4
:105290000001FD6BFE6B62D9000EBAD80001E06F11
:1052A000010EB6D80001E16FE051FD6F100E00D97C
:1052B0000001E151FD6F110EFBD800011B0EE15DF5
:1052C000F80ED8B4E05DD8B015D0FF0EDE25006E24
:1052D000FF0EDF21016E0050E0270150E1231B0E7D
:1052E000E15DF80ED8B4E05DD8A00FD0080EE0273D
:1052F000E40E0AD00001FF0EDE25006EFF0EDF2156
:10530000016E0050E0270150E1230001E051FD6FE4
:10531000120ECED80001E151FD6F130EC9D8300E28
:105320000001FF6F1F0EE6D81F0E72D8006E00BA84
:10533000FBD7160E6DD80001E06F170E69D800017B
:10534000E16FE0C000F0E1C001F012008A963A0E71
:10535000C96E9EA6FED79E96C96A9EA6FED79E9649
:105360008A86C95012004E008A963A0EC96EF36AB8
:10537000F46A4EC0E1FF4FC0E2FFE5529EA6FED7A1
:105380009E9600015151F45C02E15051F35CD8B09B
:105390000AD0C96AF34AF42AE6529EA6FED79E9620
:1053A000C9CFE7FFEED78A86F3CF00F0F4CF01F044
:1053B0001200D96E8A967A0EC96E9EA6FED79E9668
:1053C000D950C96E9EA6FED79E968A861200FC0012
:1053D000FCC0E1FFFDC0E2FF8A967A0EC96E9EA670
:1053E000FED79E960001FF51FE1109E0E750C96EFD
:1053F000E652FE07D8A0FF079EB6F3D7FDD78A86F0
:1054000012008A96C9689EA6FED79E968A861200CA
:105410008A96C96E9EA6FED79E96C96A9EA6FED79C
:105420009E968A86C95012008A96C96E9EA6FED79D
:105430009E96C96A9EA6FED79E96C96A9EA6FED76C
:105440009E968A86C95012000001186F140EFD6FD7
:10545000020EFE6F83D800011851FD6F140E28D87C
:10546000010E0001FD6F120E23D800010A0EFD6F20
:10547000030EFE6F73D80A0ED7DF006E00B0FBD7A5
:105480000001140EFD6F020EFE6F68D80001FD6B67
:10549000120E0ED8180EC8DF0001196F190EC4DFE6
:1054A00000011A6F19C000F01AC001F01200FD00CF
:1054B000D96E8A96D9504009C96E9EA6FED79E968F
:1054C0000001FD51C96E9EA6FED79E968A861200E7
:1054D000FF00D96E8A96D950A009C96E9EA6FED744
:1054E0009E960001FF51C96E9EA6FED79E968A86A3
:1054F0001200FF00D96E8A96D9508009C96E9EA607
:10550000FED79E960001FF51C96E9EA6FED79E96BD
:105510008A86120016000001186F140EFD6F020E2D
:10552000FE6F1CD800011851FD6F140EC1DF000181
:105530001651FD6F160EBCDF00011751FD6F170EDF
:10554000B7DF00010A0EFD6F030EFE6F07D80A0ECB
:105550006BDF006E00A01200FAD7FD00030E000101
:10556000FF6F1F0EB6DF0001FE513DD00001136F2B
:105570000C0EFF6F1F0EADDF000E66DF00C014F0D3
:1055800001C015F000011351020A04E11551010B8D
:10559000136F0CD0000115511319FE0B1319156F61
:1055A00014C016F015C017F0000EB5DF0001020E92
:1055B000FD6FFE6FD3DF020E37DFE16E0001E150B9
:1055C0001319FE0B1319E16EE150FD6F020E70DF2F
:1055D0000001135102E1120E01D0150EFD6F040EF1
:1055E00067DF040E0001FF6F1F0E84D7040E000159
:1055F000FF6F1F0E6EDF1D0E0BDF006E00B4FBD7BA
:105600001F0E06DF006E00B6FBD7200E0001FF6FF5
:105610001E0E70D7200E0001FF6F1E0E5ADF1D0EEA
:10562000F7DE006E00A0FBD7DCD7E16E0001150E9F
:10563000FD6F030EFE6F92DFE1500001FD6F150E4E
:1056400037D70001150EFD6F030EFE6F87DF150EB5
:10565000DFD6B5EC06F0E5C3F3FFE6C3F4FFE7C31E
:10566000F5FFE8C3F6FFE9C3F7FFEAC300F0EBC3B9
:1056700001F0ECC302F0EDC303F0EEC304F0EFC39E
:1056800005F0F0C306F0F1C307F0F2C308F0F3C36E
:1056900009F0F4C30AF0F5C30BF0F6C30CF0F7C33E
:1056A0000DF0F8C30EF0F9C3DAFFFAC3D9FFFBC35C
:1056B000E2FFFCC3E1FFFDC3EAFFFEC3E9FFFFC356
:1056C000FAFF1100E9CFFEF3EACFFDF3E1CFFCF3DF
:1056D000E2CFFBF3D9CFFAF3DACFF9F30EC0F8F348
:1056E0000DC0F7F30CC0F6F30BC0F5F30AC0F4F3EA
:1056F00009C0F3F308C0F2F307C0F1F306C0F0F3FA
:1057000005C0EFF304C0EEF303C0EDF302C0ECF309
:1057100001C0EBF300C0EAF3F7CFE9F3F6CFE8F30B
:10572000F5CFE7F3F4CFE6F3F3CFE5F392D7ACA2EE
:10573000FED7AD6E12003B003BC0E1FF3CC0E2FF74
:10574000E6CFD9FFD950D8B41200D950F0DFF8D73E
:1057500032EC30F0A2EC06F01DEC0CF048EC30F02E
:105760000BEC32F081B006D0AC6AAB6A53EC18F0A7
:105770000BEC32F0F6EC0AF0C0EC21F0DEEC14F0A9
:1057800002011CB106D0010EE8CFA8F3070EE8CF46
:1057900025F3ACEC06F000C2E8FF005C046E01C229
:1057A000E8FF0158056E02C2E8FF0258066E03C208
:1057B000E8FF0358076E000E075C08E1000E065C68
:1057C00005E1000E055C02E1320E045CD8A00BD0AE
:1057D000ACEC06F000C000F201C001F202C002F21F
:1057E00003C003F28C7002EC0BF0E2EC21F0F2EC5F
:1057F00014F0AED82FC3E8FF0301A819CAE02FC3E5
:10580000A8F30001040E2E6F020E2F6F306B04D828
:105810000AEC09F0BED72E000001310EAB6F000E6E
:10582000AC6F350EAD6F080EAE6F2EC0E9FF2FC006
:10583000EAFFEF50006E00C002F0036A02C039F0C8
:1058400003C03AF0390EE8CFA9F0000EE8CFAAF075
:1058500043EC12F00001310E3B6F000E3C6F6CDF29
:105860002E0E65DF0001310EAB6F000EAC6F350EF2
:10587000AD6F080EAE6F00EE01F02E51E9262F51EC
:10588000EA22EF50006E00C002F0036A02C039F055
:1058900003C03AF0390EE8CFA9F0000EE8CFAAF025
:1058A00043EC12F00001310E3B6F000E3C6F44DF01
:1058B0002E0E3DDF0001310EAB6F000EAC6F350ECA
:1058C000AD6F080EAE6F00EE02F02E51E9262F519B
:1058D000EA22EF50006E00C002F0036A02C039F005
:1058E00003C03AF0390EE8CFA9F0000EE8CFAAF0D5
:1058F00043EC12F00001310E3B6F000E3C6F1CDFD9
:105900002E0E15DF0001310EAB6F000EAC6F350EA1
:10591000AD6F080EAE6F00EE03F02E51E9262F5149
:10592000EA22EF50006E00C002F0036A02C039F0B4
:1059300003C03AF0390EE8CFA9F0000EE8CFAAF084
:1059400043EC12F00001310E3B6F000E3C6FF4D6B9
:105950001200980098C0E9FF99C0EAFFEECF00F06E
:10596000EDCF01F000C0E9FF01C0EAFFEF50D00F1A
:10597000D96E6DD198C0E1FF99C0E2FF00EE02F050
:10598000E150E926E250EA22EECF00F0EDCF01F03F
:1059900000C0E9FF01C0EAFFEF50D00FD96E02D07E
:1059A0008B7404D0D950FCE0010AFBE0E6CFA8F0EC
:1059B000E5CFA9F00001560EAA6F060EAB6F0D0ED3
:1059C00043D1010E00019C6F00019A519C5DD8B03B
:1059D0001DD10001D8909C35006E016A01369851A6
:1059E0000024E96E99510120EA6EEECF00F0EDCF70
:1059F00001F000C0E9FF01C0EAFFEF509E6FD890B0
:105A00009C35006E016A013698510024E96E995167
:105A10000120EA6EEECF00F0EDCF01F00028E96E34
:105A2000000E0120EA6EEF509D6F9C2B9DC0A3F0ED
:105A30009EC0A4F094EC0EF000019B6F9A519C5D07
:105A4000D8B0E4D0D0D00001D8909C35006E016A67
:105A5000013698510024E96E99510120EA6EEECF8B
:105A6000AAF0EDCFABF007EC08F000C016F201C0D1
:105A700017F217C20CF216C20DF2C5D00001D89071
:105A80009C35006E016A013698510024E96E9951E7
:105A90000120EA6EEECFA3F0EDCFA4F09F0EA56F2C
:105AA000000EA66FA0DB006E00C002F0036A035078
:105AB000021001E1A8D000019B51080A1FE102EE8B
:105AC00004F0EE509F1908E1EE50A01905E1EE50E8
:105AD000A11902E1EE50A21902E003012F2B0001EF
:105AE000040EA36F020EA46F9F0EA56F000EA66F8B
:105AF000040EA76FA86BC4EC07F085D000019B5182
:105B0000090A0EE10E0EA36F020EA46F9F0EA56F81
:105B1000000EA66F040EA76FA86BC4EC07F073D03D
:105B200000019B51090A6FE1120EA36F020EA46FD0
:105B30009F0EA56F000EA66F040EA76FA86BC4EC96
:105B400007F061D098C0E1FF99C0E2FF02011CA1FB
:105B500021D00001D8909C35006E016A0136E150D9
:105B60000024E96EE2500120EA6EEECF00F0EDCFA6
:105B700001F000C0E9FF01C0EAFFEF50006ED00F56
:105B8000026E036AFF0E0322035002103CE1020181
:105B90001C9139D00001D8909C35006E016A013605
:105BA000E1500024E96EE2500120EA6EEECF00F0F1
:105BB000EDCF01F000C0E9FF01C0EAFFEF50006E39
:105BC000D00F026E036AFF0E0322035002101BE087
:105BD0000201046B056B066B076B1C810301698175
:105BE000DEEC1DF010D000019B51070A01E12BD71C
:105BF0000F0A01E143D7010A01E140D7030A01E19D
:105C00003DD7010A9FE000019C2BDED695DA98C0B3
:105C1000E9FF99C0EAFFEECFA8F0EDCFA9F00001AF
:105C2000630EAA6F060EAB6F0B0E0ED098C0E9FF85
:105C300099C0EAFFEECFA8F0EDCFA9F000016E0EFB
:105C4000AA6F060EAB6F0A0EAC6FAEEF0FF0D95015
:105C500001E190D6020A01E1B4D6E8D79E00E16ED8
:105C6000B9D18BB446D0300E45D000019E5113EE11
:105C7000A9F0E126000EE222A0C0E9FFA1C0EAFFE0
:105C8000E7CFEFFF9E5103EEA9F0E926000EEA22CE
:105C9000EF5004E1FF0E00680168120000019E4B06
:105CA0009F2B9EC000F09FC001F0120000019E518A
:105CB00013EEB1F0E126000EE222A0C0E9FFA1C080
:105CC000EAFFE7CFEFFF9E5103EEB1F0E926000EA9
:105CD000EA22EF5004E1FF0E0068016812000001A3
:105CE0009E4B9F2B9EC000F09FC001F0120081A030
:105CF000BAD7310EA0C0E9FFA1C0EAFFEF6E89D18B
:105D000000019F519E1138E1110EE8CFA6F3A26B5E
:105D1000C80EA56F030EA66F0001A25102EE08F097
:105D2000E926000EEA22EF50BBEC0EF0A5C0E9FF19
:105D3000A6C0EAFFEF6E0001A54BA62BA25102EE12
:105D400008F0E926000EEA22EF50CDEC0EF0A5C0D7
:105D5000E9FFA6C0EAFFEF6E0001A54BA62BA22B20
:105D6000A251060A09E0A5C0E9FFA6C0EAFF2D0E70
:105D7000EF6EA54BA62BD0D700019E5113EEC8F0B5
:105D8000E126000EE222A0C0E9FFA1C0EAFFE7CFB2
:105D9000EFFFA6C3E8FF9E4B9F2B9E6304D0FF0E30
:105DA0000068016812009EC000F09FC001F0120060
:105DB00000019F519E111FE1C80EAB6F030EAC6F27
:105DC000350EAD6F080EAE6F02EE16F0EECFA7F0F7
:105DD000EDCFA8F0A70EE8CFA9F0000EE8CFAAF00B
:105DE00043EC12F00001C80EAC6F030EAD6FC4ECB3
:105DF00006F000C0A6F300019E5113EEC8F0E126A4
