:020000040000FA
:10000000EBEF6DF01200FFFF00EF2EF01200FFFF8C
:10001000FFFFFFFFFFFFFFFF8BEF24F01200FFFF4A
:10002000FFFFFFFFFFFFFFFFFFFF0D0089DC000068
:10003000F30D00000100000085DC00002903000032
:100040000400000083DC0000360300000200000012
:1000500080DC00002D030000030000004ADC0000EB
:10006000000E00003600000044DC00001F0300000A
:100070000600000042DC0000340300000200000023
:1000800035DC0000F30100000D00000033DC00004F
:1000900032030000020000002FDC000025030000F6
:1000A0000400000083B90000FF0000000100000010
:1000B0001ADC0000D50200001500000018DC00006A
:1000C0003003000002000000010125511A0DF3CF9A
:1000D000E9FFF4CFEAFF000EE9260D0EEA22020E38
:1000E000E926000EEA22EECF48FEEFCF49FE0E01D0
:1000F000230E485F000E495BDAEC4CF0F3CF83FB34
:10010000F4CF84FB230E0E01586F596B0E01020EC3
:10011000566F010E576F75EC4EF083CB48FE84CBC3
:1001200049FEDAEF4CF0010126511A0DF3CFE9FF39
:10013000F4CFEAFF000EE9260D0EEA22020EE926B0
:10014000000EEA22EECF46FEEFCF47FE0E01230E51
:10015000465F000E475BCCEC4CF0F3CF83FBF4CF53
:1001600084FB230E0E015D6F5E6B0E01020E5B6F52
:10017000010E5C6FABEC4EF083CB46FE84CB47FEAA
:10018000CCEF4CF00B01006B00CB14F0156A166A33
:10019000176A080E145C000E1558000E1658000E53
:1001A000175801E3C4D000511A0DF3CF01FBF4CF6F
:1001B00002FB000E01270D0E022301CBE9FF02CB4B
:1001C000EAFF180EE926000EEA220A0EEF6E00CBB7
:1001D00014F0156A166A176AB50E0B6E010E0C6ED6
:1001E0000D6A0E6A14C006F015C007F016C008F0BC
:1001F00017C009F04DEC6DF002C014F003C015F00B
:1002000004C016F005C017F0820E1426120E152237
:10021000000E1622172201CBE9FF02CBEAFF020EE5
:1002200014C0EBFF030E15C0EBFF01CBE9FF02CBBF
:10023000EAFF020EE926000EEA22EECF14F0EFCF1D
:1002400015F0166A176AC80E1426000E152216221B
:100250001722142A15221622172201CBE9FF02CBFE
:10026000EAFF040E14C0EBFF050E15C0EBFF01CB37
:10027000E9FF02CBEAFF040EE926000EEA22EECFE8
:1002800014F0EFCF15F0166A176AC80E1426000E88
:1002900015221622172201CBE9FF02CBEAFF060E38
:1002A00014C0EBFF070E15C0EBFF01CBE9FF02CB3B
:1002B000EAFF190EE926000EEA22EF9001CBE9FFD2
:1002C00002CBEAFF190EE926000EEA22EF9201CBDB
:1002D000E9FF02CBEAFF190EE926000EEA22EF94AD
:1002E00001CBE9FF02CBEAFF190EE926000EEA2254
:1002F000EF9601CBE9FF02CBEAFF190EE926000ECB
:10030000EA22EF9801CBE9FF02CBEAFF190EE926BA
:10031000000EEA22EF9A01CBE9FF02CBEAFF190EA9
:10032000E926000EEA22EF9C0B01002B2DD78FEC63
:100330006DF006C014F007C015F014C0E6FF15C03C
:10034000E6FF45EC68F0E552E55212000B01006B48
:1003500000CB14F0156A166A176A080E145C000EBA
:100360001558000E1658000E175801E3ACD0005176
:100370001A0DF3CF01FBF4CF02FB000E01270D0E87
:10038000022301CBE9FF02CBEAFF180EEB500A086B
:1003900001E097D001CBE9FF02CBEAFF190EE92675
:1003A000000EEA22EF8001CBE9FF02CBEAFF180E34
:1003B000E926000EEA22EF6A01CBE9FF02CBEAFF51
:1003C00027C1EEFF28C1EDFF01CBE9FF02CBEAFF19
:1003D000020EE926000EEA22EECF14F0EFCF15F060
:1003E00001CBE9FF02CBEAFF0A0E14C0EBFF0B0EB4
:1003F00015C0EBFF01CBE9FF02CBEAFF020EE926B5
:10040000000EEA22EECF14F0EFCF15F001CBE9FF9A
:1004100002CBEAFF080E14C0EBFF090E15C0EBFF7C
:1004200001CBE9FF02CBEAFF040EE926000EEA2227
:10043000EECF14F0EFCF15F001CBE9FF02CBEAFFCE
:100440000E0E14C0EBFF0F0E15C0EBFF01CBE9FF42
:1004500002CBEAFF040EE926000EEA22EECF14F0EA
:10046000EFCF15F001CBE9FF02CBEAFF0C0E14C071
:10047000EBFF0D0E15C0EBFF01012169226927C1B9
:100480000EF128C10FF101CBE9FF02CBEAFF020E0A
:10049000E926000EEA22EECF10F1EDCF11F14CEC7F
:1004A00068F0F3CF14F1F4CF15F14CEC68F0F3CF12
:1004B00016F1F4CF17F100CB26F135DE0B01005118
:1004C00004D0002B45D7FE0E00D0120029C125F123
:1004D000FBDD0A0EE66EE66A020EE66E010EE66EC1
:1004E0002A0EE66E010EE66E26EC63F0146E060E22
:1004F000E15E14500CC134F10DC135F12A0E146EB9
:10050000010E156E14C0F3FF15C0F4FF00D01200E9
:100510000B01086B08CB14F0156A166A176A080EEF
:10052000145C000E1558000E1658000E175801E303
:100530003AD108511A0DF3CF09FBF4CF0AFB000E94
:1005400009270D0E0A2309CBE9FF0ACBEAFF180E93
:10055000EB500A0802E0082BDDD7230EE66EE66AB0
:10056000E66A020EE66E010EE66E74EC63F0146E3F
:10057000050EE15E14500101000E005D040E0159EC
:1005800006E3880ED8800055130E015503E2006B78
:10059000040E016F2169226900C10EF101C10FF142
:1005A000002B000E012338C10CF139C10DF10A0EE8
:1005B000E66EE66A36C1E6FF37C1E6FF020EE66E7A
:1005C000010EE66E26EC63F0146E060EE15E14502A
:1005D0004CEC68F0F3CF14F1F4CF15F14CEC68F06B
:1005E000F3CF16F1F4CF17F101011C6BE80E1D6F6C
:1005F000030E1E6F1F6B206B09CBE9FF0ACBEAFFCE
:10060000020EE926000EEA22EECF10F1EDCF11F135
:1006100009CBE9FF0ACBEAFF020EE926000EEA2227
:10062000EECF14F0EFCF15F009CBE9FF0ACBEAFFCC
:10063000080E14C0EBFF090E15C0EBFF09CBE9FF54
:100640000ACBEAFF020EE926000EEA22EECF14F0F2
:10065000EFCF15F009CBE9FF0ACBEAFF0A0E14C071
:10066000EBFF0B0E15C0EBFF09CBE9FF0ACBEAFF4E
:10067000040EE926000EEA22EECF14F0EFCF15F0BB
:1006800009CBE9FF0ACBEAFF0C0E14C0EBFF0D0EFD
:1006900015C0EBFF09CBE9FF0ACBEAFF040EE92600
:1006A000000EEA22EECF14F0EFCF15F009CBE9FFF0
:1006B0000ACBEAFF0E0E14C0EBFF0F0E15C0EBFFC6
:1006C00036C1E9FF37C1EAFF060EE926000EEA222D
:1006D000020EE926000EEA22EECF1AF0EFCF1BF051
:1006E00036C1E9FF37C1EAFF060EE926000EEA220D
:1006F0001A50EE24186E1B50EE20196E1850382533
:10070000166E19503921176E16500E19146E1750A7
:100710000F19156E09CBE9FF0ACBEAFF14C0EEFFF3
:1007200015C0EDFF09CBE9FF0ACBEAFF180EE92659
:10073000000EEA22010EEF6E8FEC6DF006C014F091
:1007400007C015F008C016F009C017F0E80E14260F
:10075000030E1522000E1622172209CBE9FF0ACB41
:10076000EAFF100EE926000EEA2214C0EEFF15C0C3
:10077000EEFF16C0EEFF17C0EEFF09CBE9FF0ACB74
:10078000EAFF190EE926000EEA22EF8208CB26F1D5
:10079000CADC0101020E7A6F08CB79F15CEC14F02F
:1007A0000B01085102D0FE0E00D0120001013A5197
:1007B0001A0DF3CFE9FFF4CFEAFF000EE9260D0E84
:1007C000EA22180EE926000EEA22EF50030802E0A2
:1007D000000E01D0010E00D0120001013B511A0D94
:1007E000F3CFC3FBF4CFC4FB000E0B01C3270D0EE8
:1007F000C4233BC125F168DCC3CBE9FFC4CBEAFFCE
:10080000180EEB50080A56E00A0A0AE0010A08E04E
:10081000020A01E099D03BC181F19DEC1AF094D01D
:100820000101142B000E1523162317230101110EAD
:100830007A6F3BC179F15CEC14F0C3CBE9FFC4CB18
:10084000EAFF180EE926000EEA22040EEF6E0101FF
:100850001C6BE80E1D6F030E1E6F1F6B206B8FEC61
:100860006DF006C014F007C015F008C016F009C0FE
:1008700017F0E80E1426030E1522000E162217227A
:10088000C3CBE9FFC4CBEAFF100EE926000EEA2233
:1008900014C0EEFF15C0EEFF16C0EEFF17C0EEFF4E
:1008A000C3CBE9FFC4CBEAFF190EE926000EEA220A
:1008B000EF824AD00101142B000E152316231723B3
:1008C0000101110E7A6F3BC179F15CEC14F0C3CBDE
:1008D000E9FFC4CBEAFF180EE926000EEA22090E52
:1008E000EF6E01011C6BE80E1D6F030E1E6F1F6B78
:1008F000206B8FEC6DF006C014F007C015F008C037
:1009000016F009C017F0E80E1426030E1522000E8B
:1009100016221722C3CBE9FFC4CBEAFF100EE9264B
:10092000000EEA2214C0EEFF15C0EEFF16C0EEFF67
:1009300017C0EEFFC3CBE9FFC4CBEAFF190EE926CF
:10094000000EEA22EF8200D03BC126F193EF00F0C7
:1009500001013C511A0DF3CFE7FBF4CFE8FB000E89
:100960000B01E7270D0EE8233CC125F164EC00F0F4
:10097000E7CBE9FFE8CBEAFF080EE926000EEA2202
:10098000EECF14F0EFCF15F001011051141802E171
:100990001151151839E00101180E7A6F3CC179F137
:1009A0005CEC14F001011C6BE80E1D6F030E1E6F52
:1009B0001F6B206B8FEC6DF006C014F007C015F0B4
:1009C00008C016F009C017F0E80E1426030E152211
:1009D000000E16221722E7CBE9FFE8CBEAFF100E44
:1009E000E926000EEA2214C0EEFF15C0EEFF16C085
:1009F000EEFF17C0EEFFE7CBE9FFE8CBEAFF190EE9
:100A0000E926000EEA22EF823CC126F193EF00F0C6
:100A100001013D511A0DF3CF83FBF4CF84FB000E8F
:100A20000B0183270D0E842383CBE9FF84CBEAFFE0
:100A3000180EEB5003080BE083CBE9FF84CBEAFFF1
:100A4000180EEB50080803E0F36AF46A82D083CBF7
:100A5000E9FF84CBEAFF080EE926000EEA22EECF7A
:100A600014F0EFCF15F083CBE9FF84CBEAFF0A0E39
:100A7000E926000EEA22EECF16F0EFCF17F016505F
:100A8000145C1750155843E383CBE9FF84CBEAFF8E
:100A9000040EE926000EEA22EECF18F0EFCF19F08F
:100AA00083CBE9FF84CBEAFF020EE926000EEA229F
:100AB000EE50185C166EEE501958176E1606000EA2
:100AC000175A83CBE9FF84CBEAFF080EE926000E14
:100AD000EA22EECF1CF0EFCF1DF083CBE9FF84CBF1
:100AE000EAFF0A0EE926000EEA22EE501C5C1A6E9E
:100AF000EE501D581B6E1A50165C146E1B50175882
:100B0000156E14C0F3FF15C0F4FF23D022D083CBA1
:100B1000E9FF84CBEAFF0A0EE926000EEA22EECFB7
:100B200016F0EFCF17F083CBE9FF84CBEAFF080E76
:100B3000E926000EEA22EE50165C146EEE501758AD
:100B4000156E1406000E155A14C0F3FF15C0F4FFFD
:100B500000D0120001013E511A0DF3CFD1FBF4CFAA
:100B6000D2FB000E0B01D1270D0ED2233EC13DF169
:100B70004FDFF3CFD3FBF4CFD4FB0B01D351D41110
:100B800003E1000EBDD008D0010ED31901E1D4510C
:100B900003E13EC13CF1DCDED1CBE9FFD2CBEAFF81
:100BA000190EE926000EEA22EF50200B2FE1D1CBDF
:100BB000E9FFD2CBEAFF040EE926000EEA22EECFCF
:100BC00016F0EFCF17F0D1CBE9FFD2CBEAFF020E40
:100BD000E926000EEA22EE50165C146EEE5017580D
:100BE000156ED890153214320B01D351145CD451C8
:100BF00015580CE33EC13CF1ABDED1CBE9FFD2CBC3
:100C0000EAFF190EE926000EEA22EF8AD1CBE9FFAE
:100C1000D2CBEAFF080EE926000EEA22EECF46FE0E
:100C2000EDCF47FECCEC4CF03FC15AFEA8EC4EF0A5
:100C3000D1CBE9FFD2CBEAFF080EE926000EEA226B
:100C4000EE2AED22EECF14F0EDCF15F0D1CBE9FF77
:100C5000D2CBEAFF040EE926000EEA22EECF16F010
:100C6000EFCF17F01650145C1750155816E3D1CB80
:100C7000E9FFD2CBEAFF020EE926000EEA22EECF10
:100C800014F0EFCF15F0D1CBE9FFD2CBEAFF080E7D
:100C900014C0EBFF090E15C0EBFF0B01010ED319B9
:100CA00001E1D45103E13EC13CF152DED1CBE9FF79
:100CB000D2CBEAFF190EE926000EEA22EF50040B10
:100CC0001DE1D1CBE9FFD2CBEAFF190EE926000ED8
:100CD000EA22EF848FEC6DF006C014F007C015F027
:100CE000280E1426000E1522D1CBE9FFD2CBEAFF45
:100CF000140E14C0EBFF150E15C0EBFF010E00D053
:100D000012000B01D56BD66B010140511A0DF3CFC8
:100D1000D7FBF4CFD8FB000E0B01D7270D0ED8233D
:100D200040C13DF175DEF3CFD3FBF4CFD4FB0B0113
:100D3000D351D41106E140C13CF10ADEF36AF46AF2
:100D400023D1D3CBD1FBD4CBD2FBD3510101435D13
:100D50000B01D4510101445904E243C1D1FB44C108
:100D6000D2FBD7CBE9FFD8CBEAFF190EE926000E5C
:100D7000EA22EF50200B2FE1D7CBE9FFD8CBEAFFD7
:100D8000040EE926000EEA22EECF16F0EFCF17F0A0
:100D9000D7CBE9FFD8CBEAFF020EE926000EEA2204
:100DA000EE50165C146EEE501758156ED890153232
:100DB00014320B01D351145CD45115580CE340C1CB
:100DC0003CF1C6DDD7CBE9FFD8CBEAFF190EE92607
:100DD000000EEA22EF8AD7CBE9FFD8CBEAFF080E54
:100DE000E926000EEA220B01D151EE24146ED251F5
:100DF000EE20156ED7CBE9FFD8CBEAFF040EE9262B
:100E0000000EEA22EECF16F0EFCF17F01650145C6A
:100E10001750155855E3D7CBE9FFD8CBEAFF040E9E
:100E2000E926000EEA22EECF14F0EFCF15F0D7CB73
:100E3000E9FFD8CBEAFF080EE926000EEA22EE50C1
:100E4000145CD56FEE501558D66FD7CBE9FFD8CBD1
:100E5000EAFF080EE926000EEA22EECF46FEEDCFAD
:100E600047FECCEC4CF0D5CB5DFED6CB5EFE41C14F
:100E70005BFE42C15CFEABEC4EF00B01D5510101B3
:100E800041270B01D651010142230B01D551D15FFE
:100E9000D651D25BD7CBE9FFD8CBEAFF020EE926C9
:100EA000000EEA22EECF14F0EFCF15F0D7CBE9FF1A
:100EB000D8CBEAFF080E14C0EBFF090E15C0EBFFFC
:100EC000D7CBE9FFD8CBEAFF080EE926000EEA22CD
:100ED000EECF46FEEDCF47FECCEC4CF0D1CB5DFE25
:100EE000D2CB5EFE41C15BFE42C15CFEABEC4EF07C
:100EF000D7CBE9FFD8CBEAFF080EE926000EEA229D
:100F00000B01D151EE26D251ED22D3510101435DA7
:100F10000B01D4510101445903E340C13CF118DDF8
:100F2000D7CBE9FFD8CBEAFF190EE926000EEA225B
:100F3000EF50040B1DE1D7CBE9FFD8CBEAFF190E28
:100F4000E926000EEA22EF848FEC6DF006C014F063
:100F500007C015F0280E1426000E1522D7CBE9FF86
:100F6000D8CBEAFF140E14C0EBFF150E15C0EBFF33
:100F70000B01D151D525146ED251D621156E14C056
:100F8000F3FF15C0F4FF00D012000B01C76BC86B54
:100F9000010145511A0DF3CFC9FBF4CFCAFB000E76
:100FA0000B01C9270D0ECA2345C13DF131DDF3CF39
:100FB000C5FBF4CFC6FB0B01C551C61106E145C107
:100FC0003CF1C6DCF36AF46A2CD1C9CBE9FFCACB89
:100FD000EAFF190EE926000EEA22EF50200B2EE15F
:100FE000C9CBE9FFCACBEAFF040EE926000EEA22CC
:100FF000EECF16F0EFCF17F0C9CBE9FFCACBEAFF6F
:10100000020EE926000EEA22EE50165C146EEE5037
:101010001758156ED89015321432C551145CC6514C
:1010200015580CE345C13CF193DCC9CBE9FFCACBB1
:10103000EAFF190EE926000EEA22EF8AC5CBC3FBB0
:10104000C6CBC4FB0B01C5510101495D0B01C65163
:1010500001014A5904E249C1C3FB4AC1C4FBC9CBDF
:10106000E9FFCACBEAFF080EE926000EEA220B01CF
:10107000C351EE24146EC451EE20156EC9CBE9FFA6
:10108000CACBEAFF040EE926000EEA22EECF16F0E4
:10109000EFCF17F01650145C175015585BE3C9CB0F
:1010A000E9FFCACBEAFF040EE926000EEA22EECFE2
:1010B00014F0EFCF15F0C9CBE9FFCACBEAFF080E59
:1010C000E926000EEA22EE50145CC76FEE50155868
:1010D000C86FC9CBE9FFCACBEAFF080EE926000EAC
:1010E000EA22EECF46FEEDCF47FECCEC4CF0C7CB6C
:1010F00062FEC8CB63FE46C15FFE47C160FE48C1C9
:1011000061FEC4EC4EF0C7CB14F0C8CB15F0166AE4
:1011100014500101462715504723165048230B0150
:10112000C751C35FC851C45BC9CBE9FFCACBEAFF53
:10113000020EE926000EEA22EECF14F0EFCF15F0F2
:10114000C9CBE9FFCACBEAFF080E14C0EBFF090EBA
:1011500015C0EBFFC9CBE9FFCACBEAFF080EE926B1
:10116000000EEA22EECF46FEEDCF47FECCEC4CF06F
:10117000C3CB62FEC4CB63FE46C15FFE47C160FEC7
:1011800048C161FEC4EC4EF0C9CBE9FFCACBEAFF0F
:10119000080EE926000EEA220B01C351EE26C451C7
:1011A000ED22C5510101495D0B01C65101014A59AA
:1011B00004E345C13CF1A8EC04F0C9CBE9FFCACB7C
:1011C000EAFF190EE926000EEA22EF50040B1DE19A
:1011D000C9CBE9FFCACBEAFF190EE926000EEA22C5
:1011E000EF848FEC6DF006C014F007C015F0280EE8
:1011F0001426000E1522C9CBE9FFCACBEAFF140E54
:1012000014C0EBFF150E15C0EBFF0B01C351C72532
:10121000146EC451C821156E14C0F3FF15C0F4FF3D
:1012200000D012004CC1E6FF4DC1E6FFDCEC63F0DC
:10123000E552E552F3CF43F1F4CF44F14CC141F113
:101240004DC142F14BC140F15CDD01014C51F32431
:10125000146E4D51F420156E14C0F3FF15C0F4FF49
:1012600000D012004FC1E6FF50C1E6FF51C1E6FFBA
:10127000EAEC63F0E552E552E55207C049F108C0D7
:101280004AF14FC146F150C147F151C148F14EC139
:1012900045F17BDEF3CF17F0F4CF18F0196A0101A6
:1012A0004F511724146E50511820156E51511920AA
:1012B000166E14C007F015C008F016C009F000D073
:1012C000120052C153F139D8F3CF14F0F4CF15F016
:1012D0001450151031E0010152511A0DF3CFC3FB28
:1012E000F4CFC4FB000E0B01C3270D0EC42352C163
:1012F00025F164EC00F0C3CBE9FFC4CBEAFF0C0E90
:10130000E926000EEA22EECF14F0EFCF15F0C3CBA2
:10131000E9FFC4CBEAFF0E0E14C0EBFF0F0E15C0A1
:10132000EBFF0101100E7A6F52C179F15CEC14F001
:1013300052C126F193EC00F01200010153511A0D35
:10134000F3CF9BFBF4CF9CFB000E0B019B270D0EF4
:101350009C239BCBE9FF9CCBEAFF0C0EE926000EF9
:10136000EA22EECF14F0EFCF15F09BCBE9FF9CCB38
:10137000EAFF0E0EE926000EEA22EECF16F0EFCFBE
:1013800017F01650145C1750155820E39BCBE9FF5B
:101390009CCBEAFF0C0EE926000EEA22EECF16F0F7
:1013A000EFCF17F09BCBE9FF9CCBEAFF0E0EE926AF
:1013B000000EEA22EE50165C146EEE501758156EB1
:1013C00014C0F3FF15C0F4FF44D043D09BCBE9FF1A
:1013D0009CCBEAFF060EE926000EEA22EECF18F0BB
:1013E000EFCF19F09BCBE9FF9CCBEAFF0E0EE9266D
:1013F000000EEA22EE50185C166EEE501958176E69
:10140000010E1626000E17229BCBE9FF9CCBEAFFAC
:101410000C0EE926000EEA22EECF1CF0EFCF1DF0F5
:101420009BCBE9FF9CCBEAFF040EE926000EEA22E3
:10143000EE501C5C1A6EEE501D581B6E16501A248E
:10144000146E17501B20156E14C0F3FF15C0F4FF67
:1014500000D0120054C153F170DFF3CF0AFBF4CF78
:101460000BFB0B010A510B1102E1000E96D001019A
:1014700054511A0DF3CF08FBF4CF09FB000E0B01FA
:1014800008270D0E092308CBE9FF09CBEAFF0E0E52
:10149000E926000EEA22EECF48FEEDCF49FEDAEC57
:1014A0004CF072EC4EF055C1E9FF56C1EAFFEF6E09
:1014B00008CBE9FF09CBEAFF0E0EE926000EEA226F
:1014C000EE2AED22EECF14F0EDCF15F008CBE9FFB8
:1014D00009CBEAFF060EE926000EEA22EECF16F04F
:1014E000EFCF17F01450165C1550175816E208CBC2
:1014F000E9FF09CBEAFF040EE926000EEA22EECF4F
:1015000014F0EFCF15F008CBE9FF09CBEAFF0E0E80
:1015100014C0EBFF0F0E15C0EBFF0B01010E0A19F3
:1015200001E10B5110E154C125F164EC00F001011F
:10153000100E7A6F54C179F15CEC14F054C126F1AD
:1015400093EC00F028D008CBE9FF09CBEAFF190E95
:10155000E926000EEA22EF50040B1DE108CBE9FF5B
:1015600009CBEAFF190EE926000EEA22EF848FEC80
:101570006DF006C014F007C015F0280E1426000EFA
:10158000152208CBE9FF09CBEAFF140E14C0EBFFCC
:10159000150E15C0EBFF010E00D012000B01C56B3C
:1015A000C66B010157511A0DF3CFC7FBF4CFC8FB2F
:1015B000000E0B01C7270D0EC82357C153F1BDDE26
:1015C000F3CFC3FBF4CFC4FB01015A510B01C35D40
:1015D00001015B510B01C45904E2C3CB5AF1C4CBE6
:1015E0005BF1C7CBE9FFC8CBEAFF0E0EE926000E80
:1015F000EA2201015A51EE24146E5B51EE20156E61
:10160000C7CBE9FFC8CBEAFF060EE926000EEA22A7
:10161000EECF16F0EFCF17F01450165C1550175898
:1016200061E2C7CBE9FFC8CBEAFF060EE926000E50
:10163000EA22EECF14F0EFCF15F0C7CBE9FFC8CB0D
:10164000EAFF0E0EE926000EEA220B01EE50145CB2
:10165000C56FEE501558C66F010EC527000EC62384
:10166000C7CBE9FFC8CBEAFF0E0EE926000EEA223F
:10167000EECF48FEEDCF49FEDAEC4CF0C5CB58FE7C
:10168000C6CB59FE58C156FE59C157FE75EC4EF0F7
:1016900001015851591108E00B01C55101015827AA
:1016A0000B01C651010159230B01C55101015A5FBC
:1016B0000B01C65101015B5BC7CBE9FFC8CBEAFF59
:1016C000040EE926000EEA22EECF14F0EFCF15F05B
:1016D000C7CBE9FFC8CBEAFF0E0E14C0EBFF0F0E1D
:1016E00015C0EBFFC7CBE9FFC8CBEAFF0E0EE9261A
:1016F000000EEA22EECF48FEEDCF49FEDAEC4CF0C8
:101700005AC158FE5BC159FE58C156FE59C157FE19
:1017100075EC4EF0C7CBE9FFC8CBEAFF0E0EE92609
:10172000000EEA2201015A51EE265B51ED225A5178
:101730000B01C35D146EC45101015B55156E14504D
:101740005A5D15505B5910E357C125F164EC00F068
:101750000101100E7A6F57C179F15CEC14F057C19A
:1017600026F193EC00F028D0C7CBE9FFC8CBEAFF05
:10177000190EE926000EEA22EF50040B1DE1C7CB3B
:10178000E9FFC8CBEAFF190EE926000EEA22EF8432
:101790008FEC6DF006C014F007C015F0280E14266B
:1017A000000E1522C7CBE9FFC8CBEAFF140E14C008
:1017B000EBFF150E15C0EBFF01015A510B01C525BA
:1017C000146E01015B510B01C621156E14C0F3FFAD
:1017D00015C0F4FF00D0120001015C511A0DF3CFC7
:1017E000E9FFF4CFEAFF000EE9260D0EEA22060E0D
:1017F000E926000EEA22EECF14F0EFCF15F05C518F
:101800001A0DF3CFE9FFF4CFEAFF000EE9260D0E23
:10181000EA22040EE926000EEA220B01EE50145CC7
:10182000856FEE501558866F5CC153F186DDF3CF9E
:1018300083FBF4CF84FB0B018351855D146E8651CD
:101840008455156E14C0F3FF15C0F4FF00D01200CC
:1018500001016051611103E1F36AF46ABFD15D5186
:101860001A0DF3CF15FBF4CF16FB000E0B01152755
:101870000D0E16235DC153F160DDF3CF00FBF4CFF5
:1018800001FB010160516225146E61516321156EE7
:101890000B011450005D1550015903E2F368F46820
:1018A0009DD115CBE9FF16CBEAFF0E0EE926000EFF
:1018B000EA2201016251EE240B01046F0101635120
:1018C000EE200B01056F15CBE9FF16CBEAFF060EE4
:1018D000E926000EEA22EECF14F0EFCF15F0045106
:1018E000145C0551155822E215CBE9FF16CBEAFF2F
:1018F000060EE926000EEA22EECF16F0EFCF17F023
:1019000015CBE9FF16CBEAFF040EE926000EEA220A
:10191000EE50165C146EEE501758156E010E14261C
:10192000000E15221450045F1550055B04CB48FED1
:1019300005CB49FEDAEC4CF015CBE9FF16CBEAFFFC
:10194000060EE926000EEA220B010451EE5C026F3E
:101950000551EE58036F010E0227000E032362C1EA
:1019600004FB63C105FB60C106FB61C107FB5EC1EF
:1019700008FB5FC109FB01015EC1E9FF5FC1EAFF2E
:101980005E2B5F23EFCF0BFB645109E0610E0B016F
:101990000B5D05E30B517A0802E3E00E0B270B0108
:1019A000080E0C6F0C51025D000E035902E202CBCF
:1019B0000CFB0C510101605D000E615902E260C137
:1019C0000CFB0B010C510E01586F596B0E010D0EE3
:1019D000566F0B0E576F75EC4EF00B010C51146ED9
:1019E000156A1450025F1550035B0251031111E197
:1019F00015CBE9FF16CBEAFF040EE926000EEA221A
:101A0000EECF48FEEDCF49FEDAEC4CF00B01026957
:101A100003690101645101E17BD00B010A6B0C5198
:101A20000A5D75E20A51EA6A0D0FE96E0B0EEA22B1
:101A3000EFCF14F0610E145C13E30A51EA6A0D0F44
:101A4000E96E0B0EEA22EF507A080AE3E00E146EFC
:101A50000A51EA6A0D0FE96E0B0EEA221450EF26C6
:101A60000A51EA6A0D0FE96E0B0EEA22EF500B5D88
:101A700031E101016007000E615B6051611117E106
:101A80000B010651045D166E05510755176E0A517C
:101A900000011624146E000E1720156E010E142678
:101AA000000E152214C0F3FF15C0F4FF97D05EC1DD
:101AB000E9FF5FC1EAFF5E2B000E5F23EFCF0BFB58
:101AC000610E0B010B5D05E30B517A0802E3E00E9A
:101AD0000B271BD006CB60F107CB61F108CB5EF181
:101AE00009CB5FF101015EC1E9FF5FC1EAFF5E2B37
:101AF000000E5F23EFCF0BFB610E0B010B5D05E3C7
:101B00000B517A0802E3E00E0B270A2B88D74BD043
:101B10000B010A6B0C510A5D46E20A51EA6A0D0F8D
:101B2000E96E0B0EEA22EF500B5D28E10101600720
:101B3000000E615B6051611117E10B010651045DFC
:101B4000166E05510755176E0A5100011624146EC2
:101B5000000E1720156E010E1426000E152214C05B
:101B6000F3FF15C0F4FF3AD05EC1E9FF5FC1EAFFA1
:101B70005E2B000E5F23EFCF0BFB12D006CB60F184
:101B800007CB61F108CB5EF109CB5FF101015EC1CA
:101B9000E9FF5FC1EAFF5E2B000E5F23EFCF0BFB77
:101BA0000B010A2BB7D70C51146E156A1450005F45
:101BB0001550015B010160510B01005D0101615194
:101BC0000B01015903E2F368F46808D00C51146E5C
:101BD000156A1450042715500523E1D6120001019F
:101BE00069516A1103E1F36AF46ADBD165511A0D98
:101BF000F3CF99FBF4CF9AFB000E0B0199270D0E42
:101C00009A2365C153F19DEC09F0F3CF83FBF4CF28
:101C100084FB010169516B25146E6A516C21156EAC
:101C20000B011450835D1550845903E2F368F46886
:101C3000B8D199CBE9FF9ACBEAFF0E0EE926000E48
:101C4000EA2201016B51EE240B01876F01016C51F7
:101C5000EE200B01886F99CBE9FF9ACBEAFF060EC5
:101C6000E926000EEA22EECF14F0EFCF15F08751EF
:101C7000145C8851155822E299CBE9FF9ACBEAFF10
:101C8000060EE926000EEA22EECF16F0EFCF17F08F
:101C900099CBE9FF9ACBEAFF040EE926000EEA226F
:101CA000EE50165C146EEE501758156E010E142689
:101CB000000E15221450875F1550885B87CB48FEB5
:101CC00088CB49FEDAEC4CF099CBE9FF9ACBEAFFDE
:101CD000060EE926000EEA220B018751EE5C856FA5
:101CE0008851EE58866F010E8527000E86236BC142
:101CF00087FB6CC188FB69C189FB6AC18AFB66C12D
:101D00008BFB67C18CFB68C18DFB010166C1F6FFCF
:101D1000662B67C1F7FF672368C1F8FF68230800D7
:101D2000F5CF8FFB6D5109E0610E0B018F5D05E36F
:101D30008F517A0802E3E00E8F270B01080E906F97
:101D40009051855D000E865902E285CB90FB905143
:101D50000101695D000E6A5902E269C190FB0B0145
:101D600090510E01586F596B0E01910E566F0B0E6C
:101D7000576F75EC4EF00B019051146E156A1450AC
:101D8000855F1550865B8551861111E199CBE9FF7E
:101D90009ACBEAFF040EE926000EEA22EECF48FEB7
:101DA000EDCF49FEDAEC4CF00B0185698669010143
:101DB0006D5101E186D00B018E6B90518E5D01E378
:101DC0007FD08E51EA6A910FE96E0B0EEA22EFCFB7
:101DD00014F0610E145C13E38E51EA6A910FE96E00
:101DE0000B0EEA22EF507A080AE3E00E146E8E51D1
:101DF000EA6A910FE96E0B0EEA221450EF268E511B
:101E0000EA6A910FE96E0B0EEA22EF508F5D35E121
:101E100001016907000E6A5B69516A1117E10B0144
:101E20008951875D166E88518A55176E8E51000153
:101E30001624146E000E1720156E010E1426000EC7
:101E4000152214C0F3FF15C0F4FFABD066C1F6FF36
:101E5000662B67C1F7FF000E672368C1F8FF682390
:101E60000800F5CF8FFB610E0B018F5D05E38F51ED
:101E70007A0802E3E00E8F2721D089CB69F18ACB63
:101E80006AF18BCB66F18CCB67F18DCB68F10101E8
:101E900066C1F6FF662B67C1F7FF000E672368C1B6
:101EA000F8FF68230800F5CF8FFB610E0B018F5DF3
:101EB00005E38F517A0802E3E00E8F278E2B7DD742
:101EC00055D00B018E6B90518E5D50E28E51EA6AB7
:101ED000910FE96E0B0EEA22EF508F5D2CE10101AC
:101EE0006907000E6A5B69516A1117E10B0189519C
:101EF000875D166E88518A55176E8E510001162423
:101F0000146E000E1720156E010E1426000E1522F9
:101F100014C0F3FF15C0F4FF44D066C1F6FF662B72
:101F200067C1F7FF000E672368C1F8FF6823080048
:101F3000F5CF8FFB18D089CB69F18ACB6AF18BCBB7
:101F400066F18CCB67F18DCB68F1010166C1F6FFBC
:101F5000662B67C1F7FF000E672368C1F8FF68238F
:101F60000800F5CF8FFB0B018E2BADD79051146E6F
:101F7000156A1450835F1550845B010169510B0190
:101F8000835D01016A510B01845903E2F368F4682F
:101F900008D09051146E156A145087271550882365
:101FA000CCD6120072C164F170C162F171C163F1EB
:101FB000010E0101606F616B01016F0E5E6F010E1A
:101FC0005F6F6EC15DF144DC00D012000B01006B4D
:101FD00000CB14F0156A166A176A080E145C000E1E
:101FE0001558000E1658000E175801E3B3D30051D0
:101FF0001A0DF3CF01FBF4CF02FB000E01270D0EEB
:102000000223036B01CBE9FF02CBEAFF190EE9269D
:10201000000EEA22EF50400B16E066EC4BF0000990
:1020200012E000CB25F164EC00F00101100E7A6F94
:1020300000CB79F15CEC14F000CB26F193EC00F0CE
:102040000B01010E036F01CBE9FF02CBEAFF190E72
:10205000E926000EEA22EF50040B3AE001CBE9FF3B
:1020600002CBEAFF140EE926000EEA22EECF16F0AC
:10207000EFCF17F016C0E6FF17C0E6FF8FEC6DF04C
:10208000E552E7CF17F0E552E7CF16F00650165CA1
:10209000146E07501758156E153404E214500008DA
:1020A000000E155415E30B01035112E100CB25F18D
:1020B00064EC00F00101100E7A6F00CB79F15CEC5A
:1020C00014F000CB26F193EC00F00B01010E036F2E
:1020D00001CBE9FF02CBEAFF190EE926000EEA2246
:1020E000EF50080B39E001CBE9FF02CBEAFF160EF7
:1020F000E926000EEA22EECF16F0EFCF17F016C059
:10210000E6FF17C0E6FF8FEC6DF0E552E7CF17F062
:10211000E552E7CF16F00650165C146E07501758BC
:10212000156E153404E214500008000E155414E323
:102130000B01035111E100CB25F164EC00F001012A
:10214000100E7A6F00CB79F1B7DB00CB26F193EC60
:1021500000F00B01010E036F01CBE9FF02CBEAFF98
:10216000190EE926000EEA22EF50020B01E1EFD230
:1021700001CBE9FF02CBEAFF100EE926000EEA22AE
:10218000EECF18F0EECF19F0EECF1AF0EFCF1BF034
:1021900018C0E6FF19C0E6FF1AC0E6FF1BC0E6FF45
:1021A0008FEC6DF0E552E7CF1BF0E552E7CF1AF068
:1021B000E552E7CF19F0E552E7CF18F000011850CB
:1021C000065C146E19500758156E1A500858166E92
:1021D0001B500958176E800E171401E0B8D20B017E
:1021E000035104E100CB25F164EC00F001011C2B4C
:1021F000D8901D371E371F3720378FEC6DF00650F3
:1022000001011D25146E07501E21156E08501F2157
:10221000166E09502021176E01CBE9FF02CBEAFFB1
:10222000100EE926000EEA2214C0EEFF15C0EEFFE4
:1022300016C0EEFF17C0EEFF01CBE9FF02CBEAFFAD
:10224000180EEB50090A01E169D2010A01E1F0D14F
:102250000F0A01E1E8D1010A01E16FD1030A01E1AE
:1022600061D1010A01E1E8D0070A4BE0010A11E05F
:10227000030A01E068D2E80E1D6F030E1E6F1F6B8C
:10228000206B1C6B0101020E7A6F00CB79F114DB1D
:102290005AD21C51050807E30101120E7A6F00CBD8
:1022A00079F10ADB2DD001CBE9FF02CBEAFF190E51
:1022B000E926000EEA22EF50010B0BE00101040EAB
:1022C0007A6F00CB79F1F8DA00CB81F19DEC1AF04E
:1022D00017D001CBE9FF02CBEAFF180EE926000E6A
:1022E000EA22010EEF6EE80E1D6F030E1E6F1F6BCC
:1022F000206B1C6B0101020E7A6F00CB79F1DCDAE6
:1023000022D201CBE9FF02CBEAFF0A0EE926000E3A
:10231000EA22EECF14F0EFCF15F01450101902E1BD
:102320001550111901E187D01C51050868E301CB54
:10233000E9FF02CBEAFF0A0EE926000EEA22EE5080
:10234000105D146EEE501159156E166A176A15AEAF
:1023500002D0166817681450145F1550155B16509C
:10236000165B1750175B01CBE9FF02CBEAFF0A0EA1
:10237000E926000EEA22EECF14F0EFCF15F014504C
:10238000105D1550115928E201CBE9FF02CBEAFF9D
:10239000040EE926000EEA22EECF18F0EFCF19F076
:1023A00001CBE9FF02CBEAFF020EE926000EEA228A
:1023B000EE50185C146EEE501958156E166A176AB6
:1023C00015AE02D0166817681450145F1550155BCF
:1023D0001650165B1750175B01CBE9FF02CBEAFFE3
:1023E0000A0EE926000EEA22EECF10F1EDCF11F130
:1023F0000101180E7A6F00CB79F15EDA1CD0142B34
:10240000000E15231623172301CBE9FF02CBEAFFA9
:10241000180EE926000EEA22040EEF6EE80E1D6F7C
:10242000030E1E6F1F6B206B1C6B0101110E7A6F68
:1024300000CB79F141DA87D11C51050868E301CB63
:10244000E9FF02CBEAFF0A0EE926000EEA22EE506F
:10245000105D146EEE501159156E166A176A15AE9E
:1024600002D0166817681450145F1550155B16508B
:10247000165B1750175B01CBE9FF02CBEAFF0A0E90
:10248000E926000EEA22EECF14F0EFCF15F014503B
:10249000105D1550115928E201CBE9FF02CBEAFF8C
:1024A000040EE926000EEA22EECF18F0EFCF19F065
:1024B00001CBE9FF02CBEAFF020EE926000EEA2279
:1024C000EE50185C146EEE501958156E166A176AA5
:1024D00015AE02D0166817681450145F1550155BBE
:1024E0001650165B1750175B01CBE9FF02CBEAFFD2
:1024F0000A0EE926000EEA22EECF10F1EDCF11F11F
:102500000101110E7A6F00CB79F1D6D90AD0010101
:10251000140E7A6F00CB79F1CFD900CB81F19DEC0D
:102520001AF011D10101140E7A6F00CB79F1C4D9E0
:1025300000CB81F19DEC1AF006D11C51050868E32F
:1025400001CBE9FF02CBEAFF0A0EE926000EEA22E0
:10255000EE50105D146EEE501159156E166A176A22
:1025600015AE02D0166817681450145F1550155B2D
:102570001650165B1750175B01CBE9FF02CBEAFF41
:102580000A0EE926000EEA22EECF14F0EFCF15F086
:102590001450105D1550115928E201CBE9FF02CB10
:1025A000EAFF040EE926000EEA22EECF18F0EFCF84
:1025B00019F001CBE9FF02CBEAFF020EE926000E7B
:1025C000EA22EE50185C146EEE501958156E166A19
:1025D000176A15AE02D0166817681450145F1550AC
:1025E000155B1650165B1750175B01CBE9FF02CB4A
:1025F000EAFF0A0EE926000EEA22EECF10F1EDCF37
:1026000011F10101100E7A6F00CB79F155D90AD082
:102610000101140E7A6F00CB79F14ED900CB81F114
:102620009DEC1AF090D000CB81F19DEC1AF08BD08C
:102630001C51050868E301CBE9FF02CBEAFF0A0E53
:10264000E926000EEA22EE50105D146EEE5011598C
:10265000156E166A176A15AE02D016681768145000
:10266000145F1550155B1650165B1750175B01CBA6
:10267000E9FF02CBEAFF0A0EE926000EEA22EECFBE
:1026800014F0EFCF15F01450105D1550115928E2D9
:1026900001CBE9FF02CBEAFF040EE926000EEA2295
:1026A000EECF18F0EFCF19F001CBE9FF02CBEAFF34
:1026B000020EE926000EEA22EE50185C146EEE506F
:1026C0001958156E166A176A15AE02D01668176883
:1026D0001450145F1550155B1650165B1750175B9E
:1026E00001CBE9FF02CBEAFF0A0EE926000EEA223F
:1026F000EECF10F1EDCF11F10101100E7A6F00CB8A
:1027000079F1DAD80AD00101140E7A6F00CB79F191
:10271000D3D800CB81F19DEC1AF015D01C510508DF
:1027200007E30101110E7A6F00CB79F1C5D80AD009
:102730000101140E7A6F00CB79F1BED800CB81F184
:102740009DEC1AF000D000CB26F193EC00F00B01C9
:10275000002B3ED4120073C1E9FF74C1EAFF060EDC
:10276000E926000EEA22EECF14FBEECF15FBEECFEA
:1027700016FBEFCF17FB75C1E9FF76C1EAFFEECF7D
:1027800018FBEECF19FBEECF1AFBEFCF1BFB0B01B3
:102790001C6B060E1D6F77C11EFB78C11FFB1ECB85
:1027A00076FE1FCB77FE59EC5EF0F3CF1EFBF4CF25
:1027B0001FFB0C0E0E017E6F7F6B0E01140E7C6FE3
:1027C0000B0E7D6F80EC5EF0F3CF21FBF4CF22FB8C
:1027D0000B01211F221F77C14EFE78C14FFE27EC4F
:1027E0004DF0F3CF23FBF4CF24FB0B012351211930
:1027F00002E12451221904E06DEC4BF0010E5BD094
:102800000201F86BF96BD5EC66F0140E0E01586FEF
:10281000596B0E01000E566F0B0E576F75EC4EF094
:102820000101000E7F6F0B0E806FC2EC19F00B01DF
:102830000C51F00BE842E842E842E842040DF35044
:10284000146E156A140E145E000E155A14C025FB82
:102850002551146E156A14500101775D776F15507C
:102860007859786F140E775F000E785B73C17DF135
:1028700074C17EF10101000E7B6F0B0E7C6FF3DBE8
:102880000B01206FFE0E205D12E077C185F178C14B
:1028900086F10101000E836F0B0E846F20CB82F155
:1028A00072EC1BF020CB26F193EC00F002D06DEC23
:1028B0004BF0010E00D01200010179511A0DF3CF37
:1028C00083FBF4CF84FB000E0B0183270D0E8423C2
:1028D00083CBE9FF84CBEAFF190EE926000EEA223A
:1028E000EF9483CBE9FF84CBEAFF190EE926000EB3
:1028F000EA22EF9C83CBE9FF84CBEAFF190EE9269D
:10290000000EEA22EF9683CBE9FF84CBEAFF190E93
:10291000E926000EEA22EF9866EC4BF0000901E18F
:10292000FBD701017AA304D00B01AB6BAC6B01D2D6
:1029300083CBE9FF84CBEAFF080EE926000EEA22EA
:10294000EECF14F0EFCF15F01051141802E1115131
:10295000151804E10B01AB6BAC6BEBD183CBE9FF3A
:1029600084CBEAFF080EE926000EEA22EECF14F02F
:10297000EFCF15F01450105D1550115901E3A2D09E
:1029800083CBE9FF84CBEAFF080EE926000EEA229A
:102990001051EE5C0B01AB6F01011151EE580B01B0
:1029A000AC6F12C1ADFB13C1AEFB83CBE9FF84CB8F
:1029B000EAFF0A0EE926000EEA22EECF14F0EFCF6E
:1029C00015F001011450105D1550115914E383CB1B
:1029D000E9FF84CBEAFF0A0EE926000EEA22EE5058
:1029E000105D146EEE501159156E14500B01AD5F51
:1029F0001550AE5B33D083CBE9FF84CBEAFF040EE6
:102A0000E926000EEA22EECF18F0EFCF19F083CBC3
:102A1000E9FF84CBEAFF020EE926000EEA22EE501F
:102A2000185C166EEE501958176E83CBE9FF84CBF5
:102A3000EAFF0A0EE926000EEA221051EE5C1A6E39
:102A40001151EE581B6E1A50165C146E1B5017581D
:102A5000156E14500B01AD5F1550AE5BAB51AD5D03
:102A6000AC51AE5904E2ADCBABFBAECBACFB400EF0
:102A7000D880AB55020EAC550DE2400EAB6F020E86
:102A8000AC6F83CBE9FF84CBEAFF190EE926000E79
:102A9000EA22EF8CABCB54FEACCB55FE10C152FEFC
:102AA00011C153FE0E01A40E506F0C0E516F9DEC20
:102AB0004DF00B01AB51010110270B01AC5101018D
:102AC000112337D183CBE9FF84CBEAFF040EE9263B
:102AD000000EEA221051EE5C0B01A96F01011151A9
:102AE000EE580B01AA6F83CBE9FF84CBEAFF080EF7
:102AF000E926000EEA22A951EE24146EAA51EE2016
:102B0000156E83CBE9FF84CBEAFF020EE926000EA7
:102B1000EA22EE50145CAB6FEE501558AC6F12C148
:102B2000ADFB13C1AEFB83CBE9FF84CBEAFF0A0EFA
:102B3000E926000EEA22EECF14F0EFCF15F00101E6
:102B40001450105D1550115914E383CBE9FF84CB69
:102B5000EAFF0A0EE926000EEA22EE50105D146E1E
:102B6000EE501159156E14500B01AD5F1550AE5B50
:102B700033D083CBE9FF84CBEAFF040EE926000EB5
:102B8000EA22EECF18F0EFCF19F083CBE9FF84CB28
:102B9000EAFF020EE926000EEA22EE50185C166EDD
:102BA000EE501958176E83CBE9FF84CBEAFF0A0E6B
:102BB000E926000EEA221051EE5C1A6E1151EE5811
:102BC0001B6E1A50165C146E1B501758156E14505D
:102BD0000B01AD5F1550AE5BAB51AD5DAC51AE5965
:102BE00004E2ADCBABFBAECBACFB400ED880AB551B
:102BF000020EAC550DE2400EAB6F020EAC6F83CBF4
:102C0000E9FF84CBEAFF190EE926000EEA22EF8CD9
:102C1000A951AD5DAA51AE5904E2ADCBA9FBAECB33
:102C2000AAFB400ED880A955020EAA5504E2400E18
:102C3000A96F020EAA6FA9CB54FEAACB55FE10C1F4
:102C400052FE11C153FE0E01A40E506F0C0E516FB7
:102C50009DEC4DF00B01A951AB5DA96FAA51AC5988
:102C6000AA6FA951AA112EE0A9CB54FEAACB55FEFA
:102C700083CBE9FF84CBEAFF020EE926000EEA22AD
:102C8000EECF52FEEDCF53FE83CBE9FF84CBEAFFBC
:102C9000040EE926000EEA2201011051EE5C146ECA
:102CA0001151EE58156E166A176AA40E14260C0EF2
:102CB0001522000E1622172214C050FE15C051FE18
:102CC0009DEC4DF00B01AB51010110270B01AC51F4
:102CD0000101112383CBE9FF84CBEAFF040EE9262F
:102CE000000EEA22EECF14F0EFCF15F01450105D75
:102CF000155011591EE383CBE9FF84CBEAFF040E84
:102D0000E926000EEA22EECF16F0EFCF17F083CBC4
:102D1000E9FF84CBEAFF020EE926000EEA22EE501C
:102D2000165C146EEE501758156E1450105F155047
:102D3000115B0EC187FB0FC188FB0CC189FB0DC164
:102D40008AFB030E01017A150FE014C18BFB15C13C
:102D50008CFB16C18DFB17C18EFB0B018B07000E80
:102D60008C5B8D5B8E5B08D014C18BFB15C18CFB1B
:102D700016C18DFB17C18EFB18C18FFB19C190FBCB
:102D80001AC191FB1BC192FB0B01949D949F9391DF
:102D90009393939593977AC194FB996B9A6BAB51EC
:102DA000010114270B01AC5101011523000E16235C
:102DB000172383CBE9FF84CBEAFF0C0EE926000E34
:102DC000EA22EECF14F0EFCF15F083CBE9FF84CBEE
:102DD000EAFF0E0EE926000EEA22EECF16F0EFCF44
:102DE00017F01650145C175015583CE383CBE9FFDD
:102DF00084CBEAFF060EE926000EEA22EECF16F09B
:102E0000EFCF17F083CBE9FF84CBEAFF040EE9266E
:102E1000000EEA22EE50165C146EEE501758156E36
:102E200083CBE9FF84CBEAFF0C0EE926000EEA22F1
:102E3000EECF1AF0EFCF1BF083CBE9FF84CBEAFF94
:102E40000E0EE926000EEA22EE501A5C186EEE50C5
:102E50001B58196E0B011850145C956F19501558BA
:102E6000966F1FD083CBE9FF84CBEAFF0E0EE926D5
:102E7000000EEA22EECF14F0EFCF15F083CBE9FF7E
:102E800084CBEAFF0C0EE926000EEA220B01EE507D
:102E9000145C956FEE501558966F010E955F000EFD
:102EA000965B97EC4BF0F3CF85FBF4CF86FB0B01E1
:102EB000400E855F000E865B800E861502E0856BF6
:102EC000866B9551855D9651865909E2D00E855DD8
:102ED000070E865904E285CB95FB86CB96FB010154
:102EE000870E7F6F0B0E806F4DDA140E0B01AB2730
:102EF000000EAC239389939B938D939F01017AA33A
:102F000026D0040E0B01AB27000EAC23020E9B6FE4
:102F1000040E9C6F020E9D6F400E9E6F010E146E8C
:102F2000930EE96E0B0EEA6EEF50F00BE842E842AA
:102F3000E842E84214240F0BF36EF46EF346F346B6
:102F4000F346F3460F0EEF14F310EF6EF4508DC1FD
:102F50009FFB8EC1A0FB8FC1A1FB90C1A2FB08C14A
:102F6000A3FB09C1A4FB0AC1A5FB0BC1A6FB0B0176
:102F7000A76B060EA86FABCBA9FBACCBAAFBA9CB6A
:102F800076FEAACB77FE59EC5EF0F3CFA9FBF4CF27
:102F9000AAFB0C0E0E017E6F7F6B0E019F0E7C6FE5
:102FA0000B0E7D6F80EC5EF0F3CF97FBF4CF98FBB8
:102FB0000B01971F981F0E017C0E466F0C0E476F7A
:102FC000CCEC4CF0ABCBF6F2ACCBF7F20201060E38
:102FD000F56F0201020EF36F010EF46F61EC66F003
:102FE000140E0E015D6F5E6B0E01870E5B6F0B0E94
:102FF0005C6FABEC4EF001017AA30BD0040E0E0116
:103000005D6F5E6B0E019B0E5B6F0B0E5C6FABEC2E
:103010004EF00E01900E486F0C0E496FDAEC4CF03A
:10302000ABCB4EFEACCB4FFE27EC4DF0F3CF85FB88
:10303000F4CF86FB0E01A00E466F0C0E476FCCEC52
:103040004CF0020E0E015D6F5E6B0E01850E5B6F24
:103050000B0E5C6FABEC4EF06BEC4EF0000901E137
:10306000FBD7A1EF4CF00B01FE0E296F7DC1E9FFEC
:103070007EC1EAFF060EE926000EEA22020EE926CC
:10308000000EEA22EECF18F0EFCF19F07DC1E9FF74
:103090007EC1EAFF060EE926000EEA221850EE2451
:1030A000166E1950EE20176E7BC1E9FF7CC1EAFF56
:1030B0001650EE24146E1750EE20156E7BC1E9FFFA
:1030C0007CC1EAFF020EE926000EEA221450EE1837
:1030D0002A6F1550EE182B6F286B28CB14F0156A49
:1030E000166A176A080E145C000E1558000E165862
:1030F000000E175801E38DD028511A0DF3CF26FB8F
:10310000F4CF27FB000E26270D0E272326CBE9FF41
:1031100027CBEAFF180EEB500A0802E177D039D02E
:1031200026CBE9FF27CBEAFF180EEB5000091FE181
:1031300026CBE9FF27CBEAFFEECF14F0EFCF15F057
:103140007BC1E9FF7CC1EAFF020EE926000EEA22FC
:10315000EECF16F0EFCF17F016500001141802E171
:103160001750151802E128CB29FB50D012D026CBDE
:10317000E9FF27CBEAFFEECF14F0EFCF15F02A518D
:103180000001141804E10B012B510001151801E096
:103190003DD028CB25F164EC00F07BC1E9FF7CC178
:1031A000EAFF020EE926000EEA22EECF14F0EFCF7E
:1031B00015F001010E51141802E10F51151826E106
:1031C0007BC1E9FF7CC1EAFFEECF16F0EFCF17F02D
:1031D0000C51161802E10D51171818E17DC1E9FFD5
:1031E0007EC1EAFF060EE926000EEA22EE5008191B
:1031F00009E1EE50091906E1EE500A1903E1EE501B
:103200000B1900E103E10B012851BBD00B01282B66
:1032100064D7FE0E295D02E1FE0EB3D029511A0DCE
:10322000F3CF26FBF4CF27FB000E26270D0E272316
:1032300026CBE9FF27CBEAFF2ACBEEFF2BCBEDFF16
:1032400026CBE9FF27CBEAFF020EE926000EEA2291
:10325000EECF14F0EFCF15F026CBE9FF27CBEAFF36
:10326000080E14C0EBFF090E15C0EBFF26CBE9FFDB
:1032700027CBEAFF020EE926000EEA22EECF14F079
:10328000EFCF15F026CBE9FF27CBEAFF0A0E14C0DB
:10329000EBFF0B0E15C0EBFF26CBE9FF27CBEAFFB8
:1032A000040EE926000EEA22EECF14F0EFCF15F05F
:1032B00026CBE9FF27CBEAFF0C0E14C0EBFF0D0E67
:1032C00015C0EBFF26CBE9FF27CBEAFF040EE9266A
:1032D000000EEA22EECF14F0EFCF15F026CBE9FF77
:1032E00027CBEAFF0E0E14C0EBFF0F0E15C0EBFF4D
:1032F00026CBE9FF27CBEAFF190EE926000EEA22CA
:10330000EF920A0EE66EE66A7DC1E6FF7EC1E6FF39
:10331000020EE66E010EE66E26EC63F0146E060EEB
:10332000E15E14507BC1E9FF7CC1EAFFEECF0CF1F6
:10333000EDCF0DF17BC1E9FF7CC1EAFF020EE9266A
:10334000000EEA22EECF0EF1EDCF0FF14CEC68F05B
:10335000F3CF14F1F4CF15F14CEC68F0F3CF16F184
:10336000F4CF17F126CBE9FF27CBEAFF020EE926BF
:10337000000EEA22EECF10F1EDCF11F10B01295131
:1033800000D012007FC1E9FF80C1EAFFEECF76FED8
:10339000EDCF77FE59EC5EF0F3CF14F0F4CF15F0DB
:1033A0007FC1E9FF80C1EAFF14C0EEFF15C0EDFF49
:1033B0007FC1E9FF80C1EAFF020EE926000EEA2282
:1033C000EECF76FEEDCF77FE59EC5EF0F3CF14F042
:1033D000F4CF15F07FC1E9FF80C1EAFF020E14C0EF
:1033E000EBFF030E15C0EBFF7FC1E9FF80C1EAFFD1
:1033F000040EE926000EEA22EECF78FEEECF79FE2B
:10340000EECF7AFEEFCF7BFE69EC5EF006C014F0E3
:1034100007C015F008C016F009C017F07FC1E9FF1A
:1034200080C1EAFF040EE926000EEA2214C0EEFF76
:1034300015C0EEFF16C0EEFF17C0EEFF7FC1E9FF1B
:1034400080C1EAFF080EE926000EEA22EECF78FEE0
:10345000EECF79FEEECF7AFEEFCF7BFE69EC5EF029
:1034600006C014F007C015F008C016F009C017F028
:103470007FC1E9FF80C1EAFF080EE926000EEA22BB
:1034800014C0EEFF15C0EEFF16C0EEFF17C0EEFF32
:103490007FC1E9FF80C1EAFF0E0EE926000EEA2295
:1034A000EECF76FEEDCF77FE59EC5EF0F3CF14F061
:1034B000F4CF15F07FC1E9FF80C1EAFF0E0E14C002
:1034C000EBFF0F0E15C0EBFF7FC1E9FF80C1EAFFE4
:1034D000100EE926000EEA22EECF76FEEDCF77FE43
:1034E00059EC5EF0F3CF14F0F4CF15F07FC1E9FF93
:1034F00080C1EAFF100E14C0EBFF110E15C0EBFFE8
:103500007FC1E9FF80C1EAFF120EE926000EEA2220
:10351000EECF76FEEDCF77FE59EC5EF0F3CF14F0F0
:10352000F4CF15F07FC1E9FF80C1EAFF120E14C08D
:10353000EBFF130E15C0EBFF1200010181511A0DB4
:10354000F3CF83FBF4CF84FB000E0B0183270D0E1A
:10355000842383CBE9FF84CBEAFF190EE926000E12
:10356000EA22EF50010B02E0000E01D00A0EE66ED7
:1035700083CBE9FF84CBEAFF180EE926000EEA228E
:10358000E552E750EF6E83CBE9FF84CBEAFF190EDB
:10359000E926000EEA22EF9283CBE9FF84CBEAFF13
:1035A000190EE926000EEA22EF9483CBE9FF84CBC3
:1035B000EAFF190EE926000EEA22EF9683CBE9FF17
:1035C00084CBEAFF190EE926000EEA22EF9883CB9E
:1035D000E9FF84CBEAFF190EE926000EEA22EF9AF2
:1035E00083CBE9FF84CBEAFF190EE926000EEA221D
:1035F000EF9C83CBE9FF84CBEAFF0EC1EEFF0FC146
:10360000EDFF83CBE9FF84CBEAFF020EE926000E33
:10361000EA22EECF14F0EFCF15F083CBE9FF84CB95
:10362000EAFF0A0E14C0EBFF0B0E15C0EBFF83CBB5
:10363000E9FF84CBEAFF020EE926000EEA22EECF74
:1036400014F0EFCF15F083CBE9FF84CBEAFF080E2F
:1036500014C0EBFF090E15C0EBFF83CBE9FF84CB51
:10366000EAFF040EE926000EEA22EECF14F0EFCFB7
:1036700015F083CBE9FF84CBEAFF0E0E14C0EBFFFD
:103680000F0E15C0EBFF83CBE9FF84CBEAFF040EDE
:10369000E926000EEA22EECF14F0EFCF15F083CB2F
:1036A000E9FF84CBEAFF0C0E14C0EBFF0D0E15C032
:1036B000EBFF83CBE9FF84CBEAFF020EE926000E85
:1036C000EA22EECF10F1EDCF11F14CEC68F0F3CF20
:1036D00014F1F4CF15F14CEC68F0F3CF16F1F4CF00
:1036E00017F11200010182511A0DF3CF34FBF4CF10
:1036F00035FB000E0B0134270D0E3523366B83C1CD
:10370000E9FF84C1EAFF0D0EE926000EEA22EF5020
:10371000040B0EE00101040E7A6F82C179F15CECBA
:1037200014F082C181F109DF6DEC4BF099EF20F0CC
:1037300001011251131114E183C1E9FF84C1EAFFB1
:103740000E0EE926000EEA22EE50ED1009E034CB11
:10375000E9FF35CBEAFF190EE926000EEA22EF8CCD
:1037600083C1E9FF84C1EAFF0E0EE926000EEA22BA
:10377000EECF12F1EDCF13F134CBE9FF35CBEAFFF9
:10378000180EEB50070A01E17FD30E0A01E157D36F
:10379000010A01E150D30E0A01E1F9D2030A01E165
:1037A000AFD2010A01E1D3D1070A01E159D1010ADF
:1037B00001E113D1030A6EE0010A01E069D383C17C
:1037C000E9FF84C1EAFF0D0EE926000EEA22EF5060
:1037D000020B0BE10101040E7A6F82C179F15CECFE
:1037E00014F082C181F1A9DE53D30B01120E366FA2
:1037F00034CBE9FF35CBEAFF180EE926000EEA22AA
:10380000020EEF6E01011C6BE80E1D6F030E1E6FA2
:103810001F6B206B8FEC6DF006C014F007C015F025
:1038200008C016F009C017F0E80E1426030E152282
:10383000000E1622172234CBE9FF35CBEAFF100E1B
:10384000E926000EEA2214C0EEFF15C0EEFF16C0F6
:10385000EEFF17C0EEFF34CBE9FF35CBEAFF190EC0
:10386000E926000EEA22EF8283C1E9FF84C1EAFF64
:10387000040EE926000EEA22EECF18F1EECF19F180
:10388000EECF1AF1EFCF1BF10101182B19231A23E8
:103890001B23FED283C1E9FF84C1EAFF0D0EE92696
:1038A000000EEA22EF50020B01E1F2D283C1E9FFE0
:1038B00084C1EAFF0D0EE926000EEA22EF50100B3C
:1038C00040E083C1E9FF84C1EAFF080EE926000E4B
:1038D000EA22EE50141909E1EE50151906E1EE50F6
:1038E000161903E1EE50171900E127E10B01100E44
:1038F000366F34CBE9FF35CBEAFF180EE926000E10
:10390000EA22030EEF6E34CBE9FF35CBEAFF190E46
:10391000E926000EEA22EF9285C18BF186C18CF177
:1039200083C189F184C18AF134CB87F135CB88F129
:103930009AEC20F00B0136133AD00B01040E366FCF
:10394000A7D20B01120E366F34CBE9FF35CBEAFF5D
:10395000180EE926000EEA22020EEF6E01011C6B22
:10396000E80E1D6F030E1E6F1F6B206B8FEC6DF04A
:1039700006C014F007C015F008C016F009C017F013
:10398000E80E1426030E1522000E1622172234CB41
:10399000E9FF35CBEAFF100EE926000EEA2214C03B
:1039A000EEFF15C0EEFF16C0EEFF17C0EEFF83C19D
:1039B000E9FF84C1EAFF040EE926000EEA22EECFF9
:1039C00018F1EECF19F1EECF1AF1EFCF1BF1010193
:1039D000182B19231A231B235BD283C1E9FF84C14F
:1039E000EAFF0D0EE926000EEA22EF50100B37E039
:1039F00083C1E9FF84C1EAFF080EE926000EEA222E
:103A0000EE50141909E1EE50151906E1EE501619A1
:103A100003E1EE50171900E122E134CBE9FF35CB89
:103A2000EAFF180EE926000EEA22030EEF6E34CBF1
:103A3000E9FF35CBEAFF190EE926000EEA22EF92E4
:103A400085C18BF186C18CF183C189F184C18AF172
:103A500034CB87F135CB88F16DDB0B01361318D2EF
:103A600085C18BF186C18CF183C189F184C18AF152
:103A700034CB87F135CB88F15DDB0B01361383C185
:103A8000E9FF84C1EAFF0D0EE926000EEA22EF509D
:103A9000010B5CE00101182B000E19231A231B23D4
:103AA0008551861114E10B01110E366F0101142BA3
:103AB000000E15231623172334CBE9FF35CBEAFF7D
:103AC000180EE926000EEA22090EEF6E0DD00B014A
:103AD000100E366F34CBE9FF35CBEAFF180EE9261E
:103AE000000EEA22080EEF6E01011C6BE80E1D6F3E
:103AF000030E1E6F1F6B206B8FEC6DF006C014F071
:103B000007C015F008C016F009C017F0E80E14261B
:103B1000030E1522000E1622172234CBE9FF35CBF7
:103B2000EAFF100EE926000EEA2214C0EEFF15C0CF
:103B3000EEFF16C0EEFF17C0EEFF34CBE9FF35CB2A
:103B4000EAFF190EE926000EEA22EF82A1D183C115
:103B5000E9FF84C1EAFF0D0EE926000EEA22EF50CC
:103B6000010B4DE083C1E9FF84C1EAFF0D0EE92698
:103B7000000EEA22EF50100B42E083C1E9FF84C13E
:103B8000EAFF080EE926000EEA22EE50141909E1B8
:103B9000EE50151906E1EE50161903E1EE50171913
:103BA00000E12DE1182B000E19231A231B230B0112
:103BB000100E366F34CBE9FF35CBEAFF180EE9263D
:103BC000000EEA22070EEF6E8FEC6DF006C014F0C7
:103BD00007C015F008C016F009C017F034CBE9FF94
:103BE00035CBEAFF100EE926000EEA2214C0EEFFE4
:103BF00015C0EEFF16C0EEFF17C0EEFF71D083C1F7
:103C0000E9FF84C1EAFF0D0EE926000EEA22EF501B
:103C1000100B20E083C1E9FF84C1EAFF080EE9260A
:103C2000000EEA22EE50141909E1EE50151906E1D2
:103C3000EE50161903E1EE50171900E10BE134CBF9
:103C4000E9FF35CBEAFF180EE926000EEA22050E41
:103C5000EF6E46D083C1E9FF84C1EAFF0D0EE9266D
:103C6000000EEA22EF50010B3BE0182B000E192347
:103C70001A231B230B01100E366F34CBE9FF35CB13
:103C8000EAFF180EE926000EEA22060EEF6E010189
:103C90001C6BE80E1D6F030E1E6F1F6B206B8FECED
:103CA0006DF006C014F007C015F008C016F009C08A
:103CB00017F0E80E1426030E1522000E1622172206
:103CC00034CBE9FF35CBEAFF100EE926000EEA22DD
:103CD00014C0EEFF15C0EEFF16C0EEFF17C0EEFFDA
:103CE00085C18BF186C18CF183C189F184C18AF1D0
:103CF00034CB87F135CB88F11DDA0B013613C8D0F0
:103D000083C1E9FF84C1EAFF0D0EE926000EEA2215
:103D1000EF50010B2CE0182B000E19231A231B2344
:103D20000B01100E366F34CBE9FF35CBEAFF180ECE
:103D3000E926000EEA22070EEF6E8FEC6DF006C04A
:103D400014F007C015F008C016F009C017F034CB06
:103D5000E9FF35CBEAFF100EE926000EEA2214C077
:103D6000EEFF15C0EEFF16C0EEFF17C0EEFF85C1D7
:103D70008BF186C18CF183C189F184C18AF134CB86
:103D800087F135CB88F1D6D90B01361381D083C1A9
:103D9000E9FF84C1EAFF0D0EE926000EEA22EF508A
:103DA000100B39E083C1E9FF84C1EAFF080EE92660
:103DB000000EEA22EE50141909E1EE50151906E141
:103DC000EE50161903E1EE50171900E124E134CB4F
:103DD000E9FF35CBEAFF180EE926000EEA22070EAE
:103DE000EF6E8FEC6DF006C014F007C015F008C040
:103DF00016F009C017F034CBE9FF35CBEAFF100EFF
:103E0000E926000EEA2214C0EEFF15C0EEFF16C030
:103E1000EEFF17C0EEFF85C18BF186C18CF183C127
:103E200089F184C18AF134CB87F135CB88F182D90D
:103E30000B0136132DD00B01100E366F29D083C124
:103E4000E9FF84C1EAFF0D0EE926000EEA22EF50D9
:103E5000100B19E083C1E9FF84C1EAFF080EE926CF
:103E6000000EEA22EE50141909E1EE50151906E190
:103E7000EE50161903E1EE50171900E104E182C17A
:103E800081F19DEC1AF004D00B01040E366F00D0C6
:103E900083C1E9FF84C1EAFF0D0EE926000EEA2284
:103EA000EF50100B01E135D134CBE9FF35CBEAFF00
:103EB000180EEB500A0801E12CD134CBE9FF35CBC9
:103EC000EAFF180EEB50000901E123D134CBE9FFE2
:103ED00035CBEAFF0A0EE926000EEA220101EE5078
:103EE000105D146EEE501159156E166A176A15AEF4
:103EF00002D016681768140EE96E010EEA6E1450AF
:103F0000EE5C0B01266F1550EE58276F1650EE58D9
:103F1000286F1750EE58296F34CBE9FF35CBEAFFF5
:103F20000A0EE926000EEA22EECF14F0EFCF15F0CC
:103F300001011450105D1550115925E234CBE9FFF1
:103F400035CBEAFF040EE926000EEA22EECF18F088
:103F5000EFCF19F034CBE9FF35CBEAFF020EE926AB
:103F6000000EEA22EE50185C146EEE501958156ED1
:103F7000166A176A14500B01265F1550275B1650FE
:103F8000285B1750295B83C1E9FF84C1EAFF080E53
:103F9000E926000EEA220B012651EE5C266F27511E
:103FA000EE58276F2851EE58286F2951EE58296F87
:103FB0002935000E291909E6D880000E2655000E75
:103FC0002755000E2855000E295501E3A2D034CB09
:103FD000E9FF35CBEAFF040EE926000EEA22EECF18
:103FE00018F0EFCF19F034CBE9FF35CBEAFF020E22
:103FF000E926000EEA22EE50185C146EEE501958B5
:10400000156E166A176A2651145C275115582851E7
:1040100016582951175801E27CD034CBE9FF35CB33
:10402000EAFF190EE926000EEA22EF9A34CBE9FFE7
:1040300035CBEAFF0A0EE926000EEA222651EE26CB
:104040002751ED2234CBE9FF35CBEAFF0A0EE926F2
:10405000000EEA22EECF14F0EFCF15F034CBE9FFDB
:1040600035CBEAFF040EE926000EEA22EECF16F069
:10407000EFCF17F01650145C1750155826E334CBC9
:10408000E9FF35CBEAFF040EE926000EEA22EECF67
:1040900016F0EFCF17F034CBE9FF35CBEAFF020E75
:1040A000E926000EEA22EE50165C146EEE50175808
:1040B000156E34CBE9FF35CBEAFF0A0EE926000E78
:1040C000EA221450EE5E1550ED5A34CBE9FF35CBA1
:1040D000EAFF180EEB5003081CE134CBE9FF35CBA7
:1040E000EAFF0A0EE926000EEA22EECF14F0EFCF27
:1040F00015F001011051141802E11151151809E1D0
:1041000034CBE9FF35CBEAFF190EE926000EEA228F
:10411000EF926BEC4EF0000901E1FBD76DEC4BF038
:104120000B01365106E036CB7AF182C179F15CECB5
:1041300014F0120001018B518C1102E1000EEAD340
:1041400089C1E9FF8AC1EAFF040EE926000EEA22CE
:104150001851EE5C0B01396F01011951EE580B013A
:104160003A6F01011A51EE580B013B6F01011B51CF
:10417000EE580B013C6F39CB3DFB3ACB3EFB87C180
:10418000E9FF88C1EAFF0C0EE926000EEA22EECF15
:1041900014F0EFCF15F087C1E9FF88C1EAFF0E0EDA
:1041A000E926000EEA22EECF16F0EFCF17F01650F8
:1041B000145C175015583BE387C1E9FF88C1EAFF3B
:1041C000060EE926000EEA22EECF16F0EFCF17F02A
:1041D00087C1E9FF88C1EAFF040EE926000EEA2242
:1041E000EE50165C146EEE501758156E87C1E9FF3D
:1041F00088C1EAFF0C0EE926000EEA22EECF1AF083
:10420000EFCF1BF087C1E9FF88C1EAFF0E0EE92658
:10421000000EEA22EE501A5C186EEE501B58196E12
:104220001850145C3F6F19501558406F1ED087C14D
:10423000E9FF88C1EAFF0E0EE926000EEA22EECF62
:1042400014F0EFCF15F087C1E9FF88C1EAFF0C0E2B
:10425000E926000EEA22EE50145C3F6FEE5015582E
:10426000406F010E3F5F000E405B3FCB14F040CB30
:1042700015F0166A176A3C511718E8AE02D01734C9
:1042800008D01450395D15503A5916503B59175003
:104290003C5901E3FFD23D5101018B25186E0B0102
:1042A0003E5101018C21196E193404E218500008A6
:1042B000000E195401E3EED20B013E3504E23D51EC
:1042C0000008000E3E5501E265D189C1E9FF8AC1AF
:1042D000EAFF0C0EE926000EEA22EF50F00BE8424E
:1042E000E842E842E842040DF350146E156A3D516D
:1042F000145C0201F86F0B013E5115580201F96F71
:10430000D5EC66F00B013D5101018B270B013E51AD
:1043100001018C238B5118278C511923000E1A236D
:104320001B2387C1E9FF88C1EAFF0C0EE926000EB6
:10433000EA228B51EE24146E8C51EE20156E87C14B
:10434000E9FF88C1EAFF060EE926000EEA22EECF59
:1043500016F0EFCF17F01450165C1550175873E293
:1043600087C1E9FF88C1EAFF060EE926000EEA22AE
:10437000EECF14F0EFCF15F087C1E9FF88C1EAFF57
:104380000C0EE926000EEA220B01EE50145C376F8A
:10439000EE501558386F010E3727000E382337CBF3
:1043A00054FE38CB55FE0E015269536987C1E9FFAF
:1043B00088C1EAFF0C0EE926000EEA22EECF50FE7D
:1043C000EDCF51FE9DEC4DF00B01375101018B5D9E
:1043D0000E01546F0B01385101018C590E01556FBC
:1043E0000E015269536987C1E9FF88C1EAFF040ED3
:1043F000E926000EEA22EECF50FEEDCF51FE9DECF5
:104400004DF00B01375101018B5D166E8C510B0184
:104410003855176E87C1E9FF88C1EAFF040EE92607
:10442000000EEA221650EE24146E1750EE20156E80
:1044300087C1E9FF88C1EAFF0C0E14C0EBFF0D0E27
:1044400015C0EBFF22D08BC154FE8CC155FE0E016E
:104450005269536987C1E9FF88C1EAFF0C0EE9265A
:10446000000EEA22EECF50FEEDCF51FE9DEC4DF056
:1044700087C1E9FF88C1EAFF0C0EE926000EEA2297
:1044800001018B51EE268C51ED220101211D01E12C
:10449000221D01E17ED08B51215F8C51225B235183
:1044A00021250B01376F0101245122210B01386FA7
:1044B000800E381504E00101216922696AD00101EA
:1044C000223504E221510008000E225562E30B015F
:1044D0003751010118270B01385101011923000E32
:1044E0001A231B2387C1E9FF88C1EAFF0C0EE926C6
:1044F000000EEA220B013751EE263851ED2287C11A
:10450000E9FF88C1EAFF0C0EE926000EEA22EECF91
:1045100014F0EFCF15F087C1E9FF88C1EAFF060E5E
:10452000E926000EEA22EECF16F0EFCF17F0145076
:10453000165C155017582AE287C1E9FF88C1EAFFC7
:10454000060EE926000EEA22EECF16F0EFCF17F0A6
:1045500087C1E9FF88C1EAFF040EE926000EEA22BE
:10456000EE50165C146EEE501758156E010E1426A0
:10457000000E152287C1E9FF88C1EAFF0C0EE9266B
:10458000000EEA221450EE5E1550ED5A0101216929
:10459000226980D13E3504E23D510008000E3E55AF
:1045A00001E378D189C1E9FF8AC1EAFF0C0EE9264F
:1045B000000EEA22EF50F00BE842E842E842E842FF
:1045C000040DF3500201F86FF96BD5EC66F087C16A
:1045D000E9FF88C1EAFF0C0EE926000EEA220B0172
:1045E0003D51EE24166E3E51EE20176E165001011D
:1045F0008B25146E17508C21156E87C1E9FF88C179
:10460000EAFF060EE926000EEA22EECF18F0EFCF01
:1046100019F01450185C1550195801E39FD087C148
:10462000E9FF88C1EAFF060EE926000EEA22EECF76
:1046300016F0EFCF17F087C1E9FF88C1EAFF0C0E33
:10464000E926000EEA22EE50165C146EEE50175862
:10465000156E010E1426000E15220B013D51145C3F
:10466000376F3E511558386F800E381539E137CB0A
:1046700054FE38CB55FE0E015269536987C1E9FFDC
:1046800088C1EAFF0C0EE926000EEA220B013D511B
:10469000EE240E01506F0B013E51EE200E01516FC2
:1046A0009DEC4DF00B01375101018B5D0E01546FF4
:1046B0000B01385101018C590E01556F0E015269E1
:1046C000536987C1E9FF88C1EAFF040EE926000E9D
:1046D000EA22EECF50FEEDCF51FE9DEC4DF03DD0E5
:1046E0008BC154FE8CC155FE0E015269536987C1BE
:1046F000E9FF88C1EAFF0C0EE926000EEA220B0151
:104700003D51EE24146E3E51EE20156E87C1E9FF37
:1047100088C1EAFF060EE926000EEA22EECF18F065
:10472000EFCF19F087C1E9FF88C1EAFF040EE9263F
:10473000000EEA22EE50185C166EEE501958176EF5
:10474000010E1626000E17220E011650145C506F33
:1047500017501558516F9DEC4DF01BD08BC154FE76
:104760008CC155FE0E015269536987C1E9FF88C1AA
:10477000EAFF0C0EE926000EEA220B013D51EE2461
:104780000E01506F0B013E51EE200E01516F9DEC5A
:104790004DF00101211D01E1221D09E13DCB21F177
:1047A0003ECB22F18BC123F18CC124F173D0215176
:1047B0000B013D5D010122510B013E593DE23D518E
:1047C00001018B25146E0B013E5101018C21156EE8
:1047D00021512325166E22512421176E1450165C88
:1047E000155017580FE30B013D5101018B25186E31
:1047F0000B013E5101018C21196E2151185C22518F
:10480000195805E28BC123F18CC124F110D021513C
:104810002325146E22512421156E0B013D51145C89
:104820000101236F0B013E5115580101246F3DCB4F
:1048300021F13ECB22F12ED03D5101018B25146E8A
:104840000B013E5101018C21156E21512325166E5D
:1048500022512421176E1450165C155017581AE275
:104860000B013D5101018B25186E0B013E510101D9
:104870008C21196E2151185C166E22511958176E31
:104880002351165C146E24511758156E14502327AB
:104890001550242387C1E9FF88C1EAFF190EE926D4
:1048A000000EEA22EF50100B02E0100E33D087C149
:1048B000E9FF88C1EAFF190EE926000EEA22EF8817
:1048C00087C1E9FF88C1EAFF190EE926000EEA2236
:1048D000EF50080B1DE187C1E9FF88C1EAFF190EFF
:1048E000E926000EEA22EF868FEC6DF006C014F088
:1048F00007C015F0C80E1426000E152287C1E9FF67
:1049000088C1EAFF160E14C0EBFF170E15C0EBFFAF
:10491000000E00D01200D8CFE4FFE0CFE4FFE46E39
:10492000DACFE4FFE2CFDAFFE9CFE4FFEACFE4FF3A
:10493000F6CFE4FFF7CFE4FFF8CFE4FFF5CFE4FFD5
:10494000F3CFE4FFF4CFE4FFFACFE4FFFBCFE4FFC3
:1049500000EE00F0140EE80403E3EECFE4FFFBD713
:1049600000EE14F00C0EE80403E3EECFE4FFFBD7F7
:10497000E65299EC6DF0E55200EE1FF00C0EE804E3
:1049800003E3E5CFEDFFFBD700EE13F0140EE804D0
:1049900003E3E5CFEDFFFBD7E5CFFBFFE5CFFAFF64
:1049A000E5CFF4FFE5CFF3FFE5CFF5FFE5CFF8FF67
:1049B000E5CFF7FFE5CFF6FFE5CFEAFFE5CFE9FF6B
:1049C000E5CFDAFFE550E5CFE0FFE5CFD8FF1000F7
:1049D00051EC29F080EC68F0110EE66EDBEC6DF026
:1049E000E552620EE66EB90EE66E000EE66ED00E71
:1049F000E66E0D0EE66EC3EC63F0146E050EE15E1E
:104A00001450CEEC68F085EC6DF078EC64F078EC46
:104A100029F081B66AD08FEC6DF006C0E1FB07C0CB
:104A2000E2FB08C0E3FB09C0E4FB81B65CD08FEC7D
:104A30006DF00B01E151065C146E0B01E251075859
:104A4000156E0B01E3510858166E0B01E45109581D
:104A5000176ED880A00E14540F0E1554000E165465
:104A6000000E17543FE20201486B496BB0EC61F055
:104A700002014A69BEEC61F0F6EC61F00F011B0E19
:104A8000586FB90E596F000E5A6FEAEC6BF09A909E
:104A90009A929A94989A888088828884868A8FECE1
:104AA0006DF00B01E151065C146E0B01E2510758E9
:104AB000156E0B01E3510858166E0B01E4510958AD
:104AC000176E1734000E171809E6D880940E145488
:104AD000110E1554000E1654000E175401E3DFD7C3
:104AE000FF0001D0A2D730EC2AF0D5EC6AF05AECE6
:104AF00034F0AFEC56F00101BFBD05D00101010E4D
:104B0000F36F0301296B0F01090E586FB90E596F2E
:104B1000000E5A6FEAEC6BF08DC1C8F18EC1C9F17D
:104B20008FC1CAF190C1CBF15ED80F01060E586F4C
:104B3000B90E596F000E5A6FEAEC6BF08FEC6DF006
:104B40000101FC51065C146E0101FD510758156E00
:104B50000101FE510858166E0101FF510958176EE8
:104B6000F40E145C010E1558000E1658000E17585E
:104B70000BE38FEC6DF006C0FCF107C0FDF108C03F
:104B8000FEF109C0FFF18870E1EC6AF091EC34F0BD
:104B9000C0EC56F017EC4FF0F3EC52F09CD801014A
:104BA000F35103012B5D1DE02BC3F3F10F01F60E52
:104BB000586FB80E596F000E5A6FEAEC6BF08DC14A
:104BC000C8F18EC1C9F18FC1CAF190C1CBF10BD828
:104BD0000F01060E586FB90E596F000E5A6FEAECAE
:104BE0006BF0ACD712000B01100E066F046B045172
:104BF000146E156A040E145C000E155860E20E0166
:104C0000000E706F0B0E716F0B010451EA6AC80F32
:104C1000E96E010EEA22EF500E016E6F6F6BB9EC78
:104C20005DF00F01000E566F0B0E576FD4EC6BF05A
:104C30000B01056B000EE66E0B0EE66EDCEC63F00E
:104C4000E552E552F3CF14F0F4CF15F00B011450F8
:104C5000055D000E155414E20551EA6A000FE96E75
:104C60000B0EEA22EF50E66E0651062BEA6AD00FD1
:104C7000E96E0D0EEA22E552E750EF6E052BDAD70A
:104C80000451146E156A030E141801E1155001E168
:104C900016D00651062BEA6AD00FE96E0D0EEA22F5
:104CA0002E0EEF6E9BEC6BF0000901E0FBD70F01BD
:104CB0002E0E526FB5EC6BF00B01042B98D7200E23
:104CC000065D07E20651EA6AD00FE96E0D0EEA2290
:104CD000EF6ACEEF68F0C294C286C298C29AC282CE
:104CE000C2B2FED7C00EE66E010EE66EC3CFE6FF7F
:104CF000C4CFE6FFABEC67F0E552E552E552E55272
:104D0000C284C286C298C29AC282C2B2FED7C3CF40
:104D100002FBC4CF03FB0B01013504E20051000884
:104D2000020E015519E2000E025F020E035B090E2E
:104D30000D6E0E6A02CB08F003CB09F007EC6CF0A5
:104D400008C002FB09C003FB140E0B010225006F13
:104D5000000E0321016F1CD0000ED8800257020EF6
:104D60000357090E0D6E0E6A02CB08F003CB09F053
:104D700007EC6CF008C002FB09C003FB02CB00FB90
:104D800003CB01FB0B01140ED8800057000E015716
:104D9000800E011502E0006B016BF40EE66E010E51
:104DA000E66E00CBE6FF01CBE6FFABEC67F0E55229
:104DB000E552E552E5521200CCC1E9FFCDC1EAFF50
:104DC000EE50EFCFEAFFE96EEF50D00F0B01896F85
:104DD0008951010A57E0010A18E00A0EE66EE66AF8
:104DE0008C0EE66EDB0EE66E000EE66ECCC1E9FFC1
:104DF000CDC1EAFFEECFE6FFEFCFE6FF51EC63F067
:104E0000146E070EE15E1450BED0020E0101EA6A74
:104E1000CC25E96ECD51EA22EE50EFCFEAFFE96EE4
:104E2000EF50D00F0B018A6F8A51030A11E0010A7B
:104E30000DE0060A09E0050A05E0010A01E00AD0D2
:104E4000887208D0887406D0867A04D0867E02D014
:104E5000867C00D00A0EE66EE66A8C0EE66EDB0EED
:104E6000E66E000EE66ECCC1E9FFCDC1EAFFEECFE3
:104E7000E6FFEFCFE6FF51EC63F0146E070EE15E44
:104E8000145081D00101CE51020863E2040EEA6A97
:104E9000CC25E96ECD51EA22EECF68FEEDCF69FE5A
:104EA000C2EC5CF0040E0101EA6ACC25E96ECD513A
:104EB000EA22EECFE6FFEFCFE6FFDCEC63F0E5524F
:104EC000E552F3CF14F0F4CF15F0200E145C000E71
:104ED000155824E2200EE66EE66AE66ED00EE66E07
:104EE0000D0EE66E74EC63F0146E050EE15E145068
:104EF000040E0101EA6ACC25E96ECD51EA22EECF1B
:104F0000E6FFEFCFE6FFD00EE66E0D0EE66EA2ECEA
:104F100063F0E552E552E552E55218D0200EE66EF8
:104F2000E66A040E0101EA6ACC25E96ECD51EA2257
:104F3000EECFE6FFEFCFE6FFD00EE66E0D0EE66E8B
:104F400026EC63F0146E060EE15E1450CEEC68F0B1
:104F500002D04BEC69F00A0EE66EE66A8C0EE66E45
:104F6000DB0EE66E000EE66ECCC1E9FFCDC1EAFFB6
:104F7000EECFE6FFEFCFE6FF51EC63F0146E070EC5
:104F8000E15E145000D012000101CF51170A01E177
:104F900013D1010A01E1CED01B0A01E1BFD0090AF9
:104FA00001E1B0D0070A01E182D0010A55E0160AFA
:104FB00047E0070A39E0020A2BE0010A1DE0110A66
:104FC0000FE0010A01E03AD18850010B02E0310EF6
:104FD00001D0300ED2C1E9FFD3C1EAFFEF6E2ED16E
:104FE0008850020B02E0310E01D0300ED2C1E9FF31
:104FF000D3C1EAFFEF6E22D18850040B02E0310EDC
:1050000001D0300ED2C1E9FFD3C1EAFFEF6E16D155
:105010008650200B02E0310E01D0300ED2C1E9FFE4
:10502000D3C1EAFFEF6E0AD18650800B02E0310E49
:1050300001D0300ED2C1E9FFD3C1EAFFEF6EFED03E
:105040008650400B02E0310E01D0300ED2C1E9FF94
:10505000D3C1EAFFEF6EF2D0D051EA6AC00FE96E19
:10506000010EEA22EF50D2C1E9FFD3C1EAFFEF6E91
:10507000D051EA6AC00FE96E010EEA22EF5004E156
:10508000F368F468DED00ED0D02B000ED123D051BF
:10509000EA6AC00FE96E010EEA22EF5003E1F368FD
:1050A000F468CFD0D0C1F3FFD1C1F4FFCAD0D05142
:1050B000EA6AF40FE96E010EEA22EF50D2C1E9FF6D
:1050C000D3C1EAFFEF6ED051EA6AF40FE96E010E28
:1050D000EA22EF5004E1F368F468B3D00ED0D02B8D
:1050E000000ED123D051EA6AF40FE96E010EEA22D4
:1050F000EF5003E1F368F468A4D0D0C1F3FFD1C14D
:10510000F4FF9FD08150080B02E0310E01D0300E29
:10511000D2C1E9FFD3C1EAFFEF6E90D08150020BFC
:1051200002E0310E01D0300ED2C1E9FFD3C1EAFF57
:10513000EF6E84D0D051D11113E1190EE66EE66AFC
:10514000F00EE66EB80EE66E000EE66ED40EE66E5B
:10515000010EE66E3DEC64F0146E070EE15E145035
:105160000101D051EA6AD40FE96E010EEA22EF5034
:10517000D2C1E9FFD3C1EAFFEF6ED051EA6AD40F82
:10518000E96E010EEA22EF5004E1F368F46859D0A9
:105190000ED0D02B000ED123D051EA6AD40FE96E85
:1051A000010EEA22EF5003E1F368F4684AD0D0C15F
:1051B000F3FFD1C1F4FF45D0D051D11113E1190E45
:1051C000E66EE66ADB0EE66EB80EE66E000EE66E82
:1051D000D40EE66E010EE66E3DEC64F0146E070E22
:1051E000E15E14500101D051EA6AD40FE96E010E5C
:1051F000EA22EF50D2C1E9FFD3C1EAFFEF6ED051EE
:10520000EA6AD40FE96E010EEA22EF5004E1F36876
:10521000F46817D00ED0D02B000ED123D051EA6AFB
:10522000D40FE96E010EEA22EF5003E1F368F4684F
:1052300008D0D0C1F3FFD1C1F4FF03D0F368F46804
:1052400000D01200030EE66EE66AAB0EE66EDB0ED1
:10525000E66E000EE66EEDC1E6FFEEC1E6FF07EC7E
:1052600063F0146E070EE15E1450000917E1060E9C
:10527000E66EE66AAF0EE66EDB0EE66E000EE66EDA
:10528000EFC1E6FFF0C1E6FF07EC63F0146E070E16
:10529000E15E1450000902E1010E02D0000E00D0C0
:1052A00012009A909A929A94989A989E989C8890B4
:1052B00088928894869A869E869C400E9B6E090EE4
:1052C000C26E0B0EC16E2F0E926EBE0EC06EF19EA0
:1052D000200EAC6E900EAB6E860EAF6EAC84D08E90
:1052E000F28EF28CC28EC282C2B2FED7C29E120071
:1052F0000101BF8DBF8FA96B040EAA6FA30EAB6F08
:10530000AC6BAD6B050EAE6FC00E8D6FA80E8E6FC1
:105310008F6B5F0E906F8DC1A1F18EC1A2F18FC115
:10532000A3F190C1A4F1916992699369946B91C1C1
:10533000A5F192C1A6F193C1A7F194C1A8F1C00E45
:10534000956FA80E966F976B010E986FC00E996FB0
:10535000A80E9A6F9B6B010E9C6FC00E9D6FA80EDE
:105360009E6F9F6B010EA06F100EE66EE66ACF0E69
:10537000E66EB80EE66E000EE66EAF0EE66E010E3D
:10538000E66E51EC63F0146E070EE15E14500101FD
:10539000AF0EF16F010EF26FC3EC2DF00B018D0E0D
:1053A000046F010E056F0201416B426B0CEC61F062
:1053B00018EC61F00B01036F3FEC61F0600E0B0124
:1053C000035D23E1010E0201416F426B0CEC61F0C1
:1053D0000B01036B0351146E156A330E145C000E3F
:1053E000155810E218EC61F0E66E0B0104CBE9FFF2
:1053F00005CBEAFF042B000E0523E552E750EF6EC4
:10540000032BE8D73FEC61F001D001D812000B016B
:105410008D0E016F010E026F0201486B496BB0ECFB
:1054200061F00201600E4A6FBEEC61F00B01006B8F
:105430000051146E156A330E145C000E15580EE2FE
:1054400001CBE9FF02CBEAFF012B000E0223EFCFD5
:105450004AF2BEEC61F00B01002BEAD7F6EF61F0E7
:105460000B01AD6B0B01AD5101E0B2D20F018D0EFE
:10547000586FB80E596F000E5A6FEAEC6BF00F01BF
:10548000710E586FB80E596F000E5A6FEAEC6BF040
:10549000ADC1ACFBAEC1ABFB0E01910E706F0B0E3C
:1054A000716FABCB6EFEACCB6FFEB9EC5DF00F0154
:1054B000910E566F0B0E576FD4EC6BF00F01560E1A
:1054C000586FB80E596F000E5A6FEAEC6BF00F016F
:1054D000AF0E566F010E576FD4EC6BF00F01340E08
:1054E000586FB80E596F000E5A6FEAEC6BF08DC111
:1054F000C8F18EC1C9F18FC1CAF190C1CBF1F3ECF3
:1055000025F00F010E0E586FB80E596F000E5A6F2E
:10551000EAEC6BF095C1C8F196C1C9F197C1CAF127
:1055200098C1CBF1F3EC25F00F01EB0E586FB70EDD
:10553000596F000E5A6FEAEC6BF091C1C8F192C13D
:10554000C9F193C1CAF194C1CBF1F3EC25F00F017D
:10555000C20E586FB70E596F000E5A6FEAEC6BF01F
:1055600099C1C8F19AC1C9F19BC1CAF19CC1CBF1E3
:10557000F3EC25F00F01970E586FB70E596F000E20
:105580005A6FEAEC6BF09DC1C8F19EC1C9F19FC191
:10559000CAF1A0C1CBF1F3EC25F00F01900E586FCA
:1055A000B70E596F000E5A6FEAEC6BF00101BF5154
:1055B000400B08E00F018C0E586FB70E596F000EAC
:1055C0005A6F07D00F01890E586FB70E596F000E32
:1055D0005A6FEAEC6BF00F015C0E586FB70E596F03
:1055E000000E5A6FEAEC6BF00101BF51400B08E06E
:1055F0000F01540E586FB70E596F000E5A6F07D037
:105600000F014B0E586FB70E596F000E5A6FEAEC30
:105610006BF00F01300E586FB70E596F000E5A6FB6
:10562000EAEC6BF00F011D0E586FB70E596F000EAC
:105630005A6FEAEC6BF00F01050E586FB70E596FF9
:10564000000E5A6FEAEC6BF0A8EC6BF0000901E178
:10565000FBD70F01060E586FB90E596F000E5A6F27
:10566000EAEC6BF0B2EC6BF0300A01E1A2D1090A6E
:1056700001E19DD1010A01E197D10F0A01E156D163
:10568000010A01E14DD1030A01E144D1010A01E11E
:105690003BD1070A01E132D1010A01E101D1030A3C
:1056A00001E1D8D0650A01E092D10F01DD0E586FFB
:1056B000B60E596F000E5A6FEAEC6BF0A8EC6BF067
:1056C000000901E1FBD70F01060E586FB90E596FA3
:1056D000000E5A6FEAEC6BF093EC2EF00B01AE6FFC
:1056E000AE510DE10F01BC0E586FB60E596F000E92
:1056F0005A6FEAEC6BF0F8EC32F0F3CFAEFB0B0133
:10570000AE510C0A01E198D0070A01E18BD0010AE1
:1057100001E17ED0030A72E0010A66E00F0A5AE056
:10572000010A4EE0030A42E0010A36E0070A2AE0D5
:10573000010A1EE0030A12E0010A01E087D00F010E
:105740009E0E586FB60E596F000E5A6FEAEC6BF052
:105750009A908880AAEC33F0FFD778D00F018A0E98
:10576000586FB60E596F000E5A6FEAEC6BF06ED0A0
:105770000F01760E586FB60E596F000E5A6FEAEC95
:105780006BF064D00F015F0E586FB60E596F000EAC
:105790005A6FEAEC6BF05AD00F01480E586FB60EF4
:1057A000596F000E5A6FEAEC6BF050D00F01310EBA
:1057B000586FB60E596F000E5A6FEAEC6BF046D078
:1057C0000F011A0E586FB60E596F000E5A6FEAECA1
:1057D0006BF03CD00F01030E586FB60E596F000EE0
:1057E0005A6FEAEC6BF032D00F01EC0E586FB50E29
:1057F000596F000E5A6FEAEC6BF028D00F01D50EEE
:10580000586FB50E596F000E5A6FEAEC6BF01ED050
:105810000F01BE0E586FB50E596F000E5A6FEAECAD
:105820006BF014D00F01A70E586FB50E596F000E14
:105830005A6FEAEC6BF00AD00F019D0E586FB50E4F
:10584000596F000E5A6FEAEC6BF000D09A90889076
:10585000FFD7BDD00F018F0E586FB50E596F000ED8
:105860005A6FEAEC6BF00F01140E516F0F01910E9D
:105870004F6F0B0E506F71EC6BF0000910E0910E42
:10588000E66E0B0EE66E36EC67F0E552E552F3CFAE
:10589000ABFBF4CFACFBACCBADF1ABCBAEF197D067
:1058A0000F018F0E586FB50E596F000E5A6FEAEC4C
:1058B0006BF00F01100E516F0F01910E4F6F0B0E19
:1058C000506F71EC6BF00B01915117E0100EE66E0A
:1058D000E66A910EE66E0B0EE66EAF0EE66E010EF8
:1058E000E66E26EC63F0146E060EE15E14500101C4
:1058F000AF0EF16F010EF26F46D969D00B018D0E1C
:10590000A96F010EAA6F18D00B01950EA96F010E99
:10591000AA6F12D00B01910EA96F010EAA6F0CD0C5
:105920000B01990EA96F010EAA6F06D00B019D0EF7
:10593000A96F010EAA6F00D00F018F0E586FB50E20
:10594000596F000E5A6FEAEC6BF00F01140E516F95
:105950000F01910E4F6F0B0E506F71EC6BF00E013B
:10596000A50E6C6F0B0E6D6F0E01910E6A6F0B0E14
:105970006B6F29EC5DF000090DE0A9CBE9FFAACB24
:10598000EAFFA5CBEEFFA6CBEEFFA7CBEEFFA8CBA1
:10599000EEFF09D00F017E0E586FB50E596F000E45
:1059A0005A6FEAEC6BF013D00101BF7D10D011D813
:1059B0000ED00B01010EAD6F2ADD0F016C0E586F7A
:1059C000B50E596F000E5A6FEAEC6BF000D04AD555
:1059D00012000B01006B066B65EC65F006C002FB64
:1059E00007C003FB08C004FB09C005FB8FEC6DF08A
:1059F00006C089FB07C08AFB08C08BFB09C08CFB73
:105A00008FEC6DF006C08DFB07C08EFB08C08FFBCE
:105A100009C090FB890EE96E0B0EEA6EEE500B0189
:105A20008D5D146EEE508E59156EEE508F59166EB8
:105A3000EE509059176EF40E145C010E1558000EBE
:105A40001658000E175815E38FEC6DF006C089FB51
:105A500007C08AFB08C08BFB09C08CFB9BEC6BF07A
:105A6000000901E0FBD70F01150E526FB5EC6BF08A
:105A70008870A8EC6BF00009C3E00B01065101E04F
:105A80007FD0A8EC6BF0000911E08870B2EC6BF0ED
:105A90000B01016F0051030A32E0010A2DE0030AF5
:105AA00025E0010504E1010E006F1FD0E6D7040ECA
:105AB000015D11E1888018EC65F09BEC6BF000094A
:105AC00001E0FBD70F01060E526FB5EC6BF00B0136
:105AD000010E066F0AD09BEC6BF0000901E0FBD7CA
